{
  "contractName": "DoctorAddRecord",
  "abi": [
    {
      "anonymous": false,
      "inputs": [
        {
          "indexed": false,
          "internalType": "address",
          "name": "_doctor",
          "type": "address"
        },
        {
          "indexed": false,
          "internalType": "string",
          "name": "msg",
          "type": "string"
        },
        {
          "indexed": false,
          "internalType": "address",
          "name": "_patient",
          "type": "address"
        },
        {
          "indexed": false,
          "internalType": "uint256",
          "name": "gas_used",
          "type": "uint256"
        }
      ],
      "name": "doctorAddPatientFile",
      "type": "event"
    },
    {
      "anonymous": false,
      "inputs": [
        {
          "indexed": false,
          "internalType": "address",
          "name": "_doctor",
          "type": "address"
        },
        {
          "indexed": false,
          "internalType": "string",
          "name": "message",
          "type": "string"
        },
        {
          "indexed": false,
          "internalType": "address",
          "name": "_patient",
          "type": "address"
        },
        {
          "indexed": false,
          "internalType": "string",
          "name": "_consultation",
          "type": "string"
        },
        {
          "indexed": false,
          "internalType": "string",
          "name": "_medicine",
          "type": "string"
        },
        {
          "indexed": false,
          "internalType": "uint256",
          "name": "gas_used",
          "type": "uint256"
        }
      ],
      "name": "doctorOfferConsultation",
      "type": "event"
    },
    {
      "constant": false,
      "inputs": [
        {
          "internalType": "address",
          "name": "_pat",
          "type": "address"
        },
        {
          "internalType": "string",
          "name": "_file_name",
          "type": "string"
        },
        {
          "internalType": "string",
          "name": "_file_type",
          "type": "string"
        },
        {
          "internalType": "string",
          "name": "_file_hash",
          "type": "string"
        }
      ],
      "name": "doctorAddFiles",
      "outputs": [],
      "payable": false,
      "stateMutability": "nonpayable",
      "type": "function"
    },
    {
      "constant": true,
      "inputs": [
        {
          "internalType": "address",
          "name": "pat",
          "type": "address"
        }
      ],
      "name": "getDoctorAddedFiles",
      "outputs": [
        {
          "components": [
            {
              "internalType": "string",
              "name": "file_name",
              "type": "string"
            },
            {
              "internalType": "string",
              "name": "file_type",
              "type": "string"
            },
            {
              "internalType": "string",
              "name": "file_hash",
              "type": "string"
            },
            {
              "internalType": "address",
              "name": "doc_id",
              "type": "address"
            }
          ],
          "internalType": "struct DoctorAddRecord.doctorAddedFiles[]",
          "name": "",
          "type": "tuple[]"
        }
      ],
      "payable": false,
      "stateMutability": "view",
      "type": "function"
    },
    {
      "constant": false,
      "inputs": [
        {
          "internalType": "address",
          "name": "_pat",
          "type": "address"
        },
        {
          "internalType": "string",
          "name": "_consultation",
          "type": "string"
        },
        {
          "internalType": "string",
          "name": "_medicine",
          "type": "string"
        },
        {
          "internalType": "string",
          "name": "_time",
          "type": "string"
        }
      ],
      "name": "addDoctorOfferedConsultation",
      "outputs": [],
      "payable": false,
      "stateMutability": "nonpayable",
      "type": "function"
    },
    {
      "constant": true,
      "inputs": [
        {
          "internalType": "address",
          "name": "_pat",
          "type": "address"
        }
      ],
      "name": "getDoctorConsultation",
      "outputs": [
        {
          "components": [
            {
              "internalType": "address",
              "name": "doc_id",
              "type": "address"
            },
            {
              "internalType": "string",
              "name": "consultation_advice",
              "type": "string"
            },
            {
              "internalType": "string",
              "name": "medicine",
              "type": "string"
            },
            {
              "internalType": "string",
              "name": "time_period",
              "type": "string"
            }
          ],
          "internalType": "struct DoctorAddRecord.doctorOfferedConsultation[]",
          "name": "",
          "type": "tuple[]"
        }
      ],
      "payable": false,
      "stateMutability": "view",
      "type": "function"
    },
    {
      "constant": true,
      "inputs": [],
      "name": "getDoctorConsultationForPatient",
      "outputs": [
        {
          "components": [
            {
              "internalType": "address",
              "name": "doc_id",
              "type": "address"
            },
            {
              "internalType": "string",
              "name": "consultation_advice",
              "type": "string"
            },
            {
              "internalType": "string",
              "name": "medicine",
              "type": "string"
            },
            {
              "internalType": "string",
              "name": "time_period",
              "type": "string"
            }
          ],
          "internalType": "struct DoctorAddRecord.doctorOfferedConsultation[]",
          "name": "",
          "type": "tuple[]"
        }
      ],
      "payable": false,
      "stateMutability": "view",
      "type": "function"
    }
  ],
  "bytecode": "0x608060405234801561001057600080fd5b506114f6806100206000396000f3fe608060405234801561001057600080fd5b50600436106100575760003560e01c80630d37f6291461005c5780634257a5bc1461007a5780635d6a48e2146100aa5780636001bb48146100da578063abf2ddf1146100f6575b600080fd5b610064610112565b60405161007191906112b2565b60405180910390f35b610094600480360361008f9190810190610ddc565b6103ea565b6040516100a191906112b2565b60405180910390f35b6100c460048036036100bf9190810190610ddc565b6106c4565b6040516100d19190611290565b60405180910390f35b6100f460048036036100ef9190810190610e05565b61099d565b005b610110600480360361010b9190810190610e05565b610b33565b005b6060600260003373ffffffffffffffffffffffffffffffffffffffff1673ffffffffffffffffffffffffffffffffffffffff168152602001908152602001600020805480602002602001604051908101604052809291908181526020016000905b828210156103e157838290600052602060002090600402016040518060800160405290816000820160009054906101000a900473ffffffffffffffffffffffffffffffffffffffff1673ffffffffffffffffffffffffffffffffffffffff1673ffffffffffffffffffffffffffffffffffffffff168152602001600182018054600181600116156101000203166002900480601f0160208091040260200160405190810160405280929190818152602001828054600181600116156101000203166002900480156102855780601f1061025a57610100808354040283529160200191610285565b820191906000526020600020905b81548152906001019060200180831161026857829003601f168201915b50505050508152602001600282018054600181600116156101000203166002900480601f0160208091040260200160405190810160405280929190818152602001828054600181600116156101000203166002900480156103275780601f106102fc57610100808354040283529160200191610327565b820191906000526020600020905b81548152906001019060200180831161030a57829003601f168201915b50505050508152602001600382018054600181600116156101000203166002900480601f0160208091040260200160405190810160405280929190818152602001828054600181600116156101000203166002900480156103c95780601f1061039e576101008083540402835291602001916103c9565b820191906000526020600020905b8154815290600101906020018083116103ac57829003601f168201915b50505050508152505081526020019060010190610173565b50505050905090565b6060600260008373ffffffffffffffffffffffffffffffffffffffff1673ffffffffffffffffffffffffffffffffffffffff168152602001908152602001600020805480602002602001604051908101604052809291908181526020016000905b828210156106b957838290600052602060002090600402016040518060800160405290816000820160009054906101000a900473ffffffffffffffffffffffffffffffffffffffff1673ffffffffffffffffffffffffffffffffffffffff1673ffffffffffffffffffffffffffffffffffffffff168152602001600182018054600181600116156101000203166002900480601f01602080910402602001604051908101604052809291908181526020018280546001816001161561010002031660029004801561055d5780601f106105325761010080835404028352916020019161055d565b820191906000526020600020905b81548152906001019060200180831161054057829003601f168201915b50505050508152602001600282018054600181600116156101000203166002900480601f0160208091040260200160405190810160405280929190818152602001828054600181600116156101000203166002900480156105ff5780601f106105d4576101008083540402835291602001916105ff565b820191906000526020600020905b8154815290600101906020018083116105e257829003601f168201915b50505050508152602001600382018054600181600116156101000203166002900480601f0160208091040260200160405190810160405280929190818152602001828054600181600116156101000203166002900480156106a15780601f10610676576101008083540402835291602001916106a1565b820191906000526020600020905b81548152906001019060200180831161068457829003601f168201915b5050505050815250508152602001906001019061044b565b505050509050919050565b60606000808373ffffffffffffffffffffffffffffffffffffffff1673ffffffffffffffffffffffffffffffffffffffff168152602001908152602001600020805480602002602001604051908101604052809291908181526020016000905b828210156109925783829060005260206000209060040201604051806080016040529081600082018054600181600116156101000203166002900480601f0160208091040260200160405190810160405280929190818152602001828054600181600116156101000203166002900480156107e05780601f106107b5576101008083540402835291602001916107e0565b820191906000526020600020905b8154815290600101906020018083116107c357829003601f168201915b50505050508152602001600182018054600181600116156101000203166002900480601f0160208091040260200160405190810160405280929190818152602001828054600181600116156101000203166002900480156108825780601f1061085757610100808354040283529160200191610882565b820191906000526020600020905b81548152906001019060200180831161086557829003601f168201915b50505050508152602001600282018054600181600116156101000203166002900480601f0160208091040260200160405190810160405280929190818152602001828054600181600116156101000203166002900480156109245780601f106108f957610100808354040283529160200191610924565b820191906000526020600020905b81548152906001019060200180831161090757829003601f168201915b505050505081526020016003820160009054906101000a900473ffffffffffffffffffffffffffffffffffffffff1673ffffffffffffffffffffffffffffffffffffffff1673ffffffffffffffffffffffffffffffffffffffff168152505081526020019060010190610724565b505050509050919050565b60005a90506000808673ffffffffffffffffffffffffffffffffffffffff1673ffffffffffffffffffffffffffffffffffffffff16815260200190815260200160002060405180608001604052808681526020018581526020018481526020013373ffffffffffffffffffffffffffffffffffffffff16815250908060018154018082558091505090600182039060005260206000209060040201600090919290919091506000820151816000019080519060200190610a5e929190610cce565b506020820151816001019080519060200190610a7b929190610cce565b506040820151816002019080519060200190610a98929190610cce565b5060608201518160030160006101000a81548173ffffffffffffffffffffffffffffffffffffffff021916908373ffffffffffffffffffffffffffffffffffffffff16021790555050505060005a9050600081830390507fe367bc733c330daab45c7411eac01bc7b7960ac215e4f5972a03e8bbfb470ba8338883604051610b22939291906111d2565b60405180910390a150505050505050565b60005a9050600260008673ffffffffffffffffffffffffffffffffffffffff1673ffffffffffffffffffffffffffffffffffffffff16815260200190815260200160002060405180608001604052803373ffffffffffffffffffffffffffffffffffffffff168152602001868152602001858152602001848152509080600181540180825580915050906001820390600052602060002090600402016000909192909190915060008201518160000160006101000a81548173ffffffffffffffffffffffffffffffffffffffff021916908373ffffffffffffffffffffffffffffffffffffffff1602179055506020820151816001019080519060200190610c3c929190610cce565b506040820151816002019080519060200190610c59929190610cce565b506060820151816003019080519060200190610c76929190610cce565b5050505060005a9050600081830390507f3d58b74301bbde78514b8f035c05e9a72d7eb20be7f961b07f94e1b0b790bcbf3388888885604051610cbd95949392919061121c565b60405180910390a150505050505050565b828054600181600116156101000203166002900490600052602060002090601f016020900481019282601f10610d0f57805160ff1916838001178555610d3d565b82800160010185558215610d3d579182015b82811115610d3c578251825591602001919060010190610d21565b5b509050610d4a9190610d4e565b5090565b610d7091905b80821115610d6c576000816000905550600101610d54565b5090565b90565b600081359050610d828161149c565b92915050565b600082601f830112610d9957600080fd5b8135610dac610da782611301565b6112d4565b91508082526020830160208301858383011115610dc857600080fd5b610dd3838284611449565b50505092915050565b600060208284031215610dee57600080fd5b6000610dfc84828501610d73565b91505092915050565b60008060008060808587031215610e1b57600080fd5b6000610e2987828801610d73565b945050602085013567ffffffffffffffff811115610e4657600080fd5b610e5287828801610d88565b935050604085013567ffffffffffffffff811115610e6f57600080fd5b610e7b87828801610d88565b925050606085013567ffffffffffffffff811115610e9857600080fd5b610ea487828801610d88565b91505092959194509250565b6000610ebc83836110e1565b905092915050565b6000610ed08383611152565b905092915050565b610ee181611413565b82525050565b610ef0816113d7565b82525050565b610eff816113d7565b82525050565b6000610f108261134d565b610f1a8185611393565b935083602082028501610f2c8561132d565b8060005b85811015610f685784840389528151610f498582610eb0565b9450610f5483611379565b925060208a01995050600181019050610f30565b50829750879550505050505092915050565b6000610f8582611358565b610f8f81856113a4565b935083602082028501610fa18561133d565b8060005b85811015610fdd5784840389528151610fbe8582610ec4565b9450610fc983611386565b925060208a01995050600181019050610fa5565b50829750879550505050505092915050565b6000610ffa8261136e565b61100481856113c6565b9350611014818560208601611458565b61101d8161148b565b840191505092915050565b600061103382611363565b61103d81856113b5565b935061104d818560208601611458565b6110568161148b565b840191505092915050565b600061106e601e836113c6565b91507f416464656420612066696c6520746f2070617469656e74207265636f726400006000830152602082019050919050565b60006110ae6018836113c6565b91507f50726f766964656420636f6e73756c746174696f6e20746f00000000000000006000830152602082019050919050565b600060808301600083015184820360008601526110fe8282611028565b915050602083015184820360208601526111188282611028565b915050604083015184820360408601526111328282611028565b91505060608301516111476060860182610ee7565b508091505092915050565b600060808301600083015161116a6000860182610ee7565b50602083015184820360208601526111828282611028565b9150506040830151848203604086015261119c8282611028565b915050606083015184820360608601526111b68282611028565b9150508091505092915050565b6111cc81611409565b82525050565b60006080820190506111e76000830186610ed8565b81810360208301526111f881611061565b90506112076040830185610ef6565b61121460608301846111c3565b949350505050565b600060c0820190506112316000830188610ed8565b8181036020830152611242816110a1565b90506112516040830187610ef6565b81810360608301526112638186610fef565b905081810360808301526112778185610fef565b905061128660a08301846111c3565b9695505050505050565b600060208201905081810360008301526112aa8184610f05565b905092915050565b600060208201905081810360008301526112cc8184610f7a565b905092915050565b6000604051905081810181811067ffffffffffffffff821117156112f757600080fd5b8060405250919050565b600067ffffffffffffffff82111561131857600080fd5b601f19601f8301169050602081019050919050565b6000819050602082019050919050565b6000819050602082019050919050565b600081519050919050565b600081519050919050565b600081519050919050565b600081519050919050565b6000602082019050919050565b6000602082019050919050565b600082825260208201905092915050565b600082825260208201905092915050565b600082825260208201905092915050565b600082825260208201905092915050565b60006113e2826113e9565b9050919050565b600073ffffffffffffffffffffffffffffffffffffffff82169050919050565b6000819050919050565b600061141e82611425565b9050919050565b600061143082611437565b9050919050565b6000611442826113e9565b9050919050565b82818337600083830152505050565b60005b8381101561147657808201518184015260208101905061145b565b83811115611485576000848401525b50505050565b6000601f19601f8301169050919050565b6114a5816113d7565b81146114b057600080fd5b5056fea365627a7a7231582076c8a5340d9ff4c9aa6658f81bc6940d4289428c196bacb2002fbe1428dbf69a6c6578706572696d656e74616cf564736f6c63430005100040",
  "source": "\r\npragma solidity >=0.4.21 <0.7.0;\r\npragma experimental ABIEncoderV2;\r\n\r\ncontract DoctorAddRecord{\r\n\r\n  //--- patient mapped to files added by doctor ---\r\n  mapping (address => doctorAddedFiles[]) private doctorAddedPatientFiles;\r\n  mapping (address => uint256) balanceOf;\r\n  mapping (address => doctorOfferedConsultation[]) private doctorOfferedConsultationList;\r\n\r\n  // mapping (address => payment[]) makePayments;\r\n  // mapping (address => payment[]) receivedPayments;\r\n\r\n  // struct payment{\r\n  //   address to;\r\n  //   address from;\r\n  //   uint256 amount;\r\n  //   string context;\r\n  // }\r\n\r\n \r\n\r\n  struct doctorAddedFiles{\r\n    string file_name;\r\n    string file_type;\r\n    string file_hash;\r\n    address doc_id;\r\n  }\r\n\r\n  // structure for doctor offered consultation\r\n  struct doctorOfferedConsultation\r\n  {\r\n    address doc_id;\r\n    string consultation_advice;\r\n    string medicine;\r\n    string time_period;\r\n  }\r\n\r\n  event doctorAddPatientFile(address _doctor, string msg, address _patient, uint gas_used);\r\n  //--- function to add files from doctor end ---\r\n  function doctorAddFiles(address _pat, string memory _file_name, string memory _file_type,string memory _file_hash) public\r\n  {\r\n    uint256 startGas = gasleft();  \r\n\r\n    doctorAddedPatientFiles[_pat].push(doctorAddedFiles({file_name:_file_name, file_type:_file_type,file_hash:_file_hash, doc_id: msg.sender}));\r\n      \r\n    uint256 endGas = gasleft();\r\n    uint256 gas_used = startGas-endGas;\r\n    emit doctorAddPatientFile(msg.sender, \"Added a file to patient record\", _pat, gas_used);\r\n  }\r\n\r\n  function getDoctorAddedFiles(address pat) public view returns(doctorAddedFiles[] memory){\r\n    return (doctorAddedPatientFiles[pat]);\r\n  }\r\n\r\n\r\n  event doctorOfferConsultation(address _doctor, string message, address _patient, string _consultation, string _medicine, uint256 gas_used);\r\n\r\n  function addDoctorOfferedConsultation(address _pat, string memory _consultation, string memory _medicine, string  memory _time) public \r\n  {\r\n    uint256 startGas = gasleft();\r\n    doctorOfferedConsultationList[_pat].push(doctorOfferedConsultation({doc_id:msg.sender, consultation_advice:_consultation,medicine:_medicine,time_period:_time}));\r\n    \r\n    uint256 endGas = gasleft();\r\n    uint256 gas_used = startGas-endGas;\r\n    emit doctorOfferConsultation(msg.sender, \"Provided consultation to\", _pat, _consultation, _medicine, gas_used);\r\n  }\r\n\r\n  function getDoctorConsultation(address _pat)  public view returns (doctorOfferedConsultation[] memory){\r\n    return (doctorOfferedConsultationList[_pat]);\r\n  }\r\n\r\n  \r\n  function getDoctorConsultationForPatient()  public view returns (doctorOfferedConsultation[] memory){\r\n    return (doctorOfferedConsultationList[msg.sender]);\r\n  }\r\n  \r\n  // event transfer(address _from, uint256 _amount , address _to);\r\n  \r\n  // function transferSum(address _to, uint256 _amount, string _context) public \r\n  // {\r\n  //   require(_amount>0);\r\n  //   require(balanceOf[msg.sender] >= _amount);\r\n  //   balanceOf[msg.sender] -= _amount;\r\n  //   balanceOf[_to] += _amount;\r\n    \r\n  //   makePayments[msg.sender].push(payment({from: msg.sender, to: _to, amount: _amount, context: _context}));\r\n  //   receivedPayments[_to].push(payment({from: msg.sender, to: _to, amount: _amount, context: _context}));\r\n\r\n  //   emit transfer(msg.sender, _amount , _to);\r\n  // }\r\n\r\n  // function getMadePayments() public view returns (payment[] memory, uint256 )\r\n  // {\r\n  //   return (makePayments[msg.sender], balanceOf[msg.sender]);\r\n  // }\r\n\r\n  // function getReceivedPayments() public view returns (payment[] memory, uint256 )\r\n  // {\r\n  //   return (receivedPayments[msg.sender], balanceOf[msg.sender]);\r\n  // }\r\n  \r\n}",
  "sourcePath": "C:\\Users\\URVASHI\\OneDrive\\Desktop\\Mnnit files\\THESIS WORK\\Thesis project\\My_projects\\EHR using Blockchain 1.1\\contracts\\DoctorAddRecord.sol",
  "compiler": {
    "name": "solc",
    "version": "0.5.16+commit.9c3226ce.Emscripten.clang"
  },
  "schemaVersion": "3.4.4",
  "updatedAt": "2022-04-11T09:18:37.514Z",
  "networkType": "ethereum",
  "devdoc": {
    "methods": {}
  },
  "userdoc": {
    "methods": {}
  }
}