{
  "contractName": "DoctorAddRecord",
  "abi": [
    {
      "anonymous": false,
      "inputs": [
        {
          "indexed": false,
          "internalType": "address",
          "name": "_doctor",
          "type": "address"
        },
        {
          "indexed": false,
          "internalType": "string",
          "name": "msg",
          "type": "string"
        },
        {
          "indexed": false,
          "internalType": "address",
          "name": "_patient",
          "type": "address"
        },
        {
          "indexed": false,
          "internalType": "uint256",
          "name": "gas_used",
          "type": "uint256"
        }
      ],
      "name": "doctorAddPatientFile",
      "type": "event"
    },
    {
      "constant": false,
      "inputs": [
        {
          "internalType": "address",
          "name": "_pat",
          "type": "address"
        },
        {
          "internalType": "string",
          "name": "_file_name",
          "type": "string"
        },
        {
          "internalType": "string",
          "name": "_file_type",
          "type": "string"
        },
        {
          "internalType": "string",
          "name": "_file_hash",
          "type": "string"
        }
      ],
      "name": "doctorAddFiles",
      "outputs": [],
      "payable": false,
      "stateMutability": "nonpayable",
      "type": "function"
    },
    {
      "constant": true,
      "inputs": [
        {
          "internalType": "address",
          "name": "pat",
          "type": "address"
        }
      ],
      "name": "getDoctorAddedFiles",
      "outputs": [
        {
          "components": [
            {
              "internalType": "string",
              "name": "file_name",
              "type": "string"
            },
            {
              "internalType": "string",
              "name": "file_type",
              "type": "string"
            },
            {
              "internalType": "string",
              "name": "file_hash",
              "type": "string"
            },
            {
              "internalType": "address",
              "name": "doc_id",
              "type": "address"
            }
          ],
          "internalType": "struct DoctorAddRecord.doctorAddedFiles[]",
          "name": "",
          "type": "tuple[]"
        }
      ],
      "payable": false,
      "stateMutability": "view",
      "type": "function"
    }
  ],
  "bytecode": "0x608060405234801561001057600080fd5b50610ad1806100206000396000f3fe608060405234801561001057600080fd5b50600436106100365760003560e01c80635d6a48e21461003b5780636001bb481461006b575b600080fd5b61005560048036036100509190810190610604565b610087565b60405161006291906108d1565b60405180910390f35b6100856004803603610080919081019061062d565b610360565b005b60606000808373ffffffffffffffffffffffffffffffffffffffff1673ffffffffffffffffffffffffffffffffffffffff168152602001908152602001600020805480602002602001604051908101604052809291908181526020016000905b828210156103555783829060005260206000209060040201604051806080016040529081600082018054600181600116156101000203166002900480601f0160208091040260200160405190810160405280929190818152602001828054600181600116156101000203166002900480156101a35780601f10610178576101008083540402835291602001916101a3565b820191906000526020600020905b81548152906001019060200180831161018657829003601f168201915b50505050508152602001600182018054600181600116156101000203166002900480601f0160208091040260200160405190810160405280929190818152602001828054600181600116156101000203166002900480156102455780601f1061021a57610100808354040283529160200191610245565b820191906000526020600020905b81548152906001019060200180831161022857829003601f168201915b50505050508152602001600282018054600181600116156101000203166002900480601f0160208091040260200160405190810160405280929190818152602001828054600181600116156101000203166002900480156102e75780601f106102bc576101008083540402835291602001916102e7565b820191906000526020600020905b8154815290600101906020018083116102ca57829003601f168201915b505050505081526020016003820160009054906101000a900473ffffffffffffffffffffffffffffffffffffffff1673ffffffffffffffffffffffffffffffffffffffff1673ffffffffffffffffffffffffffffffffffffffff1681525050815260200190600101906100e7565b505050509050919050565b60005a90506000808673ffffffffffffffffffffffffffffffffffffffff1673ffffffffffffffffffffffffffffffffffffffff16815260200190815260200160002060405180608001604052808681526020018581526020018481526020013373ffffffffffffffffffffffffffffffffffffffff168152509080600181540180825580915050906001820390600052602060002090600402016000909192909190915060008201518160000190805190602001906104219291906104f6565b50602082015181600101908051906020019061043e9291906104f6565b50604082015181600201908051906020019061045b9291906104f6565b5060608201518160030160006101000a81548173ffffffffffffffffffffffffffffffffffffffff021916908373ffffffffffffffffffffffffffffffffffffffff16021790555050505060005a9050600081830390507fe367bc733c330daab45c7411eac01bc7b7960ac215e4f5972a03e8bbfb470ba83388836040516104e593929190610887565b60405180910390a150505050505050565b828054600181600116156101000203166002900490600052602060002090601f016020900481019282601f1061053757805160ff1916838001178555610565565b82800160010185558215610565579182015b82811115610564578251825591602001919060010190610549565b5b5090506105729190610576565b5090565b61059891905b8082111561059457600081600090555060010161057c565b5090565b90565b6000813590506105aa81610a77565b92915050565b600082601f8301126105c157600080fd5b81356105d46105cf82610920565b6108f3565b915080825260208301602083018583830111156105f057600080fd5b6105fb838284610a24565b50505092915050565b60006020828403121561061657600080fd5b60006106248482850161059b565b91505092915050565b6000806000806080858703121561064357600080fd5b60006106518782880161059b565b945050602085013567ffffffffffffffff81111561066e57600080fd5b61067a878288016105b0565b935050604085013567ffffffffffffffff81111561069757600080fd5b6106a3878288016105b0565b925050606085013567ffffffffffffffff8111156106c057600080fd5b6106cc878288016105b0565b91505092959194509250565b60006106e48383610807565b905092915050565b6106f5816109ee565b82525050565b610704816109b2565b82525050565b610713816109b2565b82525050565b60006107248261095c565b61072e818561097f565b9350836020820285016107408561094c565b8060005b8581101561077c578484038952815161075d85826106d8565b945061076883610972565b925060208a01995050600181019050610744565b50829750879550505050505092915050565b600061079982610967565b6107a38185610990565b93506107b3818560208601610a33565b6107bc81610a66565b840191505092915050565b60006107d4601e836109a1565b91507f416464656420612066696c6520746f2070617469656e74207265636f726400006000830152602082019050919050565b60006080830160008301518482036000860152610824828261078e565b9150506020830151848203602086015261083e828261078e565b91505060408301518482036040860152610858828261078e565b915050606083015161086d60608601826106fb565b508091505092915050565b610881816109e4565b82525050565b600060808201905061089c60008301866106ec565b81810360208301526108ad816107c7565b90506108bc604083018561070a565b6108c96060830184610878565b949350505050565b600060208201905081810360008301526108eb8184610719565b905092915050565b6000604051905081810181811067ffffffffffffffff8211171561091657600080fd5b8060405250919050565b600067ffffffffffffffff82111561093757600080fd5b601f19601f8301169050602081019050919050565b6000819050602082019050919050565b600081519050919050565b600081519050919050565b6000602082019050919050565b600082825260208201905092915050565b600082825260208201905092915050565b600082825260208201905092915050565b60006109bd826109c4565b9050919050565b600073ffffffffffffffffffffffffffffffffffffffff82169050919050565b6000819050919050565b60006109f982610a00565b9050919050565b6000610a0b82610a12565b9050919050565b6000610a1d826109c4565b9050919050565b82818337600083830152505050565b60005b83811015610a51578082015181840152602081019050610a36565b83811115610a60576000848401525b50505050565b6000601f19601f8301169050919050565b610a80816109b2565b8114610a8b57600080fd5b5056fea365627a7a72315820d7f76964b242c8c7bfb95c697c4a790a5de339cbda192f13a30e3ed05f611bfa6c6578706572696d656e74616cf564736f6c63430005100040",
  "source": "\r\npragma solidity >=0.4.21 <0.7.0;\r\npragma experimental ABIEncoderV2;\r\n\r\ncontract DoctorAddRecord{\r\n\r\n  //--- patient mapped to files added by doctor ---\r\n  mapping (address => doctorAddedFiles[]) private doctorAddedPatientFiles;\r\n\r\n  struct doctorAddedFiles{\r\n    string file_name;\r\n    string file_type;\r\n    string file_hash;\r\n    address doc_id;\r\n  }\r\n\r\n  event doctorAddPatientFile(address _doctor, string msg, address _patient, uint gas_used);\r\n  //--- function to add files from doctor end ---\r\n  function doctorAddFiles(address _pat, string memory _file_name, string memory _file_type,string memory _file_hash) public\r\n  {\r\n    uint256 startGas = gasleft();  \r\n\r\n    doctorAddedPatientFiles[_pat].push(doctorAddedFiles({file_name:_file_name, file_type:_file_type,file_hash:_file_hash, doc_id: msg.sender}));\r\n      \r\n    uint256 endGas = gasleft();\r\n    uint256 gas_used = startGas-endGas;\r\n    emit doctorAddPatientFile(msg.sender, \"Added a file to patient record\", _pat, gas_used);\r\n  }\r\n\r\n  function getDoctorAddedFiles(address pat) public view returns(doctorAddedFiles[] memory){\r\n      return (doctorAddedPatientFiles[pat]);\r\n    }  \r\n}",
  "sourcePath": "C:\\Users\\URVASHI\\OneDrive\\Desktop\\Mnnit files\\THESIS WORK\\Thesis project\\My_projects\\EHR using Blockchain 1.1\\contracts\\DoctorAddRecord.sol",
  "compiler": {
    "name": "solc",
    "version": "0.5.16+commit.9c3226ce.Emscripten.clang"
  },
  "schemaVersion": "3.4.4",
  "updatedAt": "2022-03-30T06:04:40.671Z",
  "networkType": "ethereum",
  "devdoc": {
    "methods": {}
  },
  "userdoc": {
    "methods": {}
  }
}