{
  "contractName": "DoctorAddRecord",
  "abi": [
    {
      "anonymous": false,
      "inputs": [
        {
          "indexed": false,
          "internalType": "address",
          "name": "_doctor",
          "type": "address"
        },
        {
          "indexed": false,
          "internalType": "string",
          "name": "msg",
          "type": "string"
        },
        {
          "indexed": false,
          "internalType": "address",
          "name": "_patient",
          "type": "address"
        },
        {
          "indexed": false,
          "internalType": "uint256",
          "name": "gas_used",
          "type": "uint256"
        }
      ],
      "name": "doctorAddPatientFile",
      "type": "event"
    },
    {
      "anonymous": false,
      "inputs": [
        {
          "indexed": false,
          "internalType": "address",
          "name": "_doctor",
          "type": "address"
        },
        {
          "indexed": false,
          "internalType": "string",
          "name": "message",
          "type": "string"
        },
        {
          "indexed": false,
          "internalType": "address",
          "name": "_patient",
          "type": "address"
        },
        {
          "indexed": false,
          "internalType": "string",
          "name": "_consultation",
          "type": "string"
        },
        {
          "indexed": false,
          "internalType": "string",
          "name": "_medicine",
          "type": "string"
        },
        {
          "indexed": false,
          "internalType": "uint256",
          "name": "gas_used",
          "type": "uint256"
        }
      ],
      "name": "doctorOfferConsultation",
      "type": "event"
    },
    {
      "constant": false,
      "inputs": [
        {
          "internalType": "address",
          "name": "_pat",
          "type": "address"
        },
        {
          "internalType": "string",
          "name": "_file_name",
          "type": "string"
        },
        {
          "internalType": "string",
          "name": "_file_type",
          "type": "string"
        },
        {
          "internalType": "string",
          "name": "_file_hash",
          "type": "string"
        }
      ],
      "name": "doctorAddFiles",
      "outputs": [],
      "payable": false,
      "stateMutability": "nonpayable",
      "type": "function"
    },
    {
      "constant": true,
      "inputs": [
        {
          "internalType": "address",
          "name": "pat",
          "type": "address"
        }
      ],
      "name": "getDoctorAddedFiles",
      "outputs": [
        {
          "components": [
            {
              "internalType": "string",
              "name": "file_name",
              "type": "string"
            },
            {
              "internalType": "string",
              "name": "file_type",
              "type": "string"
            },
            {
              "internalType": "string",
              "name": "file_hash",
              "type": "string"
            },
            {
              "internalType": "address",
              "name": "doc_id",
              "type": "address"
            }
          ],
          "internalType": "struct DoctorAddRecord.doctorAddedFiles[]",
          "name": "",
          "type": "tuple[]"
        }
      ],
      "payable": false,
      "stateMutability": "view",
      "type": "function"
    },
    {
      "constant": false,
      "inputs": [
        {
          "internalType": "address",
          "name": "_pat",
          "type": "address"
        },
        {
          "internalType": "string",
          "name": "_consultation",
          "type": "string"
        },
        {
          "internalType": "string",
          "name": "_medicine",
          "type": "string"
        },
        {
          "internalType": "string",
          "name": "_time",
          "type": "string"
        }
      ],
      "name": "addDoctorOfferedConsultation",
      "outputs": [],
      "payable": false,
      "stateMutability": "nonpayable",
      "type": "function"
    },
    {
      "constant": true,
      "inputs": [
        {
          "internalType": "address",
          "name": "_pat",
          "type": "address"
        }
      ],
      "name": "getDoctorConsultation",
      "outputs": [
        {
          "components": [
            {
              "internalType": "address",
              "name": "doc_id",
              "type": "address"
            },
            {
              "internalType": "string",
              "name": "consultation_advice",
              "type": "string"
            },
            {
              "internalType": "string",
              "name": "medicine",
              "type": "string"
            },
            {
              "internalType": "string",
              "name": "time_period",
              "type": "string"
            }
          ],
          "internalType": "struct DoctorAddRecord.doctorOfferedConsultation[]",
          "name": "",
          "type": "tuple[]"
        }
      ],
      "payable": false,
      "stateMutability": "view",
      "type": "function"
    },
    {
      "constant": true,
      "inputs": [],
      "name": "getDoctorConsultationForPatient",
      "outputs": [
        {
          "components": [
            {
              "internalType": "address",
              "name": "doc_id",
              "type": "address"
            },
            {
              "internalType": "string",
              "name": "consultation_advice",
              "type": "string"
            },
            {
              "internalType": "string",
              "name": "medicine",
              "type": "string"
            },
            {
              "internalType": "string",
              "name": "time_period",
              "type": "string"
            }
          ],
          "internalType": "struct DoctorAddRecord.doctorOfferedConsultation[]",
          "name": "",
          "type": "tuple[]"
        }
      ],
      "payable": false,
      "stateMutability": "view",
      "type": "function"
    }
  ],
  "bytecode": "0x608060405234801561001057600080fd5b506110c7806100206000396000f3fe608060405234801561001057600080fd5b5060043610610084576000357c0100000000000000000000000000000000000000000000000000000000900480635d6a48e21161006d5780635d6a48e2146100ba5780636001bb48146100da578063abf2ddf1146100ef57610084565b80630d37f629146100895780634257a5bc146100a7575b600080fd5b610091610102565b60405161009e9190610f85565b60405180910390f35b6100916100b5366004610b72565b610349565b6100cd6100c8366004610b72565b6105a7565b60405161009e9190610f74565b6100ed6100e8366004610b98565b610802565b005b6100ed6100fd366004610b98565b61094c565b336000908152600260209081526040808320805482518185028101850190935280835260609492939192909184015b8282101561033f5760008481526020908190206040805160808101825260048602909201805473ffffffffffffffffffffffffffffffffffffffff168352600180820180548451600261010094831615949094026000190190911692909204601f8101879004870283018701909452838252939491938583019391929091908301828280156102015780601f106101d657610100808354040283529160200191610201565b820191906000526020600020905b8154815290600101906020018083116101e457829003601f168201915b5050509183525050600282810180546040805160206001841615610100026000190190931694909404601f810183900483028501830190915280845293810193908301828280156102935780601f1061026857610100808354040283529160200191610293565b820191906000526020600020905b81548152906001019060200180831161027657829003601f168201915b505050918352505060038201805460408051602060026001851615610100026000190190941693909304601f81018490048402820184019092528181529382019392918301828280156103275780601f106102fc57610100808354040283529160200191610327565b820191906000526020600020905b81548152906001019060200180831161030a57829003601f168201915b50505050508152505081526020019060010190610131565b5050505090505b90565b73ffffffffffffffffffffffffffffffffffffffff81166000908152600260209081526040808320805482518185028101850190935280835260609492939192909184015b8282101561059c5760008481526020908190206040805160808101825260048602909201805473ffffffffffffffffffffffffffffffffffffffff168352600180820180548451600261010094831615949094026000190190911692909204601f81018790048702830187019094528382529394919385830193919290919083018282801561045e5780601f106104335761010080835404028352916020019161045e565b820191906000526020600020905b81548152906001019060200180831161044157829003601f168201915b5050509183525050600282810180546040805160206001841615610100026000190190931694909404601f810183900483028501830190915280845293810193908301828280156104f05780601f106104c5576101008083540402835291602001916104f0565b820191906000526020600020905b8154815290600101906020018083116104d357829003601f168201915b505050918352505060038201805460408051602060026001851615610100026000190190941693909304601f81018490048402820184019092528181529382019392918301828280156105845780601f1061055957610100808354040283529160200191610584565b820191906000526020600020905b81548152906001019060200180831161056757829003601f168201915b5050505050815250508152602001906001019061038e565b505050509050919050565b73ffffffffffffffffffffffffffffffffffffffff8116600090815260208181526040808320805482518185028101850190935280835260609492939192909184015b8282101561059c5760008481526020908190206040805160048602909201805460026001821615610100026000190190911604601f8101859004909402830160a090810190925260808301848152929390928492909184918401828280156106935780601f1061066857610100808354040283529160200191610693565b820191906000526020600020905b81548152906001019060200180831161067657829003601f168201915b50505050508152602001600182018054600181600116156101000203166002900480601f0160208091040260200160405190810160405280929190818152602001828054600181600116156101000203166002900480156107355780601f1061070a57610100808354040283529160200191610735565b820191906000526020600020905b81548152906001019060200180831161071857829003601f168201915b5050509183525050600282810180546040805160206001841615610100026000190190931694909404601f810183900483028501830190915280845293810193908301828280156107c75780601f1061079c576101008083540402835291602001916107c7565b820191906000526020600020905b8154815290600101906020018083116107aa57829003601f168201915b50505091835250506003919091015473ffffffffffffffffffffffffffffffffffffffff1660209182015290825260019290920191016105ea565b60005a73ffffffffffffffffffffffffffffffffffffffff86166000908152602081815260408083208151608081018352898152808401899052918201879052336060830152805460018101808355918552938390208251805196975091959294600402019261087792849290910190610a75565b5060208281015180516108909260018501920190610a75565b50604082015180516108ac916002840191602090910190610a75565b5060609190910151600390910180547fffffffffffffffffffffffff00000000000000000000000000000000000000001673ffffffffffffffffffffffffffffffffffffffff9092169190911790555060005a9050600081830390507fe367bc733c330daab45c7411eac01bc7b7960ac215e4f5972a03e8bbfb470ba833888360405161093b93929190610ecc565b60405180910390a150505050505050565b60005a73ffffffffffffffffffffffffffffffffffffffff868116600090815260026020908152604080832081516080810183523381528084018b81529281018a9052606081018990528154600180820180855593875295859020825160049092020180547fffffffffffffffffffffffff000000000000000000000000000000000000000016919097161786559151805196975090959194936109f69390850192910190610a75565b5060408201518051610a12916002840191602090910190610a75565b5060608201518051610a2e916003840191602090910190610a75565b5050505060005a9050600081830390507f3d58b74301bbde78514b8f035c05e9a72d7eb20be7f961b07f94e1b0b790bcbf338888888560405161093b959493929190610f07565b828054600181600116156101000203166002900490600052602060002090601f016020900481019282601f10610ab657805160ff1916838001178555610ae3565b82800160010185558215610ae3579182015b82811115610ae3578251825591602001919060010190610ac8565b50610aef929150610af3565b5090565b61034691905b80821115610aef5760008155600101610af9565b8035610b188161106d565b92915050565b600082601f830112610b2f57600080fd5b8135610b42610b3d82610fbd565b610f96565b91508082526020830160208301858383011115610b5e57600080fd5b610b69838284611027565b50505092915050565b600060208284031215610b8457600080fd5b6000610b908484610b0d565b949350505050565b60008060008060808587031215610bae57600080fd5b6000610bba8787610b0d565b945050602085013567ffffffffffffffff811115610bd757600080fd5b610be387828801610b1e565b935050604085013567ffffffffffffffff811115610c0057600080fd5b610c0c87828801610b1e565b925050606085013567ffffffffffffffff811115610c2957600080fd5b610c3587828801610b1e565b91505092959194509250565b6000610c4d8383610df1565b9392505050565b6000610c4d8383610e5a565b610c6981611016565b82525050565b610c6981610ff8565b6000610c8382610feb565b610c8d8185610fef565b935083602082028501610c9f85610fe5565b8060005b85811015610cd95784840389528151610cbc8582610c41565b9450610cc783610fe5565b60209a909a0199925050600101610ca3565b5091979650505050505050565b6000610cf182610feb565b610cfb8185610fef565b935083602082028501610d0d85610fe5565b8060005b85811015610cd95784840389528151610d2a8582610c54565b9450610d3583610fe5565b60209a909a0199925050600101610d11565b6000610d5282610feb565b610d5c8185610fef565b9350610d6c818560208601611033565b610d7581611063565b9093019392505050565b6000610d8c601e83610fef565b7f416464656420612066696c6520746f2070617469656e74207265636f72640000815260200192915050565b6000610dc5601883610fef565b7f50726f766964656420636f6e73756c746174696f6e20746f0000000000000000815260200192915050565b8051608080845260009190840190610e098282610d47565b91505060208301518482036020860152610e238282610d47565b91505060408301518482036040860152610e3d8282610d47565b9150506060830151610e526060860182610c6f565b509392505050565b80516000906080840190610e6e8582610c6f565b5060208301518482036020860152610e868282610d47565b91505060408301518482036040860152610ea08282610d47565b91505060608301518482036060860152610eba8282610d47565b95945050505050565b610c6981610346565b60808101610eda8286610c60565b8181036020830152610eeb81610d7f565b9050610efa6040830185610c6f565b610b906060830184610ec3565b60c08101610f158288610c60565b8181036020830152610f2681610db8565b9050610f356040830187610c6f565b8181036060830152610f478186610d47565b90508181036080830152610f5b8185610d47565b9050610f6a60a0830184610ec3565b9695505050505050565b60208082528101610c4d8184610c78565b60208082528101610c4d8184610ce6565b60405181810167ffffffffffffffff81118282101715610fb557600080fd5b604052919050565b600067ffffffffffffffff821115610fd457600080fd5b506020601f91909101601f19160190565b60200190565b5190565b90815260200190565b600073ffffffffffffffffffffffffffffffffffffffff8216610b18565b6000610b18826000610b1882610ff8565b82818337506000910152565b60005b8381101561104e578181015183820152602001611036565b8381111561105d576000848401525b50505050565b601f01601f191690565b61107681610ff8565b811461108157600080fd5b5056fea365627a7a72315820c3d99168a324498611601d3d7efbf8c7030004b766cd51276d884f1b85bce1c96c6578706572696d656e74616cf564736f6c63430005110040",
  "source": "\r\npragma solidity >=0.4.21 <0.7.0;\r\npragma experimental ABIEncoderV2;\r\n \r\ncontract DoctorAddRecord{\r\n\r\n  //--- patient mapped to files added by doctor ---\r\n  mapping (address => doctorAddedFiles[]) private doctorAddedPatientFiles;\r\n  mapping (address => uint256) balanceOf;\r\n  mapping (address => doctorOfferedConsultation[]) private doctorOfferedConsultationList;\r\n\r\n  // mapping (address => payment[]) makePayments;\r\n  // mapping (address => payment[]) receivedPayments;\r\n\r\n  // struct payment{\r\n  //   address to;\r\n  //   address from;\r\n  //   uint256 amount;\r\n  //   string context;\r\n  // }\r\n\r\n \r\n\r\n  struct doctorAddedFiles{\r\n    string file_name;\r\n    string file_type;\r\n    string file_hash;\r\n    address doc_id;\r\n  }\r\n\r\n  // structure for doctor offered consultation\r\n  struct doctorOfferedConsultation\r\n  {\r\n    address doc_id;\r\n    string consultation_advice;\r\n    string medicine;\r\n    string time_period;\r\n  }\r\n\r\n  event doctorAddPatientFile(address _doctor, string msg, address _patient, uint gas_used);\r\n  //--- function to add files from doctor end ---\r\n  function doctorAddFiles(address _pat, string memory _file_name, string memory _file_type,string memory _file_hash) public\r\n  {\r\n    uint256 startGas = gasleft();  \r\n\r\n    doctorAddedPatientFiles[_pat].push(doctorAddedFiles({file_name:_file_name, file_type:_file_type,file_hash:_file_hash, doc_id: msg.sender}));\r\n      \r\n    uint256 endGas = gasleft();\r\n    uint256 gas_used = startGas-endGas;\r\n    emit doctorAddPatientFile(msg.sender, \"Added a file to patient record\", _pat, gas_used);\r\n  }\r\n\r\n  function getDoctorAddedFiles(address pat) public view returns(doctorAddedFiles[] memory){\r\n    return (doctorAddedPatientFiles[pat]);\r\n  }\r\n\r\n\r\n  event doctorOfferConsultation(address _doctor, string message, address _patient, string _consultation, string _medicine, uint256 gas_used);\r\n\r\n  function addDoctorOfferedConsultation(address _pat, string memory _consultation, string memory _medicine, string  memory _time) public \r\n  {\r\n    uint256 startGas = gasleft();\r\n    doctorOfferedConsultationList[_pat].push(doctorOfferedConsultation({doc_id:msg.sender, consultation_advice:_consultation,medicine:_medicine,time_period:_time}));\r\n    \r\n    uint256 endGas = gasleft();\r\n    uint256 gas_used = startGas-endGas;\r\n    emit doctorOfferConsultation(msg.sender, \"Provided consultation to\", _pat, _consultation, _medicine, gas_used);\r\n  }\r\n\r\n  function getDoctorConsultation(address _pat)  public view returns (doctorOfferedConsultation[] memory){\r\n    return (doctorOfferedConsultationList[_pat]);\r\n  }\r\n\r\n  \r\n  function getDoctorConsultationForPatient()  public view returns (doctorOfferedConsultation[] memory){\r\n    return (doctorOfferedConsultationList[msg.sender]);\r\n  }\r\n  \r\n  // event transfer(address _from, uint256 _amount , address _to);\r\n  \r\n  // function transferSum(address _to, uint256 _amount, string _context) public \r\n  // {\r\n  //   require(_amount>0);\r\n  //   require(balanceOf[msg.sender] >= _amount);\r\n  //   balanceOf[msg.sender] -= _amount;\r\n  //   balanceOf[_to] += _amount;\r\n    \r\n  //   makePayments[msg.sender].push(payment({from: msg.sender, to: _to, amount: _amount, context: _context}));\r\n  //   receivedPayments[_to].push(payment({from: msg.sender, to: _to, amount: _amount, context: _context}));\r\n\r\n  //   emit transfer(msg.sender, _amount , _to);\r\n  // }\r\n\r\n  // function getMadePayments() public view returns (payment[] memory, uint256 )\r\n  // {\r\n  //   return (makePayments[msg.sender], balanceOf[msg.sender]);\r\n  // }\r\n\r\n  // function getReceivedPayments() public view returns (payment[] memory, uint256 )\r\n  // {\r\n  //   return (receivedPayments[msg.sender], balanceOf[msg.sender]);\r\n  // }\r\n  \r\n}",
  "sourcePath": "C:\\Users\\URVASHI\\OneDrive\\Desktop\\Mnnit files\\THESIS WORK\\Thesis project\\My_projects\\EHR using Blockchain 1.1\\contracts\\DoctorAddRecord.sol",
  "compiler": {
    "name": "solc",
    "version": "0.5.17+commit.d19bba13.Emscripten.clang"
  },
  "schemaVersion": "3.4.4",
  "updatedAt": "2022-05-10T17:18:59.413Z",
  "networkType": "ethereum",
  "devdoc": {
    "methods": {}
  },
  "userdoc": {
    "methods": {}
  }
}