{
  "contractName": "optimized_healthCare",
  "abi": [
    {
      "inputs": [],
      "payable": false,
      "stateMutability": "nonpayable",
      "type": "constructor"
    },
    {
      "anonymous": false,
      "inputs": [
        {
          "indexed": false,
          "internalType": "address",
          "name": "_doctor",
          "type": "address"
        },
        {
          "indexed": false,
          "internalType": "string",
          "name": "message",
          "type": "string"
        }
      ],
      "name": "doctorSignUp",
      "type": "event"
    },
    {
      "anonymous": false,
      "inputs": [
        {
          "indexed": false,
          "internalType": "address",
          "name": "patient_address",
          "type": "address"
        },
        {
          "indexed": false,
          "internalType": "string",
          "name": "message",
          "type": "string"
        },
        {
          "indexed": false,
          "internalType": "string",
          "name": "_doctor",
          "type": "string"
        },
        {
          "indexed": false,
          "internalType": "address",
          "name": "doctor_address",
          "type": "address"
        }
      ],
      "name": "grantDoctorAccess",
      "type": "event"
    },
    {
      "anonymous": false,
      "inputs": [
        {
          "indexed": false,
          "internalType": "address",
          "name": "_patient",
          "type": "address"
        },
        {
          "indexed": false,
          "internalType": "string",
          "name": "message",
          "type": "string"
        }
      ],
      "name": "patientSignUp",
      "type": "event"
    },
    {
      "anonymous": false,
      "inputs": [
        {
          "indexed": false,
          "internalType": "address",
          "name": "patient_address",
          "type": "address"
        },
        {
          "indexed": false,
          "internalType": "string",
          "name": "message",
          "type": "string"
        },
        {
          "indexed": false,
          "internalType": "string",
          "name": "_doctor",
          "type": "string"
        },
        {
          "indexed": false,
          "internalType": "address",
          "name": "doctor_address",
          "type": "address"
        }
      ],
      "name": "revokeDoctorAccess",
      "type": "event"
    },
    {
      "constant": true,
      "inputs": [],
      "name": "doctorAddRecord",
      "outputs": [
        {
          "internalType": "contract DoctorAddRecord",
          "name": "",
          "type": "address"
        }
      ],
      "payable": false,
      "stateMutability": "view",
      "type": "function"
    },
    {
      "constant": false,
      "inputs": [
        {
          "internalType": "address",
          "name": "_id",
          "type": "address"
        },
        {
          "internalType": "string",
          "name": "_name",
          "type": "string"
        },
        {
          "internalType": "string",
          "name": "_location",
          "type": "string"
        }
      ],
      "name": "hospitalSignUp",
      "outputs": [],
      "payable": false,
      "stateMutability": "nonpayable",
      "type": "function"
    },
    {
      "constant": false,
      "inputs": [
        {
          "internalType": "string",
          "name": "_name",
          "type": "string"
        },
        {
          "internalType": "uint8",
          "name": "_age",
          "type": "uint8"
        },
        {
          "internalType": "string",
          "name": "_contact",
          "type": "string"
        },
        {
          "internalType": "string",
          "name": "_gender",
          "type": "string"
        }
      ],
      "name": "signupPatient",
      "outputs": [],
      "payable": false,
      "stateMutability": "nonpayable",
      "type": "function"
    },
    {
      "constant": false,
      "inputs": [
        {
          "internalType": "string",
          "name": "_name",
          "type": "string"
        },
        {
          "internalType": "string",
          "name": "_address",
          "type": "string"
        },
        {
          "internalType": "string",
          "name": "_contact",
          "type": "string"
        },
        {
          "internalType": "string",
          "name": "_specialization",
          "type": "string"
        }
      ],
      "name": "signupDoctor",
      "outputs": [],
      "payable": false,
      "stateMutability": "nonpayable",
      "type": "function"
    },
    {
      "constant": false,
      "inputs": [
        {
          "internalType": "address",
          "name": "doctor_id",
          "type": "address"
        }
      ],
      "name": "grantAccessToDoctor",
      "outputs": [],
      "payable": false,
      "stateMutability": "nonpayable",
      "type": "function"
    },
    {
      "constant": false,
      "inputs": [
        {
          "internalType": "address",
          "name": "doctor_id",
          "type": "address"
        }
      ],
      "name": "revokeAccessFromDoctor",
      "outputs": [],
      "payable": false,
      "stateMutability": "nonpayable",
      "type": "function"
    },
    {
      "constant": false,
      "inputs": [
        {
          "internalType": "string",
          "name": "_file_name",
          "type": "string"
        },
        {
          "internalType": "string",
          "name": "_file_type",
          "type": "string"
        },
        {
          "internalType": "string",
          "name": "_file_hash",
          "type": "string"
        }
      ],
      "name": "addUserFiles",
      "outputs": [],
      "payable": false,
      "stateMutability": "nonpayable",
      "type": "function"
    },
    {
      "constant": true,
      "inputs": [
        {
          "internalType": "address",
          "name": "sender",
          "type": "address"
        }
      ],
      "name": "getUserFiles",
      "outputs": [
        {
          "components": [
            {
              "internalType": "string",
              "name": "file_name",
              "type": "string"
            },
            {
              "internalType": "string",
              "name": "file_type",
              "type": "string"
            },
            {
              "internalType": "string",
              "name": "file_hash",
              "type": "string"
            }
          ],
          "internalType": "struct optimized_healthCare.files[]",
          "name": "",
          "type": "tuple[]"
        }
      ],
      "payable": false,
      "stateMutability": "view",
      "type": "function"
    },
    {
      "constant": true,
      "inputs": [],
      "name": "getPatientInfo",
      "outputs": [
        {
          "internalType": "string",
          "name": "",
          "type": "string"
        },
        {
          "internalType": "address",
          "name": "",
          "type": "address"
        },
        {
          "internalType": "uint8",
          "name": "",
          "type": "uint8"
        },
        {
          "internalType": "bytes32[]",
          "name": "",
          "type": "bytes32[]"
        },
        {
          "internalType": "address[]",
          "name": "",
          "type": "address[]"
        }
      ],
      "payable": false,
      "stateMutability": "view",
      "type": "function"
    },
    {
      "constant": true,
      "inputs": [],
      "name": "getDoctorInfo",
      "outputs": [
        {
          "internalType": "string",
          "name": "",
          "type": "string"
        },
        {
          "internalType": "address",
          "name": "",
          "type": "address"
        },
        {
          "internalType": "address[]",
          "name": "",
          "type": "address[]"
        }
      ],
      "payable": false,
      "stateMutability": "view",
      "type": "function"
    },
    {
      "constant": true,
      "inputs": [
        {
          "internalType": "address",
          "name": "pat",
          "type": "address"
        }
      ],
      "name": "getPatientInfoForDoctor",
      "outputs": [
        {
          "internalType": "string",
          "name": "",
          "type": "string"
        },
        {
          "internalType": "uint8",
          "name": "",
          "type": "uint8"
        },
        {
          "internalType": "address",
          "name": "",
          "type": "address"
        },
        {
          "components": [
            {
              "internalType": "string",
              "name": "file_name",
              "type": "string"
            },
            {
              "internalType": "string",
              "name": "file_type",
              "type": "string"
            },
            {
              "internalType": "string",
              "name": "file_hash",
              "type": "string"
            }
          ],
          "internalType": "struct optimized_healthCare.files[]",
          "name": "",
          "type": "tuple[]"
        }
      ],
      "payable": false,
      "stateMutability": "view",
      "type": "function"
    },
    {
      "constant": true,
      "inputs": [],
      "name": "getHospitalInfo",
      "outputs": [
        {
          "internalType": "address",
          "name": "",
          "type": "address"
        },
        {
          "internalType": "string",
          "name": "",
          "type": "string"
        },
        {
          "internalType": "string",
          "name": "",
          "type": "string"
        }
      ],
      "payable": false,
      "stateMutability": "view",
      "type": "function"
    },
    {
      "constant": true,
      "inputs": [],
      "name": "getOwnerInfo",
      "outputs": [
        {
          "internalType": "address",
          "name": "",
          "type": "address"
        }
      ],
      "payable": false,
      "stateMutability": "view",
      "type": "function"
    },
    {
      "constant": false,
      "inputs": [
        {
          "internalType": "address",
          "name": "_user",
          "type": "address"
        },
        {
          "internalType": "address",
          "name": "_patient",
          "type": "address"
        }
      ],
      "name": "hospitalGrantAccess",
      "outputs": [],
      "payable": false,
      "stateMutability": "nonpayable",
      "type": "function"
    },
    {
      "constant": false,
      "inputs": [
        {
          "internalType": "address",
          "name": "_id",
          "type": "address"
        },
        {
          "internalType": "string",
          "name": "_name",
          "type": "string"
        },
        {
          "internalType": "string",
          "name": "_location",
          "type": "string"
        }
      ],
      "name": "addHospital",
      "outputs": [],
      "payable": false,
      "stateMutability": "nonpayable",
      "type": "function"
    }
  ],
  "bytecode": "0x608060405234801561001057600080fd5b50735686638c16d74b6ef74ca24a10098a9360ac73f0600160006101000a81548173ffffffffffffffffffffffffffffffffffffffff021916908373ffffffffffffffffffffffffffffffffffffffff1602179055506159ae80620000766000396000f3fe608060405234801561001057600080fd5b50600436106100f55760003560e01c8063629e559d11610097578063c4fa7adb11610066578063c4fa7adb1461024c578063c671cbc51461026c578063facf83231461028a578063fe59cc1a146102a8576100f5565b8063629e559d146101d85780636a775778146101f4578063828566fc14610210578063b380f5c61461022c576100f5565b80632cecb523116100d35780632cecb52314610162578063326df6641461017e5780633b0e67ec146101a05780633c3f5d8d146101bc576100f5565b80631c8e251c146100fa5780631fc37922146101165780632ae48e4014610146575b600080fd5b610114600480360361010f9190810190614cc2565b6102db565b005b610130600480360361012b9190810190614cc2565b610e3f565b60405161013d91906155ae565b60405180910390f35b610160600480360361015b9190810190614da6565b6110c3565b005b61017c60048036036101779190810190614ceb565b6111a7565b005b61018661146b565b604051610197959493929190615630565b60405180910390f35b6101ba60048036036101b59190810190614d27565b611de1565b005b6101d660048036036101d19190810190614f00565b6121a7565b005b6101f260048036036101ed9190810190614cc2565b61252b565b005b61020e60048036036102099190810190614e3d565b612edd565b005b61022a60048036036102259190810190614d27565b61318f565b005b6102346134b5565b604051610243939291906155eb565b60405180910390f35b610254613c9c565b60405161026393929190615569565b60405180910390f35b6102746140de565b60405161028191906155d0565b60405180910390f35b610292614103565b60405161029f9190615450565b60405180910390f35b6102c260048036036102bd9190810190614cc2565b614187565b6040516102d29493929190615698565b60405180910390f35b336102e46148ab565b600360008373ffffffffffffffffffffffffffffffffffffffff1673ffffffffffffffffffffffffffffffffffffffff16815260200190815260200160002060405180610100016040529081600082018054600181600116156101000203166002900480601f0160208091040260200160405190810160405280929190818152602001828054600181600116156101000203166002900480156103c85780601f1061039d576101008083540402835291602001916103c8565b820191906000526020600020905b8154815290600101906020018083116103ab57829003601f168201915b505050505081526020016001820160009054906101000a900460ff1660ff1660ff1681526020016001820160019054906101000a900473ffffffffffffffffffffffffffffffffffffffff1673ffffffffffffffffffffffffffffffffffffffff1673ffffffffffffffffffffffffffffffffffffffff168152602001600282018054600181600116156101000203166002900480601f0160208091040260200160405190810160405280929190818152602001828054600181600116156101000203166002900480156104dd5780601f106104b2576101008083540402835291602001916104dd565b820191906000526020600020905b8154815290600101906020018083116104c057829003601f168201915b50505050508152602001600382018054600181600116156101000203166002900480601f01602080910402602001604051908101604052809291908181526020018280546001816001161561010002031660029004801561057f5780601f106105545761010080835404028352916020019161057f565b820191906000526020600020905b81548152906001019060200180831161056257829003601f168201915b5050505050815260200160048201805480602002602001604051908101604052809291908181526020016000905b82821015610669578382906000526020600020018054600181600116156101000203166002900480601f0160208091040260200160405190810160405280929190818152602001828054600181600116156101000203166002900480156106555780601f1061062a57610100808354040283529160200191610655565b820191906000526020600020905b81548152906001019060200180831161063857829003601f168201915b5050505050815260200190600101906105ad565b505050508152602001600582018054806020026020016040519081016040528092919081815260200182805480156106c057602002820191906000526020600020905b8154815260200190600101908083116106ac575b505050505081526020016006820180548060200260200160405190810160405280929190818152602001828054801561074e57602002820191906000526020600020905b8160009054906101000a900473ffffffffffffffffffffffffffffffffffffffff1673ffffffffffffffffffffffffffffffffffffffff1681526020019060010190808311610704575b5050505050815250509050600073ffffffffffffffffffffffffffffffffffffffff16816040015173ffffffffffffffffffffffffffffffffffffffff161161079657600080fd5b8261079f614909565b600260008373ffffffffffffffffffffffffffffffffffffffff1673ffffffffffffffffffffffffffffffffffffffff1681526020019081526020016000206040518060c0016040529081600082018054600181600116156101000203166002900480601f0160208091040260200160405190810160405280929190818152602001828054600181600116156101000203166002900480156108825780601f1061085757610100808354040283529160200191610882565b820191906000526020600020905b81548152906001019060200180831161086557829003601f168201915b505050505081526020016001820160009054906101000a900473ffffffffffffffffffffffffffffffffffffffff1673ffffffffffffffffffffffffffffffffffffffff1673ffffffffffffffffffffffffffffffffffffffff168152602001600282018054600181600116156101000203166002900480601f01602080910402602001604051908101604052809291908181526020018280546001816001161561010002031660029004801561097a5780601f1061094f5761010080835404028352916020019161097a565b820191906000526020600020905b81548152906001019060200180831161095d57829003601f168201915b50505050508152602001600382018054600181600116156101000203166002900480601f016020809104026020016040519081016040528092919081815260200182805460018160011615610100020316600290048015610a1c5780601f106109f157610100808354040283529160200191610a1c565b820191906000526020600020905b8154815290600101906020018083116109ff57829003601f168201915b50505050508152602001600482018054600181600116156101000203166002900480601f016020809104026020016040519081016040528092919081815260200182805460018160011615610100020316600290048015610abe5780601f10610a9357610100808354040283529160200191610abe565b820191906000526020600020905b815481529060010190602001808311610aa157829003601f168201915b5050505050815260200160058201805480602002602001604051908101604052809291908181526020018280548015610b4c57602002820191906000526020600020905b8160009054906101000a900473ffffffffffffffffffffffffffffffffffffffff1673ffffffffffffffffffffffffffffffffffffffff1681526020019060010190808311610b02575b5050505050815250509050600073ffffffffffffffffffffffffffffffffffffffff16816020015173ffffffffffffffffffffffffffffffffffffffff1611610b9457600080fd5b6000600360003373ffffffffffffffffffffffffffffffffffffffff1673ffffffffffffffffffffffffffffffffffffffff16815260200190815260200160002090506000600260008873ffffffffffffffffffffffffffffffffffffffff1673ffffffffffffffffffffffffffffffffffffffff16815260200190815260200160002090506001600460003373ffffffffffffffffffffffffffffffffffffffff1673ffffffffffffffffffffffffffffffffffffffff16815260200190815260200160002060008973ffffffffffffffffffffffffffffffffffffffff1673ffffffffffffffffffffffffffffffffffffffff1681526020019081526020016000205410610ca357600080fd5b6000826006018890806001815401808255809150509060018203906000526020600020016000909192909190916101000a81548173ffffffffffffffffffffffffffffffffffffffff021916908373ffffffffffffffffffffffffffffffffffffffff160217905550905080600460003373ffffffffffffffffffffffffffffffffffffffff1673ffffffffffffffffffffffffffffffffffffffff16815260200190815260200160002060008a73ffffffffffffffffffffffffffffffffffffffff1673ffffffffffffffffffffffffffffffffffffffff16815260200190815260200160002081905550816005013390806001815401808255809150509060018203906000526020600020016000909192909190916101000a81548173ffffffffffffffffffffffffffffffffffffffff021916908373ffffffffffffffffffffffffffffffffffffffff160217905550507fe239c4e608cb32aaf8ef7214f811e28ea27c91cad9f719be74579c18fc2e983133836000018a604051610e2d939291906154c7565b60405180910390a15050505050505050565b6060600660008373ffffffffffffffffffffffffffffffffffffffff1673ffffffffffffffffffffffffffffffffffffffff168152602001908152602001600020805480602002602001604051908101604052809291908181526020016000905b828210156110b85783829060005260206000209060030201604051806060016040529081600082018054600181600116156101000203166002900480601f016020809104026020016040519081016040528092919081815260200182805460018160011615610100020316600290048015610f5c5780601f10610f3157610100808354040283529160200191610f5c565b820191906000526020600020905b815481529060010190602001808311610f3f57829003601f168201915b50505050508152602001600182018054600181600116156101000203166002900480601f016020809104026020016040519081016040528092919081815260200182805460018160011615610100020316600290048015610ffe5780601f10610fd357610100808354040283529160200191610ffe565b820191906000526020600020905b815481529060010190602001808311610fe157829003601f168201915b50505050508152602001600282018054600181600116156101000203166002900480601f0160208091040260200160405190810160405280929190818152602001828054600181600116156101000203166002900480156110a05780601f10611075576101008083540402835291602001916110a0565b820191906000526020600020905b81548152906001019060200180831161108357829003601f168201915b50505050508152505081526020019060010190610ea0565b505050509050919050565b600660003373ffffffffffffffffffffffffffffffffffffffff1673ffffffffffffffffffffffffffffffffffffffff168152602001908152602001600020604051806060016040528085815260200184815260200183815250908060018154018082558091505090600182039060005260206000209060030201600090919290919091506000820151816000019080519060200190611164929190614955565b506020820151816001019080519060200190611181929190614955565b50604082015181600201908051906020019061119e929190614955565b50505050505050565b6000600260008473ffffffffffffffffffffffffffffffffffffffff1673ffffffffffffffffffffffffffffffffffffffff16815260200190815260200160002090506000600360008473ffffffffffffffffffffffffffffffffffffffff1673ffffffffffffffffffffffffffffffffffffffff1681526020019081526020016000209050600073ffffffffffffffffffffffffffffffffffffffff168260010160009054906101000a900473ffffffffffffffffffffffffffffffffffffffff1673ffffffffffffffffffffffffffffffffffffffff161115611465576001600460008573ffffffffffffffffffffffffffffffffffffffff1673ffffffffffffffffffffffffffffffffffffffff16815260200190815260200160002060008673ffffffffffffffffffffffffffffffffffffffff1673ffffffffffffffffffffffffffffffffffffffff168152602001908152602001600020541061130f57600080fd5b6000816006018590806001815401808255809150509060018203906000526020600020016000909192909190916101000a81548173ffffffffffffffffffffffffffffffffffffffff021916908373ffffffffffffffffffffffffffffffffffffffff160217905550905080600460008673ffffffffffffffffffffffffffffffffffffffff1673ffffffffffffffffffffffffffffffffffffffff16815260200190815260200160002060008773ffffffffffffffffffffffffffffffffffffffff1673ffffffffffffffffffffffffffffffffffffffff16815260200190815260200160002081905550826005018490806001815401808255809150509060018203906000526020600020016000909192909190916101000a81548173ffffffffffffffffffffffffffffffffffffffff021916908373ffffffffffffffffffffffffffffffffffffffff16021790555050505b50505050565b60606000806060803361147c6148ab565b600360008373ffffffffffffffffffffffffffffffffffffffff1673ffffffffffffffffffffffffffffffffffffffff16815260200190815260200160002060405180610100016040529081600082018054600181600116156101000203166002900480601f0160208091040260200160405190810160405280929190818152602001828054600181600116156101000203166002900480156115605780601f1061153557610100808354040283529160200191611560565b820191906000526020600020905b81548152906001019060200180831161154357829003601f168201915b505050505081526020016001820160009054906101000a900460ff1660ff1660ff1681526020016001820160019054906101000a900473ffffffffffffffffffffffffffffffffffffffff1673ffffffffffffffffffffffffffffffffffffffff1673ffffffffffffffffffffffffffffffffffffffff168152602001600282018054600181600116156101000203166002900480601f0160208091040260200160405190810160405280929190818152602001828054600181600116156101000203166002900480156116755780601f1061164a57610100808354040283529160200191611675565b820191906000526020600020905b81548152906001019060200180831161165857829003601f168201915b50505050508152602001600382018054600181600116156101000203166002900480601f0160208091040260200160405190810160405280929190818152602001828054600181600116156101000203166002900480156117175780601f106116ec57610100808354040283529160200191611717565b820191906000526020600020905b8154815290600101906020018083116116fa57829003601f168201915b5050505050815260200160048201805480602002602001604051908101604052809291908181526020016000905b82821015611801578382906000526020600020018054600181600116156101000203166002900480601f0160208091040260200160405190810160405280929190818152602001828054600181600116156101000203166002900480156117ed5780601f106117c2576101008083540402835291602001916117ed565b820191906000526020600020905b8154815290600101906020018083116117d057829003601f168201915b505050505081526020019060010190611745565b5050505081526020016005820180548060200260200160405190810160405280929190818152602001828054801561185857602002820191906000526020600020905b815481526020019060010190808311611844575b50505050508152602001600682018054806020026020016040519081016040528092919081815260200182805480156118e657602002820191906000526020600020905b8160009054906101000a900473ffffffffffffffffffffffffffffffffffffffff1673ffffffffffffffffffffffffffffffffffffffff168152602001906001019080831161189c575b5050505050815250509050600073ffffffffffffffffffffffffffffffffffffffff16816040015173ffffffffffffffffffffffffffffffffffffffff161161192e57600080fd5b6119366148ab565b600360003373ffffffffffffffffffffffffffffffffffffffff1673ffffffffffffffffffffffffffffffffffffffff16815260200190815260200160002060405180610100016040529081600082018054600181600116156101000203166002900480601f016020809104026020016040519081016040528092919081815260200182805460018160011615610100020316600290048015611a1a5780601f106119ef57610100808354040283529160200191611a1a565b820191906000526020600020905b8154815290600101906020018083116119fd57829003601f168201915b505050505081526020016001820160009054906101000a900460ff1660ff1660ff1681526020016001820160019054906101000a900473ffffffffffffffffffffffffffffffffffffffff1673ffffffffffffffffffffffffffffffffffffffff1673ffffffffffffffffffffffffffffffffffffffff168152602001600282018054600181600116156101000203166002900480601f016020809104026020016040519081016040528092919081815260200182805460018160011615610100020316600290048015611b2f5780601f10611b0457610100808354040283529160200191611b2f565b820191906000526020600020905b815481529060010190602001808311611b1257829003601f168201915b50505050508152602001600382018054600181600116156101000203166002900480601f016020809104026020016040519081016040528092919081815260200182805460018160011615610100020316600290048015611bd15780601f10611ba657610100808354040283529160200191611bd1565b820191906000526020600020905b815481529060010190602001808311611bb457829003601f168201915b5050505050815260200160048201805480602002602001604051908101604052809291908181526020016000905b82821015611cbb578382906000526020600020018054600181600116156101000203166002900480601f016020809104026020016040519081016040528092919081815260200182805460018160011615610100020316600290048015611ca75780601f10611c7c57610100808354040283529160200191611ca7565b820191906000526020600020905b815481529060010190602001808311611c8a57829003601f168201915b505050505081526020019060010190611bff565b50505050815260200160058201805480602002602001604051908101604052809291908181526020018280548015611d1257602002820191906000526020600020905b815481526020019060010190808311611cfe575b5050505050815260200160068201805480602002602001604051908101604052809291908181526020018280548015611da057602002820191906000526020600020905b8160009054906101000a900473ffffffffffffffffffffffffffffffffffffffff1673ffffffffffffffffffffffffffffffffffffffff1681526020019060010190808311611d56575b50505050508152505090508060000151816040015182602001518360c001518460e00151849450819150809050975097509750975097505050509091929394565b600160009054906101000a900473ffffffffffffffffffffffffffffffffffffffff1673ffffffffffffffffffffffffffffffffffffffff163373ffffffffffffffffffffffffffffffffffffffff1614611e3b57600080fd5b611e436149d5565b600760008573ffffffffffffffffffffffffffffffffffffffff1673ffffffffffffffffffffffffffffffffffffffff1681526020019081526020016000206040518060600160405290816000820160009054906101000a900473ffffffffffffffffffffffffffffffffffffffff1673ffffffffffffffffffffffffffffffffffffffff1673ffffffffffffffffffffffffffffffffffffffff168152602001600182018054600181600116156101000203166002900480601f016020809104026020016040519081016040528092919081815260200182805460018160011615610100020316600290048015611f7c5780601f10611f5157610100808354040283529160200191611f7c565b820191906000526020600020905b815481529060010190602001808311611f5f57829003601f168201915b50505050508152602001600282018054600181600116156101000203166002900480601f01602080910402602001604051908101604052809291908181526020018280546001816001161561010002031660029004801561201e5780601f10611ff35761010080835404028352916020019161201e565b820191906000526020600020905b81548152906001019060200180831161200157829003601f168201915b5050505050815250509050600073ffffffffffffffffffffffffffffffffffffffff16816000015173ffffffffffffffffffffffffffffffffffffffff16111561206757600080fd5b6040516120739061543b565b60405180910390208360405160200161208c9190615424565b6040516020818303038152906040528051906020012014156120ad57600080fd5b60405180606001604052808573ffffffffffffffffffffffffffffffffffffffff16815260200184815260200183815250600760008673ffffffffffffffffffffffffffffffffffffffff1673ffffffffffffffffffffffffffffffffffffffff16815260200190815260200160002060008201518160000160006101000a81548173ffffffffffffffffffffffffffffffffffffffff021916908373ffffffffffffffffffffffffffffffffffffffff1602179055506020820151816001019080519060200190612180929190614955565b50604082015181600201908051906020019061219d929190614955565b5090505050505050565b6000600360003373ffffffffffffffffffffffffffffffffffffffff1673ffffffffffffffffffffffffffffffffffffffff16815260200190815260200160002090506040516121f69061543b565b60405180910390208560405160200161220f9190615424565b60405160208183030381529060405280519060200120141561223057600080fd5b60008460ff16118015612246575060648460ff16105b61224f57600080fd5b600073ffffffffffffffffffffffffffffffffffffffff168160010160019054906101000a900473ffffffffffffffffffffffffffffffffffffffff1673ffffffffffffffffffffffffffffffffffffffff1611156122ad57600080fd5b6040518061010001604052808681526020018560ff1681526020013373ffffffffffffffffffffffffffffffffffffffff168152602001838152602001848152602001600060405190808252806020026020018201604052801561232557816020015b60608152602001906001900390816123105790505b508152602001600060405190808252806020026020018201604052801561235b5781602001602082028038833980820191505090505b50815260200160006040519080825280602002602001820160405280156123915781602001602082028038833980820191505090505b50815250600360003373ffffffffffffffffffffffffffffffffffffffff1673ffffffffffffffffffffffffffffffffffffffff16815260200190815260200160002060008201518160000190805190602001906123f0929190614955565b5060208201518160010160006101000a81548160ff021916908360ff16021790555060408201518160010160016101000a81548173ffffffffffffffffffffffffffffffffffffffff021916908373ffffffffffffffffffffffffffffffffffffffff1602179055506060820151816002019080519060200190612475929190614955565b506080820151816003019080519060200190612492929190614955565b5060a08201518160040190805190602001906124af929190614a0c565b5060c08201518160050190805190602001906124cc929190614a6c565b5060e08201518160060190805190602001906124e9929190614ab9565b509050507ff0c358f29581a43889abe78660babebd0ac62878d0ed89571af6c2168bbcda0c3360405161251c9190615499565b60405180910390a15050505050565b336125346148ab565b600360008373ffffffffffffffffffffffffffffffffffffffff1673ffffffffffffffffffffffffffffffffffffffff16815260200190815260200160002060405180610100016040529081600082018054600181600116156101000203166002900480601f0160208091040260200160405190810160405280929190818152602001828054600181600116156101000203166002900480156126185780601f106125ed57610100808354040283529160200191612618565b820191906000526020600020905b8154815290600101906020018083116125fb57829003601f168201915b505050505081526020016001820160009054906101000a900460ff1660ff1660ff1681526020016001820160019054906101000a900473ffffffffffffffffffffffffffffffffffffffff1673ffffffffffffffffffffffffffffffffffffffff1673ffffffffffffffffffffffffffffffffffffffff168152602001600282018054600181600116156101000203166002900480601f01602080910402602001604051908101604052809291908181526020018280546001816001161561010002031660029004801561272d5780601f106127025761010080835404028352916020019161272d565b820191906000526020600020905b81548152906001019060200180831161271057829003601f168201915b50505050508152602001600382018054600181600116156101000203166002900480601f0160208091040260200160405190810160405280929190818152602001828054600181600116156101000203166002900480156127cf5780601f106127a4576101008083540402835291602001916127cf565b820191906000526020600020905b8154815290600101906020018083116127b257829003601f168201915b5050505050815260200160048201805480602002602001604051908101604052809291908181526020016000905b828210156128b9578382906000526020600020018054600181600116156101000203166002900480601f0160208091040260200160405190810160405280929190818152602001828054600181600116156101000203166002900480156128a55780601f1061287a576101008083540402835291602001916128a5565b820191906000526020600020905b81548152906001019060200180831161288857829003601f168201915b5050505050815260200190600101906127fd565b5050505081526020016005820180548060200260200160405190810160405280929190818152602001828054801561291057602002820191906000526020600020905b8154815260200190600101908083116128fc575b505050505081526020016006820180548060200260200160405190810160405280929190818152602001828054801561299e57602002820191906000526020600020905b8160009054906101000a900473ffffffffffffffffffffffffffffffffffffffff1673ffffffffffffffffffffffffffffffffffffffff1681526020019060010190808311612954575b5050505050815250509050600073ffffffffffffffffffffffffffffffffffffffff16816040015173ffffffffffffffffffffffffffffffffffffffff16116129e657600080fd5b6000600460003373ffffffffffffffffffffffffffffffffffffffff1673ffffffffffffffffffffffffffffffffffffffff16815260200190815260200160002060008573ffffffffffffffffffffffffffffffffffffffff1673ffffffffffffffffffffffffffffffffffffffff1681526020019081526020016000205411612a6f57600080fd5b6000600460003373ffffffffffffffffffffffffffffffffffffffff1673ffffffffffffffffffffffffffffffffffffffff16815260200190815260200160002060008573ffffffffffffffffffffffffffffffffffffffff1673ffffffffffffffffffffffffffffffffffffffff168152602001908152602001600020819055506000600360003373ffffffffffffffffffffffffffffffffffffffff1673ffffffffffffffffffffffffffffffffffffffff16815260200190815260200160002090506000600260008673ffffffffffffffffffffffffffffffffffffffff1673ffffffffffffffffffffffffffffffffffffffff1681526020019081526020016000209050600082600601805490509050600080905060008090505b82811015612c18578773ffffffffffffffffffffffffffffffffffffffff16856006018281548110612bbc57fe5b9060005260206000200160009054906101000a900473ffffffffffffffffffffffffffffffffffffffff1673ffffffffffffffffffffffffffffffffffffffff161415612c0b57809150612c18565b8080600101915050612b8e565b505b60018203811015612cc657836006016001820181548110612c3757fe5b9060005260206000200160009054906101000a900473ffffffffffffffffffffffffffffffffffffffff16846006018281548110612c7157fe5b9060005260206000200160006101000a81548173ffffffffffffffffffffffffffffffffffffffff021916908373ffffffffffffffffffffffffffffffffffffffff1602179055508080600101915050612c1a565b83600601805480612cd357fe5b6001900381819060005260206000200160006101000a81549073ffffffffffffffffffffffffffffffffffffffff02191690559055826005018054905091506000905060008090505b82811015612da6573373ffffffffffffffffffffffffffffffffffffffff16846005018281548110612d4a57fe5b9060005260206000200160009054906101000a900473ffffffffffffffffffffffffffffffffffffffff1673ffffffffffffffffffffffffffffffffffffffff161415612d9957809150612da6565b8080600101915050612d1c565b505b60018203811015612e5457826005016001820181548110612dc557fe5b9060005260206000200160009054906101000a900473ffffffffffffffffffffffffffffffffffffffff16836005018281548110612dff57fe5b9060005260206000200160006101000a81548173ffffffffffffffffffffffffffffffffffffffff021916908373ffffffffffffffffffffffffffffffffffffffff1602179055508080600101915050612da8565b82600501805480612e6157fe5b6001900381819060005260206000200160006101000a81549073ffffffffffffffffffffffffffffffffffffffff021916905590557f212bcbf580385b870fe82b11fdd99334c16d187419727ccfb2b89aea2f872785338460000189604051612ecc93929190615518565b60405180910390a150505050505050565b6000600260003373ffffffffffffffffffffffffffffffffffffffff1673ffffffffffffffffffffffffffffffffffffffff1681526020019081526020016000209050604051612f2c9061543b565b604051809103902085604051602001612f459190615424565b604051602081830303815290604052805190602001201415612f6657600080fd5b600073ffffffffffffffffffffffffffffffffffffffff168160010160009054906101000a900473ffffffffffffffffffffffffffffffffffffffff1673ffffffffffffffffffffffffffffffffffffffff161115612fc457600080fd5b6040518060c001604052808681526020013373ffffffffffffffffffffffffffffffffffffffff16815260200185815260200184815260200183815260200160006040519080825280602002602001820160405280156130335781602001602082028038833980820191505090505b50815250600260003373ffffffffffffffffffffffffffffffffffffffff1673ffffffffffffffffffffffffffffffffffffffff1681526020019081526020016000206000820151816000019080519060200190613092929190614955565b5060208201518160010160006101000a81548173ffffffffffffffffffffffffffffffffffffffff021916908373ffffffffffffffffffffffffffffffffffffffff16021790555060408201518160020190805190602001906130f6929190614955565b506060820151816003019080519060200190613113929190614955565b506080820151816004019080519060200190613130929190614955565b5060a082015181600501908051906020019061314d929190614ab9565b509050507fdd0aa1d3beead09f31cc046643e0d63829e7c7f43e532c2523d978bc9c3bfb3333604051613180919061546b565b60405180910390a15050505050565b6131976149d5565b600760008573ffffffffffffffffffffffffffffffffffffffff1673ffffffffffffffffffffffffffffffffffffffff1681526020019081526020016000206040518060600160405290816000820160009054906101000a900473ffffffffffffffffffffffffffffffffffffffff1673ffffffffffffffffffffffffffffffffffffffff1673ffffffffffffffffffffffffffffffffffffffff168152602001600182018054600181600116156101000203166002900480601f0160208091040260200160405190810160405280929190818152602001828054600181600116156101000203166002900480156132d05780601f106132a5576101008083540402835291602001916132d0565b820191906000526020600020905b8154815290600101906020018083116132b357829003601f168201915b50505050508152602001600282018054600181600116156101000203166002900480601f0160208091040260200160405190810160405280929190818152602001828054600181600116156101000203166002900480156133725780601f1061334757610100808354040283529160200191613372565b820191906000526020600020905b81548152906001019060200180831161335557829003601f168201915b5050505050815250509050600073ffffffffffffffffffffffffffffffffffffffff16816000015173ffffffffffffffffffffffffffffffffffffffff1611156133bb57600080fd5b60405180606001604052808573ffffffffffffffffffffffffffffffffffffffff16815260200184815260200183815250600760008673ffffffffffffffffffffffffffffffffffffffff1673ffffffffffffffffffffffffffffffffffffffff16815260200190815260200160002060008201518160000160006101000a81548173ffffffffffffffffffffffffffffffffffffffff021916908373ffffffffffffffffffffffffffffffffffffffff160217905550602082015181600101908051906020019061348e929190614955565b5060408201518160020190805190602001906134ab929190614955565b5090505050505050565b606060006060336134c4614909565b600260008373ffffffffffffffffffffffffffffffffffffffff1673ffffffffffffffffffffffffffffffffffffffff1681526020019081526020016000206040518060c0016040529081600082018054600181600116156101000203166002900480601f0160208091040260200160405190810160405280929190818152602001828054600181600116156101000203166002900480156135a75780601f1061357c576101008083540402835291602001916135a7565b820191906000526020600020905b81548152906001019060200180831161358a57829003601f168201915b505050505081526020016001820160009054906101000a900473ffffffffffffffffffffffffffffffffffffffff1673ffffffffffffffffffffffffffffffffffffffff1673ffffffffffffffffffffffffffffffffffffffff168152602001600282018054600181600116156101000203166002900480601f01602080910402602001604051908101604052809291908181526020018280546001816001161561010002031660029004801561369f5780601f106136745761010080835404028352916020019161369f565b820191906000526020600020905b81548152906001019060200180831161368257829003601f168201915b50505050508152602001600382018054600181600116156101000203166002900480601f0160208091040260200160405190810160405280929190818152602001828054600181600116156101000203166002900480156137415780601f1061371657610100808354040283529160200191613741565b820191906000526020600020905b81548152906001019060200180831161372457829003601f168201915b50505050508152602001600482018054600181600116156101000203166002900480601f0160208091040260200160405190810160405280929190818152602001828054600181600116156101000203166002900480156137e35780601f106137b8576101008083540402835291602001916137e3565b820191906000526020600020905b8154815290600101906020018083116137c657829003601f168201915b505050505081526020016005820180548060200260200160405190810160405280929190818152602001828054801561387157602002820191906000526020600020905b8160009054906101000a900473ffffffffffffffffffffffffffffffffffffffff1673ffffffffffffffffffffffffffffffffffffffff1681526020019060010190808311613827575b5050505050815250509050600073ffffffffffffffffffffffffffffffffffffffff16816020015173ffffffffffffffffffffffffffffffffffffffff16116138b957600080fd5b6138c1614909565b600260003373ffffffffffffffffffffffffffffffffffffffff1673ffffffffffffffffffffffffffffffffffffffff1681526020019081526020016000206040518060c0016040529081600082018054600181600116156101000203166002900480601f0160208091040260200160405190810160405280929190818152602001828054600181600116156101000203166002900480156139a45780601f10613979576101008083540402835291602001916139a4565b820191906000526020600020905b81548152906001019060200180831161398757829003601f168201915b505050505081526020016001820160009054906101000a900473ffffffffffffffffffffffffffffffffffffffff1673ffffffffffffffffffffffffffffffffffffffff1673ffffffffffffffffffffffffffffffffffffffff168152602001600282018054600181600116156101000203166002900480601f016020809104026020016040519081016040528092919081815260200182805460018160011615610100020316600290048015613a9c5780601f10613a7157610100808354040283529160200191613a9c565b820191906000526020600020905b815481529060010190602001808311613a7f57829003601f168201915b50505050508152602001600382018054600181600116156101000203166002900480601f016020809104026020016040519081016040528092919081815260200182805460018160011615610100020316600290048015613b3e5780601f10613b1357610100808354040283529160200191613b3e565b820191906000526020600020905b815481529060010190602001808311613b2157829003601f168201915b50505050508152602001600482018054600181600116156101000203166002900480601f016020809104026020016040519081016040528092919081815260200182805460018160011615610100020316600290048015613be05780601f10613bb557610100808354040283529160200191613be0565b820191906000526020600020905b815481529060010190602001808311613bc357829003601f168201915b5050505050815260200160058201805480602002602001604051908101604052809291908181526020018280548015613c6e57602002820191906000526020600020905b8160009054906101000a900473ffffffffffffffffffffffffffffffffffffffff1673ffffffffffffffffffffffffffffffffffffffff1681526020019060010190808311613c24575b5050505050815250509050806000015181602001518260a00151829250809050955095509550505050909192565b600060608033613caa6149d5565b600760008373ffffffffffffffffffffffffffffffffffffffff1673ffffffffffffffffffffffffffffffffffffffff1681526020019081526020016000206040518060600160405290816000820160009054906101000a900473ffffffffffffffffffffffffffffffffffffffff1673ffffffffffffffffffffffffffffffffffffffff1673ffffffffffffffffffffffffffffffffffffffff168152602001600182018054600181600116156101000203166002900480601f016020809104026020016040519081016040528092919081815260200182805460018160011615610100020316600290048015613de35780601f10613db857610100808354040283529160200191613de3565b820191906000526020600020905b815481529060010190602001808311613dc657829003601f168201915b50505050508152602001600282018054600181600116156101000203166002900480601f016020809104026020016040519081016040528092919081815260200182805460018160011615610100020316600290048015613e855780601f10613e5a57610100808354040283529160200191613e85565b820191906000526020600020905b815481529060010190602001808311613e6857829003601f168201915b5050505050815250509050600073ffffffffffffffffffffffffffffffffffffffff16816000015173ffffffffffffffffffffffffffffffffffffffff1611613ecd57600080fd5b613ed56149d5565b600760003373ffffffffffffffffffffffffffffffffffffffff1673ffffffffffffffffffffffffffffffffffffffff1681526020019081526020016000206040518060600160405290816000820160009054906101000a900473ffffffffffffffffffffffffffffffffffffffff1673ffffffffffffffffffffffffffffffffffffffff1673ffffffffffffffffffffffffffffffffffffffff168152602001600182018054600181600116156101000203166002900480601f01602080910402602001604051908101604052809291908181526020018280546001816001161561010002031660029004801561400e5780601f10613fe35761010080835404028352916020019161400e565b820191906000526020600020905b815481529060010190602001808311613ff157829003601f168201915b50505050508152602001600282018054600181600116156101000203166002900480601f0160208091040260200160405190810160405280929190818152602001828054600181600116156101000203166002900480156140b05780601f10614085576101008083540402835291602001916140b0565b820191906000526020600020905b81548152906001019060200180831161409357829003601f168201915b5050505050815250509050806000015181602001518260400151819150809050955095509550505050909192565b6000809054906101000a900473ffffffffffffffffffffffffffffffffffffffff1681565b6000600160009054906101000a900473ffffffffffffffffffffffffffffffffffffffff1673ffffffffffffffffffffffffffffffffffffffff163373ffffffffffffffffffffffffffffffffffffffff161461415f57600080fd5b600160009054906101000a900473ffffffffffffffffffffffffffffffffffffffff16905090565b606060008060606141966148ab565b600360008773ffffffffffffffffffffffffffffffffffffffff1673ffffffffffffffffffffffffffffffffffffffff16815260200190815260200160002060405180610100016040529081600082018054600181600116156101000203166002900480601f01602080910402602001604051908101604052809291908181526020018280546001816001161561010002031660029004801561427a5780601f1061424f5761010080835404028352916020019161427a565b820191906000526020600020905b81548152906001019060200180831161425d57829003601f168201915b505050505081526020016001820160009054906101000a900460ff1660ff1660ff1681526020016001820160019054906101000a900473ffffffffffffffffffffffffffffffffffffffff1673ffffffffffffffffffffffffffffffffffffffff1673ffffffffffffffffffffffffffffffffffffffff168152602001600282018054600181600116156101000203166002900480601f01602080910402602001604051908101604052809291908181526020018280546001816001161561010002031660029004801561438f5780601f106143645761010080835404028352916020019161438f565b820191906000526020600020905b81548152906001019060200180831161437257829003601f168201915b50505050508152602001600382018054600181600116156101000203166002900480601f0160208091040260200160405190810160405280929190818152602001828054600181600116156101000203166002900480156144315780601f1061440657610100808354040283529160200191614431565b820191906000526020600020905b81548152906001019060200180831161441457829003601f168201915b5050505050815260200160048201805480602002602001604051908101604052809291908181526020016000905b8282101561451b578382906000526020600020018054600181600116156101000203166002900480601f0160208091040260200160405190810160405280929190818152602001828054600181600116156101000203166002900480156145075780601f106144dc57610100808354040283529160200191614507565b820191906000526020600020905b8154815290600101906020018083116144ea57829003601f168201915b50505050508152602001906001019061445f565b5050505081526020016005820180548060200260200160405190810160405280929190818152602001828054801561457257602002820191906000526020600020905b81548152602001906001019080831161455e575b505050505081526020016006820180548060200260200160405190810160405280929190818152602001828054801561460057602002820191906000526020600020905b8160009054906101000a900473ffffffffffffffffffffffffffffffffffffffff1673ffffffffffffffffffffffffffffffffffffffff16815260200190600101908083116145b6575b5050505050815250509050806000015181602001518260400151600660008a73ffffffffffffffffffffffffffffffffffffffff1673ffffffffffffffffffffffffffffffffffffffff16815260200190815260200160002083935080805480602002602001604051908101604052809291908181526020016000905b828210156148955783829060005260206000209060030201604051806060016040529081600082018054600181600116156101000203166002900480601f0160208091040260200160405190810160405280929190818152602001828054600181600116156101000203166002900480156147395780601f1061470e57610100808354040283529160200191614739565b820191906000526020600020905b81548152906001019060200180831161471c57829003601f168201915b50505050508152602001600182018054600181600116156101000203166002900480601f0160208091040260200160405190810160405280929190818152602001828054600181600116156101000203166002900480156147db5780601f106147b0576101008083540402835291602001916147db565b820191906000526020600020905b8154815290600101906020018083116147be57829003601f168201915b50505050508152602001600282018054600181600116156101000203166002900480601f01602080910402602001604051908101604052809291908181526020018280546001816001161561010002031660029004801561487d5780601f106148525761010080835404028352916020019161487d565b820191906000526020600020905b81548152906001019060200180831161486057829003601f168201915b5050505050815250508152602001906001019061467d565b5050505090509450945094509450509193509193565b60405180610100016040528060608152602001600060ff168152602001600073ffffffffffffffffffffffffffffffffffffffff16815260200160608152602001606081526020016060815260200160608152602001606081525090565b6040518060c0016040528060608152602001600073ffffffffffffffffffffffffffffffffffffffff168152602001606081526020016060815260200160608152602001606081525090565b828054600181600116156101000203166002900490600052602060002090601f016020900481019282601f1061499657805160ff19168380011785556149c4565b828001600101855582156149c4579182015b828111156149c35782518255916020019190600101906149a8565b5b5090506149d19190614b43565b5090565b6040518060600160405280600073ffffffffffffffffffffffffffffffffffffffff16815260200160608152602001606081525090565b828054828255906000526020600020908101928215614a5b579160200282015b82811115614a5a578251829080519060200190614a4a929190614955565b5091602001919060010190614a2c565b5b509050614a689190614b68565b5090565b828054828255906000526020600020908101928215614aa8579160200282015b82811115614aa7578251825591602001919060010190614a8c565b5b509050614ab59190614b94565b5090565b828054828255906000526020600020908101928215614b32579160200282015b82811115614b315782518260006101000a81548173ffffffffffffffffffffffffffffffffffffffff021916908373ffffffffffffffffffffffffffffffffffffffff16021790555091602001919060010190614ad9565b5b509050614b3f9190614bb9565b5090565b614b6591905b80821115614b61576000816000905550600101614b49565b5090565b90565b614b9191905b80821115614b8d5760008181614b849190614bfc565b50600101614b6e565b5090565b90565b614bb691905b80821115614bb2576000816000905550600101614b9a565b5090565b90565b614bf991905b80821115614bf557600081816101000a81549073ffffffffffffffffffffffffffffffffffffffff021916905550600101614bbf565b5090565b90565b50805460018160011615610100020316600290046000825580601f10614c225750614c41565b601f016020900490600052602060002090810190614c409190614b43565b5b50565b600081359050614c538161593d565b92915050565b600082601f830112614c6a57600080fd5b8135614c7d614c7882615718565b6156eb565b91508082526020830160208301858383011115614c9957600080fd5b614ca48382846158ea565b50505092915050565b600081359050614cbc81615954565b92915050565b600060208284031215614cd457600080fd5b6000614ce284828501614c44565b91505092915050565b60008060408385031215614cfe57600080fd5b6000614d0c85828601614c44565b9250506020614d1d85828601614c44565b9150509250929050565b600080600060608486031215614d3c57600080fd5b6000614d4a86828701614c44565b935050602084013567ffffffffffffffff811115614d6757600080fd5b614d7386828701614c59565b925050604084013567ffffffffffffffff811115614d9057600080fd5b614d9c86828701614c59565b9150509250925092565b600080600060608486031215614dbb57600080fd5b600084013567ffffffffffffffff811115614dd557600080fd5b614de186828701614c59565b935050602084013567ffffffffffffffff811115614dfe57600080fd5b614e0a86828701614c59565b925050604084013567ffffffffffffffff811115614e2757600080fd5b614e3386828701614c59565b9150509250925092565b60008060008060808587031215614e5357600080fd5b600085013567ffffffffffffffff811115614e6d57600080fd5b614e7987828801614c59565b945050602085013567ffffffffffffffff811115614e9657600080fd5b614ea287828801614c59565b935050604085013567ffffffffffffffff811115614ebf57600080fd5b614ecb87828801614c59565b925050606085013567ffffffffffffffff811115614ee857600080fd5b614ef487828801614c59565b91505092959194509250565b60008060008060808587031215614f1657600080fd5b600085013567ffffffffffffffff811115614f3057600080fd5b614f3c87828801614c59565b9450506020614f4d87828801614cad565b935050604085013567ffffffffffffffff811115614f6a57600080fd5b614f7687828801614c59565b925050606085013567ffffffffffffffff811115614f9357600080fd5b614f9f87828801614c59565b91505092959194509250565b6000614fb78383614ffe565b60208301905092915050565b6000614fcf838361514d565b60208301905092915050565b6000614fe783836153b7565b905092915050565b614ff881615890565b82525050565b61500781615847565b82525050565b61501681615847565b82525050565b600061502782615789565b61503181856157e7565b935061503c83615744565b8060005b8381101561506d5781516150548882614fab565b975061505f836157c0565b925050600181019050615040565b5085935050505092915050565b600061508582615794565b61508f81856157f8565b935061509a83615754565b8060005b838110156150cb5781516150b28882614fc3565b97506150bd836157cd565b92505060018101905061509e565b5085935050505092915050565b60006150e38261579f565b6150ed8185615809565b9350836020820285016150ff85615764565b8060005b8581101561513b578484038952815161511c8582614fdb565b9450615127836157da565b925060208a01995050600181019050615103565b50829750879550505050505092915050565b61515681615859565b82525050565b615165816158a2565b82525050565b6000615176826157b5565b615180818561582b565b93506151908185602086016158f9565b6151998161592c565b840191505092915050565b60006151af826157b5565b6151b9818561583c565b93506151c98185602086016158f9565b80840191505092915050565b60006151e0826157aa565b6151ea818561581a565b93506151fa8185602086016158f9565b6152038161592c565b840191505092915050565b60008154600181166000811461522b576001811461525157615295565b607f600283041661523c818761582b565b955060ff198316865260208601935050615295565b6002820461525f818761582b565b955061526a85615774565b60005b8281101561528c5781548189015260018201915060208101905061526d565b80880195505050505b505092915050565b60006152aa60148361582b565b91507f5265676973746572656420617320446f63746f720000000000000000000000006000830152602082019050919050565b60006152ea60158361582b565b91507f526567697374657265642061732050617469656e7400000000000000000000006000830152602082019050919050565b600061532a60188361582b565b91507f4772616e7465642061636365737320746f20646f63746f7200000000000000006000830152602082019050919050565b600061536a60188361582b565b91507f5265766f6b656420616363657373206f6620646f63746f7200000000000000006000830152602082019050919050565b60006153aa60008361583c565b9150600082019050919050565b600060608301600083015184820360008601526153d482826151d5565b915050602083015184820360208601526153ee82826151d5565b9150506040830151848203604086015261540882826151d5565b9150508091505092915050565b61541e81615883565b82525050565b600061543082846151a4565b915081905092915050565b60006154468261539d565b9150819050919050565b6000602082019050615465600083018461500d565b92915050565b60006040820190506154806000830184614fef565b81810360208301526154918161529d565b905092915050565b60006040820190506154ae6000830184614fef565b81810360208301526154bf816152dd565b905092915050565b60006080820190506154dc6000830186614fef565b81810360208301526154ed8161531d565b90508181036040830152615501818561520e565b9050615510606083018461500d565b949350505050565b600060808201905061552d6000830186614fef565b818103602083015261553e8161535d565b90508181036040830152615552818561520e565b9050615561606083018461500d565b949350505050565b600060608201905061557e600083018661500d565b8181036020830152615590818561516b565b905081810360408301526155a4818461516b565b9050949350505050565b600060208201905081810360008301526155c881846150d8565b905092915050565b60006020820190506155e5600083018461515c565b92915050565b60006060820190508181036000830152615605818661516b565b9050615614602083018561500d565b8181036040830152615626818461501c565b9050949350505050565b600060a082019050818103600083015261564a818861516b565b9050615659602083018761500d565b6156666040830186615415565b8181036060830152615678818561507a565b9050818103608083015261568c818461501c565b90509695505050505050565b600060808201905081810360008301526156b2818761516b565b90506156c16020830186615415565b6156ce604083018561500d565b81810360608301526156e081846150d8565b905095945050505050565b6000604051905081810181811067ffffffffffffffff8211171561570e57600080fd5b8060405250919050565b600067ffffffffffffffff82111561572f57600080fd5b601f19601f8301169050602081019050919050565b6000819050602082019050919050565b6000819050602082019050919050565b6000819050602082019050919050565b60008190508160005260206000209050919050565b600081519050919050565b600081519050919050565b600081519050919050565b600081519050919050565b600081519050919050565b6000602082019050919050565b6000602082019050919050565b6000602082019050919050565b600082825260208201905092915050565b600082825260208201905092915050565b600082825260208201905092915050565b600082825260208201905092915050565b600082825260208201905092915050565b600081905092915050565b600061585282615863565b9050919050565b6000819050919050565b600073ffffffffffffffffffffffffffffffffffffffff82169050919050565b600060ff82169050919050565b600061589b826158c6565b9050919050565b60006158ad826158b4565b9050919050565b60006158bf82615863565b9050919050565b60006158d1826158d8565b9050919050565b60006158e382615863565b9050919050565b82818337600083830152505050565b60005b838110156159175780820151818401526020810190506158fc565b83811115615926576000848401525b50505050565b6000601f19601f8301169050919050565b61594681615847565b811461595157600080fd5b50565b61595d81615883565b811461596857600080fd5b5056fea365627a7a72315820ed220de3c1ee57ee6609bf9cbeafb428d40bd57fa5204285206aaad3f2302bcb6c6578706572696d656e74616cf564736f6c63430005100040",
  "source": "pragma solidity >=0.4.21 <0.7.0;\r\npragma experimental ABIEncoderV2;\r\nimport \"./DoctorAddRecord.sol\";\r\n\r\ncontract optimized_healthCare {\r\n  \r\n  DoctorAddRecord public doctorAddRecord;\r\n\r\n  address private owner;\r\n  mapping (address => doctor) private doctors;\r\n  \r\n  mapping (address => patient) private patients; //mapping patients to their addresses\r\n  mapping (address => mapping (address => uint)) private patientToDoctor; //patients and list of doctors allowed access to\r\n  mapping (address => mapping (bytes32 => uint)) private patientToFile; //files mapped to patients\r\n  mapping (address => files[]) private patientFiles;\r\n  mapping (address => hospital) private hospitals;\r\n\r\n  \r\n  \r\n  //structure of patient file\r\n  struct files{\r\n      string file_name;\r\n      string file_type;\r\n      string file_hash;\r\n  }\r\n  \r\n  //structure of hospital\r\n  struct hospital{\r\n    address id;  \r\n    string name;\r\n    string location;\r\n  }\r\n  \r\n\r\n  //structure of patient info\r\n  struct patient {\r\n    string name;\r\n    uint8 age;\r\n    address id;\r\n    string gender;\r\n    string contact_info;\r\n\r\n    string[] allergies;\r\n\r\n    bytes32[] files;// hashes of file that belong to this user for display purpose\r\n    address[] doctor_list;\r\n  }\r\n  \r\n \r\n  //structure of doctor info\r\n  struct doctor {\r\n      string name;\r\n      address id;\r\n      string doc_address;\r\n      string contact;\r\n      string specialization;\r\n      address[] patient_list;\r\n  }\r\n  \r\n\r\n  //setting the owner\r\n  constructor() public {\r\n    owner = 0x5686638C16d74B6ef74CA24A10098a9360AC73F0;\r\n  }\r\n  \r\n  //verify doctor \r\n  modifier checkDoctor(address id) {\r\n    doctor memory d = doctors[id];\r\n    require(d.id > address(0x0));//check if doctor exist\r\n    _;\r\n  }\r\n  \r\n  //verify patient\r\n  modifier checkPatient(address id) {\r\n    patient memory p = patients[id];\r\n    require(p.id > address(0x0));//check if patient exist\r\n    _;\r\n  }\r\n\r\n  //verify hospital\r\n  modifier checkHospital(address id) {\r\n    hospital memory h = hospitals[id];\r\n    require(h.id > address(0x0));//check if patient exist\r\n    _;\r\n  }\r\n\r\n  //owner verification modifier\r\n  modifier onlyOwner() {\r\n    require(msg.sender == owner);\r\n    _;\r\n  }\r\n   \r\n\r\n\r\n  function hospitalSignUp(address _id, string memory _name, string memory _location ) public onlyOwner() {\r\n    \r\n    hospital memory h= hospitals[_id];\r\n    require(!(h.id > address(0x0)));\r\n    require(keccak256(abi.encodePacked(_name)) != keccak256(\"\"));\r\n    hospitals[_id] = hospital({id:_id, name:_name, location: _location});\r\n  }\r\n\r\n  //Event to emit when new patient registers\r\n  event patientSignUp( address _patient, string message);\r\n\r\n  function signupPatient(string memory _name, uint8 _age, string memory _contact, string memory _gender) public {\r\n\r\n    //search for patient on blockchain by address \r\n    patient storage p = patients[msg.sender];\r\n    //check input name and age\r\n    require(keccak256(abi.encodePacked(_name)) != keccak256(\"\"));\r\n    require((_age > 0) && (_age < 100));\r\n    //Check if the patient already exists by address\r\n    require(!(p.id > address(0x0)));\r\n    //Add patient to blockchain\r\n    patients[msg.sender] = patient({name:_name, age:_age, id:msg.sender, gender:_gender, contact_info:_contact, allergies:new string[](0), files:new bytes32[](0), doctor_list:new address[](0)});\r\n    \r\n\r\n    emit patientSignUp( msg.sender, \"Registered as Patient\");\r\n  }\r\n  \r\n\r\n  //Event to emit when new doctor registers\r\n  event doctorSignUp(address _doctor, string message);\r\n\r\n  function signupDoctor(string memory _name, string memory _address, string memory _contact, string memory _specialization) public {\r\n\r\n      //search for doctor on blockchain\r\n      doctor storage d = doctors[msg.sender];\r\n      //check name of doctor\r\n      require(keccak256(abi.encodePacked(_name)) != keccak256(\"\"));\r\n      //check if doctor already exists\r\n      require(!(d.id > address(0x0)));\r\n      //Add the doctor to blockchain\r\n      doctors[msg.sender] = doctor({name:_name, id:msg.sender, doc_address:_address, contact:_contact, specialization: _specialization, patient_list:new address[](0)});\r\n     \r\n      emit doctorSignUp(msg.sender, \"Registered as Doctor\");\r\n  }\r\n\r\n\r\n  //Event to emit when patient grants access to doctor\r\n  event grantDoctorAccess( address patient_address, string message, string _doctor, address doctor_address);\r\n  \r\n  function grantAccessToDoctor(address doctor_id) public checkPatient(msg.sender) checkDoctor(doctor_id) {\r\n      \r\n      patient storage p = patients[msg.sender];\r\n      doctor storage d = doctors[doctor_id];\r\n      require(patientToDoctor[msg.sender][doctor_id] < 1);// this means doctor already been access\r\n      \r\n      uint pos = p.doctor_list.push(doctor_id);// new length of array\r\n      \r\n      patientToDoctor[msg.sender][doctor_id] = pos;\r\n      d.patient_list.push(msg.sender);\r\n\r\n   \r\n      \r\n      emit grantDoctorAccess( msg.sender , \"Granted access to doctor\", d.name , doctor_id);\r\n  }\r\n\r\n  //Event to emit when patient revokes a doctor's access\r\n  event revokeDoctorAccess(address patient_address, string message, string _doctor, address doctor_address);\r\n\r\n  function revokeAccessFromDoctor(address doctor_id) public checkPatient(msg.sender){\r\n    require(patientToDoctor[msg.sender][doctor_id] > 0);\r\n    patientToDoctor[msg.sender][doctor_id] = 0;\r\n\r\n\r\n    patient storage p = patients[msg.sender];\r\n    doctor storage d = doctors[doctor_id];\r\n\r\n    uint pdlength= p.doctor_list.length;\r\n    uint pos=0;\r\n\r\n    for (uint i = 0; i < pdlength; i++) {\r\n      if(p.doctor_list[i] == doctor_id)\r\n      {\r\n        pos=i;\r\n        break;\r\n      }\r\n    }\r\n\r\n    for(;pos<pdlength-1;pos++)\r\n    {\r\n      p.doctor_list[pos]= p.doctor_list[pos+1];\r\n    }\r\n\r\n    p.doctor_list.pop();\r\n\r\n    pdlength= d.patient_list.length;\r\n    pos=0;\r\n\r\n    for (uint i = 0; i < pdlength; i++) {\r\n      if(d.patient_list[i] == msg.sender)\r\n      {\r\n        pos=i;\r\n        break;\r\n      }\r\n    }\r\n\r\n    for(;pos<pdlength-1;pos++)\r\n    {\r\n      d.patient_list[pos]= d.patient_list[pos+1];\r\n    }\r\n\r\n    d.patient_list.pop();\r\n\r\n    emit revokeDoctorAccess(msg.sender, \"Revoked access of doctor\", d.name, doctor_id);\r\n  }\r\n  \r\n\r\n\r\n  function addUserFiles(string memory _file_name, string memory _file_type,string memory _file_hash) public{\r\n\r\n    patientFiles[msg.sender].push(files({file_name:_file_name, file_type:_file_type,file_hash:_file_hash}));\r\n\r\n  }\r\n\r\n\r\n  function getUserFiles(address sender)public view returns(files[] memory){\r\n      return patientFiles[sender];\r\n  }\r\n\r\n\r\n\r\n  function getPatientInfo() public view checkPatient(msg.sender) returns(string memory,address, uint8, bytes32[] memory , address[] memory) {\r\n      patient memory p = patients[msg.sender];\r\n      return (p.name,p.id, p.age, p.files, p.doctor_list);\r\n  }\r\n\r\n\r\n\r\n  function getDoctorInfo() public view checkDoctor(msg.sender) returns(string memory,address, address[] memory) {\r\n      doctor memory d = doctors[msg.sender];\r\n      return (d.name,d.id, d.patient_list);\r\n  }\r\n  \r\n  \r\n  \r\n  function getPatientInfoForDoctor(address pat) public view returns(string memory, uint8, address, files[] memory){\r\n      patient memory p = patients[pat];\r\n      return (p.name, p.age, p.id, patientFiles[pat]);\r\n    }\r\n\r\n  function getHospitalInfo() public view checkHospital(msg.sender) returns(address, string memory, string memory)\r\n  {\r\n    hospital memory h = hospitals[msg.sender];\r\n    return (h.id, h.name, h.location);\r\n  }\r\n\r\n  function getOwnerInfo() public view  onlyOwner() returns(address)\r\n  {\r\n    return (owner);\r\n  }\r\n\r\n  function hospitalGrantAccess(address _user, address _patient) public\r\n  {\r\n    doctor storage d = doctors[_user];\r\n    patient storage p = patients[_patient];\r\n    if(d.id > address(0x0))\r\n    {\r\n      require(patientToDoctor[_patient][_user] < 1);// this means doctor already been access\r\n      \r\n      uint pos = p.doctor_list.push(_user);// new length of array\r\n      \r\n      patientToDoctor[_patient][_user] = pos;\r\n      d.patient_list.push(_patient);    \r\n    }\r\n  }\r\n\r\n  function addHospital(address _id, string memory _name, string memory _location) public{\r\n    hospital memory h = hospitals[_id];\r\n    require(!(h.id > address(0x0)));\r\n    hospitals[_id] = hospital({id:_id, name:_name, location:_location});\r\n  }\r\n \r\n}",
  "sourcePath": "C:\\Users\\URVASHI\\OneDrive\\Desktop\\Mnnit files\\THESIS WORK\\Thesis project\\My_projects\\EHR using Blockchain 1.1\\contracts\\optimized_healthCare.sol",
  "compiler": {
    "name": "solc",
    "version": "0.5.16+commit.9c3226ce.Emscripten.clang"
  },
  "schemaVersion": "3.4.4",
  "updatedAt": "2022-04-11T09:18:37.505Z",
  "networkType": "ethereum",
  "devdoc": {
    "methods": {}
  },
  "userdoc": {
    "methods": {}
  }
}