{
  "contractName": "optimized_healthCare",
  "abi": [
    {
      "inputs": [],
      "payable": false,
      "stateMutability": "nonpayable",
      "type": "constructor"
    },
    {
      "anonymous": false,
      "inputs": [
        {
          "indexed": false,
          "internalType": "address",
          "name": "_doctor",
          "type": "address"
        },
        {
          "indexed": false,
          "internalType": "string",
          "name": "message",
          "type": "string"
        }
      ],
      "name": "doctorSignUp",
      "type": "event"
    },
    {
      "anonymous": false,
      "inputs": [
        {
          "indexed": false,
          "internalType": "string",
          "name": "patient_name",
          "type": "string"
        },
        {
          "indexed": false,
          "internalType": "address",
          "name": "patient_address",
          "type": "address"
        },
        {
          "indexed": false,
          "internalType": "string",
          "name": "message",
          "type": "string"
        }
      ],
      "name": "fileAdd",
      "type": "event"
    },
    {
      "anonymous": false,
      "inputs": [
        {
          "indexed": false,
          "internalType": "address",
          "name": "patient_address",
          "type": "address"
        },
        {
          "indexed": false,
          "internalType": "string",
          "name": "message",
          "type": "string"
        },
        {
          "indexed": false,
          "internalType": "string",
          "name": "_doctor",
          "type": "string"
        },
        {
          "indexed": false,
          "internalType": "address",
          "name": "doctor_address",
          "type": "address"
        }
      ],
      "name": "grantDoctorAccess",
      "type": "event"
    },
    {
      "anonymous": false,
      "inputs": [
        {
          "indexed": false,
          "internalType": "address",
          "name": "_patient",
          "type": "address"
        },
        {
          "indexed": false,
          "internalType": "string",
          "name": "message",
          "type": "string"
        }
      ],
      "name": "patientSignUp",
      "type": "event"
    },
    {
      "constant": false,
      "inputs": [
        {
          "internalType": "string",
          "name": "_name",
          "type": "string"
        },
        {
          "internalType": "uint8",
          "name": "_age",
          "type": "uint8"
        }
      ],
      "name": "signupPatient",
      "outputs": [],
      "payable": false,
      "stateMutability": "nonpayable",
      "type": "function"
    },
    {
      "constant": false,
      "inputs": [
        {
          "internalType": "string",
          "name": "_name",
          "type": "string"
        }
      ],
      "name": "signupDoctor",
      "outputs": [],
      "payable": false,
      "stateMutability": "nonpayable",
      "type": "function"
    },
    {
      "constant": false,
      "inputs": [
        {
          "internalType": "address",
          "name": "doctor_id",
          "type": "address"
        }
      ],
      "name": "grantAccessToDoctor",
      "outputs": [],
      "payable": false,
      "stateMutability": "nonpayable",
      "type": "function"
    },
    {
      "constant": false,
      "inputs": [
        {
          "internalType": "string",
          "name": "_file_name",
          "type": "string"
        },
        {
          "internalType": "string",
          "name": "_file_type",
          "type": "string"
        },
        {
          "internalType": "string",
          "name": "_file_hash",
          "type": "string"
        }
      ],
      "name": "addUserFiles",
      "outputs": [],
      "payable": false,
      "stateMutability": "nonpayable",
      "type": "function"
    },
    {
      "constant": true,
      "inputs": [
        {
          "internalType": "address",
          "name": "sender",
          "type": "address"
        }
      ],
      "name": "getUserFiles",
      "outputs": [
        {
          "components": [
            {
              "internalType": "string",
              "name": "file_name",
              "type": "string"
            },
            {
              "internalType": "string",
              "name": "file_type",
              "type": "string"
            },
            {
              "internalType": "string",
              "name": "file_hash",
              "type": "string"
            }
          ],
          "internalType": "struct optimized_healthCare.files[]",
          "name": "",
          "type": "tuple[]"
        }
      ],
      "payable": false,
      "stateMutability": "view",
      "type": "function"
    },
    {
      "constant": true,
      "inputs": [],
      "name": "getPatientInfo",
      "outputs": [
        {
          "internalType": "string",
          "name": "",
          "type": "string"
        },
        {
          "internalType": "address",
          "name": "",
          "type": "address"
        },
        {
          "internalType": "uint8",
          "name": "",
          "type": "uint8"
        },
        {
          "internalType": "bytes32[]",
          "name": "",
          "type": "bytes32[]"
        },
        {
          "internalType": "address[]",
          "name": "",
          "type": "address[]"
        }
      ],
      "payable": false,
      "stateMutability": "view",
      "type": "function"
    },
    {
      "constant": true,
      "inputs": [],
      "name": "getDoctorInfo",
      "outputs": [
        {
          "internalType": "string",
          "name": "",
          "type": "string"
        },
        {
          "internalType": "address",
          "name": "",
          "type": "address"
        },
        {
          "internalType": "address[]",
          "name": "",
          "type": "address[]"
        }
      ],
      "payable": false,
      "stateMutability": "view",
      "type": "function"
    },
    {
      "constant": true,
      "inputs": [
        {
          "internalType": "address",
          "name": "_user",
          "type": "address"
        }
      ],
      "name": "checkProfile",
      "outputs": [
        {
          "internalType": "string",
          "name": "",
          "type": "string"
        },
        {
          "internalType": "string",
          "name": "",
          "type": "string"
        }
      ],
      "payable": false,
      "stateMutability": "view",
      "type": "function"
    },
    {
      "constant": true,
      "inputs": [
        {
          "internalType": "address",
          "name": "pat",
          "type": "address"
        }
      ],
      "name": "getPatientInfoForDoctor",
      "outputs": [
        {
          "internalType": "string",
          "name": "",
          "type": "string"
        },
        {
          "internalType": "uint8",
          "name": "",
          "type": "uint8"
        },
        {
          "internalType": "address",
          "name": "",
          "type": "address"
        },
        {
          "components": [
            {
              "internalType": "string",
              "name": "file_name",
              "type": "string"
            },
            {
              "internalType": "string",
              "name": "file_type",
              "type": "string"
            },
            {
              "internalType": "string",
              "name": "file_hash",
              "type": "string"
            }
          ],
          "internalType": "struct optimized_healthCare.files[]",
          "name": "",
          "type": "tuple[]"
        }
      ],
      "payable": false,
      "stateMutability": "view",
      "type": "function"
    },
    {
      "constant": true,
      "inputs": [
        {
          "internalType": "address",
          "name": "pat",
          "type": "address"
        }
      ],
      "name": "getDoctorAddedFiles",
      "outputs": [
        {
          "internalType": "string",
          "name": "",
          "type": "string"
        },
        {
          "internalType": "uint8",
          "name": "",
          "type": "uint8"
        },
        {
          "internalType": "address",
          "name": "",
          "type": "address"
        },
        {
          "components": [
            {
              "internalType": "string",
              "name": "file_name",
              "type": "string"
            },
            {
              "internalType": "string",
              "name": "file_type",
              "type": "string"
            },
            {
              "internalType": "string",
              "name": "file_hash",
              "type": "string"
            }
          ],
          "internalType": "struct optimized_healthCare.files[]",
          "name": "",
          "type": "tuple[]"
        }
      ],
      "payable": false,
      "stateMutability": "view",
      "type": "function"
    },
    {
      "constant": true,
      "inputs": [
        {
          "internalType": "address",
          "name": "doc",
          "type": "address"
        },
        {
          "internalType": "address",
          "name": "pat",
          "type": "address"
        },
        {
          "internalType": "bytes32",
          "name": "fileHashId",
          "type": "bytes32"
        }
      ],
      "name": "getFileInfoDoctor",
      "outputs": [
        {
          "internalType": "string",
          "name": "",
          "type": "string"
        },
        {
          "internalType": "string",
          "name": "",
          "type": "string"
        }
      ],
      "payable": false,
      "stateMutability": "view",
      "type": "function"
    },
    {
      "constant": true,
      "inputs": [
        {
          "internalType": "address",
          "name": "pat",
          "type": "address"
        },
        {
          "internalType": "bytes32",
          "name": "fileHashId",
          "type": "bytes32"
        }
      ],
      "name": "getFileInfoPatient",
      "outputs": [
        {
          "internalType": "string",
          "name": "",
          "type": "string"
        },
        {
          "internalType": "string",
          "name": "",
          "type": "string"
        }
      ],
      "payable": false,
      "stateMutability": "view",
      "type": "function"
    },
    {
      "constant": false,
      "inputs": [
        {
          "internalType": "address",
          "name": "_pat",
          "type": "address"
        },
        {
          "internalType": "string",
          "name": "_file_name",
          "type": "string"
        },
        {
          "internalType": "string",
          "name": "_file_type",
          "type": "string"
        },
        {
          "internalType": "string",
          "name": "_file_hash",
          "type": "string"
        }
      ],
      "name": "doctorAddConsultation",
      "outputs": [],
      "payable": false,
      "stateMutability": "nonpayable",
      "type": "function"
    }
  ],
  "bytecode": "0x608060405234801561001057600080fd5b50336000806101000a81548173ffffffffffffffffffffffffffffffffffffffff021916908373ffffffffffffffffffffffffffffffffffffffff160217905550615e4f80620000616000396000f3fe608060405234801561001057600080fd5b50600436106100cf5760003560e01c80636459d52f1161008c578063acdc7d1011610066578063acdc7d101461022b578063b259832d14610247578063b380f5c614610278578063fe59cc1a14610298576100cf565b80636459d52f146101c25780637120203a146101de5780637f34cf94146101fa576100cf565b806301d99258146100d45780631c8e251c146101055780631fc37922146101215780632ae48e4014610151578063326df6641461016d5780635d6a48e21461018f575b600080fd5b6100ee60048036036100e9919081019061515f565b6102cb565b6040516100fc929190615acc565b60405180910390f35b61011f600480360361011a919081019061515f565b6108d8565b005b61013b6004803603610136919081019061515f565b611080565b60405161014891906159fd565b60405180910390f35b61016b600480360361016691908101906152ff565b611304565b005b610175611749565b604051610186959493929190615a64565b60405180910390f35b6101a960048036036101a4919081019061515f565b611d13565b6040516101b99493929190615b03565b60405180910390f35b6101dc60048036036101d791908101906152be565b612762565b005b6101f860048036036101f39190810190615396565b6129a8565b005b610214600480360361020f9190810190615188565b612cde565b604051610222929190615acc565b60405180910390f35b61024560048036036102409190810190615213565b61347d565b005b610261600480360361025c91908101906151d7565b61377c565b60405161026f929190615acc565b60405180910390f35b610280613d00565b60405161028f93929190615a1f565b60405180910390f35b6102b260048036036102ad919081019061515f565b61411b565b6040516102c29493929190615b03565b60405180910390f35b6060806000809054906101000a900473ffffffffffffffffffffffffffffffffffffffff1673ffffffffffffffffffffffffffffffffffffffff163373ffffffffffffffffffffffffffffffffffffffff161461032757600080fd5b61032f614e41565b600260008573ffffffffffffffffffffffffffffffffffffffff1673ffffffffffffffffffffffffffffffffffffffff1681526020019081526020016000206040518060c0016040529081600082018054600181600116156101000203166002900480601f0160208091040260200160405190810160405280929190818152602001828054600181600116156101000203166002900480156104125780601f106103e757610100808354040283529160200191610412565b820191906000526020600020905b8154815290600101906020018083116103f557829003601f168201915b505050505081526020016001820160009054906101000a900460ff1660ff1660ff1681526020016001820160019054906101000a900473ffffffffffffffffffffffffffffffffffffffff1673ffffffffffffffffffffffffffffffffffffffff1673ffffffffffffffffffffffffffffffffffffffff168152602001600282018054806020026020016040519081016040528092919081815260200182805480156104dd57602002820191906000526020600020905b8154815260200190600101908083116104c9575b505050505081526020016003820180548060200260200160405190810160405280929190818152602001828054801561053557602002820191906000526020600020905b815481526020019060010190808311610521575b50505050508152602001600482018054806020026020016040519081016040528092919081815260200182805480156105c357602002820191906000526020600020905b8160009054906101000a900473ffffffffffffffffffffffffffffffffffffffff1673ffffffffffffffffffffffffffffffffffffffff1681526020019060010190808311610579575b50505050508152505090506105d6614e90565b600160008673ffffffffffffffffffffffffffffffffffffffff1673ffffffffffffffffffffffffffffffffffffffff168152602001908152602001600020604051806060016040529081600082018054600181600116156101000203166002900480601f0160208091040260200160405190810160405280929190818152602001828054600181600116156101000203166002900480156106b95780601f1061068e576101008083540402835291602001916106b9565b820191906000526020600020905b81548152906001019060200180831161069c57829003601f168201915b505050505081526020016001820160009054906101000a900473ffffffffffffffffffffffffffffffffffffffff1673ffffffffffffffffffffffffffffffffffffffff1673ffffffffffffffffffffffffffffffffffffffff1681526020016002820180548060200260200160405190810160405280929190818152602001828054801561079d57602002820191906000526020600020905b8160009054906101000a900473ffffffffffffffffffffffffffffffffffffffff1673ffffffffffffffffffffffffffffffffffffffff1681526020019060010190808311610753575b5050505050815250509050600073ffffffffffffffffffffffffffffffffffffffff16826040015173ffffffffffffffffffffffffffffffffffffffff16111561082a5781600001518090506040518060400160405280600781526020017f70617469656e74000000000000000000000000000000000000000000000000008152509350935050506108d3565b600073ffffffffffffffffffffffffffffffffffffffff16816020015173ffffffffffffffffffffffffffffffffffffffff1611156108ac5780600001518090506040518060400160405280600681526020017f646f63746f7200000000000000000000000000000000000000000000000000008152509350935050506108d3565b60405180602001604052806000815250604051806020016040528060008152509350935050505b915091565b336108e1614e41565b600260008373ffffffffffffffffffffffffffffffffffffffff1673ffffffffffffffffffffffffffffffffffffffff1681526020019081526020016000206040518060c0016040529081600082018054600181600116156101000203166002900480601f0160208091040260200160405190810160405280929190818152602001828054600181600116156101000203166002900480156109c45780601f10610999576101008083540402835291602001916109c4565b820191906000526020600020905b8154815290600101906020018083116109a757829003601f168201915b505050505081526020016001820160009054906101000a900460ff1660ff1660ff1681526020016001820160019054906101000a900473ffffffffffffffffffffffffffffffffffffffff1673ffffffffffffffffffffffffffffffffffffffff1673ffffffffffffffffffffffffffffffffffffffff16815260200160028201805480602002602001604051908101604052809291908181526020018280548015610a8f57602002820191906000526020600020905b815481526020019060010190808311610a7b575b5050505050815260200160038201805480602002602001604051908101604052809291908181526020018280548015610ae757602002820191906000526020600020905b815481526020019060010190808311610ad3575b5050505050815260200160048201805480602002602001604051908101604052809291908181526020018280548015610b7557602002820191906000526020600020905b8160009054906101000a900473ffffffffffffffffffffffffffffffffffffffff1673ffffffffffffffffffffffffffffffffffffffff1681526020019060010190808311610b2b575b5050505050815250509050600073ffffffffffffffffffffffffffffffffffffffff16816040015173ffffffffffffffffffffffffffffffffffffffff1611610bbd57600080fd5b82610bc6614e90565b600160008373ffffffffffffffffffffffffffffffffffffffff1673ffffffffffffffffffffffffffffffffffffffff168152602001908152602001600020604051806060016040529081600082018054600181600116156101000203166002900480601f016020809104026020016040519081016040528092919081815260200182805460018160011615610100020316600290048015610ca95780601f10610c7e57610100808354040283529160200191610ca9565b820191906000526020600020905b815481529060010190602001808311610c8c57829003601f168201915b505050505081526020016001820160009054906101000a900473ffffffffffffffffffffffffffffffffffffffff1673ffffffffffffffffffffffffffffffffffffffff1673ffffffffffffffffffffffffffffffffffffffff16815260200160028201805480602002602001604051908101604052809291908181526020018280548015610d8d57602002820191906000526020600020905b8160009054906101000a900473ffffffffffffffffffffffffffffffffffffffff1673ffffffffffffffffffffffffffffffffffffffff1681526020019060010190808311610d43575b5050505050815250509050600073ffffffffffffffffffffffffffffffffffffffff16816020015173ffffffffffffffffffffffffffffffffffffffff1611610dd557600080fd5b6000600260003373ffffffffffffffffffffffffffffffffffffffff1673ffffffffffffffffffffffffffffffffffffffff16815260200190815260200160002090506000600160008873ffffffffffffffffffffffffffffffffffffffff1673ffffffffffffffffffffffffffffffffffffffff16815260200190815260200160002090506001600360003373ffffffffffffffffffffffffffffffffffffffff1673ffffffffffffffffffffffffffffffffffffffff16815260200190815260200160002060008973ffffffffffffffffffffffffffffffffffffffff1673ffffffffffffffffffffffffffffffffffffffff1681526020019081526020016000205410610ee457600080fd5b6000826004018890806001815401808255809150509060018203906000526020600020016000909192909190916101000a81548173ffffffffffffffffffffffffffffffffffffffff021916908373ffffffffffffffffffffffffffffffffffffffff160217905550905080600360003373ffffffffffffffffffffffffffffffffffffffff1673ffffffffffffffffffffffffffffffffffffffff16815260200190815260200160002060008a73ffffffffffffffffffffffffffffffffffffffff1673ffffffffffffffffffffffffffffffffffffffff16815260200190815260200160002081905550816002013390806001815401808255809150509060018203906000526020600020016000909192909190916101000a81548173ffffffffffffffffffffffffffffffffffffffff021916908373ffffffffffffffffffffffffffffffffffffffff160217905550507fe239c4e608cb32aaf8ef7214f811e28ea27c91cad9f719be74579c18fc2e983133836000018a60405161106e939291906159ac565b60405180910390a15050505050505050565b6060600660008373ffffffffffffffffffffffffffffffffffffffff1673ffffffffffffffffffffffffffffffffffffffff168152602001908152602001600020805480602002602001604051908101604052809291908181526020016000905b828210156112f95783829060005260206000209060030201604051806060016040529081600082018054600181600116156101000203166002900480601f01602080910402602001604051908101604052809291908181526020018280546001816001161561010002031660029004801561119d5780601f106111725761010080835404028352916020019161119d565b820191906000526020600020905b81548152906001019060200180831161118057829003601f168201915b50505050508152602001600182018054600181600116156101000203166002900480601f01602080910402602001604051908101604052809291908181526020018280546001816001161561010002031660029004801561123f5780601f106112145761010080835404028352916020019161123f565b820191906000526020600020905b81548152906001019060200180831161122257829003601f168201915b50505050508152602001600282018054600181600116156101000203166002900480601f0160208091040260200160405190810160405280929190818152602001828054600181600116156101000203166002900480156112e15780601f106112b6576101008083540402835291602001916112e1565b820191906000526020600020905b8154815290600101906020018083116112c457829003601f168201915b505050505081525050815260200190600101906110e1565b505050509050919050565b3361130d614e41565b600260008373ffffffffffffffffffffffffffffffffffffffff1673ffffffffffffffffffffffffffffffffffffffff1681526020019081526020016000206040518060c0016040529081600082018054600181600116156101000203166002900480601f0160208091040260200160405190810160405280929190818152602001828054600181600116156101000203166002900480156113f05780601f106113c5576101008083540402835291602001916113f0565b820191906000526020600020905b8154815290600101906020018083116113d357829003601f168201915b505050505081526020016001820160009054906101000a900460ff1660ff1660ff1681526020016001820160019054906101000a900473ffffffffffffffffffffffffffffffffffffffff1673ffffffffffffffffffffffffffffffffffffffff1673ffffffffffffffffffffffffffffffffffffffff168152602001600282018054806020026020016040519081016040528092919081815260200182805480156114bb57602002820191906000526020600020905b8154815260200190600101908083116114a7575b505050505081526020016003820180548060200260200160405190810160405280929190818152602001828054801561151357602002820191906000526020600020905b8154815260200190600101908083116114ff575b50505050508152602001600482018054806020026020016040519081016040528092919081815260200182805480156115a157602002820191906000526020600020905b8160009054906101000a900473ffffffffffffffffffffffffffffffffffffffff1673ffffffffffffffffffffffffffffffffffffffff1681526020019060010190808311611557575b5050505050815250509050600073ffffffffffffffffffffffffffffffffffffffff16816040015173ffffffffffffffffffffffffffffffffffffffff16116115e957600080fd5b600660003373ffffffffffffffffffffffffffffffffffffffff1673ffffffffffffffffffffffffffffffffffffffff16815260200190815260200160002060405180606001604052808781526020018681526020018581525090806001815401808255809150509060018203906000526020600020906003020160009091929091909150600082015181600001908051906020019061168a929190614ec7565b5060208201518160010190805190602001906116a7929190614ec7565b5060408201518160020190805190602001906116c4929190614ec7565b505050507f20a149c8f0c0b833b524826f25e43f1650b93b8f508c11327e5fd698cab1c4a8600260003373ffffffffffffffffffffffffffffffffffffffff1673ffffffffffffffffffffffffffffffffffffffff1681526020019081526020016000206000013360405161173a929190615b56565b60405180910390a15050505050565b60606000806060803361175a614e41565b600260008373ffffffffffffffffffffffffffffffffffffffff1673ffffffffffffffffffffffffffffffffffffffff1681526020019081526020016000206040518060c0016040529081600082018054600181600116156101000203166002900480601f01602080910402602001604051908101604052809291908181526020018280546001816001161561010002031660029004801561183d5780601f106118125761010080835404028352916020019161183d565b820191906000526020600020905b81548152906001019060200180831161182057829003601f168201915b505050505081526020016001820160009054906101000a900460ff1660ff1660ff1681526020016001820160019054906101000a900473ffffffffffffffffffffffffffffffffffffffff1673ffffffffffffffffffffffffffffffffffffffff1673ffffffffffffffffffffffffffffffffffffffff1681526020016002820180548060200260200160405190810160405280929190818152602001828054801561190857602002820191906000526020600020905b8154815260200190600101908083116118f4575b505050505081526020016003820180548060200260200160405190810160405280929190818152602001828054801561196057602002820191906000526020600020905b81548152602001906001019080831161194c575b50505050508152602001600482018054806020026020016040519081016040528092919081815260200182805480156119ee57602002820191906000526020600020905b8160009054906101000a900473ffffffffffffffffffffffffffffffffffffffff1673ffffffffffffffffffffffffffffffffffffffff16815260200190600101908083116119a4575b5050505050815250509050600073ffffffffffffffffffffffffffffffffffffffff16816040015173ffffffffffffffffffffffffffffffffffffffff1611611a3657600080fd5b611a3e614e41565b600260003373ffffffffffffffffffffffffffffffffffffffff1673ffffffffffffffffffffffffffffffffffffffff1681526020019081526020016000206040518060c0016040529081600082018054600181600116156101000203166002900480601f016020809104026020016040519081016040528092919081815260200182805460018160011615610100020316600290048015611b215780601f10611af657610100808354040283529160200191611b21565b820191906000526020600020905b815481529060010190602001808311611b0457829003601f168201915b505050505081526020016001820160009054906101000a900460ff1660ff1660ff1681526020016001820160019054906101000a900473ffffffffffffffffffffffffffffffffffffffff1673ffffffffffffffffffffffffffffffffffffffff1673ffffffffffffffffffffffffffffffffffffffff16815260200160028201805480602002602001604051908101604052809291908181526020018280548015611bec57602002820191906000526020600020905b815481526020019060010190808311611bd8575b5050505050815260200160038201805480602002602001604051908101604052809291908181526020018280548015611c4457602002820191906000526020600020905b815481526020019060010190808311611c30575b5050505050815260200160048201805480602002602001604051908101604052809291908181526020018280548015611cd257602002820191906000526020600020905b8160009054906101000a900473ffffffffffffffffffffffffffffffffffffffff1673ffffffffffffffffffffffffffffffffffffffff1681526020019060010190808311611c88575b505050505081525050905080600001518160400151826020015183606001518460a00151849450819150809050975097509750975097505050509091929394565b6060600080606084611d23614e41565b600260008373ffffffffffffffffffffffffffffffffffffffff1673ffffffffffffffffffffffffffffffffffffffff1681526020019081526020016000206040518060c0016040529081600082018054600181600116156101000203166002900480601f016020809104026020016040519081016040528092919081815260200182805460018160011615610100020316600290048015611e065780601f10611ddb57610100808354040283529160200191611e06565b820191906000526020600020905b815481529060010190602001808311611de957829003601f168201915b505050505081526020016001820160009054906101000a900460ff1660ff1660ff1681526020016001820160019054906101000a900473ffffffffffffffffffffffffffffffffffffffff1673ffffffffffffffffffffffffffffffffffffffff1673ffffffffffffffffffffffffffffffffffffffff16815260200160028201805480602002602001604051908101604052809291908181526020018280548015611ed157602002820191906000526020600020905b815481526020019060010190808311611ebd575b5050505050815260200160038201805480602002602001604051908101604052809291908181526020018280548015611f2957602002820191906000526020600020905b815481526020019060010190808311611f15575b5050505050815260200160048201805480602002602001604051908101604052809291908181526020018280548015611fb757602002820191906000526020600020905b8160009054906101000a900473ffffffffffffffffffffffffffffffffffffffff1673ffffffffffffffffffffffffffffffffffffffff1681526020019060010190808311611f6d575b5050505050815250509050600073ffffffffffffffffffffffffffffffffffffffff16816040015173ffffffffffffffffffffffffffffffffffffffff1611611fff57600080fd5b33612008614e90565b600160008373ffffffffffffffffffffffffffffffffffffffff1673ffffffffffffffffffffffffffffffffffffffff168152602001908152602001600020604051806060016040529081600082018054600181600116156101000203166002900480601f0160208091040260200160405190810160405280929190818152602001828054600181600116156101000203166002900480156120eb5780601f106120c0576101008083540402835291602001916120eb565b820191906000526020600020905b8154815290600101906020018083116120ce57829003601f168201915b505050505081526020016001820160009054906101000a900473ffffffffffffffffffffffffffffffffffffffff1673ffffffffffffffffffffffffffffffffffffffff1673ffffffffffffffffffffffffffffffffffffffff168152602001600282018054806020026020016040519081016040528092919081815260200182805480156121cf57602002820191906000526020600020905b8160009054906101000a900473ffffffffffffffffffffffffffffffffffffffff1673ffffffffffffffffffffffffffffffffffffffff1681526020019060010190808311612185575b5050505050815250509050600073ffffffffffffffffffffffffffffffffffffffff16816020015173ffffffffffffffffffffffffffffffffffffffff161161221757600080fd5b61221f614e41565b600260008b73ffffffffffffffffffffffffffffffffffffffff1673ffffffffffffffffffffffffffffffffffffffff1681526020019081526020016000206040518060c0016040529081600082018054600181600116156101000203166002900480601f0160208091040260200160405190810160405280929190818152602001828054600181600116156101000203166002900480156123025780601f106122d757610100808354040283529160200191612302565b820191906000526020600020905b8154815290600101906020018083116122e557829003601f168201915b505050505081526020016001820160009054906101000a900460ff1660ff1660ff1681526020016001820160019054906101000a900473ffffffffffffffffffffffffffffffffffffffff1673ffffffffffffffffffffffffffffffffffffffff1673ffffffffffffffffffffffffffffffffffffffff168152602001600282018054806020026020016040519081016040528092919081815260200182805480156123cd57602002820191906000526020600020905b8154815260200190600101908083116123b9575b505050505081526020016003820180548060200260200160405190810160405280929190818152602001828054801561242557602002820191906000526020600020905b815481526020019060010190808311612411575b50505050508152602001600482018054806020026020016040519081016040528092919081815260200182805480156124b357602002820191906000526020600020905b8160009054906101000a900473ffffffffffffffffffffffffffffffffffffffff1673ffffffffffffffffffffffffffffffffffffffff1681526020019060010190808311612469575b5050505050815250509050806000015181602001518260400151600760008e73ffffffffffffffffffffffffffffffffffffffff1673ffffffffffffffffffffffffffffffffffffffff16815260200190815260200160002083935080805480602002602001604051908101604052809291908181526020016000905b828210156127485783829060005260206000209060030201604051806060016040529081600082018054600181600116156101000203166002900480601f0160208091040260200160405190810160405280929190818152602001828054600181600116156101000203166002900480156125ec5780601f106125c1576101008083540402835291602001916125ec565b820191906000526020600020905b8154815290600101906020018083116125cf57829003601f168201915b50505050508152602001600182018054600181600116156101000203166002900480601f01602080910402602001604051908101604052809291908181526020018280546001816001161561010002031660029004801561268e5780601f106126635761010080835404028352916020019161268e565b820191906000526020600020905b81548152906001019060200180831161267157829003601f168201915b50505050508152602001600282018054600181600116156101000203166002900480601f0160208091040260200160405190810160405280929190818152602001828054600181600116156101000203166002900480156127305780601f1061270557610100808354040283529160200191612730565b820191906000526020600020905b81548152906001019060200180831161271357829003601f168201915b50505050508152505081526020019060010190612530565b505050509050985098509850985050505050509193509193565b6000600160003373ffffffffffffffffffffffffffffffffffffffff1673ffffffffffffffffffffffffffffffffffffffff16815260200190815260200160002090506040516127b190615911565b6040518091039020826040516020016127ca91906158fa565b6040516020818303038152906040528051906020012014156127eb57600080fd5b600073ffffffffffffffffffffffffffffffffffffffff168160010160009054906101000a900473ffffffffffffffffffffffffffffffffffffffff1673ffffffffffffffffffffffffffffffffffffffff16111561284957600080fd5b60405180606001604052808381526020013373ffffffffffffffffffffffffffffffffffffffff16815260200160006040519080825280602002602001820160405280156128a65781602001602082028038833980820191505090505b50815250600160003373ffffffffffffffffffffffffffffffffffffffff1673ffffffffffffffffffffffffffffffffffffffff1681526020019081526020016000206000820151816000019080519060200190612905929190614ec7565b5060208201518160010160006101000a81548173ffffffffffffffffffffffffffffffffffffffff021916908373ffffffffffffffffffffffffffffffffffffffff1602179055506040820151816002019080519060200190612969929190614f47565b509050507fdd0aa1d3beead09f31cc046643e0d63829e7c7f43e532c2523d978bc9c3bfb333360405161299c919061597e565b60405180910390a15050565b6000600260003373ffffffffffffffffffffffffffffffffffffffff1673ffffffffffffffffffffffffffffffffffffffff16815260200190815260200160002090506040516129f790615911565b604051809103902083604051602001612a1091906158fa565b604051602081830303815290604052805190602001201415612a3157600080fd5b60008260ff16118015612a47575060648260ff16105b612a5057600080fd5b600073ffffffffffffffffffffffffffffffffffffffff168160010160019054906101000a900473ffffffffffffffffffffffffffffffffffffffff1673ffffffffffffffffffffffffffffffffffffffff161115612aae57600080fd5b6040518060c001604052808481526020018360ff1681526020013373ffffffffffffffffffffffffffffffffffffffff1681526020016000604051908082528060200260200182016040528015612b145781602001602082028038833980820191505090505b5081526020016000604051908082528060200260200182016040528015612b4a5781602001602082028038833980820191505090505b5081526020016000604051908082528060200260200182016040528015612b805781602001602082028038833980820191505090505b50815250600260003373ffffffffffffffffffffffffffffffffffffffff1673ffffffffffffffffffffffffffffffffffffffff1681526020019081526020016000206000820151816000019080519060200190612bdf929190614ec7565b5060208201518160010160006101000a81548160ff021916908360ff16021790555060408201518160010160016101000a81548173ffffffffffffffffffffffffffffffffffffffff021916908373ffffffffffffffffffffffffffffffffffffffff1602179055506060820151816002019080519060200190612c64929190614fd1565b506080820151816003019080519060200190612c81929190614fd1565b5060a0820151816004019080519060200190612c9e929190614f47565b509050507ff0c358f29581a43889abe78660babebd0ac62878d0ed89571af6c2168bbcda0c33604051612cd19190615950565b60405180910390a1505050565b6060806000809054906101000a900473ffffffffffffffffffffffffffffffffffffffff1673ffffffffffffffffffffffffffffffffffffffff163373ffffffffffffffffffffffffffffffffffffffff1614612d3a57600080fd5b83612d43614e41565b600260008373ffffffffffffffffffffffffffffffffffffffff1673ffffffffffffffffffffffffffffffffffffffff1681526020019081526020016000206040518060c0016040529081600082018054600181600116156101000203166002900480601f016020809104026020016040519081016040528092919081815260200182805460018160011615610100020316600290048015612e265780601f10612dfb57610100808354040283529160200191612e26565b820191906000526020600020905b815481529060010190602001808311612e0957829003601f168201915b505050505081526020016001820160009054906101000a900460ff1660ff1660ff1681526020016001820160019054906101000a900473ffffffffffffffffffffffffffffffffffffffff1673ffffffffffffffffffffffffffffffffffffffff1673ffffffffffffffffffffffffffffffffffffffff16815260200160028201805480602002602001604051908101604052809291908181526020018280548015612ef157602002820191906000526020600020905b815481526020019060010190808311612edd575b5050505050815260200160038201805480602002602001604051908101604052809291908181526020018280548015612f4957602002820191906000526020600020905b815481526020019060010190808311612f35575b5050505050815260200160048201805480602002602001604051908101604052809291908181526020018280548015612fd757602002820191906000526020600020905b8160009054906101000a900473ffffffffffffffffffffffffffffffffffffffff1673ffffffffffffffffffffffffffffffffffffffff1681526020019060010190808311612f8d575b5050505050815250509050600073ffffffffffffffffffffffffffffffffffffffff16816040015173ffffffffffffffffffffffffffffffffffffffff161161301f57600080fd5b86613028614e90565b600160008373ffffffffffffffffffffffffffffffffffffffff1673ffffffffffffffffffffffffffffffffffffffff168152602001908152602001600020604051806060016040529081600082018054600181600116156101000203166002900480601f01602080910402602001604051908101604052809291908181526020018280546001816001161561010002031660029004801561310b5780601f106130e05761010080835404028352916020019161310b565b820191906000526020600020905b8154815290600101906020018083116130ee57829003601f168201915b505050505081526020016001820160009054906101000a900473ffffffffffffffffffffffffffffffffffffffff1673ffffffffffffffffffffffffffffffffffffffff1673ffffffffffffffffffffffffffffffffffffffff168152602001600282018054806020026020016040519081016040528092919081815260200182805480156131ef57602002820191906000526020600020905b8160009054906101000a900473ffffffffffffffffffffffffffffffffffffffff1673ffffffffffffffffffffffffffffffffffffffff16815260200190600101908083116131a5575b5050505050815250509050600073ffffffffffffffffffffffffffffffffffffffff16816020015173ffffffffffffffffffffffffffffffffffffffff161161323757600080fd5b6040518060400160405280600681526020017f646f63746f72000000000000000000000000000000000000000000000000000081525089888a600060405161327e9061593b565b60405180910390208560405160200161329791906158fa565b6040516020818303038152906040528051906020012014156133a1576000600360008473ffffffffffffffffffffffffffffffffffffffff1673ffffffffffffffffffffffffffffffffffffffff16815260200190815260200160002060008673ffffffffffffffffffffffffffffffffffffffff1673ffffffffffffffffffffffffffffffffffffffff168152602001908152602001600020541161333c57600080fd5b600560008373ffffffffffffffffffffffffffffffffffffffff1673ffffffffffffffffffffffffffffffffffffffff16815260200190815260200160002060008481526020019081526020016000205490506000811161339c57600080fd5b613444565b6040516133ad90615926565b6040518091039020856040516020016133c691906158fa565b60405160208183030381529060405280519060200120141561344357600560008573ffffffffffffffffffffffffffffffffffffffff1673ffffffffffffffffffffffffffffffffffffffff16815260200190815260200160002060008481526020019081526020016000205490506000811161344257600080fd5b5b5b61344c61501e565b6134558d614b6a565b9050806000015181602001518191508090509b509b5050505050505050505050935093915050565b33613486614e90565b600160008373ffffffffffffffffffffffffffffffffffffffff1673ffffffffffffffffffffffffffffffffffffffff168152602001908152602001600020604051806060016040529081600082018054600181600116156101000203166002900480601f0160208091040260200160405190810160405280929190818152602001828054600181600116156101000203166002900480156135695780601f1061353e57610100808354040283529160200191613569565b820191906000526020600020905b81548152906001019060200180831161354c57829003601f168201915b505050505081526020016001820160009054906101000a900473ffffffffffffffffffffffffffffffffffffffff1673ffffffffffffffffffffffffffffffffffffffff1673ffffffffffffffffffffffffffffffffffffffff1681526020016002820180548060200260200160405190810160405280929190818152602001828054801561364d57602002820191906000526020600020905b8160009054906101000a900473ffffffffffffffffffffffffffffffffffffffff1673ffffffffffffffffffffffffffffffffffffffff1681526020019060010190808311613603575b5050505050815250509050600073ffffffffffffffffffffffffffffffffffffffff16816020015173ffffffffffffffffffffffffffffffffffffffff161161369557600080fd5b600760008773ffffffffffffffffffffffffffffffffffffffff1673ffffffffffffffffffffffffffffffffffffffff168152602001908152602001600020604051806060016040528087815260200186815260200185815250908060018154018082558091505090600182039060005260206000209060030201600090919290919091506000820151816000019080519060200190613736929190614ec7565b506020820151816001019080519060200190613753929190614ec7565b506040820151816002019080519060200190613770929190614ec7565b50505050505050505050565b6060806000809054906101000a900473ffffffffffffffffffffffffffffffffffffffff1673ffffffffffffffffffffffffffffffffffffffff163373ffffffffffffffffffffffffffffffffffffffff16146137d857600080fd5b836137e1614e41565b600260008373ffffffffffffffffffffffffffffffffffffffff1673ffffffffffffffffffffffffffffffffffffffff1681526020019081526020016000206040518060c0016040529081600082018054600181600116156101000203166002900480601f0160208091040260200160405190810160405280929190818152602001828054600181600116156101000203166002900480156138c45780601f10613899576101008083540402835291602001916138c4565b820191906000526020600020905b8154815290600101906020018083116138a757829003601f168201915b505050505081526020016001820160009054906101000a900460ff1660ff1660ff1681526020016001820160019054906101000a900473ffffffffffffffffffffffffffffffffffffffff1673ffffffffffffffffffffffffffffffffffffffff1673ffffffffffffffffffffffffffffffffffffffff1681526020016002820180548060200260200160405190810160405280929190818152602001828054801561398f57602002820191906000526020600020905b81548152602001906001019080831161397b575b50505050508152602001600382018054806020026020016040519081016040528092919081815260200182805480156139e757602002820191906000526020600020905b8154815260200190600101908083116139d3575b5050505050815260200160048201805480602002602001604051908101604052809291908181526020018280548015613a7557602002820191906000526020600020905b8160009054906101000a900473ffffffffffffffffffffffffffffffffffffffff1673ffffffffffffffffffffffffffffffffffffffff1681526020019060010190808311613a2b575b5050505050815250509050600073ffffffffffffffffffffffffffffffffffffffff16816040015173ffffffffffffffffffffffffffffffffffffffff1611613abd57600080fd5b6040518060400160405280600781526020017f70617469656e74000000000000000000000000000000000000000000000000008152508686886000604051613b049061593b565b604051809103902085604051602001613b1d91906158fa565b604051602081830303815290604052805190602001201415613c27576000600360008473ffffffffffffffffffffffffffffffffffffffff1673ffffffffffffffffffffffffffffffffffffffff16815260200190815260200160002060008673ffffffffffffffffffffffffffffffffffffffff1673ffffffffffffffffffffffffffffffffffffffff1681526020019081526020016000205411613bc257600080fd5b600560008373ffffffffffffffffffffffffffffffffffffffff1673ffffffffffffffffffffffffffffffffffffffff168152602001908152602001600020600084815260200190815260200160002054905060008111613c2257600080fd5b613cca565b604051613c3390615926565b604051809103902085604051602001613c4c91906158fa565b604051602081830303815290604052805190602001201415613cc957600560008573ffffffffffffffffffffffffffffffffffffffff1673ffffffffffffffffffffffffffffffffffffffff168152602001908152602001600020600084815260200190815260200160002054905060008111613cc857600080fd5b5b5b613cd261501e565b613cdb8b614b6a565b9050806000015181602001518191508090509950995050505050505050509250929050565b60606000606033613d0f614e90565b600160008373ffffffffffffffffffffffffffffffffffffffff1673ffffffffffffffffffffffffffffffffffffffff168152602001908152602001600020604051806060016040529081600082018054600181600116156101000203166002900480601f016020809104026020016040519081016040528092919081815260200182805460018160011615610100020316600290048015613df25780601f10613dc757610100808354040283529160200191613df2565b820191906000526020600020905b815481529060010190602001808311613dd557829003601f168201915b505050505081526020016001820160009054906101000a900473ffffffffffffffffffffffffffffffffffffffff1673ffffffffffffffffffffffffffffffffffffffff1673ffffffffffffffffffffffffffffffffffffffff16815260200160028201805480602002602001604051908101604052809291908181526020018280548015613ed657602002820191906000526020600020905b8160009054906101000a900473ffffffffffffffffffffffffffffffffffffffff1673ffffffffffffffffffffffffffffffffffffffff1681526020019060010190808311613e8c575b5050505050815250509050600073ffffffffffffffffffffffffffffffffffffffff16816020015173ffffffffffffffffffffffffffffffffffffffff1611613f1e57600080fd5b613f26614e90565b600160003373ffffffffffffffffffffffffffffffffffffffff1673ffffffffffffffffffffffffffffffffffffffff168152602001908152602001600020604051806060016040529081600082018054600181600116156101000203166002900480601f0160208091040260200160405190810160405280929190818152602001828054600181600116156101000203166002900480156140095780601f10613fde57610100808354040283529160200191614009565b820191906000526020600020905b815481529060010190602001808311613fec57829003601f168201915b505050505081526020016001820160009054906101000a900473ffffffffffffffffffffffffffffffffffffffff1673ffffffffffffffffffffffffffffffffffffffff1673ffffffffffffffffffffffffffffffffffffffff168152602001600282018054806020026020016040519081016040528092919081815260200182805480156140ed57602002820191906000526020600020905b8160009054906101000a900473ffffffffffffffffffffffffffffffffffffffff1673ffffffffffffffffffffffffffffffffffffffff16815260200190600101908083116140a3575b5050505050815250509050806000015181602001518260400151829250809050955095509550505050909192565b606060008060608461412b614e41565b600260008373ffffffffffffffffffffffffffffffffffffffff1673ffffffffffffffffffffffffffffffffffffffff1681526020019081526020016000206040518060c0016040529081600082018054600181600116156101000203166002900480601f01602080910402602001604051908101604052809291908181526020018280546001816001161561010002031660029004801561420e5780601f106141e35761010080835404028352916020019161420e565b820191906000526020600020905b8154815290600101906020018083116141f157829003601f168201915b505050505081526020016001820160009054906101000a900460ff1660ff1660ff1681526020016001820160019054906101000a900473ffffffffffffffffffffffffffffffffffffffff1673ffffffffffffffffffffffffffffffffffffffff1673ffffffffffffffffffffffffffffffffffffffff168152602001600282018054806020026020016040519081016040528092919081815260200182805480156142d957602002820191906000526020600020905b8154815260200190600101908083116142c5575b505050505081526020016003820180548060200260200160405190810160405280929190818152602001828054801561433157602002820191906000526020600020905b81548152602001906001019080831161431d575b50505050508152602001600482018054806020026020016040519081016040528092919081815260200182805480156143bf57602002820191906000526020600020905b8160009054906101000a900473ffffffffffffffffffffffffffffffffffffffff1673ffffffffffffffffffffffffffffffffffffffff1681526020019060010190808311614375575b5050505050815250509050600073ffffffffffffffffffffffffffffffffffffffff16816040015173ffffffffffffffffffffffffffffffffffffffff161161440757600080fd5b33614410614e90565b600160008373ffffffffffffffffffffffffffffffffffffffff1673ffffffffffffffffffffffffffffffffffffffff168152602001908152602001600020604051806060016040529081600082018054600181600116156101000203166002900480601f0160208091040260200160405190810160405280929190818152602001828054600181600116156101000203166002900480156144f35780601f106144c8576101008083540402835291602001916144f3565b820191906000526020600020905b8154815290600101906020018083116144d657829003601f168201915b505050505081526020016001820160009054906101000a900473ffffffffffffffffffffffffffffffffffffffff1673ffffffffffffffffffffffffffffffffffffffff1673ffffffffffffffffffffffffffffffffffffffff168152602001600282018054806020026020016040519081016040528092919081815260200182805480156145d757602002820191906000526020600020905b8160009054906101000a900473ffffffffffffffffffffffffffffffffffffffff1673ffffffffffffffffffffffffffffffffffffffff168152602001906001019080831161458d575b5050505050815250509050600073ffffffffffffffffffffffffffffffffffffffff16816020015173ffffffffffffffffffffffffffffffffffffffff161161461f57600080fd5b614627614e41565b600260008b73ffffffffffffffffffffffffffffffffffffffff1673ffffffffffffffffffffffffffffffffffffffff1681526020019081526020016000206040518060c0016040529081600082018054600181600116156101000203166002900480601f01602080910402602001604051908101604052809291908181526020018280546001816001161561010002031660029004801561470a5780601f106146df5761010080835404028352916020019161470a565b820191906000526020600020905b8154815290600101906020018083116146ed57829003601f168201915b505050505081526020016001820160009054906101000a900460ff1660ff1660ff1681526020016001820160019054906101000a900473ffffffffffffffffffffffffffffffffffffffff1673ffffffffffffffffffffffffffffffffffffffff1673ffffffffffffffffffffffffffffffffffffffff168152602001600282018054806020026020016040519081016040528092919081815260200182805480156147d557602002820191906000526020600020905b8154815260200190600101908083116147c1575b505050505081526020016003820180548060200260200160405190810160405280929190818152602001828054801561482d57602002820191906000526020600020905b815481526020019060010190808311614819575b50505050508152602001600482018054806020026020016040519081016040528092919081815260200182805480156148bb57602002820191906000526020600020905b8160009054906101000a900473ffffffffffffffffffffffffffffffffffffffff1673ffffffffffffffffffffffffffffffffffffffff1681526020019060010190808311614871575b5050505050815250509050806000015181602001518260400151600660008e73ffffffffffffffffffffffffffffffffffffffff1673ffffffffffffffffffffffffffffffffffffffff16815260200190815260200160002083935080805480602002602001604051908101604052809291908181526020016000905b82821015614b505783829060005260206000209060030201604051806060016040529081600082018054600181600116156101000203166002900480601f0160208091040260200160405190810160405280929190818152602001828054600181600116156101000203166002900480156149f45780601f106149c9576101008083540402835291602001916149f4565b820191906000526020600020905b8154815290600101906020018083116149d757829003601f168201915b50505050508152602001600182018054600181600116156101000203166002900480601f016020809104026020016040519081016040528092919081815260200182805460018160011615610100020316600290048015614a965780601f10614a6b57610100808354040283529160200191614a96565b820191906000526020600020905b815481529060010190602001808311614a7957829003601f168201915b50505050508152602001600282018054600181600116156101000203166002900480601f016020809104026020016040519081016040528092919081815260200182805460018160011615610100020316600290048015614b385780601f10614b0d57610100808354040283529160200191614b38565b820191906000526020600020905b815481529060010190602001808311614b1b57829003601f168201915b50505050508152505081526020019060010190614938565b505050509050985098509850985050505050509193509193565b614b7261501e565b816060600460008381526020019081526020016000206000018054600181600116156101000203166002900480601f016020809104026020016040519081016040528092919081815260200182805460018160011615610100020316600290048015614c1f5780601f10614bf457610100808354040283529160200191614c1f565b820191906000526020600020905b815481529060010190602001808311614c0257829003601f168201915b505050505090506000815111614c3457600080fd5b60046000858152602001908152602001600020604051806060016040529081600082018054600181600116156101000203166002900480601f016020809104026020016040519081016040528092919081815260200182805460018160011615610100020316600290048015614ceb5780601f10614cc057610100808354040283529160200191614ceb565b820191906000526020600020905b815481529060010190602001808311614cce57829003601f168201915b50505050508152602001600182018054600181600116156101000203166002900480601f016020809104026020016040519081016040528092919081815260200182805460018160011615610100020316600290048015614d8d5780601f10614d6257610100808354040283529160200191614d8d565b820191906000526020600020905b815481529060010190602001808311614d7057829003601f168201915b50505050508152602001600282018054600181600116156101000203166002900480601f016020809104026020016040519081016040528092919081815260200182805460018160011615610100020316600290048015614e2f5780601f10614e0457610100808354040283529160200191614e2f565b820191906000526020600020905b815481529060010190602001808311614e1257829003601f168201915b50505050508152505092505050919050565b6040518060c0016040528060608152602001600060ff168152602001600073ffffffffffffffffffffffffffffffffffffffff1681526020016060815260200160608152602001606081525090565b604051806060016040528060608152602001600073ffffffffffffffffffffffffffffffffffffffff168152602001606081525090565b828054600181600116156101000203166002900490600052602060002090601f016020900481019282601f10614f0857805160ff1916838001178555614f36565b82800160010185558215614f36579182015b82811115614f35578251825591602001919060010190614f1a565b5b509050614f43919061503f565b5090565b828054828255906000526020600020908101928215614fc0579160200282015b82811115614fbf5782518260006101000a81548173ffffffffffffffffffffffffffffffffffffffff021916908373ffffffffffffffffffffffffffffffffffffffff16021790555091602001919060010190614f67565b5b509050614fcd9190615064565b5090565b82805482825590600052602060002090810192821561500d579160200282015b8281111561500c578251825591602001919060010190614ff1565b5b50905061501a91906150a7565b5090565b60405180606001604052806060815260200160608152602001606081525090565b61506191905b8082111561505d576000816000905550600101615045565b5090565b90565b6150a491905b808211156150a057600081816101000a81549073ffffffffffffffffffffffffffffffffffffffff02191690555060010161506a565b5090565b90565b6150c991905b808211156150c55760008160009055506001016150ad565b5090565b90565b6000813590506150db81615dc7565b92915050565b6000813590506150f081615dde565b92915050565b600082601f83011261510757600080fd5b813561511a61511582615bc6565b615b99565b9150808252602083016020830185838301111561513657600080fd5b615141838284615d74565b50505092915050565b60008135905061515981615df5565b92915050565b60006020828403121561517157600080fd5b600061517f848285016150cc565b91505092915050565b60008060006060848603121561519d57600080fd5b60006151ab868287016150cc565b93505060206151bc868287016150cc565b92505060406151cd868287016150e1565b9150509250925092565b600080604083850312156151ea57600080fd5b60006151f8858286016150cc565b9250506020615209858286016150e1565b9150509250929050565b6000806000806080858703121561522957600080fd5b6000615237878288016150cc565b945050602085013567ffffffffffffffff81111561525457600080fd5b615260878288016150f6565b935050604085013567ffffffffffffffff81111561527d57600080fd5b615289878288016150f6565b925050606085013567ffffffffffffffff8111156152a657600080fd5b6152b2878288016150f6565b91505092959194509250565b6000602082840312156152d057600080fd5b600082013567ffffffffffffffff8111156152ea57600080fd5b6152f6848285016150f6565b91505092915050565b60008060006060848603121561531457600080fd5b600084013567ffffffffffffffff81111561532e57600080fd5b61533a868287016150f6565b935050602084013567ffffffffffffffff81111561535757600080fd5b615363868287016150f6565b925050604084013567ffffffffffffffff81111561538057600080fd5b61538c868287016150f6565b9150509250925092565b600080604083850312156153a957600080fd5b600083013567ffffffffffffffff8111156153c357600080fd5b6153cf858286016150f6565b92505060206153e08582860161514a565b9150509250929050565b60006153f6838361543d565b60208301905092915050565b600061540e838361558c565b60208301905092915050565b6000615426838361588d565b905092915050565b61543781615d3e565b82525050565b61544681615cf5565b82525050565b61545581615cf5565b82525050565b600061546682615c37565b6154708185615c95565b935061547b83615bf2565b8060005b838110156154ac57815161549388826153ea565b975061549e83615c6e565b92505060018101905061547f565b5085935050505092915050565b60006154c482615c42565b6154ce8185615ca6565b93506154d983615c02565b8060005b8381101561550a5781516154f18882615402565b97506154fc83615c7b565b9250506001810190506154dd565b5085935050505092915050565b600061552282615c4d565b61552c8185615cb7565b93508360208202850161553e85615c12565b8060005b8581101561557a578484038952815161555b858261541a565b945061556683615c88565b925060208a01995050600181019050615542565b50829750879550505050505092915050565b61559581615d07565b82525050565b60006155a682615c63565b6155b08185615cd9565b93506155c0818560208601615d83565b6155c981615db6565b840191505092915050565b60006155df82615c63565b6155e98185615cea565b93506155f9818560208601615d83565b80840191505092915050565b600061561082615c58565b61561a8185615cc8565b935061562a818560208601615d83565b61563381615db6565b840191505092915050565b60008154600181166000811461565b5760018114615681576156c5565b607f600283041661566c8187615cd9565b955060ff1983168652602086019350506156c5565b6002820461568f8187615cd9565b955061569a85615c22565b60005b828110156156bc5781548189015260018201915060208101905061569d565b80880195505050505b505092915050565b60006156da601a83615cd9565b91507f2068617320726567697374657265642061732050617469656e740000000000006000830152602082019050919050565b600061571a600c83615cd9565b91507f416464656420612066696c6500000000000000000000000000000000000000006000830152602082019050919050565b600061575a601983615cd9565b91507f20686173207265676973746572656420617320446f63746f72000000000000006000830152602082019050919050565b600061579a600083615cea565b9150600082019050919050565b60006157b4600783615cea565b91507f70617469656e74000000000000000000000000000000000000000000000000006000830152600782019050919050565b60006157f4602683615cd9565b91507f486173206772616e7465642061636365737320746f2074686520646f63746f7260008301527f2062656c6f7700000000000000000000000000000000000000000000000000006020830152604082019050919050565b600061585a600683615cea565b91507f646f63746f7200000000000000000000000000000000000000000000000000006000830152600682019050919050565b600060608301600083015184820360008601526158aa8282615605565b915050602083015184820360208601526158c48282615605565b915050604083015184820360408601526158de8282615605565b9150508091505092915050565b6158f481615d31565b82525050565b600061590682846155d4565b915081905092915050565b600061591c8261578d565b9150819050919050565b6000615931826157a7565b9150819050919050565b60006159468261584d565b9150819050919050565b6000604082019050615965600083018461542e565b8181036020830152615976816156cd565b905092915050565b6000604082019050615993600083018461542e565b81810360208301526159a48161574d565b905092915050565b60006080820190506159c1600083018661542e565b81810360208301526159d2816157e7565b905081810360408301526159e6818561563e565b90506159f5606083018461544c565b949350505050565b60006020820190508181036000830152615a178184615517565b905092915050565b60006060820190508181036000830152615a39818661559b565b9050615a48602083018561544c565b8181036040830152615a5a818461545b565b9050949350505050565b600060a0820190508181036000830152615a7e818861559b565b9050615a8d602083018761544c565b615a9a60408301866158eb565b8181036060830152615aac81856154b9565b90508181036080830152615ac0818461545b565b90509695505050505050565b60006040820190508181036000830152615ae6818561559b565b90508181036020830152615afa818461559b565b90509392505050565b60006080820190508181036000830152615b1d818761559b565b9050615b2c60208301866158eb565b615b39604083018561544c565b8181036060830152615b4b8184615517565b905095945050505050565b60006060820190508181036000830152615b70818561563e565b9050615b7f602083018461542e565b8181036040830152615b908161570d565b90509392505050565b6000604051905081810181811067ffffffffffffffff82111715615bbc57600080fd5b8060405250919050565b600067ffffffffffffffff821115615bdd57600080fd5b601f19601f8301169050602081019050919050565b6000819050602082019050919050565b6000819050602082019050919050565b6000819050602082019050919050565b60008190508160005260206000209050919050565b600081519050919050565b600081519050919050565b600081519050919050565b600081519050919050565b600081519050919050565b6000602082019050919050565b6000602082019050919050565b6000602082019050919050565b600082825260208201905092915050565b600082825260208201905092915050565b600082825260208201905092915050565b600082825260208201905092915050565b600082825260208201905092915050565b600081905092915050565b6000615d0082615d11565b9050919050565b6000819050919050565b600073ffffffffffffffffffffffffffffffffffffffff82169050919050565b600060ff82169050919050565b6000615d4982615d50565b9050919050565b6000615d5b82615d62565b9050919050565b6000615d6d82615d11565b9050919050565b82818337600083830152505050565b60005b83811015615da1578082015181840152602081019050615d86565b83811115615db0576000848401525b50505050565b6000601f19601f8301169050919050565b615dd081615cf5565b8114615ddb57600080fd5b50565b615de781615d07565b8114615df257600080fd5b50565b615dfe81615d31565b8114615e0957600080fd5b5056fea365627a7a72315820d298079e27817fdeb23591c056397f4c4064e12f2159fbdc9f33408c42dd80b06c6578706572696d656e74616cf564736f6c63430005100040",
  "source": "pragma solidity >=0.4.21 <0.7.0;\r\npragma experimental ABIEncoderV2;\r\n\r\ncontract optimized_healthCare {\r\n  \r\n  address private owner;\r\n  mapping (address => doctor) private doctors;\r\n  // mapping (address => mapping(address => uint)) private doctorToPatient; \r\n  // doctor and list of patient profile he can access\r\n  mapping (address => patient) private patients; //mapping patients to their addresses\r\n  mapping (address => mapping (address => uint)) private patientToDoctor; //patients and list of doctors allowed access to\r\n  mapping (bytes32 => filesInfo) private hashToFile; //filehash to file info\r\n  mapping (address => mapping (bytes32 => uint)) private patientToFile; //files mapped to patients\r\n  mapping (address => files[]) private patientFiles;\r\n\r\n  \r\n  //consultation files added by doctor to patient record\r\n  mapping(address=> files[]) private doctorAddedPatientFiles; \r\n  \r\n  \r\n  //structure of patient file\r\n  struct files{\r\n      string file_name;\r\n      string file_type;\r\n      string file_hash;\r\n  }\r\n  \r\n  //File-info\r\n  struct filesInfo {\r\n      string file_name;\r\n      string file_type;\r\n      string file_secret;\r\n  }\r\n  \r\n\r\n  //structure of patient info\r\n  struct patient {\r\n      string name;\r\n      uint8 age;\r\n      address id;\r\n      bytes32[] files;// hashes of file that belong to this user for display purpose\r\n      bytes32[] doctorAddedFiles; \r\n      //hashes of files that doctor added after consultation for display purpose \r\n      address[] doctor_list;\r\n  }\r\n  \r\n  //structure for doctor offered consultation\r\n  // struct doctorConsultation\r\n  // {\r\n  //   address doc_id;\r\n  //   string consultation;\r\n  // }\r\n\r\n  //structure of doctor info\r\n  struct doctor {\r\n      string name;\r\n      address id;\r\n      address[] patient_list;\r\n  }\r\n  \r\n\r\n  //setting the owner\r\n  constructor() public {\r\n    owner = msg.sender;\r\n  }\r\n  \r\n  \r\n  //verify doctor on blockchain\r\n  modifier checkDoctor(address id) {\r\n    doctor memory d = doctors[id];\r\n    require(d.id > address(0x0));//check if doctor exist\r\n    _;\r\n  }\r\n  \r\n  //verify patient on blockchain\r\n  modifier checkPatient(address id) {\r\n    patient memory p = patients[id];\r\n    require(p.id > address(0x0));//check if patient exist\r\n    _;\r\n  }\r\n  \r\n\r\n  //owner verification modifier\r\n  modifier onlyOwner() {\r\n    require(msg.sender == owner);\r\n    _;\r\n  }\r\n   \r\n\r\n  //check if user has file access\r\n  modifier checkFileAccess(string memory role, address id, bytes32 fileHashId, address pat) {\r\n    uint pos;\r\n    //check if doctor trying to access the file\r\n    if(keccak256(abi.encodePacked(role)) == keccak256(\"doctor\")) {\r\n        //check if patient granted access to doctor\r\n        require(patientToDoctor[pat][id] > 0);\r\n        pos = patientToFile[pat][fileHashId];\r\n        require(pos > 0);   \r\n    }\r\n    //check if patient trying to access the file\r\n    else if(keccak256(abi.encodePacked(role)) == keccak256(\"patient\")) \r\n    {\r\n        //check if file belongs to patient\r\n        pos = patientToFile[id][fileHashId];\r\n        require(pos > 0);\r\n    }\r\n    _; \r\n  }\r\n  \r\n\r\n  modifier checkFile(bytes32 fileHashId) {\r\n    bytes memory tempString = bytes(hashToFile[fileHashId].file_name);\r\n    require(tempString.length > 0);//check if file exist\r\n    _;\r\n  }\r\n\r\n  //Event to emit when new patient registers\r\n  event patientSignUp( address _patient, string message);\r\n\r\n  function signupPatient(string memory _name, uint8 _age) public {\r\n     //search for patient on blockchain by address \r\n     patient storage p = patients[msg.sender];\r\n     //check input name and age\r\n     require(keccak256(abi.encodePacked(_name)) != keccak256(\"\"));\r\n     require((_age > 0) && (_age < 100));\r\n     //Check if the patient already exists by address\r\n     require(!(p.id > address(0x0)));\r\n     //Add patient to blockchain\r\n     patients[msg.sender] = patient({name:_name,age:_age,id:msg.sender,files:new bytes32[](0),doctor_list:new address[](0), doctorAddedFiles: new bytes32[](0)});\r\n    //  patients[msg.sender] = patient({name:_name,age:_age,id:msg.sender,files:new bytes32[](0),doctor_list:new address[](0)});\r\n\r\n\r\n     emit patientSignUp( msg.sender, \" has registered as Patient\");\r\n  }\r\n  \r\n\r\n  //Event to emit when new doctor registers\r\n  event doctorSignUp(address _doctor, string message);\r\n\r\n  function signupDoctor(string memory _name) public {\r\n      //search for doctor on blockchain\r\n      doctor storage d = doctors[msg.sender];\r\n      //check name of doctor\r\n      require(keccak256(abi.encodePacked(_name)) != keccak256(\"\"));\r\n      //check if doctor already exists\r\n      require(!(d.id > address(0x0)));\r\n      //Add the doctor to blockchain\r\n      doctors[msg.sender] = doctor({name:_name,id:msg.sender,patient_list:new address[](0)});\r\n      emit doctorSignUp(msg.sender, \" has registered as Doctor\");\r\n  }\r\n\r\n\r\n  //Event to emit when patient grants access to doctor\r\n  event grantDoctorAccess( address patient_address, string message, string _doctor, address doctor_address);\r\n  \r\n  function grantAccessToDoctor(address doctor_id) public checkPatient(msg.sender) checkDoctor(doctor_id) {\r\n      patient storage p = patients[msg.sender];\r\n      doctor storage d = doctors[doctor_id];\r\n      require(patientToDoctor[msg.sender][doctor_id] < 1);// this means doctor already been access\r\n      \r\n      uint pos = p.doctor_list.push(doctor_id);// new length of array\r\n      \r\n      patientToDoctor[msg.sender][doctor_id] = pos;\r\n      d.patient_list.push(msg.sender);\r\n\r\n      emit grantDoctorAccess( msg.sender , \"Has granted access to the doctor below\", d.name , doctor_id);\r\n  }\r\n\r\n  \r\n  //Event to emit when patient adds a file successfully\r\n  event fileAdd(string patient_name, address patient_address, string message);\r\n\r\n  function addUserFiles(string memory _file_name, string memory _file_type,string memory _file_hash) public checkPatient(msg.sender){\r\n      \r\n      patientFiles[msg.sender].push(files({file_name:_file_name, file_type:_file_type,file_hash:_file_hash}));\r\n      emit fileAdd(patients[msg.sender].name , msg.sender, \"Added a file\");\r\n  }\r\n\r\n\r\n  function getUserFiles(address sender)public view returns(files[] memory){\r\n      return patientFiles[sender];\r\n  }\r\n\r\n\r\n\r\n  function getPatientInfo() public view checkPatient(msg.sender) returns(string memory,address, uint8, bytes32[] memory , address[] memory) {\r\n      patient memory p = patients[msg.sender];\r\n      return (p.name,p.id, p.age, p.files, p.doctor_list);\r\n  }\r\n\r\n\r\n\r\n  function getDoctorInfo() public view checkDoctor(msg.sender) returns(string memory,address, address[] memory){\r\n      doctor memory d = doctors[msg.sender];\r\n      return (d.name,d.id, d.patient_list);\r\n  }\r\n  \r\n  function checkProfile(address _user) public view onlyOwner returns(string memory, string memory){\r\n      patient memory p = patients[_user];\r\n      doctor memory d = doctors[_user];\r\n      \r\n      if(p.id > address(0x0))\r\n          return (p.name, 'patient');\r\n      else if(d.id > address(0x0))\r\n          return (d.name, 'doctor');\r\n      else\r\n          return ('', '');\r\n    }\r\n  \r\n  function getPatientInfoForDoctor(address pat) public view checkPatient(pat) checkDoctor(msg.sender) returns(string memory, uint8, address, files[] memory){\r\n      patient memory p = patients[pat];\r\n\r\n      //require(patientToDoctor[pat][msg.sender] > 0);\r\n\r\n      return (p.name, p.age, p.id, patientFiles[pat]);\r\n    }\r\n  \r\n   function getDoctorAddedFiles(address pat) public view checkPatient(pat) checkDoctor(msg.sender) returns(string memory, uint8, address, files[] memory){\r\n      patient memory p = patients[pat];\r\n\r\n      //require(patientToDoctor[pat][msg.sender] > 0);\r\n\r\n      return (p.name, p.age, p.id, doctorAddedPatientFiles[pat]);\r\n    }\r\n  \r\n  function getFileInfo(bytes32 fileHashId) private view checkFile(fileHashId) returns(filesInfo memory) {\r\n      return hashToFile[fileHashId];\r\n    }\r\n  \r\n  // function getFileSecret(bytes32 fileHashId, string memory role, address id, address pat) public view \r\n  // checkFile(fileHashId) checkFileAccess(role, id, fileHashId, pat)\r\n  // returns(string memory) {\r\n  //     filesInfo memory f = getFileInfo(fileHashId);\r\n  //     return (f.file_secret);\r\n  //   }\r\n\r\n  function getFileInfoDoctor(address doc, address pat, bytes32 fileHashId) public view \r\n  onlyOwner checkPatient(pat) checkDoctor(doc) checkFileAccess(\"doctor\", doc, fileHashId, pat)\r\n  returns(string memory, string memory) {\r\n      filesInfo memory f = getFileInfo(fileHashId);\r\n      return (f.file_name, f.file_type);\r\n    }\r\n  \r\n  function getFileInfoPatient(address pat, bytes32 fileHashId) public view \r\n  onlyOwner checkPatient(pat) checkFileAccess(\"patient\", pat, fileHashId, pat) returns(string memory, string memory) {\r\n      filesInfo memory f = getFileInfo(fileHashId);\r\n      return (f.file_name, f.file_type);\r\n    }\r\n\r\n  // event doctorAddFile(string doctor_name, address doctor_address, string message, address patient_address, string patient_name);\r\n\r\n  function doctorAddConsultation(address _pat, string memory _file_name, string memory _file_type,string memory _file_hash) public checkDoctor(msg.sender)\r\n  {\r\n    doctorAddedPatientFiles[_pat].push(files({file_name:_file_name, file_type:_file_type,file_hash:_file_hash}));\r\n    // emit doctorAddFile(doctors[msg.sender].name , msg.sender, \"Added consultation file for patient\", _pat, patients[_pat].name);\r\n  }\r\n\r\n  \r\n}",
  "sourcePath": "C:\\Users\\URVASHI\\OneDrive\\Desktop\\Mnnit files\\THESIS WORK\\Thesis project\\My_projects\\EHR using Blockchain 1.1\\contracts\\optimized_healthCare.sol",
  "compiler": {
    "name": "solc",
    "version": "0.5.16+commit.9c3226ce.Emscripten.clang"
  },
  "schemaVersion": "3.4.4",
  "updatedAt": "2022-03-14T04:21:49.519Z",
  "networkType": "ethereum",
  "devdoc": {
    "methods": {}
  },
  "userdoc": {
    "methods": {}
  }
}