{
  "contractName": "optimized_healthCare",
  "abi": [
    {
      "inputs": [],
      "payable": false,
      "stateMutability": "nonpayable",
      "type": "constructor"
    },
    {
      "anonymous": false,
      "inputs": [
        {
          "indexed": false,
          "internalType": "string",
          "name": "patient_name",
          "type": "string"
        },
        {
          "indexed": false,
          "internalType": "address",
          "name": "patient_address",
          "type": "address"
        },
        {
          "indexed": false,
          "internalType": "string",
          "name": "message",
          "type": "string"
        }
      ],
      "name": "fileAdd",
      "type": "event"
    },
    {
      "anonymous": false,
      "inputs": [
        {
          "indexed": false,
          "internalType": "address",
          "name": "patient_address",
          "type": "address"
        },
        {
          "indexed": false,
          "internalType": "string",
          "name": "message",
          "type": "string"
        },
        {
          "indexed": false,
          "internalType": "string",
          "name": "_doctor",
          "type": "string"
        },
        {
          "indexed": false,
          "internalType": "address",
          "name": "doctor_address",
          "type": "address"
        }
      ],
      "name": "grantDoctorAccess",
      "type": "event"
    },
    {
      "constant": false,
      "inputs": [
        {
          "internalType": "string",
          "name": "_name",
          "type": "string"
        },
        {
          "internalType": "uint8",
          "name": "_age",
          "type": "uint8"
        }
      ],
      "name": "signupPatient",
      "outputs": [],
      "payable": false,
      "stateMutability": "nonpayable",
      "type": "function"
    },
    {
      "constant": false,
      "inputs": [
        {
          "internalType": "string",
          "name": "_name",
          "type": "string"
        }
      ],
      "name": "signupDoctor",
      "outputs": [],
      "payable": false,
      "stateMutability": "nonpayable",
      "type": "function"
    },
    {
      "constant": false,
      "inputs": [
        {
          "internalType": "address",
          "name": "doctor_id",
          "type": "address"
        }
      ],
      "name": "grantAccessToDoctor",
      "outputs": [],
      "payable": false,
      "stateMutability": "nonpayable",
      "type": "function"
    },
    {
      "constant": false,
      "inputs": [
        {
          "internalType": "address",
          "name": "doctor_id",
          "type": "address"
        }
      ],
      "name": "revokeAccessFromDoctor",
      "outputs": [],
      "payable": false,
      "stateMutability": "nonpayable",
      "type": "function"
    },
    {
      "constant": false,
      "inputs": [
        {
          "internalType": "string",
          "name": "_file_name",
          "type": "string"
        },
        {
          "internalType": "string",
          "name": "_file_type",
          "type": "string"
        },
        {
          "internalType": "string",
          "name": "_file_hash",
          "type": "string"
        }
      ],
      "name": "addUserFiles",
      "outputs": [],
      "payable": false,
      "stateMutability": "nonpayable",
      "type": "function"
    },
    {
      "constant": true,
      "inputs": [
        {
          "internalType": "address",
          "name": "sender",
          "type": "address"
        }
      ],
      "name": "getUserFiles",
      "outputs": [
        {
          "components": [
            {
              "internalType": "string",
              "name": "file_name",
              "type": "string"
            },
            {
              "internalType": "string",
              "name": "file_type",
              "type": "string"
            },
            {
              "internalType": "string",
              "name": "file_hash",
              "type": "string"
            }
          ],
          "internalType": "struct optimized_healthCare.files[]",
          "name": "",
          "type": "tuple[]"
        }
      ],
      "payable": false,
      "stateMutability": "view",
      "type": "function"
    },
    {
      "constant": true,
      "inputs": [],
      "name": "getPatientInfo",
      "outputs": [
        {
          "internalType": "string",
          "name": "",
          "type": "string"
        },
        {
          "internalType": "address",
          "name": "",
          "type": "address"
        },
        {
          "internalType": "uint8",
          "name": "",
          "type": "uint8"
        },
        {
          "internalType": "bytes32[]",
          "name": "",
          "type": "bytes32[]"
        },
        {
          "internalType": "address[]",
          "name": "",
          "type": "address[]"
        }
      ],
      "payable": false,
      "stateMutability": "view",
      "type": "function"
    },
    {
      "constant": true,
      "inputs": [],
      "name": "getDoctorInfo",
      "outputs": [
        {
          "internalType": "string",
          "name": "",
          "type": "string"
        },
        {
          "internalType": "address",
          "name": "",
          "type": "address"
        },
        {
          "internalType": "address[]",
          "name": "",
          "type": "address[]"
        }
      ],
      "payable": false,
      "stateMutability": "view",
      "type": "function"
    },
    {
      "constant": true,
      "inputs": [
        {
          "internalType": "address",
          "name": "pat",
          "type": "address"
        }
      ],
      "name": "getPatientInfoForDoctor",
      "outputs": [
        {
          "internalType": "string",
          "name": "",
          "type": "string"
        },
        {
          "internalType": "uint8",
          "name": "",
          "type": "uint8"
        },
        {
          "internalType": "address",
          "name": "",
          "type": "address"
        },
        {
          "components": [
            {
              "internalType": "string",
              "name": "file_name",
              "type": "string"
            },
            {
              "internalType": "string",
              "name": "file_type",
              "type": "string"
            },
            {
              "internalType": "string",
              "name": "file_hash",
              "type": "string"
            }
          ],
          "internalType": "struct optimized_healthCare.files[]",
          "name": "",
          "type": "tuple[]"
        }
      ],
      "payable": false,
      "stateMutability": "view",
      "type": "function"
    },
    {
      "constant": false,
      "inputs": [
        {
          "internalType": "address",
          "name": "_pat",
          "type": "address"
        },
        {
          "internalType": "string",
          "name": "_consultation",
          "type": "string"
        },
        {
          "internalType": "string",
          "name": "_medicine",
          "type": "string"
        },
        {
          "internalType": "string",
          "name": "_time",
          "type": "string"
        }
      ],
      "name": "addDoctorOfferedConsultation",
      "outputs": [],
      "payable": false,
      "stateMutability": "nonpayable",
      "type": "function"
    },
    {
      "constant": true,
      "inputs": [
        {
          "internalType": "address",
          "name": "_pat",
          "type": "address"
        }
      ],
      "name": "getDoctorConsultation",
      "outputs": [
        {
          "components": [
            {
              "internalType": "address",
              "name": "doc_id",
              "type": "address"
            },
            {
              "internalType": "string",
              "name": "consultation_advice",
              "type": "string"
            },
            {
              "internalType": "string",
              "name": "medicine",
              "type": "string"
            },
            {
              "internalType": "string",
              "name": "time_period",
              "type": "string"
            }
          ],
          "internalType": "struct optimized_healthCare.doctorOfferedConsultation[]",
          "name": "",
          "type": "tuple[]"
        }
      ],
      "payable": false,
      "stateMutability": "view",
      "type": "function"
    },
    {
      "constant": true,
      "inputs": [],
      "name": "getDoctorConsultationForPatient",
      "outputs": [
        {
          "components": [
            {
              "internalType": "address",
              "name": "doc_id",
              "type": "address"
            },
            {
              "internalType": "string",
              "name": "consultation_advice",
              "type": "string"
            },
            {
              "internalType": "string",
              "name": "medicine",
              "type": "string"
            },
            {
              "internalType": "string",
              "name": "time_period",
              "type": "string"
            }
          ],
          "internalType": "struct optimized_healthCare.doctorOfferedConsultation[]",
          "name": "",
          "type": "tuple[]"
        }
      ],
      "payable": false,
      "stateMutability": "view",
      "type": "function"
    }
  ],
  "bytecode": "0x608060405234801561001057600080fd5b50336000806101000a81548173ffffffffffffffffffffffffffffffffffffffff021916908373ffffffffffffffffffffffffffffffffffffffff160217905550614ff1806100606000396000f3fe608060405234801561001057600080fd5b50600436106100b45760003560e01c8063629e559d11610071578063629e559d146101915780636459d52f146101ad5780637120203a146101c9578063abf2ddf1146101e5578063b380f5c614610201578063fe59cc1a14610221576100b4565b80630d37f629146100b95780631c8e251c146100d75780631fc37922146100f35780632ae48e4014610123578063326df6641461013f5780634257a5bc14610161575b600080fd5b6100c1610254565b6040516100ce9190614b92565b60405180910390f35b6100f160048036036100ec9190810190614431565b6107bb565b005b61010d60048036036101089190810190614431565b610f0b565b60405161011a9190614bb4565b60405180910390f35b61013d60048036036101389190810190614546565b61118f565b005b61014761157c565b604051610158959493929190614c1b565b60405180910390f35b61017b60048036036101769190810190614431565b611a96565b6040516101889190614b92565b60405180910390f35b6101ab60048036036101a69190810190614431565b612219565b005b6101c760048036036101c29190810190614505565b612b79565b005b6101e360048036036101de91908101906145dd565b612d88565b005b6101ff60048036036101fa919081019061445a565b613034565b005b610209613396565b60405161021893929190614bd6565b60405180910390f35b61023b60048036036102369190810190614431565b6137b1565b60405161024b9493929190614c83565b60405180910390f35b60603361025f614150565b600260008373ffffffffffffffffffffffffffffffffffffffff1673ffffffffffffffffffffffffffffffffffffffff1681526020019081526020016000206040518060a0016040529081600082018054600181600116156101000203166002900480601f0160208091040260200160405190810160405280929190818152602001828054600181600116156101000203166002900480156103425780601f1061031757610100808354040283529160200191610342565b820191906000526020600020905b81548152906001019060200180831161032557829003601f168201915b505050505081526020016001820160009054906101000a900460ff1660ff1660ff1681526020016001820160019054906101000a900473ffffffffffffffffffffffffffffffffffffffff1673ffffffffffffffffffffffffffffffffffffffff1673ffffffffffffffffffffffffffffffffffffffff1681526020016002820180548060200260200160405190810160405280929190818152602001828054801561040d57602002820191906000526020600020905b8154815260200190600101908083116103f9575b505050505081526020016003820180548060200260200160405190810160405280929190818152602001828054801561049b57602002820191906000526020600020905b8160009054906101000a900473ffffffffffffffffffffffffffffffffffffffff1673ffffffffffffffffffffffffffffffffffffffff1681526020019060010190808311610451575b5050505050815250509050600073ffffffffffffffffffffffffffffffffffffffff16816040015173ffffffffffffffffffffffffffffffffffffffff16116104e357600080fd5b600660003373ffffffffffffffffffffffffffffffffffffffff1673ffffffffffffffffffffffffffffffffffffffff168152602001908152602001600020805480602002602001604051908101604052809291908181526020016000905b828210156107b057838290600052602060002090600402016040518060800160405290816000820160009054906101000a900473ffffffffffffffffffffffffffffffffffffffff1673ffffffffffffffffffffffffffffffffffffffff1673ffffffffffffffffffffffffffffffffffffffff168152602001600182018054600181600116156101000203166002900480601f0160208091040260200160405190810160405280929190818152602001828054600181600116156101000203166002900480156106545780601f1061062957610100808354040283529160200191610654565b820191906000526020600020905b81548152906001019060200180831161063757829003601f168201915b50505050508152602001600282018054600181600116156101000203166002900480601f0160208091040260200160405190810160405280929190818152602001828054600181600116156101000203166002900480156106f65780601f106106cb576101008083540402835291602001916106f6565b820191906000526020600020905b8154815290600101906020018083116106d957829003601f168201915b50505050508152602001600382018054600181600116156101000203166002900480601f0160208091040260200160405190810160405280929190818152602001828054600181600116156101000203166002900480156107985780601f1061076d57610100808354040283529160200191610798565b820191906000526020600020905b81548152906001019060200180831161077b57829003601f168201915b50505050508152505081526020019060010190610542565b505050509250505090565b336107c4614150565b600260008373ffffffffffffffffffffffffffffffffffffffff1673ffffffffffffffffffffffffffffffffffffffff1681526020019081526020016000206040518060a0016040529081600082018054600181600116156101000203166002900480601f0160208091040260200160405190810160405280929190818152602001828054600181600116156101000203166002900480156108a75780601f1061087c576101008083540402835291602001916108a7565b820191906000526020600020905b81548152906001019060200180831161088a57829003601f168201915b505050505081526020016001820160009054906101000a900460ff1660ff1660ff1681526020016001820160019054906101000a900473ffffffffffffffffffffffffffffffffffffffff1673ffffffffffffffffffffffffffffffffffffffff1673ffffffffffffffffffffffffffffffffffffffff1681526020016002820180548060200260200160405190810160405280929190818152602001828054801561097257602002820191906000526020600020905b81548152602001906001019080831161095e575b5050505050815260200160038201805480602002602001604051908101604052809291908181526020018280548015610a0057602002820191906000526020600020905b8160009054906101000a900473ffffffffffffffffffffffffffffffffffffffff1673ffffffffffffffffffffffffffffffffffffffff16815260200190600101908083116109b6575b5050505050815250509050600073ffffffffffffffffffffffffffffffffffffffff16816040015173ffffffffffffffffffffffffffffffffffffffff1611610a4857600080fd5b82610a51614198565b600160008373ffffffffffffffffffffffffffffffffffffffff1673ffffffffffffffffffffffffffffffffffffffff168152602001908152602001600020604051806060016040529081600082018054600181600116156101000203166002900480601f016020809104026020016040519081016040528092919081815260200182805460018160011615610100020316600290048015610b345780601f10610b0957610100808354040283529160200191610b34565b820191906000526020600020905b815481529060010190602001808311610b1757829003601f168201915b505050505081526020016001820160009054906101000a900473ffffffffffffffffffffffffffffffffffffffff1673ffffffffffffffffffffffffffffffffffffffff1673ffffffffffffffffffffffffffffffffffffffff16815260200160028201805480602002602001604051908101604052809291908181526020018280548015610c1857602002820191906000526020600020905b8160009054906101000a900473ffffffffffffffffffffffffffffffffffffffff1673ffffffffffffffffffffffffffffffffffffffff1681526020019060010190808311610bce575b5050505050815250509050600073ffffffffffffffffffffffffffffffffffffffff16816020015173ffffffffffffffffffffffffffffffffffffffff1611610c6057600080fd5b6000600260003373ffffffffffffffffffffffffffffffffffffffff1673ffffffffffffffffffffffffffffffffffffffff16815260200190815260200160002090506000600160008873ffffffffffffffffffffffffffffffffffffffff1673ffffffffffffffffffffffffffffffffffffffff16815260200190815260200160002090506001600360003373ffffffffffffffffffffffffffffffffffffffff1673ffffffffffffffffffffffffffffffffffffffff16815260200190815260200160002060008973ffffffffffffffffffffffffffffffffffffffff1673ffffffffffffffffffffffffffffffffffffffff1681526020019081526020016000205410610d6f57600080fd5b6000826003018890806001815401808255809150509060018203906000526020600020016000909192909190916101000a81548173ffffffffffffffffffffffffffffffffffffffff021916908373ffffffffffffffffffffffffffffffffffffffff160217905550905080600360003373ffffffffffffffffffffffffffffffffffffffff1673ffffffffffffffffffffffffffffffffffffffff16815260200190815260200160002060008a73ffffffffffffffffffffffffffffffffffffffff1673ffffffffffffffffffffffffffffffffffffffff16815260200190815260200160002081905550816002013390806001815401808255809150509060018203906000526020600020016000909192909190916101000a81548173ffffffffffffffffffffffffffffffffffffffff021916908373ffffffffffffffffffffffffffffffffffffffff160217905550507fe239c4e608cb32aaf8ef7214f811e28ea27c91cad9f719be74579c18fc2e983133836000018a604051610ef993929190614b41565b60405180910390a15050505050505050565b6060600560008373ffffffffffffffffffffffffffffffffffffffff1673ffffffffffffffffffffffffffffffffffffffff168152602001908152602001600020805480602002602001604051908101604052809291908181526020016000905b828210156111845783829060005260206000209060030201604051806060016040529081600082018054600181600116156101000203166002900480601f0160208091040260200160405190810160405280929190818152602001828054600181600116156101000203166002900480156110285780601f10610ffd57610100808354040283529160200191611028565b820191906000526020600020905b81548152906001019060200180831161100b57829003601f168201915b50505050508152602001600182018054600181600116156101000203166002900480601f0160208091040260200160405190810160405280929190818152602001828054600181600116156101000203166002900480156110ca5780601f1061109f576101008083540402835291602001916110ca565b820191906000526020600020905b8154815290600101906020018083116110ad57829003601f168201915b50505050508152602001600282018054600181600116156101000203166002900480601f01602080910402602001604051908101604052809291908181526020018280546001816001161561010002031660029004801561116c5780601f106111415761010080835404028352916020019161116c565b820191906000526020600020905b81548152906001019060200180831161114f57829003601f168201915b50505050508152505081526020019060010190610f6c565b505050509050919050565b33611198614150565b600260008373ffffffffffffffffffffffffffffffffffffffff1673ffffffffffffffffffffffffffffffffffffffff1681526020019081526020016000206040518060a0016040529081600082018054600181600116156101000203166002900480601f01602080910402602001604051908101604052809291908181526020018280546001816001161561010002031660029004801561127b5780601f106112505761010080835404028352916020019161127b565b820191906000526020600020905b81548152906001019060200180831161125e57829003601f168201915b505050505081526020016001820160009054906101000a900460ff1660ff1660ff1681526020016001820160019054906101000a900473ffffffffffffffffffffffffffffffffffffffff1673ffffffffffffffffffffffffffffffffffffffff1673ffffffffffffffffffffffffffffffffffffffff1681526020016002820180548060200260200160405190810160405280929190818152602001828054801561134657602002820191906000526020600020905b815481526020019060010190808311611332575b50505050508152602001600382018054806020026020016040519081016040528092919081815260200182805480156113d457602002820191906000526020600020905b8160009054906101000a900473ffffffffffffffffffffffffffffffffffffffff1673ffffffffffffffffffffffffffffffffffffffff168152602001906001019080831161138a575b5050505050815250509050600073ffffffffffffffffffffffffffffffffffffffff16816040015173ffffffffffffffffffffffffffffffffffffffff161161141c57600080fd5b600560003373ffffffffffffffffffffffffffffffffffffffff1673ffffffffffffffffffffffffffffffffffffffff1681526020019081526020016000206040518060600160405280878152602001868152602001858152509080600181540180825580915050906001820390600052602060002090600302016000909192909190915060008201518160000190805190602001906114bd9291906141cf565b5060208201518160010190805190602001906114da9291906141cf565b5060408201518160020190805190602001906114f79291906141cf565b505050507f20a149c8f0c0b833b524826f25e43f1650b93b8f508c11327e5fd698cab1c4a8600260003373ffffffffffffffffffffffffffffffffffffffff1673ffffffffffffffffffffffffffffffffffffffff1681526020019081526020016000206000013360405161156d929190614cd6565b60405180910390a15050505050565b60606000806060803361158d614150565b600260008373ffffffffffffffffffffffffffffffffffffffff1673ffffffffffffffffffffffffffffffffffffffff1681526020019081526020016000206040518060a0016040529081600082018054600181600116156101000203166002900480601f0160208091040260200160405190810160405280929190818152602001828054600181600116156101000203166002900480156116705780601f1061164557610100808354040283529160200191611670565b820191906000526020600020905b81548152906001019060200180831161165357829003601f168201915b505050505081526020016001820160009054906101000a900460ff1660ff1660ff1681526020016001820160019054906101000a900473ffffffffffffffffffffffffffffffffffffffff1673ffffffffffffffffffffffffffffffffffffffff1673ffffffffffffffffffffffffffffffffffffffff1681526020016002820180548060200260200160405190810160405280929190818152602001828054801561173b57602002820191906000526020600020905b815481526020019060010190808311611727575b50505050508152602001600382018054806020026020016040519081016040528092919081815260200182805480156117c957602002820191906000526020600020905b8160009054906101000a900473ffffffffffffffffffffffffffffffffffffffff1673ffffffffffffffffffffffffffffffffffffffff168152602001906001019080831161177f575b5050505050815250509050600073ffffffffffffffffffffffffffffffffffffffff16816040015173ffffffffffffffffffffffffffffffffffffffff161161181157600080fd5b611819614150565b600260003373ffffffffffffffffffffffffffffffffffffffff1673ffffffffffffffffffffffffffffffffffffffff1681526020019081526020016000206040518060a0016040529081600082018054600181600116156101000203166002900480601f0160208091040260200160405190810160405280929190818152602001828054600181600116156101000203166002900480156118fc5780601f106118d1576101008083540402835291602001916118fc565b820191906000526020600020905b8154815290600101906020018083116118df57829003601f168201915b505050505081526020016001820160009054906101000a900460ff1660ff1660ff1681526020016001820160019054906101000a900473ffffffffffffffffffffffffffffffffffffffff1673ffffffffffffffffffffffffffffffffffffffff1673ffffffffffffffffffffffffffffffffffffffff168152602001600282018054806020026020016040519081016040528092919081815260200182805480156119c757602002820191906000526020600020905b8154815260200190600101908083116119b3575b5050505050815260200160038201805480602002602001604051908101604052809291908181526020018280548015611a5557602002820191906000526020600020905b8160009054906101000a900473ffffffffffffffffffffffffffffffffffffffff1673ffffffffffffffffffffffffffffffffffffffff1681526020019060010190808311611a0b575b505050505081525050905080600001518160400151826020015183606001518460800151849450819150809050975097509750975097505050509091929394565b606081611aa1614150565b600260008373ffffffffffffffffffffffffffffffffffffffff1673ffffffffffffffffffffffffffffffffffffffff1681526020019081526020016000206040518060a0016040529081600082018054600181600116156101000203166002900480601f016020809104026020016040519081016040528092919081815260200182805460018160011615610100020316600290048015611b845780601f10611b5957610100808354040283529160200191611b84565b820191906000526020600020905b815481529060010190602001808311611b6757829003601f168201915b505050505081526020016001820160009054906101000a900460ff1660ff1660ff1681526020016001820160019054906101000a900473ffffffffffffffffffffffffffffffffffffffff1673ffffffffffffffffffffffffffffffffffffffff1673ffffffffffffffffffffffffffffffffffffffff16815260200160028201805480602002602001604051908101604052809291908181526020018280548015611c4f57602002820191906000526020600020905b815481526020019060010190808311611c3b575b5050505050815260200160038201805480602002602001604051908101604052809291908181526020018280548015611cdd57602002820191906000526020600020905b8160009054906101000a900473ffffffffffffffffffffffffffffffffffffffff1673ffffffffffffffffffffffffffffffffffffffff1681526020019060010190808311611c93575b5050505050815250509050600073ffffffffffffffffffffffffffffffffffffffff16816040015173ffffffffffffffffffffffffffffffffffffffff1611611d2557600080fd5b33611d2e614198565b600160008373ffffffffffffffffffffffffffffffffffffffff1673ffffffffffffffffffffffffffffffffffffffff168152602001908152602001600020604051806060016040529081600082018054600181600116156101000203166002900480601f016020809104026020016040519081016040528092919081815260200182805460018160011615610100020316600290048015611e115780601f10611de657610100808354040283529160200191611e11565b820191906000526020600020905b815481529060010190602001808311611df457829003601f168201915b505050505081526020016001820160009054906101000a900473ffffffffffffffffffffffffffffffffffffffff1673ffffffffffffffffffffffffffffffffffffffff1673ffffffffffffffffffffffffffffffffffffffff16815260200160028201805480602002602001604051908101604052809291908181526020018280548015611ef557602002820191906000526020600020905b8160009054906101000a900473ffffffffffffffffffffffffffffffffffffffff1673ffffffffffffffffffffffffffffffffffffffff1681526020019060010190808311611eab575b5050505050815250509050600073ffffffffffffffffffffffffffffffffffffffff16816020015173ffffffffffffffffffffffffffffffffffffffff1611611f3d57600080fd5b600660008773ffffffffffffffffffffffffffffffffffffffff1673ffffffffffffffffffffffffffffffffffffffff168152602001908152602001600020805480602002602001604051908101604052809291908181526020016000905b8282101561220a57838290600052602060002090600402016040518060800160405290816000820160009054906101000a900473ffffffffffffffffffffffffffffffffffffffff1673ffffffffffffffffffffffffffffffffffffffff1673ffffffffffffffffffffffffffffffffffffffff168152602001600182018054600181600116156101000203166002900480601f0160208091040260200160405190810160405280929190818152602001828054600181600116156101000203166002900480156120ae5780601f10612083576101008083540402835291602001916120ae565b820191906000526020600020905b81548152906001019060200180831161209157829003601f168201915b50505050508152602001600282018054600181600116156101000203166002900480601f0160208091040260200160405190810160405280929190818152602001828054600181600116156101000203166002900480156121505780601f1061212557610100808354040283529160200191612150565b820191906000526020600020905b81548152906001019060200180831161213357829003601f168201915b50505050508152602001600382018054600181600116156101000203166002900480601f0160208091040260200160405190810160405280929190818152602001828054600181600116156101000203166002900480156121f25780601f106121c7576101008083540402835291602001916121f2565b820191906000526020600020905b8154815290600101906020018083116121d557829003601f168201915b50505050508152505081526020019060010190611f9c565b50505050945050505050919050565b33612222614150565b600260008373ffffffffffffffffffffffffffffffffffffffff1673ffffffffffffffffffffffffffffffffffffffff1681526020019081526020016000206040518060a0016040529081600082018054600181600116156101000203166002900480601f0160208091040260200160405190810160405280929190818152602001828054600181600116156101000203166002900480156123055780601f106122da57610100808354040283529160200191612305565b820191906000526020600020905b8154815290600101906020018083116122e857829003601f168201915b505050505081526020016001820160009054906101000a900460ff1660ff1660ff1681526020016001820160019054906101000a900473ffffffffffffffffffffffffffffffffffffffff1673ffffffffffffffffffffffffffffffffffffffff1673ffffffffffffffffffffffffffffffffffffffff168152602001600282018054806020026020016040519081016040528092919081815260200182805480156123d057602002820191906000526020600020905b8154815260200190600101908083116123bc575b505050505081526020016003820180548060200260200160405190810160405280929190818152602001828054801561245e57602002820191906000526020600020905b8160009054906101000a900473ffffffffffffffffffffffffffffffffffffffff1673ffffffffffffffffffffffffffffffffffffffff1681526020019060010190808311612414575b5050505050815250509050600073ffffffffffffffffffffffffffffffffffffffff16816040015173ffffffffffffffffffffffffffffffffffffffff16116124a657600080fd5b826124af614198565b600160008373ffffffffffffffffffffffffffffffffffffffff1673ffffffffffffffffffffffffffffffffffffffff168152602001908152602001600020604051806060016040529081600082018054600181600116156101000203166002900480601f0160208091040260200160405190810160405280929190818152602001828054600181600116156101000203166002900480156125925780601f1061256757610100808354040283529160200191612592565b820191906000526020600020905b81548152906001019060200180831161257557829003601f168201915b505050505081526020016001820160009054906101000a900473ffffffffffffffffffffffffffffffffffffffff1673ffffffffffffffffffffffffffffffffffffffff1673ffffffffffffffffffffffffffffffffffffffff1681526020016002820180548060200260200160405190810160405280929190818152602001828054801561267657602002820191906000526020600020905b8160009054906101000a900473ffffffffffffffffffffffffffffffffffffffff1673ffffffffffffffffffffffffffffffffffffffff168152602001906001019080831161262c575b5050505050815250509050600073ffffffffffffffffffffffffffffffffffffffff16816020015173ffffffffffffffffffffffffffffffffffffffff16116126be57600080fd5b6000600360003373ffffffffffffffffffffffffffffffffffffffff1673ffffffffffffffffffffffffffffffffffffffff16815260200190815260200160002060008773ffffffffffffffffffffffffffffffffffffffff1673ffffffffffffffffffffffffffffffffffffffff168152602001908152602001600020541161274757600080fd5b6000600360003373ffffffffffffffffffffffffffffffffffffffff1673ffffffffffffffffffffffffffffffffffffffff16815260200190815260200160002060008773ffffffffffffffffffffffffffffffffffffffff1673ffffffffffffffffffffffffffffffffffffffff168152602001908152602001600020819055506000600260003373ffffffffffffffffffffffffffffffffffffffff1673ffffffffffffffffffffffffffffffffffffffff16815260200190815260200160002090506000600160008873ffffffffffffffffffffffffffffffffffffffff1673ffffffffffffffffffffffffffffffffffffffff1681526020019081526020016000209050600082600301805490509050600080905060008090505b828110156128f0578973ffffffffffffffffffffffffffffffffffffffff1685600301828154811061289457fe5b9060005260206000200160009054906101000a900473ffffffffffffffffffffffffffffffffffffffff1673ffffffffffffffffffffffffffffffffffffffff1614156128e3578091506128f0565b8080600101915050612866565b505b6001820381101561299e5783600301600182018154811061290f57fe5b9060005260206000200160009054906101000a900473ffffffffffffffffffffffffffffffffffffffff1684600301828154811061294957fe5b9060005260206000200160006101000a81548173ffffffffffffffffffffffffffffffffffffffff021916908373ffffffffffffffffffffffffffffffffffffffff16021790555080806001019150506128f2565b836003018054806129ab57fe5b6001900381819060005260206000200160006101000a81549073ffffffffffffffffffffffffffffffffffffffff02191690559055826002018054905091506000905060008090505b82811015612a7e573373ffffffffffffffffffffffffffffffffffffffff16846002018281548110612a2257fe5b9060005260206000200160009054906101000a900473ffffffffffffffffffffffffffffffffffffffff1673ffffffffffffffffffffffffffffffffffffffff161415612a7157809150612a7e565b80806001019150506129f4565b505b60018203811015612b2c57826002016001820181548110612a9d57fe5b9060005260206000200160009054906101000a900473ffffffffffffffffffffffffffffffffffffffff16836002018281548110612ad757fe5b9060005260206000200160006101000a81548173ffffffffffffffffffffffffffffffffffffffff021916908373ffffffffffffffffffffffffffffffffffffffff1602179055508080600101915050612a80565b82600201805480612b3957fe5b6001900381819060005260206000200160006101000a81549073ffffffffffffffffffffffffffffffffffffffff02191690559055505050505050505050565b6000600160003373ffffffffffffffffffffffffffffffffffffffff1673ffffffffffffffffffffffffffffffffffffffff1681526020019081526020016000209050604051612bc890614b2c565b604051809103902082604051602001612be19190614b15565b604051602081830303815290604052805190602001201415612c0257600080fd5b600073ffffffffffffffffffffffffffffffffffffffff168160010160009054906101000a900473ffffffffffffffffffffffffffffffffffffffff1673ffffffffffffffffffffffffffffffffffffffff161115612c6057600080fd5b60405180606001604052808381526020013373ffffffffffffffffffffffffffffffffffffffff1681526020016000604051908082528060200260200182016040528015612cbd5781602001602082028038833980820191505090505b50815250600160003373ffffffffffffffffffffffffffffffffffffffff1673ffffffffffffffffffffffffffffffffffffffff1681526020019081526020016000206000820151816000019080519060200190612d1c9291906141cf565b5060208201518160010160006101000a81548173ffffffffffffffffffffffffffffffffffffffff021916908373ffffffffffffffffffffffffffffffffffffffff1602179055506040820151816002019080519060200190612d8092919061424f565b509050505050565b6000600260003373ffffffffffffffffffffffffffffffffffffffff1673ffffffffffffffffffffffffffffffffffffffff1681526020019081526020016000209050604051612dd790614b2c565b604051809103902083604051602001612df09190614b15565b604051602081830303815290604052805190602001201415612e1157600080fd5b60008260ff16118015612e27575060648260ff16105b612e3057600080fd5b600073ffffffffffffffffffffffffffffffffffffffff168160010160019054906101000a900473ffffffffffffffffffffffffffffffffffffffff1673ffffffffffffffffffffffffffffffffffffffff161115612e8e57600080fd5b6040518060a001604052808481526020018360ff1681526020013373ffffffffffffffffffffffffffffffffffffffff1681526020016000604051908082528060200260200182016040528015612ef45781602001602082028038833980820191505090505b5081526020016000604051908082528060200260200182016040528015612f2a5781602001602082028038833980820191505090505b50815250600260003373ffffffffffffffffffffffffffffffffffffffff1673ffffffffffffffffffffffffffffffffffffffff1681526020019081526020016000206000820151816000019080519060200190612f899291906141cf565b5060208201518160010160006101000a81548160ff021916908360ff16021790555060408201518160010160016101000a81548173ffffffffffffffffffffffffffffffffffffffff021916908373ffffffffffffffffffffffffffffffffffffffff160217905550606082015181600201908051906020019061300e9291906142d9565b50608082015181600301908051906020019061302b92919061424f565b50905050505050565b3361303d614198565b600160008373ffffffffffffffffffffffffffffffffffffffff1673ffffffffffffffffffffffffffffffffffffffff168152602001908152602001600020604051806060016040529081600082018054600181600116156101000203166002900480601f0160208091040260200160405190810160405280929190818152602001828054600181600116156101000203166002900480156131205780601f106130f557610100808354040283529160200191613120565b820191906000526020600020905b81548152906001019060200180831161310357829003601f168201915b505050505081526020016001820160009054906101000a900473ffffffffffffffffffffffffffffffffffffffff1673ffffffffffffffffffffffffffffffffffffffff1673ffffffffffffffffffffffffffffffffffffffff1681526020016002820180548060200260200160405190810160405280929190818152602001828054801561320457602002820191906000526020600020905b8160009054906101000a900473ffffffffffffffffffffffffffffffffffffffff1673ffffffffffffffffffffffffffffffffffffffff16815260200190600101908083116131ba575b5050505050815250509050600073ffffffffffffffffffffffffffffffffffffffff16816020015173ffffffffffffffffffffffffffffffffffffffff161161324c57600080fd5b600660008773ffffffffffffffffffffffffffffffffffffffff1673ffffffffffffffffffffffffffffffffffffffff16815260200190815260200160002060405180608001604052803373ffffffffffffffffffffffffffffffffffffffff168152602001878152602001868152602001858152509080600181540180825580915050906001820390600052602060002090600402016000909192909190915060008201518160000160006101000a81548173ffffffffffffffffffffffffffffffffffffffff021916908373ffffffffffffffffffffffffffffffffffffffff16021790555060208201518160010190805190602001906133509291906141cf565b50604082015181600201908051906020019061336d9291906141cf565b50606082015181600301908051906020019061338a9291906141cf565b50505050505050505050565b606060006060336133a5614198565b600160008373ffffffffffffffffffffffffffffffffffffffff1673ffffffffffffffffffffffffffffffffffffffff168152602001908152602001600020604051806060016040529081600082018054600181600116156101000203166002900480601f0160208091040260200160405190810160405280929190818152602001828054600181600116156101000203166002900480156134885780601f1061345d57610100808354040283529160200191613488565b820191906000526020600020905b81548152906001019060200180831161346b57829003601f168201915b505050505081526020016001820160009054906101000a900473ffffffffffffffffffffffffffffffffffffffff1673ffffffffffffffffffffffffffffffffffffffff1673ffffffffffffffffffffffffffffffffffffffff1681526020016002820180548060200260200160405190810160405280929190818152602001828054801561356c57602002820191906000526020600020905b8160009054906101000a900473ffffffffffffffffffffffffffffffffffffffff1673ffffffffffffffffffffffffffffffffffffffff1681526020019060010190808311613522575b5050505050815250509050600073ffffffffffffffffffffffffffffffffffffffff16816020015173ffffffffffffffffffffffffffffffffffffffff16116135b457600080fd5b6135bc614198565b600160003373ffffffffffffffffffffffffffffffffffffffff1673ffffffffffffffffffffffffffffffffffffffff168152602001908152602001600020604051806060016040529081600082018054600181600116156101000203166002900480601f01602080910402602001604051908101604052809291908181526020018280546001816001161561010002031660029004801561369f5780601f106136745761010080835404028352916020019161369f565b820191906000526020600020905b81548152906001019060200180831161368257829003601f168201915b505050505081526020016001820160009054906101000a900473ffffffffffffffffffffffffffffffffffffffff1673ffffffffffffffffffffffffffffffffffffffff1673ffffffffffffffffffffffffffffffffffffffff1681526020016002820180548060200260200160405190810160405280929190818152602001828054801561378357602002820191906000526020600020905b8160009054906101000a900473ffffffffffffffffffffffffffffffffffffffff1673ffffffffffffffffffffffffffffffffffffffff1681526020019060010190808311613739575b5050505050815250509050806000015181602001518260400151829250809050955095509550505050909192565b60606000806060846137c1614150565b600260008373ffffffffffffffffffffffffffffffffffffffff1673ffffffffffffffffffffffffffffffffffffffff1681526020019081526020016000206040518060a0016040529081600082018054600181600116156101000203166002900480601f0160208091040260200160405190810160405280929190818152602001828054600181600116156101000203166002900480156138a45780601f10613879576101008083540402835291602001916138a4565b820191906000526020600020905b81548152906001019060200180831161388757829003601f168201915b505050505081526020016001820160009054906101000a900460ff1660ff1660ff1681526020016001820160019054906101000a900473ffffffffffffffffffffffffffffffffffffffff1673ffffffffffffffffffffffffffffffffffffffff1673ffffffffffffffffffffffffffffffffffffffff1681526020016002820180548060200260200160405190810160405280929190818152602001828054801561396f57602002820191906000526020600020905b81548152602001906001019080831161395b575b50505050508152602001600382018054806020026020016040519081016040528092919081815260200182805480156139fd57602002820191906000526020600020905b8160009054906101000a900473ffffffffffffffffffffffffffffffffffffffff1673ffffffffffffffffffffffffffffffffffffffff16815260200190600101908083116139b3575b5050505050815250509050600073ffffffffffffffffffffffffffffffffffffffff16816040015173ffffffffffffffffffffffffffffffffffffffff1611613a4557600080fd5b33613a4e614198565b600160008373ffffffffffffffffffffffffffffffffffffffff1673ffffffffffffffffffffffffffffffffffffffff168152602001908152602001600020604051806060016040529081600082018054600181600116156101000203166002900480601f016020809104026020016040519081016040528092919081815260200182805460018160011615610100020316600290048015613b315780601f10613b0657610100808354040283529160200191613b31565b820191906000526020600020905b815481529060010190602001808311613b1457829003601f168201915b505050505081526020016001820160009054906101000a900473ffffffffffffffffffffffffffffffffffffffff1673ffffffffffffffffffffffffffffffffffffffff1673ffffffffffffffffffffffffffffffffffffffff16815260200160028201805480602002602001604051908101604052809291908181526020018280548015613c1557602002820191906000526020600020905b8160009054906101000a900473ffffffffffffffffffffffffffffffffffffffff1673ffffffffffffffffffffffffffffffffffffffff1681526020019060010190808311613bcb575b5050505050815250509050600073ffffffffffffffffffffffffffffffffffffffff16816020015173ffffffffffffffffffffffffffffffffffffffff1611613c5d57600080fd5b613c65614150565b600260008b73ffffffffffffffffffffffffffffffffffffffff1673ffffffffffffffffffffffffffffffffffffffff1681526020019081526020016000206040518060a0016040529081600082018054600181600116156101000203166002900480601f016020809104026020016040519081016040528092919081815260200182805460018160011615610100020316600290048015613d485780601f10613d1d57610100808354040283529160200191613d48565b820191906000526020600020905b815481529060010190602001808311613d2b57829003601f168201915b505050505081526020016001820160009054906101000a900460ff1660ff1660ff1681526020016001820160019054906101000a900473ffffffffffffffffffffffffffffffffffffffff1673ffffffffffffffffffffffffffffffffffffffff1673ffffffffffffffffffffffffffffffffffffffff16815260200160028201805480602002602001604051908101604052809291908181526020018280548015613e1357602002820191906000526020600020905b815481526020019060010190808311613dff575b5050505050815260200160038201805480602002602001604051908101604052809291908181526020018280548015613ea157602002820191906000526020600020905b8160009054906101000a900473ffffffffffffffffffffffffffffffffffffffff1673ffffffffffffffffffffffffffffffffffffffff1681526020019060010190808311613e57575b5050505050815250509050806000015181602001518260400151600560008e73ffffffffffffffffffffffffffffffffffffffff1673ffffffffffffffffffffffffffffffffffffffff16815260200190815260200160002083935080805480602002602001604051908101604052809291908181526020016000905b828210156141365783829060005260206000209060030201604051806060016040529081600082018054600181600116156101000203166002900480601f016020809104026020016040519081016040528092919081815260200182805460018160011615610100020316600290048015613fda5780601f10613faf57610100808354040283529160200191613fda565b820191906000526020600020905b815481529060010190602001808311613fbd57829003601f168201915b50505050508152602001600182018054600181600116156101000203166002900480601f01602080910402602001604051908101604052809291908181526020018280546001816001161561010002031660029004801561407c5780601f106140515761010080835404028352916020019161407c565b820191906000526020600020905b81548152906001019060200180831161405f57829003601f168201915b50505050508152602001600282018054600181600116156101000203166002900480601f01602080910402602001604051908101604052809291908181526020018280546001816001161561010002031660029004801561411e5780601f106140f35761010080835404028352916020019161411e565b820191906000526020600020905b81548152906001019060200180831161410157829003601f168201915b50505050508152505081526020019060010190613f1e565b505050509050985098509850985050505050509193509193565b6040518060a0016040528060608152602001600060ff168152602001600073ffffffffffffffffffffffffffffffffffffffff16815260200160608152602001606081525090565b604051806060016040528060608152602001600073ffffffffffffffffffffffffffffffffffffffff168152602001606081525090565b828054600181600116156101000203166002900490600052602060002090601f016020900481019282601f1061421057805160ff191683800117855561423e565b8280016001018555821561423e579182015b8281111561423d578251825591602001919060010190614222565b5b50905061424b9190614326565b5090565b8280548282559060005260206000209081019282156142c8579160200282015b828111156142c75782518260006101000a81548173ffffffffffffffffffffffffffffffffffffffff021916908373ffffffffffffffffffffffffffffffffffffffff1602179055509160200191906001019061426f565b5b5090506142d5919061434b565b5090565b828054828255906000526020600020908101928215614315579160200282015b828111156143145782518255916020019190600101906142f9565b5b509050614322919061438e565b5090565b61434891905b8082111561434457600081600090555060010161432c565b5090565b90565b61438b91905b8082111561438757600081816101000a81549073ffffffffffffffffffffffffffffffffffffffff021916905550600101614351565b5090565b90565b6143b091905b808211156143ac576000816000905550600101614394565b5090565b90565b6000813590506143c281614f80565b92915050565b600082601f8301126143d957600080fd5b81356143ec6143e782614d46565b614d19565b9150808252602083016020830185838301111561440857600080fd5b614413838284614f2d565b50505092915050565b60008135905061442b81614f97565b92915050565b60006020828403121561444357600080fd5b6000614451848285016143b3565b91505092915050565b6000806000806080858703121561447057600080fd5b600061447e878288016143b3565b945050602085013567ffffffffffffffff81111561449b57600080fd5b6144a7878288016143c8565b935050604085013567ffffffffffffffff8111156144c457600080fd5b6144d0878288016143c8565b925050606085013567ffffffffffffffff8111156144ed57600080fd5b6144f9878288016143c8565b91505092959194509250565b60006020828403121561451757600080fd5b600082013567ffffffffffffffff81111561453157600080fd5b61453d848285016143c8565b91505092915050565b60008060006060848603121561455b57600080fd5b600084013567ffffffffffffffff81111561457557600080fd5b614581868287016143c8565b935050602084013567ffffffffffffffff81111561459e57600080fd5b6145aa868287016143c8565b925050604084013567ffffffffffffffff8111156145c757600080fd5b6145d3868287016143c8565b9150509250925092565b600080604083850312156145f057600080fd5b600083013567ffffffffffffffff81111561460a57600080fd5b614616858286016143c8565b92505060206146278582860161441c565b9150509250929050565b600061463d8383614698565b60208301905092915050565b6000614655838361485c565b60208301905092915050565b600061466d8383614a37565b905092915050565b60006146818383614aa8565b905092915050565b61469281614ef7565b82525050565b6146a181614eae565b82525050565b6146b081614eae565b82525050565b60006146c182614dc7565b6146cb8185614e3d565b93506146d683614d72565b8060005b838110156147075781516146ee8882614631565b97506146f983614e09565b9250506001810190506146da565b5085935050505092915050565b600061471f82614dd2565b6147298185614e4e565b935061473483614d82565b8060005b8381101561476557815161474c8882614649565b975061475783614e16565b925050600181019050614738565b5085935050505092915050565b600061477d82614ddd565b6147878185614e5f565b93508360208202850161479985614d92565b8060005b858110156147d557848403895281516147b68582614661565b94506147c183614e23565b925060208a0199505060018101905061479d565b50829750879550505050505092915050565b60006147f282614de8565b6147fc8185614e70565b93508360208202850161480e85614da2565b8060005b8581101561484a578484038952815161482b8582614675565b945061483683614e30565b925060208a01995050600181019050614812565b50829750879550505050505092915050565b61486581614ec0565b82525050565b600061487682614dfe565b6148808185614e92565b9350614890818560208601614f3c565b61489981614f6f565b840191505092915050565b60006148af82614dfe565b6148b98185614ea3565b93506148c9818560208601614f3c565b80840191505092915050565b60006148e082614df3565b6148ea8185614e81565b93506148fa818560208601614f3c565b61490381614f6f565b840191505092915050565b60008154600181166000811461492b576001811461495157614995565b607f600283041661493c8187614e92565b955060ff198316865260208601935050614995565b6002820461495f8187614e92565b955061496a85614db2565b60005b8281101561498c5781548189015260018201915060208101905061496d565b80880195505050505b505092915050565b60006149aa600c83614e92565b91507f416464656420612066696c6500000000000000000000000000000000000000006000830152602082019050919050565b60006149ea600083614ea3565b9150600082019050919050565b6000614a04601e83614e92565b91507f486173206772616e7465642061636365737320746f206120646f63746f7200006000830152602082019050919050565b6000608083016000830151614a4f6000860182614698565b5060208301518482036020860152614a6782826148d5565b91505060408301518482036040860152614a8182826148d5565b91505060608301518482036060860152614a9b82826148d5565b9150508091505092915050565b60006060830160008301518482036000860152614ac582826148d5565b91505060208301518482036020860152614adf82826148d5565b91505060408301518482036040860152614af982826148d5565b9150508091505092915050565b614b0f81614eea565b82525050565b6000614b2182846148a4565b915081905092915050565b6000614b37826149dd565b9150819050919050565b6000608082019050614b566000830186614689565b8181036020830152614b67816149f7565b90508181036040830152614b7b818561490e565b9050614b8a60608301846146a7565b949350505050565b60006020820190508181036000830152614bac8184614772565b905092915050565b60006020820190508181036000830152614bce81846147e7565b905092915050565b60006060820190508181036000830152614bf0818661486b565b9050614bff60208301856146a7565b8181036040830152614c1181846146b6565b9050949350505050565b600060a0820190508181036000830152614c35818861486b565b9050614c4460208301876146a7565b614c516040830186614b06565b8181036060830152614c638185614714565b90508181036080830152614c7781846146b6565b90509695505050505050565b60006080820190508181036000830152614c9d818761486b565b9050614cac6020830186614b06565b614cb960408301856146a7565b8181036060830152614ccb81846147e7565b905095945050505050565b60006060820190508181036000830152614cf0818561490e565b9050614cff6020830184614689565b8181036040830152614d108161499d565b90509392505050565b6000604051905081810181811067ffffffffffffffff82111715614d3c57600080fd5b8060405250919050565b600067ffffffffffffffff821115614d5d57600080fd5b601f19601f8301169050602081019050919050565b6000819050602082019050919050565b6000819050602082019050919050565b6000819050602082019050919050565b6000819050602082019050919050565b60008190508160005260206000209050919050565b600081519050919050565b600081519050919050565b600081519050919050565b600081519050919050565b600081519050919050565b600081519050919050565b6000602082019050919050565b6000602082019050919050565b6000602082019050919050565b6000602082019050919050565b600082825260208201905092915050565b600082825260208201905092915050565b600082825260208201905092915050565b600082825260208201905092915050565b600082825260208201905092915050565b600082825260208201905092915050565b600081905092915050565b6000614eb982614eca565b9050919050565b6000819050919050565b600073ffffffffffffffffffffffffffffffffffffffff82169050919050565b600060ff82169050919050565b6000614f0282614f09565b9050919050565b6000614f1482614f1b565b9050919050565b6000614f2682614eca565b9050919050565b82818337600083830152505050565b60005b83811015614f5a578082015181840152602081019050614f3f565b83811115614f69576000848401525b50505050565b6000601f19601f8301169050919050565b614f8981614eae565b8114614f9457600080fd5b50565b614fa081614eea565b8114614fab57600080fd5b5056fea365627a7a72315820be3eb2ee772747f0ff692c05fd0f381b86cbad97ecafd34abcfc4f689d35e06c6c6578706572696d656e74616cf564736f6c63430005100040",
  "source": "pragma solidity >=0.4.21 <0.7.0;\r\npragma experimental ABIEncoderV2;\r\n\r\ncontract optimized_healthCare {\r\n  \r\n  address private owner;\r\n  mapping (address => doctor) private doctors;\r\n  \r\n  mapping (address => patient) private patients; //mapping patients to their addresses\r\n  mapping (address => mapping (address => uint)) private patientToDoctor; //patients and list of doctors allowed access to\r\n  // mapping (bytes32 => filesInfo) private hashToFile; //filehash to file info\r\n  mapping (address => mapping (bytes32 => uint)) private patientToFile; //files mapped to patients\r\n  mapping (address => files[]) private patientFiles;\r\n  mapping (address => doctorOfferedConsultation[]) doctorOfferedConsultationList;\r\n  \r\n  //consultation files added by doctor to patient record\r\n  // mapping(address=> files[]) private doctorAddedPatientFiles; \r\n  \r\n  \r\n  //structure of patient file\r\n  struct files{\r\n      string file_name;\r\n      string file_type;\r\n      string file_hash;\r\n  }\r\n\r\n  \r\n  \r\n  //File-info\r\n  struct filesInfo {\r\n      string file_name;\r\n      string file_type;\r\n      string file_secret;\r\n  }\r\n  \r\n\r\n  //structure of patient info\r\n  struct patient {\r\n      string name;\r\n      uint8 age;\r\n      address id;\r\n      bytes32[] files;// hashes of file that belong to this user for display purpose\r\n      // bytes32[] doctorAddedFiles; \r\n\r\n      //hashes of files that doctor added after consultation for display purpose \r\n      address[] doctor_list;\r\n  }\r\n  \r\n  // structure for doctor offered consultation\r\n  struct doctorOfferedConsultation\r\n  {\r\n    address doc_id;\r\n    string consultation_advice;\r\n    string medicine;\r\n    string time_period;\r\n  }\r\n\r\n  //structure of doctor info\r\n  struct doctor {\r\n      string name;\r\n      address id;\r\n      address[] patient_list;\r\n  }\r\n  \r\n\r\n  //setting the owner\r\n  constructor() public {\r\n    owner = msg.sender;\r\n  }\r\n  \r\n  \r\n  //verify doctor on blockchain\r\n  modifier checkDoctor(address id) {\r\n    doctor memory d = doctors[id];\r\n    require(d.id > address(0x0));//check if doctor exist\r\n    _;\r\n  }\r\n  \r\n  //verify patient on blockchain\r\n  modifier checkPatient(address id) {\r\n    patient memory p = patients[id];\r\n    require(p.id > address(0x0));//check if patient exist\r\n    _;\r\n  }\r\n  \r\n\r\n  //owner verification modifier\r\n  modifier onlyOwner() {\r\n    require(msg.sender == owner);\r\n    _;\r\n  }\r\n   \r\n\r\n  //check if user has file access\r\n  modifier checkFileAccess(string memory role, address id, bytes32 fileHashId, address pat) {\r\n    uint pos;\r\n    //check if doctor trying to access the file\r\n    if(keccak256(abi.encodePacked(role)) == keccak256(\"doctor\")) {\r\n        //check if patient granted access to doctor\r\n        require(patientToDoctor[pat][id] > 0);\r\n        pos = patientToFile[pat][fileHashId];\r\n        require(pos > 0);   \r\n    }\r\n    //check if patient trying to access the file\r\n    else if(keccak256(abi.encodePacked(role)) == keccak256(\"patient\")) \r\n    {\r\n        //check if file belongs to patient\r\n        pos = patientToFile[id][fileHashId];\r\n        require(pos > 0);\r\n    }\r\n    _; \r\n  }\r\n  \r\n\r\n  // modifier checkFile(bytes32 fileHashId) {\r\n  //   bytes memory tempString = bytes(hashToFile[fileHashId].file_name);\r\n  //   require(tempString.length > 0);//check if file exist\r\n  //   _;\r\n  // }\r\n\r\n  //Event to emit when new patient registers\r\n  // event patientSignUp( address _patient, string message);\r\n\r\n  function signupPatient(string memory _name, uint8 _age) public {\r\n     //search for patient on blockchain by address \r\n     patient storage p = patients[msg.sender];\r\n     //check input name and age\r\n     require(keccak256(abi.encodePacked(_name)) != keccak256(\"\"));\r\n     require((_age > 0) && (_age < 100));\r\n     //Check if the patient already exists by address\r\n     require(!(p.id > address(0x0)));\r\n     //Add patient to blockchain\r\n    //  patients[msg.sender] = patient({name:_name,age:_age,id:msg.sender,files:new bytes32[](0),doctor_list:new address[](0), doctorAddedFiles: new bytes32[](0)});\r\n     patients[msg.sender] = patient({name:_name,age:_age,id:msg.sender,files:new bytes32[](0),doctor_list:new address[](0)});\r\n\r\n\r\n    //  emit patientSignUp( msg.sender, \" has registered as Patient\");\r\n  }\r\n  \r\n\r\n  //Event to emit when new doctor registers\r\n  // event doctorSignUp(address _doctor, string message);\r\n\r\n  function signupDoctor(string memory _name) public {\r\n      //search for doctor on blockchain\r\n      doctor storage d = doctors[msg.sender];\r\n      //check name of doctor\r\n      require(keccak256(abi.encodePacked(_name)) != keccak256(\"\"));\r\n      //check if doctor already exists\r\n      require(!(d.id > address(0x0)));\r\n      //Add the doctor to blockchain\r\n      doctors[msg.sender] = doctor({name:_name,id:msg.sender,patient_list:new address[](0)});\r\n      // emit doctorSignUp(msg.sender, \" has registered as Doctor\");\r\n  }\r\n\r\n\r\n  //Event to emit when patient grants access to doctor\r\n  event grantDoctorAccess( address patient_address, string message, string _doctor, address doctor_address);\r\n  \r\n  function grantAccessToDoctor(address doctor_id) public checkPatient(msg.sender) checkDoctor(doctor_id) {\r\n      patient storage p = patients[msg.sender];\r\n      doctor storage d = doctors[doctor_id];\r\n      require(patientToDoctor[msg.sender][doctor_id] < 1);// this means doctor already been access\r\n      \r\n      uint pos = p.doctor_list.push(doctor_id);// new length of array\r\n      \r\n      patientToDoctor[msg.sender][doctor_id] = pos;\r\n      d.patient_list.push(msg.sender);\r\n\r\n      emit grantDoctorAccess( msg.sender , \"Has granted access to a doctor\", d.name , doctor_id);\r\n  }\r\n\r\n  function revokeAccessFromDoctor(address doctor_id) public checkPatient(msg.sender) checkDoctor(doctor_id) {\r\n    require(patientToDoctor[msg.sender][doctor_id] > 0);\r\n    patientToDoctor[msg.sender][doctor_id] = 0;\r\n\r\n\r\n    patient storage p = patients[msg.sender];\r\n    doctor storage d = doctors[doctor_id];\r\n\r\n    uint pdlength= p.doctor_list.length;\r\n    uint pos=0;\r\n\r\n    for (uint i = 0; i < pdlength; i++) {\r\n      if(p.doctor_list[i] == doctor_id)\r\n      {\r\n        pos=i;\r\n        break;\r\n      }\r\n    }\r\n\r\n    for(;pos<pdlength-1;pos++)\r\n    {\r\n      p.doctor_list[pos]= p.doctor_list[pos+1];\r\n    }\r\n\r\n    p.doctor_list.pop();\r\n\r\n    pdlength= d.patient_list.length;\r\n    pos=0;\r\n\r\n    for (uint i = 0; i < pdlength; i++) {\r\n      if(d.patient_list[i] == msg.sender)\r\n      {\r\n        pos=i;\r\n        break;\r\n      }\r\n    }\r\n\r\n    for(;pos<pdlength-1;pos++)\r\n    {\r\n      d.patient_list[pos]= d.patient_list[pos+1];\r\n    }\r\n\r\n    d.patient_list.pop();\r\n  }\r\n  \r\n  //Event to emit when patient adds a file successfully\r\n  event fileAdd(string patient_name, address patient_address, string message);\r\n\r\n  function addUserFiles(string memory _file_name, string memory _file_type,string memory _file_hash) public checkPatient(msg.sender){\r\n      \r\n      patientFiles[msg.sender].push(files({file_name:_file_name, file_type:_file_type,file_hash:_file_hash}));\r\n      emit fileAdd(patients[msg.sender].name , msg.sender, \"Added a file\");\r\n  }\r\n\r\n\r\n  function getUserFiles(address sender)public view returns(files[] memory){\r\n      return patientFiles[sender];\r\n  }\r\n\r\n\r\n\r\n  function getPatientInfo() public view checkPatient(msg.sender) returns(string memory,address, uint8, bytes32[] memory , address[] memory) {\r\n      patient memory p = patients[msg.sender];\r\n      return (p.name,p.id, p.age, p.files, p.doctor_list);\r\n  }\r\n\r\n\r\n\r\n  function getDoctorInfo() public view checkDoctor(msg.sender) returns(string memory,address, address[] memory){\r\n      doctor memory d = doctors[msg.sender];\r\n      return (d.name,d.id, d.patient_list);\r\n  }\r\n  \r\n  // function checkProfile(address _user) public view onlyOwner returns(string memory, string memory){\r\n  //     patient memory p = patients[_user];\r\n  //     doctor memory d = doctors[_user];\r\n      \r\n  //     if(p.id > address(0x0))\r\n  //         return (p.name, 'patient');\r\n  //     else if(d.id > address(0x0))\r\n  //         return (d.name, 'doctor');\r\n  //     else\r\n  //         return ('', '');\r\n  //   }\r\n  \r\n  function getPatientInfoForDoctor(address pat) public view checkPatient(pat) checkDoctor(msg.sender) returns(string memory, uint8, address, files[] memory){\r\n      patient memory p = patients[pat];\r\n\r\n      //require(patientToDoctor[pat][msg.sender] > 0);\r\n\r\n      return (p.name, p.age, p.id, patientFiles[pat]);\r\n    }\r\n  \r\n  //  function getDoctorAddedFiles(address pat) public view checkPatient(pat) checkDoctor(msg.sender) returns(string memory, uint8, address, files[] memory){\r\n  //     patient memory p = patients[pat];\r\n\r\n  //     //require(patientToDoctor[pat][msg.sender] > 0);\r\n\r\n  //     return (p.name, p.age, p.id, doctorAddedPatientFiles[pat]);\r\n  //   }\r\n  \r\n  // function getFileInfo(bytes32 fileHashId) private view checkFile(fileHashId) returns(filesInfo memory) {\r\n  //     return hashToFile[fileHashId];\r\n  //   }\r\n  \r\n  // // function getFileSecret(bytes32 fileHashId, string memory role, address id, address pat) public view \r\n  // // checkFile(fileHashId) checkFileAccess(role, id, fileHashId, pat)\r\n  // // returns(string memory) {\r\n  // //     filesInfo memory f = getFileInfo(fileHashId);\r\n  // //     return (f.file_secret);\r\n  // //   }\r\n\r\n  // function getFileInfoDoctor(address doc, address pat, bytes32 fileHashId) public view \r\n  // onlyOwner checkPatient(pat) checkDoctor(doc) checkFileAccess(\"doctor\", doc, fileHashId, pat)\r\n  // returns(string memory, string memory) {\r\n  //     filesInfo memory f = getFileInfo(fileHashId);\r\n  //     return (f.file_name, f.file_type);\r\n  //   }\r\n  \r\n  // function getFileInfoPatient(address pat, bytes32 fileHashId) public view \r\n  // onlyOwner checkPatient(pat) checkFileAccess(\"patient\", pat, fileHashId, pat) returns(string memory, string memory) {\r\n  //     filesInfo memory f = getFileInfo(fileHashId);\r\n  //     return (f.file_name, f.file_type);\r\n  //   }\r\n\r\n  // event doctorAddFile(string doctor_name, address doctor_address, string message, address patient_address, string patient_name);\r\n\r\n  // function doctorAddConsultation(address _pat, string memory _file_name, string memory _file_type,string memory _file_hash) public checkDoctor(msg.sender)\r\n  // {\r\n  //   doctorAddedPatientFiles[_pat].push(files({file_name:_file_name, file_type:_file_type,file_hash:_file_hash}));\r\n  //   // emit doctorAddFile(doctors[msg.sender].name , msg.sender, \"Added consultation file for patient\", _pat, patients[_pat].name);\r\n  // }\r\n\r\n  function addDoctorOfferedConsultation(address _pat, string memory _consultation, string memory _medicine, string  memory _time) public checkDoctor(msg.sender)\r\n  {\r\n    doctorOfferedConsultationList[_pat].push(doctorOfferedConsultation({doc_id:msg.sender, consultation_advice:_consultation,medicine:_medicine,time_period:_time}));\r\n  }\r\n\r\n  function getDoctorConsultation(address _pat)  public view checkPatient(_pat) checkDoctor(msg.sender) returns (doctorOfferedConsultation[] memory){\r\n    return (doctorOfferedConsultationList[_pat]);\r\n  }\r\n\r\n  \r\n  function getDoctorConsultationForPatient()  public view checkPatient(msg.sender) returns (doctorOfferedConsultation[] memory){\r\n    return (doctorOfferedConsultationList[msg.sender]);\r\n  }\r\n}",
  "sourcePath": "C:\\Users\\URVASHI\\OneDrive\\Desktop\\Mnnit files\\THESIS WORK\\Thesis project\\My_projects\\EHR using Blockchain 1.1\\contracts\\optimized_healthCare.sol",
  "compiler": {
    "name": "solc",
    "version": "0.5.16+commit.9c3226ce.Emscripten.clang"
  },
  "schemaVersion": "3.4.4",
  "updatedAt": "2022-03-24T09:33:08.363Z",
  "networkType": "ethereum",
  "devdoc": {
    "methods": {}
  },
  "userdoc": {
    "methods": {}
  }
}