{
  "contractName": "optimized_healthCare",
  "abi": [
    {
      "inputs": [],
      "payable": false,
      "stateMutability": "nonpayable",
      "type": "constructor"
    },
    {
      "anonymous": false,
      "inputs": [
        {
          "indexed": false,
          "internalType": "address",
          "name": "_doctor",
          "type": "address"
        },
        {
          "indexed": false,
          "internalType": "string",
          "name": "message",
          "type": "string"
        },
        {
          "indexed": false,
          "internalType": "address",
          "name": "_patient",
          "type": "address"
        },
        {
          "indexed": false,
          "internalType": "string",
          "name": "_consultation",
          "type": "string"
        },
        {
          "indexed": false,
          "internalType": "string",
          "name": "_medicine",
          "type": "string"
        },
        {
          "indexed": false,
          "internalType": "uint256",
          "name": "gas_used",
          "type": "uint256"
        }
      ],
      "name": "doctorOfferConsultation",
      "type": "event"
    },
    {
      "anonymous": false,
      "inputs": [
        {
          "indexed": false,
          "internalType": "address",
          "name": "_doctor",
          "type": "address"
        },
        {
          "indexed": false,
          "internalType": "string",
          "name": "message",
          "type": "string"
        },
        {
          "indexed": false,
          "internalType": "uint256",
          "name": "gas_used",
          "type": "uint256"
        }
      ],
      "name": "doctorSignUp",
      "type": "event"
    },
    {
      "anonymous": false,
      "inputs": [
        {
          "indexed": false,
          "internalType": "string",
          "name": "patient_name",
          "type": "string"
        },
        {
          "indexed": false,
          "internalType": "address",
          "name": "patient_address",
          "type": "address"
        },
        {
          "indexed": false,
          "internalType": "string",
          "name": "message",
          "type": "string"
        },
        {
          "indexed": false,
          "internalType": "uint256",
          "name": "gas_used",
          "type": "uint256"
        }
      ],
      "name": "fileAdd",
      "type": "event"
    },
    {
      "anonymous": false,
      "inputs": [
        {
          "indexed": false,
          "internalType": "address",
          "name": "patient_address",
          "type": "address"
        },
        {
          "indexed": false,
          "internalType": "string",
          "name": "message",
          "type": "string"
        },
        {
          "indexed": false,
          "internalType": "string",
          "name": "_doctor",
          "type": "string"
        },
        {
          "indexed": false,
          "internalType": "address",
          "name": "doctor_address",
          "type": "address"
        },
        {
          "indexed": false,
          "internalType": "uint256",
          "name": "gas_used",
          "type": "uint256"
        }
      ],
      "name": "grantDoctorAccess",
      "type": "event"
    },
    {
      "anonymous": false,
      "inputs": [
        {
          "indexed": false,
          "internalType": "address",
          "name": "_patient",
          "type": "address"
        },
        {
          "indexed": false,
          "internalType": "string",
          "name": "message",
          "type": "string"
        },
        {
          "indexed": false,
          "internalType": "uint256",
          "name": "gas_used",
          "type": "uint256"
        }
      ],
      "name": "patientSignUp",
      "type": "event"
    },
    {
      "anonymous": false,
      "inputs": [
        {
          "indexed": false,
          "internalType": "address",
          "name": "patient_address",
          "type": "address"
        },
        {
          "indexed": false,
          "internalType": "string",
          "name": "message",
          "type": "string"
        },
        {
          "indexed": false,
          "internalType": "string",
          "name": "_doctor",
          "type": "string"
        },
        {
          "indexed": false,
          "internalType": "address",
          "name": "doctor_address",
          "type": "address"
        },
        {
          "indexed": false,
          "internalType": "uint256",
          "name": "gas_used",
          "type": "uint256"
        }
      ],
      "name": "revokeDoctorAccess",
      "type": "event"
    },
    {
      "constant": true,
      "inputs": [],
      "name": "doctorAddRecord",
      "outputs": [
        {
          "internalType": "contract DoctorAddRecord",
          "name": "",
          "type": "address"
        }
      ],
      "payable": false,
      "stateMutability": "view",
      "type": "function"
    },
    {
      "constant": false,
      "inputs": [
        {
          "internalType": "string",
          "name": "_name",
          "type": "string"
        },
        {
          "internalType": "uint8",
          "name": "_age",
          "type": "uint8"
        }
      ],
      "name": "signupPatient",
      "outputs": [],
      "payable": false,
      "stateMutability": "nonpayable",
      "type": "function"
    },
    {
      "constant": false,
      "inputs": [
        {
          "internalType": "string",
          "name": "_name",
          "type": "string"
        }
      ],
      "name": "signupDoctor",
      "outputs": [],
      "payable": false,
      "stateMutability": "nonpayable",
      "type": "function"
    },
    {
      "constant": false,
      "inputs": [
        {
          "internalType": "address",
          "name": "doctor_id",
          "type": "address"
        }
      ],
      "name": "grantAccessToDoctor",
      "outputs": [],
      "payable": false,
      "stateMutability": "nonpayable",
      "type": "function"
    },
    {
      "constant": false,
      "inputs": [
        {
          "internalType": "address",
          "name": "doctor_id",
          "type": "address"
        }
      ],
      "name": "revokeAccessFromDoctor",
      "outputs": [],
      "payable": false,
      "stateMutability": "nonpayable",
      "type": "function"
    },
    {
      "constant": false,
      "inputs": [
        {
          "internalType": "string",
          "name": "_file_name",
          "type": "string"
        },
        {
          "internalType": "string",
          "name": "_file_type",
          "type": "string"
        },
        {
          "internalType": "string",
          "name": "_file_hash",
          "type": "string"
        }
      ],
      "name": "addUserFiles",
      "outputs": [],
      "payable": false,
      "stateMutability": "nonpayable",
      "type": "function"
    },
    {
      "constant": true,
      "inputs": [
        {
          "internalType": "address",
          "name": "sender",
          "type": "address"
        }
      ],
      "name": "getUserFiles",
      "outputs": [
        {
          "components": [
            {
              "internalType": "string",
              "name": "file_name",
              "type": "string"
            },
            {
              "internalType": "string",
              "name": "file_type",
              "type": "string"
            },
            {
              "internalType": "string",
              "name": "file_hash",
              "type": "string"
            }
          ],
          "internalType": "struct optimized_healthCare.files[]",
          "name": "",
          "type": "tuple[]"
        }
      ],
      "payable": false,
      "stateMutability": "view",
      "type": "function"
    },
    {
      "constant": true,
      "inputs": [],
      "name": "getPatientInfo",
      "outputs": [
        {
          "internalType": "string",
          "name": "",
          "type": "string"
        },
        {
          "internalType": "address",
          "name": "",
          "type": "address"
        },
        {
          "internalType": "uint8",
          "name": "",
          "type": "uint8"
        },
        {
          "internalType": "bytes32[]",
          "name": "",
          "type": "bytes32[]"
        },
        {
          "internalType": "address[]",
          "name": "",
          "type": "address[]"
        }
      ],
      "payable": false,
      "stateMutability": "view",
      "type": "function"
    },
    {
      "constant": true,
      "inputs": [],
      "name": "getDoctorInfo",
      "outputs": [
        {
          "internalType": "string",
          "name": "",
          "type": "string"
        },
        {
          "internalType": "address",
          "name": "",
          "type": "address"
        },
        {
          "internalType": "address[]",
          "name": "",
          "type": "address[]"
        }
      ],
      "payable": false,
      "stateMutability": "view",
      "type": "function"
    },
    {
      "constant": true,
      "inputs": [
        {
          "internalType": "address",
          "name": "pat",
          "type": "address"
        }
      ],
      "name": "getPatientInfoForDoctor",
      "outputs": [
        {
          "internalType": "string",
          "name": "",
          "type": "string"
        },
        {
          "internalType": "uint8",
          "name": "",
          "type": "uint8"
        },
        {
          "internalType": "address",
          "name": "",
          "type": "address"
        },
        {
          "components": [
            {
              "internalType": "string",
              "name": "file_name",
              "type": "string"
            },
            {
              "internalType": "string",
              "name": "file_type",
              "type": "string"
            },
            {
              "internalType": "string",
              "name": "file_hash",
              "type": "string"
            }
          ],
          "internalType": "struct optimized_healthCare.files[]",
          "name": "",
          "type": "tuple[]"
        }
      ],
      "payable": false,
      "stateMutability": "view",
      "type": "function"
    },
    {
      "constant": false,
      "inputs": [
        {
          "internalType": "address",
          "name": "_pat",
          "type": "address"
        },
        {
          "internalType": "string",
          "name": "_consultation",
          "type": "string"
        },
        {
          "internalType": "string",
          "name": "_medicine",
          "type": "string"
        },
        {
          "internalType": "string",
          "name": "_time",
          "type": "string"
        }
      ],
      "name": "addDoctorOfferedConsultation",
      "outputs": [],
      "payable": false,
      "stateMutability": "nonpayable",
      "type": "function"
    },
    {
      "constant": true,
      "inputs": [
        {
          "internalType": "address",
          "name": "_pat",
          "type": "address"
        }
      ],
      "name": "getDoctorConsultation",
      "outputs": [
        {
          "components": [
            {
              "internalType": "address",
              "name": "doc_id",
              "type": "address"
            },
            {
              "internalType": "string",
              "name": "consultation_advice",
              "type": "string"
            },
            {
              "internalType": "string",
              "name": "medicine",
              "type": "string"
            },
            {
              "internalType": "string",
              "name": "time_period",
              "type": "string"
            }
          ],
          "internalType": "struct optimized_healthCare.doctorOfferedConsultation[]",
          "name": "",
          "type": "tuple[]"
        }
      ],
      "payable": false,
      "stateMutability": "view",
      "type": "function"
    },
    {
      "constant": true,
      "inputs": [],
      "name": "getDoctorConsultationForPatient",
      "outputs": [
        {
          "components": [
            {
              "internalType": "address",
              "name": "doc_id",
              "type": "address"
            },
            {
              "internalType": "string",
              "name": "consultation_advice",
              "type": "string"
            },
            {
              "internalType": "string",
              "name": "medicine",
              "type": "string"
            },
            {
              "internalType": "string",
              "name": "time_period",
              "type": "string"
            }
          ],
          "internalType": "struct optimized_healthCare.doctorOfferedConsultation[]",
          "name": "",
          "type": "tuple[]"
        }
      ],
      "payable": false,
      "stateMutability": "view",
      "type": "function"
    }
  ],
  "bytecode": "0x608060405234801561001057600080fd5b5033600160006101000a81548173ffffffffffffffffffffffffffffffffffffffff021916908373ffffffffffffffffffffffffffffffffffffffff16021790555061548a806100616000396000f3fe608060405234801561001057600080fd5b50600436106100cf5760003560e01c8063629e559d1161008c578063abf2ddf111610066578063abf2ddf114610200578063b380f5c61461021c578063c671cbc51461023c578063fe59cc1a1461025a576100cf565b8063629e559d146101ac5780636459d52f146101c85780637120203a146101e4576100cf565b80630d37f629146100d45780631c8e251c146100f25780631fc379221461010e5780632ae48e401461013e578063326df6641461015a5780634257a5bc1461017c575b600080fd5b6100dc61028d565b6040516100e99190614fd4565b60405180910390f35b61010c600480360361010791908101906145fc565b6107f4565b005b610128600480360361012391908101906145fc565b610f5a565b6040516101359190614ff6565b60405180910390f35b61015860048036036101539190810190614711565b6111de565b005b6101626115e1565b604051610173959493929190615078565b60405180910390f35b610196600480360361019191908101906145fc565b611afb565b6040516101a39190614fd4565b60405180910390f35b6101c660048036036101c191908101906145fc565b61227e565b005b6101e260048036036101dd91908101906146d0565b612c32565b005b6101fe60048036036101f991908101906147a8565b612e8e565b005b61021a60048036036102159190810190614625565b613187565b005b61022461353c565b60405161023393929190615033565b60405180910390f35b610244613957565b6040516102519190615018565b60405180910390f35b610274600480360361026f91908101906145fc565b61397c565b60405161028494939291906150e0565b60405180910390f35b60603361029861431b565b600360008373ffffffffffffffffffffffffffffffffffffffff1673ffffffffffffffffffffffffffffffffffffffff1681526020019081526020016000206040518060a0016040529081600082018054600181600116156101000203166002900480601f01602080910402602001604051908101604052809291908181526020018280546001816001161561010002031660029004801561037b5780601f106103505761010080835404028352916020019161037b565b820191906000526020600020905b81548152906001019060200180831161035e57829003601f168201915b505050505081526020016001820160009054906101000a900460ff1660ff1660ff1681526020016001820160019054906101000a900473ffffffffffffffffffffffffffffffffffffffff1673ffffffffffffffffffffffffffffffffffffffff1673ffffffffffffffffffffffffffffffffffffffff1681526020016002820180548060200260200160405190810160405280929190818152602001828054801561044657602002820191906000526020600020905b815481526020019060010190808311610432575b50505050508152602001600382018054806020026020016040519081016040528092919081815260200182805480156104d457602002820191906000526020600020905b8160009054906101000a900473ffffffffffffffffffffffffffffffffffffffff1673ffffffffffffffffffffffffffffffffffffffff168152602001906001019080831161048a575b5050505050815250509050600073ffffffffffffffffffffffffffffffffffffffff16816040015173ffffffffffffffffffffffffffffffffffffffff161161051c57600080fd5b600760003373ffffffffffffffffffffffffffffffffffffffff1673ffffffffffffffffffffffffffffffffffffffff168152602001908152602001600020805480602002602001604051908101604052809291908181526020016000905b828210156107e957838290600052602060002090600402016040518060800160405290816000820160009054906101000a900473ffffffffffffffffffffffffffffffffffffffff1673ffffffffffffffffffffffffffffffffffffffff1673ffffffffffffffffffffffffffffffffffffffff168152602001600182018054600181600116156101000203166002900480601f01602080910402602001604051908101604052809291908181526020018280546001816001161561010002031660029004801561068d5780601f106106625761010080835404028352916020019161068d565b820191906000526020600020905b81548152906001019060200180831161067057829003601f168201915b50505050508152602001600282018054600181600116156101000203166002900480601f01602080910402602001604051908101604052809291908181526020018280546001816001161561010002031660029004801561072f5780601f106107045761010080835404028352916020019161072f565b820191906000526020600020905b81548152906001019060200180831161071257829003601f168201915b50505050508152602001600382018054600181600116156101000203166002900480601f0160208091040260200160405190810160405280929190818152602001828054600181600116156101000203166002900480156107d15780601f106107a6576101008083540402835291602001916107d1565b820191906000526020600020905b8154815290600101906020018083116107b457829003601f168201915b5050505050815250508152602001906001019061057b565b505050509250505090565b336107fd61431b565b600360008373ffffffffffffffffffffffffffffffffffffffff1673ffffffffffffffffffffffffffffffffffffffff1681526020019081526020016000206040518060a0016040529081600082018054600181600116156101000203166002900480601f0160208091040260200160405190810160405280929190818152602001828054600181600116156101000203166002900480156108e05780601f106108b5576101008083540402835291602001916108e0565b820191906000526020600020905b8154815290600101906020018083116108c357829003601f168201915b505050505081526020016001820160009054906101000a900460ff1660ff1660ff1681526020016001820160019054906101000a900473ffffffffffffffffffffffffffffffffffffffff1673ffffffffffffffffffffffffffffffffffffffff1673ffffffffffffffffffffffffffffffffffffffff168152602001600282018054806020026020016040519081016040528092919081815260200182805480156109ab57602002820191906000526020600020905b815481526020019060010190808311610997575b5050505050815260200160038201805480602002602001604051908101604052809291908181526020018280548015610a3957602002820191906000526020600020905b8160009054906101000a900473ffffffffffffffffffffffffffffffffffffffff1673ffffffffffffffffffffffffffffffffffffffff16815260200190600101908083116109ef575b5050505050815250509050600073ffffffffffffffffffffffffffffffffffffffff16816040015173ffffffffffffffffffffffffffffffffffffffff1611610a8157600080fd5b82610a8a614363565b600260008373ffffffffffffffffffffffffffffffffffffffff1673ffffffffffffffffffffffffffffffffffffffff168152602001908152602001600020604051806060016040529081600082018054600181600116156101000203166002900480601f016020809104026020016040519081016040528092919081815260200182805460018160011615610100020316600290048015610b6d5780601f10610b4257610100808354040283529160200191610b6d565b820191906000526020600020905b815481529060010190602001808311610b5057829003601f168201915b505050505081526020016001820160009054906101000a900473ffffffffffffffffffffffffffffffffffffffff1673ffffffffffffffffffffffffffffffffffffffff1673ffffffffffffffffffffffffffffffffffffffff16815260200160028201805480602002602001604051908101604052809291908181526020018280548015610c5157602002820191906000526020600020905b8160009054906101000a900473ffffffffffffffffffffffffffffffffffffffff1673ffffffffffffffffffffffffffffffffffffffff1681526020019060010190808311610c07575b5050505050815250509050600073ffffffffffffffffffffffffffffffffffffffff16816020015173ffffffffffffffffffffffffffffffffffffffff1611610c9957600080fd5b60005a90506000600360003373ffffffffffffffffffffffffffffffffffffffff1673ffffffffffffffffffffffffffffffffffffffff16815260200190815260200160002090506000600260008973ffffffffffffffffffffffffffffffffffffffff1673ffffffffffffffffffffffffffffffffffffffff16815260200190815260200160002090506001600460003373ffffffffffffffffffffffffffffffffffffffff1673ffffffffffffffffffffffffffffffffffffffff16815260200190815260200160002060008a73ffffffffffffffffffffffffffffffffffffffff1673ffffffffffffffffffffffffffffffffffffffff1681526020019081526020016000205410610dad57600080fd5b6000826003018990806001815401808255809150509060018203906000526020600020016000909192909190916101000a81548173ffffffffffffffffffffffffffffffffffffffff021916908373ffffffffffffffffffffffffffffffffffffffff160217905550905080600460003373ffffffffffffffffffffffffffffffffffffffff1673ffffffffffffffffffffffffffffffffffffffff16815260200190815260200160002060008b73ffffffffffffffffffffffffffffffffffffffff1673ffffffffffffffffffffffffffffffffffffffff16815260200190815260200160002081905550816002013390806001815401808255809150509060018203906000526020600020016000909192909190916101000a81548173ffffffffffffffffffffffffffffffffffffffff021916908373ffffffffffffffffffffffffffffffffffffffff1602179055505060005a9050600081860390507f80b1261897c29a0002e719d944eebb43890ef4716d9c1acee9ce459d33a65cb533856000018d84604051610f459493929190614ea2565b60405180910390a15050505050505050505050565b6060600660008373ffffffffffffffffffffffffffffffffffffffff1673ffffffffffffffffffffffffffffffffffffffff168152602001908152602001600020805480602002602001604051908101604052809291908181526020016000905b828210156111d35783829060005260206000209060030201604051806060016040529081600082018054600181600116156101000203166002900480601f0160208091040260200160405190810160405280929190818152602001828054600181600116156101000203166002900480156110775780601f1061104c57610100808354040283529160200191611077565b820191906000526020600020905b81548152906001019060200180831161105a57829003601f168201915b50505050508152602001600182018054600181600116156101000203166002900480601f0160208091040260200160405190810160405280929190818152602001828054600181600116156101000203166002900480156111195780601f106110ee57610100808354040283529160200191611119565b820191906000526020600020905b8154815290600101906020018083116110fc57829003601f168201915b50505050508152602001600282018054600181600116156101000203166002900480601f0160208091040260200160405190810160405280929190818152602001828054600181600116156101000203166002900480156111bb5780601f10611190576101008083540402835291602001916111bb565b820191906000526020600020905b81548152906001019060200180831161119e57829003601f168201915b50505050508152505081526020019060010190610fbb565b505050509050919050565b336111e761431b565b600360008373ffffffffffffffffffffffffffffffffffffffff1673ffffffffffffffffffffffffffffffffffffffff1681526020019081526020016000206040518060a0016040529081600082018054600181600116156101000203166002900480601f0160208091040260200160405190810160405280929190818152602001828054600181600116156101000203166002900480156112ca5780601f1061129f576101008083540402835291602001916112ca565b820191906000526020600020905b8154815290600101906020018083116112ad57829003601f168201915b505050505081526020016001820160009054906101000a900460ff1660ff1660ff1681526020016001820160019054906101000a900473ffffffffffffffffffffffffffffffffffffffff1673ffffffffffffffffffffffffffffffffffffffff1673ffffffffffffffffffffffffffffffffffffffff1681526020016002820180548060200260200160405190810160405280929190818152602001828054801561139557602002820191906000526020600020905b815481526020019060010190808311611381575b505050505081526020016003820180548060200260200160405190810160405280929190818152602001828054801561142357602002820191906000526020600020905b8160009054906101000a900473ffffffffffffffffffffffffffffffffffffffff1673ffffffffffffffffffffffffffffffffffffffff16815260200190600101908083116113d9575b5050505050815250509050600073ffffffffffffffffffffffffffffffffffffffff16816040015173ffffffffffffffffffffffffffffffffffffffff161161146b57600080fd5b60005a9050600660003373ffffffffffffffffffffffffffffffffffffffff1673ffffffffffffffffffffffffffffffffffffffff16815260200190815260200160002060405180606001604052808881526020018781526020018681525090806001815401808255809150509060018203906000526020600020906003020160009091929091909150600082015181600001908051906020019061151192919061439a565b50602082015181600101908051906020019061152e92919061439a565b50604082015181600201908051906020019061154b92919061439a565b5050505060005a9050600081830390507f0dc0277f619c802e380c94fbbe70e79813df06e0564ffb8be002648323ac10fb600360003373ffffffffffffffffffffffffffffffffffffffff1673ffffffffffffffffffffffffffffffffffffffff16815260200190815260200160002060000133836040516115cf93929190615133565b60405180910390a15050505050505050565b6060600080606080336115f261431b565b600360008373ffffffffffffffffffffffffffffffffffffffff1673ffffffffffffffffffffffffffffffffffffffff1681526020019081526020016000206040518060a0016040529081600082018054600181600116156101000203166002900480601f0160208091040260200160405190810160405280929190818152602001828054600181600116156101000203166002900480156116d55780601f106116aa576101008083540402835291602001916116d5565b820191906000526020600020905b8154815290600101906020018083116116b857829003601f168201915b505050505081526020016001820160009054906101000a900460ff1660ff1660ff1681526020016001820160019054906101000a900473ffffffffffffffffffffffffffffffffffffffff1673ffffffffffffffffffffffffffffffffffffffff1673ffffffffffffffffffffffffffffffffffffffff168152602001600282018054806020026020016040519081016040528092919081815260200182805480156117a057602002820191906000526020600020905b81548152602001906001019080831161178c575b505050505081526020016003820180548060200260200160405190810160405280929190818152602001828054801561182e57602002820191906000526020600020905b8160009054906101000a900473ffffffffffffffffffffffffffffffffffffffff1673ffffffffffffffffffffffffffffffffffffffff16815260200190600101908083116117e4575b5050505050815250509050600073ffffffffffffffffffffffffffffffffffffffff16816040015173ffffffffffffffffffffffffffffffffffffffff161161187657600080fd5b61187e61431b565b600360003373ffffffffffffffffffffffffffffffffffffffff1673ffffffffffffffffffffffffffffffffffffffff1681526020019081526020016000206040518060a0016040529081600082018054600181600116156101000203166002900480601f0160208091040260200160405190810160405280929190818152602001828054600181600116156101000203166002900480156119615780601f1061193657610100808354040283529160200191611961565b820191906000526020600020905b81548152906001019060200180831161194457829003601f168201915b505050505081526020016001820160009054906101000a900460ff1660ff1660ff1681526020016001820160019054906101000a900473ffffffffffffffffffffffffffffffffffffffff1673ffffffffffffffffffffffffffffffffffffffff1673ffffffffffffffffffffffffffffffffffffffff16815260200160028201805480602002602001604051908101604052809291908181526020018280548015611a2c57602002820191906000526020600020905b815481526020019060010190808311611a18575b5050505050815260200160038201805480602002602001604051908101604052809291908181526020018280548015611aba57602002820191906000526020600020905b8160009054906101000a900473ffffffffffffffffffffffffffffffffffffffff1673ffffffffffffffffffffffffffffffffffffffff1681526020019060010190808311611a70575b505050505081525050905080600001518160400151826020015183606001518460800151849450819150809050975097509750975097505050509091929394565b606081611b0661431b565b600360008373ffffffffffffffffffffffffffffffffffffffff1673ffffffffffffffffffffffffffffffffffffffff1681526020019081526020016000206040518060a0016040529081600082018054600181600116156101000203166002900480601f016020809104026020016040519081016040528092919081815260200182805460018160011615610100020316600290048015611be95780601f10611bbe57610100808354040283529160200191611be9565b820191906000526020600020905b815481529060010190602001808311611bcc57829003601f168201915b505050505081526020016001820160009054906101000a900460ff1660ff1660ff1681526020016001820160019054906101000a900473ffffffffffffffffffffffffffffffffffffffff1673ffffffffffffffffffffffffffffffffffffffff1673ffffffffffffffffffffffffffffffffffffffff16815260200160028201805480602002602001604051908101604052809291908181526020018280548015611cb457602002820191906000526020600020905b815481526020019060010190808311611ca0575b5050505050815260200160038201805480602002602001604051908101604052809291908181526020018280548015611d4257602002820191906000526020600020905b8160009054906101000a900473ffffffffffffffffffffffffffffffffffffffff1673ffffffffffffffffffffffffffffffffffffffff1681526020019060010190808311611cf8575b5050505050815250509050600073ffffffffffffffffffffffffffffffffffffffff16816040015173ffffffffffffffffffffffffffffffffffffffff1611611d8a57600080fd5b33611d93614363565b600260008373ffffffffffffffffffffffffffffffffffffffff1673ffffffffffffffffffffffffffffffffffffffff168152602001908152602001600020604051806060016040529081600082018054600181600116156101000203166002900480601f016020809104026020016040519081016040528092919081815260200182805460018160011615610100020316600290048015611e765780601f10611e4b57610100808354040283529160200191611e76565b820191906000526020600020905b815481529060010190602001808311611e5957829003601f168201915b505050505081526020016001820160009054906101000a900473ffffffffffffffffffffffffffffffffffffffff1673ffffffffffffffffffffffffffffffffffffffff1673ffffffffffffffffffffffffffffffffffffffff16815260200160028201805480602002602001604051908101604052809291908181526020018280548015611f5a57602002820191906000526020600020905b8160009054906101000a900473ffffffffffffffffffffffffffffffffffffffff1673ffffffffffffffffffffffffffffffffffffffff1681526020019060010190808311611f10575b5050505050815250509050600073ffffffffffffffffffffffffffffffffffffffff16816020015173ffffffffffffffffffffffffffffffffffffffff1611611fa257600080fd5b600760008773ffffffffffffffffffffffffffffffffffffffff1673ffffffffffffffffffffffffffffffffffffffff168152602001908152602001600020805480602002602001604051908101604052809291908181526020016000905b8282101561226f57838290600052602060002090600402016040518060800160405290816000820160009054906101000a900473ffffffffffffffffffffffffffffffffffffffff1673ffffffffffffffffffffffffffffffffffffffff1673ffffffffffffffffffffffffffffffffffffffff168152602001600182018054600181600116156101000203166002900480601f0160208091040260200160405190810160405280929190818152602001828054600181600116156101000203166002900480156121135780601f106120e857610100808354040283529160200191612113565b820191906000526020600020905b8154815290600101906020018083116120f657829003601f168201915b50505050508152602001600282018054600181600116156101000203166002900480601f0160208091040260200160405190810160405280929190818152602001828054600181600116156101000203166002900480156121b55780601f1061218a576101008083540402835291602001916121b5565b820191906000526020600020905b81548152906001019060200180831161219857829003601f168201915b50505050508152602001600382018054600181600116156101000203166002900480601f0160208091040260200160405190810160405280929190818152602001828054600181600116156101000203166002900480156122575780601f1061222c57610100808354040283529160200191612257565b820191906000526020600020905b81548152906001019060200180831161223a57829003601f168201915b50505050508152505081526020019060010190612001565b50505050945050505050919050565b3361228761431b565b600360008373ffffffffffffffffffffffffffffffffffffffff1673ffffffffffffffffffffffffffffffffffffffff1681526020019081526020016000206040518060a0016040529081600082018054600181600116156101000203166002900480601f01602080910402602001604051908101604052809291908181526020018280546001816001161561010002031660029004801561236a5780601f1061233f5761010080835404028352916020019161236a565b820191906000526020600020905b81548152906001019060200180831161234d57829003601f168201915b505050505081526020016001820160009054906101000a900460ff1660ff1660ff1681526020016001820160019054906101000a900473ffffffffffffffffffffffffffffffffffffffff1673ffffffffffffffffffffffffffffffffffffffff1673ffffffffffffffffffffffffffffffffffffffff1681526020016002820180548060200260200160405190810160405280929190818152602001828054801561243557602002820191906000526020600020905b815481526020019060010190808311612421575b50505050508152602001600382018054806020026020016040519081016040528092919081815260200182805480156124c357602002820191906000526020600020905b8160009054906101000a900473ffffffffffffffffffffffffffffffffffffffff1673ffffffffffffffffffffffffffffffffffffffff1681526020019060010190808311612479575b5050505050815250509050600073ffffffffffffffffffffffffffffffffffffffff16816040015173ffffffffffffffffffffffffffffffffffffffff161161250b57600080fd5b82612514614363565b600260008373ffffffffffffffffffffffffffffffffffffffff1673ffffffffffffffffffffffffffffffffffffffff168152602001908152602001600020604051806060016040529081600082018054600181600116156101000203166002900480601f0160208091040260200160405190810160405280929190818152602001828054600181600116156101000203166002900480156125f75780601f106125cc576101008083540402835291602001916125f7565b820191906000526020600020905b8154815290600101906020018083116125da57829003601f168201915b505050505081526020016001820160009054906101000a900473ffffffffffffffffffffffffffffffffffffffff1673ffffffffffffffffffffffffffffffffffffffff1673ffffffffffffffffffffffffffffffffffffffff168152602001600282018054806020026020016040519081016040528092919081815260200182805480156126db57602002820191906000526020600020905b8160009054906101000a900473ffffffffffffffffffffffffffffffffffffffff1673ffffffffffffffffffffffffffffffffffffffff1681526020019060010190808311612691575b5050505050815250509050600073ffffffffffffffffffffffffffffffffffffffff16816020015173ffffffffffffffffffffffffffffffffffffffff161161272357600080fd5b60005a90506000600460003373ffffffffffffffffffffffffffffffffffffffff1673ffffffffffffffffffffffffffffffffffffffff16815260200190815260200160002060008873ffffffffffffffffffffffffffffffffffffffff1673ffffffffffffffffffffffffffffffffffffffff16815260200190815260200160002054116127b157600080fd5b6000600460003373ffffffffffffffffffffffffffffffffffffffff1673ffffffffffffffffffffffffffffffffffffffff16815260200190815260200160002060008873ffffffffffffffffffffffffffffffffffffffff1673ffffffffffffffffffffffffffffffffffffffff168152602001908152602001600020819055506000600360003373ffffffffffffffffffffffffffffffffffffffff1673ffffffffffffffffffffffffffffffffffffffff16815260200190815260200160002090506000600260008973ffffffffffffffffffffffffffffffffffffffff1673ffffffffffffffffffffffffffffffffffffffff1681526020019081526020016000209050600082600301805490509050600080905060008090505b8281101561295a578a73ffffffffffffffffffffffffffffffffffffffff168560030182815481106128fe57fe5b9060005260206000200160009054906101000a900473ffffffffffffffffffffffffffffffffffffffff1673ffffffffffffffffffffffffffffffffffffffff16141561294d5780915061295a565b80806001019150506128d0565b505b60018203811015612a085783600301600182018154811061297957fe5b9060005260206000200160009054906101000a900473ffffffffffffffffffffffffffffffffffffffff168460030182815481106129b357fe5b9060005260206000200160006101000a81548173ffffffffffffffffffffffffffffffffffffffff021916908373ffffffffffffffffffffffffffffffffffffffff160217905550808060010191505061295c565b83600301805480612a1557fe5b6001900381819060005260206000200160006101000a81549073ffffffffffffffffffffffffffffffffffffffff02191690559055826002018054905091506000905060008090505b82811015612ae8573373ffffffffffffffffffffffffffffffffffffffff16846002018281548110612a8c57fe5b9060005260206000200160009054906101000a900473ffffffffffffffffffffffffffffffffffffffff1673ffffffffffffffffffffffffffffffffffffffff161415612adb57809150612ae8565b8080600101915050612a5e565b505b60018203811015612b9657826002016001820181548110612b0757fe5b9060005260206000200160009054906101000a900473ffffffffffffffffffffffffffffffffffffffff16836002018281548110612b4157fe5b9060005260206000200160006101000a81548173ffffffffffffffffffffffffffffffffffffffff021916908373ffffffffffffffffffffffffffffffffffffffff1602179055508080600101915050612aea565b82600201805480612ba357fe5b6001900381819060005260206000200160006101000a81549073ffffffffffffffffffffffffffffffffffffffff0219169055905560005a9050600081870390507f22d9816f6464362f318c9aa9517d11505ad740251b76d7ed1970ea8db85695d733866000018e84604051612c1c9493929190614f01565b60405180910390a1505050505050505050505050565b60005a90506000600260003373ffffffffffffffffffffffffffffffffffffffff1673ffffffffffffffffffffffffffffffffffffffff1681526020019081526020016000209050604051612c8690614e15565b604051809103902083604051602001612c9f9190614dfe565b604051602081830303815290604052805190602001201415612cc057600080fd5b600073ffffffffffffffffffffffffffffffffffffffff168160010160009054906101000a900473ffffffffffffffffffffffffffffffffffffffff1673ffffffffffffffffffffffffffffffffffffffff161115612d1e57600080fd5b60405180606001604052808481526020013373ffffffffffffffffffffffffffffffffffffffff1681526020016000604051908082528060200260200182016040528015612d7b5781602001602082028038833980820191505090505b50815250600260003373ffffffffffffffffffffffffffffffffffffffff1673ffffffffffffffffffffffffffffffffffffffff1681526020019081526020016000206000820151816000019080519060200190612dda92919061439a565b5060208201518160010160006101000a81548173ffffffffffffffffffffffffffffffffffffffff021916908373ffffffffffffffffffffffffffffffffffffffff1602179055506040820151816002019080519060200190612e3e92919061441a565b5090505060005a9050600081840390507f8f88a196d8278af0c72a7133c75cd4082cfc76d9b385b9870d7a3dfdfc0045af3382604051612e7f929190614e2a565b60405180910390a15050505050565b60005a90506000600360003373ffffffffffffffffffffffffffffffffffffffff1673ffffffffffffffffffffffffffffffffffffffff1681526020019081526020016000209050604051612ee290614e15565b604051809103902084604051602001612efb9190614dfe565b604051602081830303815290604052805190602001201415612f1c57600080fd5b60008360ff16118015612f32575060648360ff16105b612f3b57600080fd5b600073ffffffffffffffffffffffffffffffffffffffff168160010160019054906101000a900473ffffffffffffffffffffffffffffffffffffffff1673ffffffffffffffffffffffffffffffffffffffff161115612f9957600080fd5b6040518060a001604052808581526020018460ff1681526020013373ffffffffffffffffffffffffffffffffffffffff1681526020016000604051908082528060200260200182016040528015612fff5781602001602082028038833980820191505090505b50815260200160006040519080825280602002602001820160405280156130355781602001602082028038833980820191505090505b50815250600360003373ffffffffffffffffffffffffffffffffffffffff1673ffffffffffffffffffffffffffffffffffffffff168152602001908152602001600020600082015181600001908051906020019061309492919061439a565b5060208201518160010160006101000a81548160ff021916908360ff16021790555060408201518160010160016101000a81548173ffffffffffffffffffffffffffffffffffffffff021916908373ffffffffffffffffffffffffffffffffffffffff16021790555060608201518160020190805190602001906131199291906144a4565b50608082015181600301908051906020019061313692919061441a565b5090505060005a9050600081840390507f66a5daf6909dbdf38f31cd0e11d95432c4d723ab27c89d4ae734abd9a77bd3ec3382604051613177929190614e66565b60405180910390a1505050505050565b33613190614363565b600260008373ffffffffffffffffffffffffffffffffffffffff1673ffffffffffffffffffffffffffffffffffffffff168152602001908152602001600020604051806060016040529081600082018054600181600116156101000203166002900480601f0160208091040260200160405190810160405280929190818152602001828054600181600116156101000203166002900480156132735780601f1061324857610100808354040283529160200191613273565b820191906000526020600020905b81548152906001019060200180831161325657829003601f168201915b505050505081526020016001820160009054906101000a900473ffffffffffffffffffffffffffffffffffffffff1673ffffffffffffffffffffffffffffffffffffffff1673ffffffffffffffffffffffffffffffffffffffff1681526020016002820180548060200260200160405190810160405280929190818152602001828054801561335757602002820191906000526020600020905b8160009054906101000a900473ffffffffffffffffffffffffffffffffffffffff1673ffffffffffffffffffffffffffffffffffffffff168152602001906001019080831161330d575b5050505050815250509050600073ffffffffffffffffffffffffffffffffffffffff16816020015173ffffffffffffffffffffffffffffffffffffffff161161339f57600080fd5b60005a9050600760008873ffffffffffffffffffffffffffffffffffffffff1673ffffffffffffffffffffffffffffffffffffffff16815260200190815260200160002060405180608001604052803373ffffffffffffffffffffffffffffffffffffffff168152602001888152602001878152602001868152509080600181540180825580915050906001820390600052602060002090600402016000909192909190915060008201518160000160006101000a81548173ffffffffffffffffffffffffffffffffffffffff021916908373ffffffffffffffffffffffffffffffffffffffff16021790555060208201518160010190805190602001906134a892919061439a565b5060408201518160020190805190602001906134c592919061439a565b5060608201518160030190805190602001906134e292919061439a565b5050505060005a9050600081830390507f3d58b74301bbde78514b8f035c05e9a72d7eb20be7f961b07f94e1b0b790bcbf338a8a8a85604051613529959493929190614f60565b60405180910390a1505050505050505050565b6060600060603361354b614363565b600260008373ffffffffffffffffffffffffffffffffffffffff1673ffffffffffffffffffffffffffffffffffffffff168152602001908152602001600020604051806060016040529081600082018054600181600116156101000203166002900480601f01602080910402602001604051908101604052809291908181526020018280546001816001161561010002031660029004801561362e5780601f106136035761010080835404028352916020019161362e565b820191906000526020600020905b81548152906001019060200180831161361157829003601f168201915b505050505081526020016001820160009054906101000a900473ffffffffffffffffffffffffffffffffffffffff1673ffffffffffffffffffffffffffffffffffffffff1673ffffffffffffffffffffffffffffffffffffffff1681526020016002820180548060200260200160405190810160405280929190818152602001828054801561371257602002820191906000526020600020905b8160009054906101000a900473ffffffffffffffffffffffffffffffffffffffff1673ffffffffffffffffffffffffffffffffffffffff16815260200190600101908083116136c8575b5050505050815250509050600073ffffffffffffffffffffffffffffffffffffffff16816020015173ffffffffffffffffffffffffffffffffffffffff161161375a57600080fd5b613762614363565b600260003373ffffffffffffffffffffffffffffffffffffffff1673ffffffffffffffffffffffffffffffffffffffff168152602001908152602001600020604051806060016040529081600082018054600181600116156101000203166002900480601f0160208091040260200160405190810160405280929190818152602001828054600181600116156101000203166002900480156138455780601f1061381a57610100808354040283529160200191613845565b820191906000526020600020905b81548152906001019060200180831161382857829003601f168201915b505050505081526020016001820160009054906101000a900473ffffffffffffffffffffffffffffffffffffffff1673ffffffffffffffffffffffffffffffffffffffff1673ffffffffffffffffffffffffffffffffffffffff1681526020016002820180548060200260200160405190810160405280929190818152602001828054801561392957602002820191906000526020600020905b8160009054906101000a900473ffffffffffffffffffffffffffffffffffffffff1673ffffffffffffffffffffffffffffffffffffffff16815260200190600101908083116138df575b5050505050815250509050806000015181602001518260400151829250809050955095509550505050909192565b6000809054906101000a900473ffffffffffffffffffffffffffffffffffffffff1681565b606060008060608461398c61431b565b600360008373ffffffffffffffffffffffffffffffffffffffff1673ffffffffffffffffffffffffffffffffffffffff1681526020019081526020016000206040518060a0016040529081600082018054600181600116156101000203166002900480601f016020809104026020016040519081016040528092919081815260200182805460018160011615610100020316600290048015613a6f5780601f10613a4457610100808354040283529160200191613a6f565b820191906000526020600020905b815481529060010190602001808311613a5257829003601f168201915b505050505081526020016001820160009054906101000a900460ff1660ff1660ff1681526020016001820160019054906101000a900473ffffffffffffffffffffffffffffffffffffffff1673ffffffffffffffffffffffffffffffffffffffff1673ffffffffffffffffffffffffffffffffffffffff16815260200160028201805480602002602001604051908101604052809291908181526020018280548015613b3a57602002820191906000526020600020905b815481526020019060010190808311613b26575b5050505050815260200160038201805480602002602001604051908101604052809291908181526020018280548015613bc857602002820191906000526020600020905b8160009054906101000a900473ffffffffffffffffffffffffffffffffffffffff1673ffffffffffffffffffffffffffffffffffffffff1681526020019060010190808311613b7e575b5050505050815250509050600073ffffffffffffffffffffffffffffffffffffffff16816040015173ffffffffffffffffffffffffffffffffffffffff1611613c1057600080fd5b33613c19614363565b600260008373ffffffffffffffffffffffffffffffffffffffff1673ffffffffffffffffffffffffffffffffffffffff168152602001908152602001600020604051806060016040529081600082018054600181600116156101000203166002900480601f016020809104026020016040519081016040528092919081815260200182805460018160011615610100020316600290048015613cfc5780601f10613cd157610100808354040283529160200191613cfc565b820191906000526020600020905b815481529060010190602001808311613cdf57829003601f168201915b505050505081526020016001820160009054906101000a900473ffffffffffffffffffffffffffffffffffffffff1673ffffffffffffffffffffffffffffffffffffffff1673ffffffffffffffffffffffffffffffffffffffff16815260200160028201805480602002602001604051908101604052809291908181526020018280548015613de057602002820191906000526020600020905b8160009054906101000a900473ffffffffffffffffffffffffffffffffffffffff1673ffffffffffffffffffffffffffffffffffffffff1681526020019060010190808311613d96575b5050505050815250509050600073ffffffffffffffffffffffffffffffffffffffff16816020015173ffffffffffffffffffffffffffffffffffffffff1611613e2857600080fd5b613e3061431b565b600360008b73ffffffffffffffffffffffffffffffffffffffff1673ffffffffffffffffffffffffffffffffffffffff1681526020019081526020016000206040518060a0016040529081600082018054600181600116156101000203166002900480601f016020809104026020016040519081016040528092919081815260200182805460018160011615610100020316600290048015613f135780601f10613ee857610100808354040283529160200191613f13565b820191906000526020600020905b815481529060010190602001808311613ef657829003601f168201915b505050505081526020016001820160009054906101000a900460ff1660ff1660ff1681526020016001820160019054906101000a900473ffffffffffffffffffffffffffffffffffffffff1673ffffffffffffffffffffffffffffffffffffffff1673ffffffffffffffffffffffffffffffffffffffff16815260200160028201805480602002602001604051908101604052809291908181526020018280548015613fde57602002820191906000526020600020905b815481526020019060010190808311613fca575b505050505081526020016003820180548060200260200160405190810160405280929190818152602001828054801561406c57602002820191906000526020600020905b8160009054906101000a900473ffffffffffffffffffffffffffffffffffffffff1673ffffffffffffffffffffffffffffffffffffffff1681526020019060010190808311614022575b5050505050815250509050806000015181602001518260400151600660008e73ffffffffffffffffffffffffffffffffffffffff1673ffffffffffffffffffffffffffffffffffffffff16815260200190815260200160002083935080805480602002602001604051908101604052809291908181526020016000905b828210156143015783829060005260206000209060030201604051806060016040529081600082018054600181600116156101000203166002900480601f0160208091040260200160405190810160405280929190818152602001828054600181600116156101000203166002900480156141a55780601f1061417a576101008083540402835291602001916141a5565b820191906000526020600020905b81548152906001019060200180831161418857829003601f168201915b50505050508152602001600182018054600181600116156101000203166002900480601f0160208091040260200160405190810160405280929190818152602001828054600181600116156101000203166002900480156142475780601f1061421c57610100808354040283529160200191614247565b820191906000526020600020905b81548152906001019060200180831161422a57829003601f168201915b50505050508152602001600282018054600181600116156101000203166002900480601f0160208091040260200160405190810160405280929190818152602001828054600181600116156101000203166002900480156142e95780601f106142be576101008083540402835291602001916142e9565b820191906000526020600020905b8154815290600101906020018083116142cc57829003601f168201915b505050505081525050815260200190600101906140e9565b505050509050985098509850985050505050509193509193565b6040518060a0016040528060608152602001600060ff168152602001600073ffffffffffffffffffffffffffffffffffffffff16815260200160608152602001606081525090565b604051806060016040528060608152602001600073ffffffffffffffffffffffffffffffffffffffff168152602001606081525090565b828054600181600116156101000203166002900490600052602060002090601f016020900481019282601f106143db57805160ff1916838001178555614409565b82800160010185558215614409579182015b828111156144085782518255916020019190600101906143ed565b5b50905061441691906144f1565b5090565b828054828255906000526020600020908101928215614493579160200282015b828111156144925782518260006101000a81548173ffffffffffffffffffffffffffffffffffffffff021916908373ffffffffffffffffffffffffffffffffffffffff1602179055509160200191906001019061443a565b5b5090506144a09190614516565b5090565b8280548282559060005260206000209081019282156144e0579160200282015b828111156144df5782518255916020019190600101906144c4565b5b5090506144ed9190614559565b5090565b61451391905b8082111561450f5760008160009055506001016144f7565b5090565b90565b61455691905b8082111561455257600081816101000a81549073ffffffffffffffffffffffffffffffffffffffff02191690555060010161451c565b5090565b90565b61457b91905b8082111561457757600081600090555060010161455f565b5090565b90565b60008135905061458d81615419565b92915050565b600082601f8301126145a457600080fd5b81356145b76145b2826151b1565b615184565b915080825260208301602083018583830111156145d357600080fd5b6145de8382846153c6565b50505092915050565b6000813590506145f681615430565b92915050565b60006020828403121561460e57600080fd5b600061461c8482850161457e565b91505092915050565b6000806000806080858703121561463b57600080fd5b60006146498782880161457e565b945050602085013567ffffffffffffffff81111561466657600080fd5b61467287828801614593565b935050604085013567ffffffffffffffff81111561468f57600080fd5b61469b87828801614593565b925050606085013567ffffffffffffffff8111156146b857600080fd5b6146c487828801614593565b91505092959194509250565b6000602082840312156146e257600080fd5b600082013567ffffffffffffffff8111156146fc57600080fd5b61470884828501614593565b91505092915050565b60008060006060848603121561472657600080fd5b600084013567ffffffffffffffff81111561474057600080fd5b61474c86828701614593565b935050602084013567ffffffffffffffff81111561476957600080fd5b61477586828701614593565b925050604084013567ffffffffffffffff81111561479257600080fd5b61479e86828701614593565b9150509250925092565b600080604083850312156147bb57600080fd5b600083013567ffffffffffffffff8111156147d557600080fd5b6147e185828601614593565b92505060206147f2858286016145e7565b9150509250929050565b60006148088383614863565b60208301905092915050565b60006148208383614a27565b60208301905092915050565b60006148388383614d11565b905092915050565b600061484c8383614d82565b905092915050565b61485d8161536c565b82525050565b61486c81615319565b82525050565b61487b81615319565b82525050565b600061488c82615232565b61489681856152a8565b93506148a1836151dd565b8060005b838110156148d25781516148b988826147fc565b97506148c483615274565b9250506001810190506148a5565b5085935050505092915050565b60006148ea8261523d565b6148f481856152b9565b93506148ff836151ed565b8060005b838110156149305781516149178882614814565b975061492283615281565b925050600181019050614903565b5085935050505092915050565b600061494882615248565b61495281856152ca565b935083602082028501614964856151fd565b8060005b858110156149a05784840389528151614981858261482c565b945061498c8361528e565b925060208a01995050600181019050614968565b50829750879550505050505092915050565b60006149bd82615253565b6149c781856152db565b9350836020820285016149d98561520d565b8060005b85811015614a1557848403895281516149f68582614840565b9450614a018361529b565b925060208a019950506001810190506149dd565b50829750879550505050505092915050565b614a308161532b565b82525050565b614a3f8161537e565b82525050565b6000614a5082615269565b614a5a81856152fd565b9350614a6a8185602086016153d5565b614a7381615408565b840191505092915050565b6000614a8982615269565b614a93818561530e565b9350614aa38185602086016153d5565b80840191505092915050565b6000614aba8261525e565b614ac481856152ec565b9350614ad48185602086016153d5565b614add81615408565b840191505092915050565b600081546001811660008114614b055760018114614b2b57614b6f565b607f6002830416614b1681876152fd565b955060ff198316865260208601935050614b6f565b60028204614b3981876152fd565b9550614b448561521d565b60005b82811015614b6657815481890152600182019150602081019050614b47565b80880195505050505b505092915050565b6000614b846014836152fd565b91507f5265676973746572656420617320446f63746f720000000000000000000000006000830152602082019050919050565b6000614bc46015836152fd565b91507f526567697374657265642061732050617469656e7400000000000000000000006000830152602082019050919050565b6000614c04600c836152fd565b91507f416464656420612066696c6500000000000000000000000000000000000000006000830152602082019050919050565b6000614c446018836152fd565b91507f4772616e7465642061636365737320746f20646f63746f7200000000000000006000830152602082019050919050565b6000614c846018836152fd565b91507f5265766f6b656420616363657373206f6620646f63746f7200000000000000006000830152602082019050919050565b6000614cc460008361530e565b9150600082019050919050565b6000614cde6018836152fd565b91507f50726f766964656420636f6e73756c746174696f6e20746f00000000000000006000830152602082019050919050565b6000608083016000830151614d296000860182614863565b5060208301518482036020860152614d418282614aaf565b91505060408301518482036040860152614d5b8282614aaf565b91505060608301518482036060860152614d758282614aaf565b9150508091505092915050565b60006060830160008301518482036000860152614d9f8282614aaf565b91505060208301518482036020860152614db98282614aaf565b91505060408301518482036040860152614dd38282614aaf565b9150508091505092915050565b614de981615355565b82525050565b614df88161535f565b82525050565b6000614e0a8284614a7e565b915081905092915050565b6000614e2082614cb7565b9150819050919050565b6000606082019050614e3f6000830185614854565b8181036020830152614e5081614b77565b9050614e5f6040830184614de0565b9392505050565b6000606082019050614e7b6000830185614854565b8181036020830152614e8c81614bb7565b9050614e9b6040830184614de0565b9392505050565b600060a082019050614eb76000830187614854565b8181036020830152614ec881614c37565b90508181036040830152614edc8186614ae8565b9050614eeb6060830185614872565b614ef86080830184614de0565b95945050505050565b600060a082019050614f166000830187614854565b8181036020830152614f2781614c77565b90508181036040830152614f3b8186614ae8565b9050614f4a6060830185614872565b614f576080830184614de0565b95945050505050565b600060c082019050614f756000830188614854565b8181036020830152614f8681614cd1565b9050614f956040830187614872565b8181036060830152614fa78186614a45565b90508181036080830152614fbb8185614a45565b9050614fca60a0830184614de0565b9695505050505050565b60006020820190508181036000830152614fee818461493d565b905092915050565b6000602082019050818103600083015261501081846149b2565b905092915050565b600060208201905061502d6000830184614a36565b92915050565b6000606082019050818103600083015261504d8186614a45565b905061505c6020830185614872565b818103604083015261506e8184614881565b9050949350505050565b600060a08201905081810360008301526150928188614a45565b90506150a16020830187614872565b6150ae6040830186614def565b81810360608301526150c081856148df565b905081810360808301526150d48184614881565b90509695505050505050565b600060808201905081810360008301526150fa8187614a45565b90506151096020830186614def565b6151166040830185614872565b818103606083015261512881846149b2565b905095945050505050565b6000608082019050818103600083015261514d8186614ae8565b905061515c6020830185614854565b818103604083015261516d81614bf7565b905061517c6060830184614de0565b949350505050565b6000604051905081810181811067ffffffffffffffff821117156151a757600080fd5b8060405250919050565b600067ffffffffffffffff8211156151c857600080fd5b601f19601f8301169050602081019050919050565b6000819050602082019050919050565b6000819050602082019050919050565b6000819050602082019050919050565b6000819050602082019050919050565b60008190508160005260206000209050919050565b600081519050919050565b600081519050919050565b600081519050919050565b600081519050919050565b600081519050919050565b600081519050919050565b6000602082019050919050565b6000602082019050919050565b6000602082019050919050565b6000602082019050919050565b600082825260208201905092915050565b600082825260208201905092915050565b600082825260208201905092915050565b600082825260208201905092915050565b600082825260208201905092915050565b600082825260208201905092915050565b600081905092915050565b600061532482615335565b9050919050565b6000819050919050565b600073ffffffffffffffffffffffffffffffffffffffff82169050919050565b6000819050919050565b600060ff82169050919050565b6000615377826153a2565b9050919050565b600061538982615390565b9050919050565b600061539b82615335565b9050919050565b60006153ad826153b4565b9050919050565b60006153bf82615335565b9050919050565b82818337600083830152505050565b60005b838110156153f35780820151818401526020810190506153d8565b83811115615402576000848401525b50505050565b6000601f19601f8301169050919050565b61542281615319565b811461542d57600080fd5b50565b6154398161535f565b811461544457600080fd5b5056fea365627a7a723158208d9e0eb4be8a201be6f788db6c84c3cb52d7ed98e182239a1cf8b8397d923d7d6c6578706572696d656e74616cf564736f6c63430005100040",
  "source": "pragma solidity >=0.4.21 <0.7.0;\r\npragma experimental ABIEncoderV2;\r\nimport \"./DoctorAddRecord.sol\";\r\n\r\ncontract optimized_healthCare {\r\n  \r\n  DoctorAddRecord public doctorAddRecord;\r\n\r\n  address private owner;\r\n  mapping (address => doctor) private doctors;\r\n  \r\n  mapping (address => patient) private patients; //mapping patients to their addresses\r\n  mapping (address => mapping (address => uint)) private patientToDoctor; //patients and list of doctors allowed access to\r\n  mapping (address => mapping (bytes32 => uint)) private patientToFile; //files mapped to patients\r\n  mapping (address => files[]) private patientFiles;\r\n  mapping (address => doctorOfferedConsultation[]) private doctorOfferedConsultationList;\r\n\r\n  //structure of doctor added files\r\n  struct doctorAddedFiles{\r\n    string file_name;\r\n    string file_type;\r\n    string file_hash;\r\n    address doc_id;\r\n  }\r\n  \r\n  //structure of patient file\r\n  struct files{\r\n      string file_name;\r\n      string file_type;\r\n      string file_hash;\r\n  }\r\n\r\n  \r\n  \r\n  //File-info\r\n  struct filesInfo {\r\n      string file_name;\r\n      string file_type;\r\n      string file_secret;\r\n  }\r\n  \r\n\r\n  //structure of patient info\r\n  struct patient {\r\n      string name;\r\n      uint8 age;\r\n      address id;\r\n      bytes32[] files;// hashes of file that belong to this user for display purpose\r\n\r\n      //hashes of files that doctor added after consultation for display purpose \r\n      address[] doctor_list;\r\n  }\r\n  \r\n  // structure for doctor offered consultation\r\n  struct doctorOfferedConsultation\r\n  {\r\n    address doc_id;\r\n    string consultation_advice;\r\n    string medicine;\r\n    string time_period;\r\n  }\r\n\r\n  //structure of doctor info\r\n  struct doctor {\r\n      string name;\r\n      address id;\r\n      address[] patient_list;\r\n  }\r\n  \r\n\r\n  //setting the owner\r\n  constructor() public {\r\n    owner = msg.sender;\r\n  }\r\n  \r\n  \r\n  //verify doctor on blockchain\r\n  modifier checkDoctor(address id) {\r\n    doctor memory d = doctors[id];\r\n    require(d.id > address(0x0));//check if doctor exist\r\n    _;\r\n  }\r\n  \r\n  //verify patient on blockchain\r\n  modifier checkPatient(address id) {\r\n    patient memory p = patients[id];\r\n    require(p.id > address(0x0));//check if patient exist\r\n    _;\r\n  }\r\n  \r\n\r\n  //owner verification modifier\r\n  modifier onlyOwner() {\r\n    require(msg.sender == owner);\r\n    _;\r\n  }\r\n   \r\n\r\n  //check if user has file access\r\n  modifier checkFileAccess(string memory role, address id, bytes32 fileHashId, address pat) {\r\n    uint pos;\r\n    //check if doctor trying to access the file\r\n    if(keccak256(abi.encodePacked(role)) == keccak256(\"doctor\")) {\r\n        //check if patient granted access to doctor\r\n        require(patientToDoctor[pat][id] > 0);\r\n        pos = patientToFile[pat][fileHashId];\r\n        require(pos > 0);   \r\n    }\r\n    //check if patient trying to access the file\r\n    else if(keccak256(abi.encodePacked(role)) == keccak256(\"patient\")) \r\n    {\r\n        //check if file belongs to patient\r\n        pos = patientToFile[id][fileHashId];\r\n        require(pos > 0);\r\n    }\r\n    _; \r\n  }\r\n  \r\n\r\n\r\n  //Event to emit when new patient registers\r\n  event patientSignUp( address _patient, string message, uint256 gas_used);\r\n\r\n  function signupPatient(string memory _name, uint8 _age) public {\r\n\r\n    uint256 startGas = gasleft();\r\n    //search for patient on blockchain by address \r\n    patient storage p = patients[msg.sender];\r\n    //check input name and age\r\n    require(keccak256(abi.encodePacked(_name)) != keccak256(\"\"));\r\n    require((_age > 0) && (_age < 100));\r\n    //Check if the patient already exists by address\r\n    require(!(p.id > address(0x0)));\r\n    //Add patient to blockchain\r\n    patients[msg.sender] = patient({name:_name,age:_age,id:msg.sender,files:new bytes32[](0),doctor_list:new address[](0)});\r\n    \r\n    uint256 endGas = gasleft();\r\n    uint256 gas_used= startGas-endGas;\r\n\r\n    emit patientSignUp( msg.sender, \"Registered as Patient\", gas_used);\r\n  }\r\n  \r\n\r\n  //Event to emit when new doctor registers\r\n  event doctorSignUp(address _doctor, string message, uint256 gas_used);\r\n\r\n  function signupDoctor(string memory _name) public {\r\n\r\n      uint256 startGas = gasleft();\r\n      //search for doctor on blockchain\r\n      doctor storage d = doctors[msg.sender];\r\n      //check name of doctor\r\n      require(keccak256(abi.encodePacked(_name)) != keccak256(\"\"));\r\n      //check if doctor already exists\r\n      require(!(d.id > address(0x0)));\r\n      //Add the doctor to blockchain\r\n      doctors[msg.sender] = doctor({name:_name,id:msg.sender,patient_list:new address[](0)});\r\n      uint256 endGas = gasleft();\r\n      uint256 gas_used = startGas-endGas;\r\n      emit doctorSignUp(msg.sender, \"Registered as Doctor\",gas_used);\r\n  }\r\n\r\n\r\n  //Event to emit when patient grants access to doctor\r\n  event grantDoctorAccess( address patient_address, string message, string _doctor, address doctor_address, uint256 gas_used);\r\n  \r\n  function grantAccessToDoctor(address doctor_id) public checkPatient(msg.sender) checkDoctor(doctor_id) {\r\n      uint256 startGas = gasleft();\r\n      patient storage p = patients[msg.sender];\r\n      doctor storage d = doctors[doctor_id];\r\n      require(patientToDoctor[msg.sender][doctor_id] < 1);// this means doctor already been access\r\n      \r\n      uint pos = p.doctor_list.push(doctor_id);// new length of array\r\n      \r\n      patientToDoctor[msg.sender][doctor_id] = pos;\r\n      d.patient_list.push(msg.sender);\r\n\r\n      uint256 endGas = gasleft();\r\n      uint256 gas_used = startGas-endGas;\r\n      emit grantDoctorAccess( msg.sender , \"Granted access to doctor\", d.name , doctor_id, gas_used);\r\n  }\r\n\r\n  //Event to emit when patient revokes a doctor's access\r\n  event revokeDoctorAccess(address patient_address, string message, string _doctor, address doctor_address,uint256 gas_used);\r\n\r\n  function revokeAccessFromDoctor(address doctor_id) public checkPatient(msg.sender) checkDoctor(doctor_id) {\r\n    uint256 startGas = gasleft();\r\n    require(patientToDoctor[msg.sender][doctor_id] > 0);\r\n    patientToDoctor[msg.sender][doctor_id] = 0;\r\n\r\n\r\n    patient storage p = patients[msg.sender];\r\n    doctor storage d = doctors[doctor_id];\r\n\r\n    uint pdlength= p.doctor_list.length;\r\n    uint pos=0;\r\n\r\n    for (uint i = 0; i < pdlength; i++) {\r\n      if(p.doctor_list[i] == doctor_id)\r\n      {\r\n        pos=i;\r\n        break;\r\n      }\r\n    }\r\n\r\n    for(;pos<pdlength-1;pos++)\r\n    {\r\n      p.doctor_list[pos]= p.doctor_list[pos+1];\r\n    }\r\n\r\n    p.doctor_list.pop();\r\n\r\n    pdlength= d.patient_list.length;\r\n    pos=0;\r\n\r\n    for (uint i = 0; i < pdlength; i++) {\r\n      if(d.patient_list[i] == msg.sender)\r\n      {\r\n        pos=i;\r\n        break;\r\n      }\r\n    }\r\n\r\n    for(;pos<pdlength-1;pos++)\r\n    {\r\n      d.patient_list[pos]= d.patient_list[pos+1];\r\n    }\r\n\r\n    d.patient_list.pop();\r\n    uint256 endGas = gasleft();\r\n    uint256 gas_used = startGas-endGas;\r\n\r\n    emit revokeDoctorAccess(msg.sender, \"Revoked access of doctor\", d.name, doctor_id, gas_used);\r\n  }\r\n  \r\n  //Event to emit when patient adds a file successfully\r\n  event fileAdd(string patient_name, address patient_address, string message, uint256 gas_used);\r\n\r\n  function addUserFiles(string memory _file_name, string memory _file_type,string memory _file_hash) public checkPatient(msg.sender){\r\n    uint256 startGas = gasleft();  \r\n\r\n    patientFiles[msg.sender].push(files({file_name:_file_name, file_type:_file_type,file_hash:_file_hash}));\r\n      \r\n    uint256 endGas = gasleft();\r\n    uint256 gas_used = startGas-endGas;\r\n    emit fileAdd(patients[msg.sender].name , msg.sender, \"Added a file\",gas_used);\r\n  }\r\n\r\n\r\n  function getUserFiles(address sender)public view returns(files[] memory){\r\n      return patientFiles[sender];\r\n  }\r\n\r\n\r\n\r\n  function getPatientInfo() public view checkPatient(msg.sender) returns(string memory,address, uint8, bytes32[] memory , address[] memory) {\r\n      patient memory p = patients[msg.sender];\r\n      return (p.name,p.id, p.age, p.files, p.doctor_list);\r\n\r\n      //if adding feature of doctorAddedPatientFiles\r\n      //return (p.name, p.age, p.id, patientFiles[pat],doctorAddedPatientFiles[pat]);\r\n  }\r\n\r\n\r\n\r\n  function getDoctorInfo() public view checkDoctor(msg.sender) returns(string memory,address, address[] memory){\r\n      doctor memory d = doctors[msg.sender];\r\n      return (d.name,d.id, d.patient_list);\r\n  }\r\n  \r\n  \r\n  \r\n  function getPatientInfoForDoctor(address pat) public view checkPatient(pat) checkDoctor(msg.sender) returns(string memory, uint8, address, files[] memory){\r\n      patient memory p = patients[pat];\r\n      return (p.name, p.age, p.id, patientFiles[pat]);\r\n\r\n      //if adding feature of doctorAddedPatientFiles\r\n      //return (p.name, p.age, p.id, patientFiles[pat],doctorAddedPatientFiles[pat]);\r\n    }\r\n\r\n  event doctorOfferConsultation(address _doctor, string message, address _patient, string _consultation, string _medicine, uint256 gas_used);\r\n\r\n  function addDoctorOfferedConsultation(address _pat, string memory _consultation, string memory _medicine, string  memory _time) public checkDoctor(msg.sender)\r\n  {\r\n    uint256 startGas = gasleft();\r\n    doctorOfferedConsultationList[_pat].push(doctorOfferedConsultation({doc_id:msg.sender, consultation_advice:_consultation,medicine:_medicine,time_period:_time}));\r\n    \r\n    uint256 endGas = gasleft();\r\n    uint256 gas_used = startGas-endGas;\r\n    emit doctorOfferConsultation(msg.sender, \"Provided consultation to\", _pat, _consultation, _medicine, gas_used);\r\n  }\r\n\r\n  function getDoctorConsultation(address _pat)  public view checkPatient(_pat) checkDoctor(msg.sender) returns (doctorOfferedConsultation[] memory){\r\n    return (doctorOfferedConsultationList[_pat]);\r\n  }\r\n\r\n  \r\n  function getDoctorConsultationForPatient()  public view checkPatient(msg.sender) returns (doctorOfferedConsultation[] memory){\r\n    return (doctorOfferedConsultationList[msg.sender]);\r\n  }\r\n\r\n}",
  "sourcePath": "C:\\Users\\URVASHI\\OneDrive\\Desktop\\Mnnit files\\THESIS WORK\\Thesis project\\My_projects\\EHR using Blockchain 1.1\\contracts\\optimized_healthCare.sol",
  "compiler": {
    "name": "solc",
    "version": "0.5.16+commit.9c3226ce.Emscripten.clang"
  },
  "schemaVersion": "3.4.4",
  "updatedAt": "2022-03-30T06:04:40.662Z",
  "networkType": "ethereum",
  "devdoc": {
    "methods": {}
  },
  "userdoc": {
    "methods": {}
  }
}