{
  "contractName": "optimized_healthCare",
  "abi": [
    {
      "inputs": [],
      "payable": false,
      "stateMutability": "nonpayable",
      "type": "constructor"
    },
    {
      "anonymous": false,
      "inputs": [
        {
          "indexed": false,
          "internalType": "address",
          "name": "_doctor",
          "type": "address"
        },
        {
          "indexed": false,
          "internalType": "string",
          "name": "message",
          "type": "string"
        }
      ],
      "name": "doctorSignUp",
      "type": "event"
    },
    {
      "anonymous": false,
      "inputs": [
        {
          "indexed": false,
          "internalType": "string",
          "name": "patient_name",
          "type": "string"
        },
        {
          "indexed": false,
          "internalType": "address",
          "name": "patient_address",
          "type": "address"
        },
        {
          "indexed": false,
          "internalType": "string",
          "name": "message",
          "type": "string"
        }
      ],
      "name": "fileAdd",
      "type": "event"
    },
    {
      "anonymous": false,
      "inputs": [
        {
          "indexed": false,
          "internalType": "address",
          "name": "patient_address",
          "type": "address"
        },
        {
          "indexed": false,
          "internalType": "string",
          "name": "message",
          "type": "string"
        },
        {
          "indexed": false,
          "internalType": "string",
          "name": "_doctor",
          "type": "string"
        },
        {
          "indexed": false,
          "internalType": "address",
          "name": "doctor_address",
          "type": "address"
        }
      ],
      "name": "grantDoctorAccess",
      "type": "event"
    },
    {
      "anonymous": false,
      "inputs": [
        {
          "indexed": false,
          "internalType": "address",
          "name": "_patient",
          "type": "address"
        },
        {
          "indexed": false,
          "internalType": "string",
          "name": "message",
          "type": "string"
        }
      ],
      "name": "patientSignUp",
      "type": "event"
    },
    {
      "constant": false,
      "inputs": [
        {
          "internalType": "string",
          "name": "_name",
          "type": "string"
        },
        {
          "internalType": "uint8",
          "name": "_age",
          "type": "uint8"
        }
      ],
      "name": "signupPatient",
      "outputs": [],
      "payable": false,
      "stateMutability": "nonpayable",
      "type": "function"
    },
    {
      "constant": false,
      "inputs": [
        {
          "internalType": "string",
          "name": "_name",
          "type": "string"
        }
      ],
      "name": "signupDoctor",
      "outputs": [],
      "payable": false,
      "stateMutability": "nonpayable",
      "type": "function"
    },
    {
      "constant": false,
      "inputs": [
        {
          "internalType": "address",
          "name": "doctor_id",
          "type": "address"
        }
      ],
      "name": "grantAccessToDoctor",
      "outputs": [],
      "payable": false,
      "stateMutability": "nonpayable",
      "type": "function"
    },
    {
      "constant": false,
      "inputs": [
        {
          "internalType": "string",
          "name": "_file_name",
          "type": "string"
        },
        {
          "internalType": "string",
          "name": "_file_type",
          "type": "string"
        },
        {
          "internalType": "string",
          "name": "_file_hash",
          "type": "string"
        }
      ],
      "name": "addUserFiles",
      "outputs": [],
      "payable": false,
      "stateMutability": "nonpayable",
      "type": "function"
    },
    {
      "constant": true,
      "inputs": [
        {
          "internalType": "address",
          "name": "sender",
          "type": "address"
        }
      ],
      "name": "getUserFiles",
      "outputs": [
        {
          "components": [
            {
              "internalType": "string",
              "name": "file_name",
              "type": "string"
            },
            {
              "internalType": "string",
              "name": "file_type",
              "type": "string"
            },
            {
              "internalType": "string",
              "name": "file_hash",
              "type": "string"
            }
          ],
          "internalType": "struct optimized_healthCare.files[]",
          "name": "",
          "type": "tuple[]"
        }
      ],
      "payable": false,
      "stateMutability": "view",
      "type": "function"
    },
    {
      "constant": true,
      "inputs": [],
      "name": "getPatientInfo",
      "outputs": [
        {
          "internalType": "string",
          "name": "",
          "type": "string"
        },
        {
          "internalType": "address",
          "name": "",
          "type": "address"
        },
        {
          "internalType": "uint8",
          "name": "",
          "type": "uint8"
        },
        {
          "internalType": "bytes32[]",
          "name": "",
          "type": "bytes32[]"
        },
        {
          "internalType": "address[]",
          "name": "",
          "type": "address[]"
        }
      ],
      "payable": false,
      "stateMutability": "view",
      "type": "function"
    },
    {
      "constant": true,
      "inputs": [],
      "name": "getDoctorInfo",
      "outputs": [
        {
          "internalType": "string",
          "name": "",
          "type": "string"
        },
        {
          "internalType": "address",
          "name": "",
          "type": "address"
        },
        {
          "internalType": "address[]",
          "name": "",
          "type": "address[]"
        }
      ],
      "payable": false,
      "stateMutability": "view",
      "type": "function"
    },
    {
      "constant": true,
      "inputs": [
        {
          "internalType": "address",
          "name": "_user",
          "type": "address"
        }
      ],
      "name": "checkProfile",
      "outputs": [
        {
          "internalType": "string",
          "name": "",
          "type": "string"
        },
        {
          "internalType": "string",
          "name": "",
          "type": "string"
        }
      ],
      "payable": false,
      "stateMutability": "view",
      "type": "function"
    },
    {
      "constant": true,
      "inputs": [
        {
          "internalType": "address",
          "name": "pat",
          "type": "address"
        }
      ],
      "name": "getPatientInfoForDoctor",
      "outputs": [
        {
          "internalType": "string",
          "name": "",
          "type": "string"
        },
        {
          "internalType": "uint8",
          "name": "",
          "type": "uint8"
        },
        {
          "internalType": "address",
          "name": "",
          "type": "address"
        },
        {
          "components": [
            {
              "internalType": "string",
              "name": "file_name",
              "type": "string"
            },
            {
              "internalType": "string",
              "name": "file_type",
              "type": "string"
            },
            {
              "internalType": "string",
              "name": "file_hash",
              "type": "string"
            }
          ],
          "internalType": "struct optimized_healthCare.files[]",
          "name": "",
          "type": "tuple[]"
        }
      ],
      "payable": false,
      "stateMutability": "view",
      "type": "function"
    },
    {
      "constant": true,
      "inputs": [
        {
          "internalType": "address",
          "name": "doc",
          "type": "address"
        },
        {
          "internalType": "address",
          "name": "pat",
          "type": "address"
        },
        {
          "internalType": "bytes32",
          "name": "fileHashId",
          "type": "bytes32"
        }
      ],
      "name": "getFileInfoDoctor",
      "outputs": [
        {
          "internalType": "string",
          "name": "",
          "type": "string"
        },
        {
          "internalType": "string",
          "name": "",
          "type": "string"
        }
      ],
      "payable": false,
      "stateMutability": "view",
      "type": "function"
    },
    {
      "constant": true,
      "inputs": [
        {
          "internalType": "address",
          "name": "pat",
          "type": "address"
        },
        {
          "internalType": "bytes32",
          "name": "fileHashId",
          "type": "bytes32"
        }
      ],
      "name": "getFileInfoPatient",
      "outputs": [
        {
          "internalType": "string",
          "name": "",
          "type": "string"
        },
        {
          "internalType": "string",
          "name": "",
          "type": "string"
        }
      ],
      "payable": false,
      "stateMutability": "view",
      "type": "function"
    },
    {
      "constant": false,
      "inputs": [
        {
          "internalType": "address",
          "name": "_pat",
          "type": "address"
        },
        {
          "internalType": "string",
          "name": "_consultation",
          "type": "string"
        },
        {
          "internalType": "string",
          "name": "_medicine",
          "type": "string"
        },
        {
          "internalType": "string",
          "name": "_time",
          "type": "string"
        }
      ],
      "name": "addDoctorOfferedConsultation",
      "outputs": [],
      "payable": false,
      "stateMutability": "nonpayable",
      "type": "function"
    },
    {
      "constant": true,
      "inputs": [
        {
          "internalType": "address",
          "name": "_pat",
          "type": "address"
        }
      ],
      "name": "getDoctorConsultation",
      "outputs": [
        {
          "components": [
            {
              "internalType": "address",
              "name": "doc_id",
              "type": "address"
            },
            {
              "internalType": "string",
              "name": "consultation_advice",
              "type": "string"
            },
            {
              "internalType": "string",
              "name": "medicine",
              "type": "string"
            },
            {
              "internalType": "string",
              "name": "time_period",
              "type": "string"
            }
          ],
          "internalType": "struct optimized_healthCare.doctorOfferedConsultation[]",
          "name": "",
          "type": "tuple[]"
        }
      ],
      "payable": false,
      "stateMutability": "view",
      "type": "function"
    }
  ],
  "bytecode": "0x608060405234801561001057600080fd5b50336000806101000a81548173ffffffffffffffffffffffffffffffffffffffff021916908373ffffffffffffffffffffffffffffffffffffffff1602179055506159c680620000616000396000f3fe608060405234801561001057600080fd5b50600436106100cf5760003560e01c80636459d52f1161008c578063abf2ddf111610066578063abf2ddf114610228578063b259832d14610244578063b380f5c614610275578063fe59cc1a14610295576100cf565b80636459d52f146101bf5780637120203a146101db5780637f34cf94146101f7576100cf565b806301d99258146100d45780631c8e251c146101055780631fc37922146101215780632ae48e4014610151578063326df6641461016d5780634257a5bc1461018f575b600080fd5b6100ee60048036036100e99190810190614b81565b6102c8565b6040516100fc92919061560a565b60405180910390f35b61011f600480360361011a9190810190614b81565b61087d565b005b61013b60048036036101369190810190614b81565b610fcd565b604051610148919061553b565b60405180910390f35b61016b60048036036101669190810190614d21565b611251565b005b61017561163e565b6040516101869594939291906155a2565b60405180910390f35b6101a960048036036101a49190810190614b81565b611b58565b6040516101b69190615519565b60405180910390f35b6101d960048036036101d49190810190614ce0565b6122db565b005b6101f560048036036101f09190810190614db8565b612521565b005b610211600480360361020c9190810190614baa565b612804565b60405161021f92919061560a565b60405180910390f35b610242600480360361023d9190810190614c35565b612f4b565b005b61025e60048036036102599190810190614bf9565b6132ad565b60405161026c92919061560a565b60405180910390f35b61027d6137d9565b60405161028c9392919061555d565b60405180910390f35b6102af60048036036102aa9190810190614b81565b613bf4565b6040516102bf9493929190615641565b60405180910390f35b6060806000809054906101000a900473ffffffffffffffffffffffffffffffffffffffff1673ffffffffffffffffffffffffffffffffffffffff163373ffffffffffffffffffffffffffffffffffffffff161461032457600080fd5b61032c61486a565b600260008573ffffffffffffffffffffffffffffffffffffffff1673ffffffffffffffffffffffffffffffffffffffff1681526020019081526020016000206040518060a0016040529081600082018054600181600116156101000203166002900480601f01602080910402602001604051908101604052809291908181526020018280546001816001161561010002031660029004801561040f5780601f106103e45761010080835404028352916020019161040f565b820191906000526020600020905b8154815290600101906020018083116103f257829003601f168201915b505050505081526020016001820160009054906101000a900460ff1660ff1660ff1681526020016001820160019054906101000a900473ffffffffffffffffffffffffffffffffffffffff1673ffffffffffffffffffffffffffffffffffffffff1673ffffffffffffffffffffffffffffffffffffffff168152602001600282018054806020026020016040519081016040528092919081815260200182805480156104da57602002820191906000526020600020905b8154815260200190600101908083116104c6575b505050505081526020016003820180548060200260200160405190810160405280929190818152602001828054801561056857602002820191906000526020600020905b8160009054906101000a900473ffffffffffffffffffffffffffffffffffffffff1673ffffffffffffffffffffffffffffffffffffffff168152602001906001019080831161051e575b505050505081525050905061057b6148b2565b600160008673ffffffffffffffffffffffffffffffffffffffff1673ffffffffffffffffffffffffffffffffffffffff168152602001908152602001600020604051806060016040529081600082018054600181600116156101000203166002900480601f01602080910402602001604051908101604052809291908181526020018280546001816001161561010002031660029004801561065e5780601f106106335761010080835404028352916020019161065e565b820191906000526020600020905b81548152906001019060200180831161064157829003601f168201915b505050505081526020016001820160009054906101000a900473ffffffffffffffffffffffffffffffffffffffff1673ffffffffffffffffffffffffffffffffffffffff1673ffffffffffffffffffffffffffffffffffffffff1681526020016002820180548060200260200160405190810160405280929190818152602001828054801561074257602002820191906000526020600020905b8160009054906101000a900473ffffffffffffffffffffffffffffffffffffffff1673ffffffffffffffffffffffffffffffffffffffff16815260200190600101908083116106f8575b5050505050815250509050600073ffffffffffffffffffffffffffffffffffffffff16826040015173ffffffffffffffffffffffffffffffffffffffff1611156107cf5781600001518090506040518060400160405280600781526020017f70617469656e7400000000000000000000000000000000000000000000000000815250935093505050610878565b600073ffffffffffffffffffffffffffffffffffffffff16816020015173ffffffffffffffffffffffffffffffffffffffff1611156108515780600001518090506040518060400160405280600681526020017f646f63746f720000000000000000000000000000000000000000000000000000815250935093505050610878565b60405180602001604052806000815250604051806020016040528060008152509350935050505b915091565b3361088661486a565b600260008373ffffffffffffffffffffffffffffffffffffffff1673ffffffffffffffffffffffffffffffffffffffff1681526020019081526020016000206040518060a0016040529081600082018054600181600116156101000203166002900480601f0160208091040260200160405190810160405280929190818152602001828054600181600116156101000203166002900480156109695780601f1061093e57610100808354040283529160200191610969565b820191906000526020600020905b81548152906001019060200180831161094c57829003601f168201915b505050505081526020016001820160009054906101000a900460ff1660ff1660ff1681526020016001820160019054906101000a900473ffffffffffffffffffffffffffffffffffffffff1673ffffffffffffffffffffffffffffffffffffffff1673ffffffffffffffffffffffffffffffffffffffff16815260200160028201805480602002602001604051908101604052809291908181526020018280548015610a3457602002820191906000526020600020905b815481526020019060010190808311610a20575b5050505050815260200160038201805480602002602001604051908101604052809291908181526020018280548015610ac257602002820191906000526020600020905b8160009054906101000a900473ffffffffffffffffffffffffffffffffffffffff1673ffffffffffffffffffffffffffffffffffffffff1681526020019060010190808311610a78575b5050505050815250509050600073ffffffffffffffffffffffffffffffffffffffff16816040015173ffffffffffffffffffffffffffffffffffffffff1611610b0a57600080fd5b82610b136148b2565b600160008373ffffffffffffffffffffffffffffffffffffffff1673ffffffffffffffffffffffffffffffffffffffff168152602001908152602001600020604051806060016040529081600082018054600181600116156101000203166002900480601f016020809104026020016040519081016040528092919081815260200182805460018160011615610100020316600290048015610bf65780601f10610bcb57610100808354040283529160200191610bf6565b820191906000526020600020905b815481529060010190602001808311610bd957829003601f168201915b505050505081526020016001820160009054906101000a900473ffffffffffffffffffffffffffffffffffffffff1673ffffffffffffffffffffffffffffffffffffffff1673ffffffffffffffffffffffffffffffffffffffff16815260200160028201805480602002602001604051908101604052809291908181526020018280548015610cda57602002820191906000526020600020905b8160009054906101000a900473ffffffffffffffffffffffffffffffffffffffff1673ffffffffffffffffffffffffffffffffffffffff1681526020019060010190808311610c90575b5050505050815250509050600073ffffffffffffffffffffffffffffffffffffffff16816020015173ffffffffffffffffffffffffffffffffffffffff1611610d2257600080fd5b6000600260003373ffffffffffffffffffffffffffffffffffffffff1673ffffffffffffffffffffffffffffffffffffffff16815260200190815260200160002090506000600160008873ffffffffffffffffffffffffffffffffffffffff1673ffffffffffffffffffffffffffffffffffffffff16815260200190815260200160002090506001600360003373ffffffffffffffffffffffffffffffffffffffff1673ffffffffffffffffffffffffffffffffffffffff16815260200190815260200160002060008973ffffffffffffffffffffffffffffffffffffffff1673ffffffffffffffffffffffffffffffffffffffff1681526020019081526020016000205410610e3157600080fd5b6000826003018890806001815401808255809150509060018203906000526020600020016000909192909190916101000a81548173ffffffffffffffffffffffffffffffffffffffff021916908373ffffffffffffffffffffffffffffffffffffffff160217905550905080600360003373ffffffffffffffffffffffffffffffffffffffff1673ffffffffffffffffffffffffffffffffffffffff16815260200190815260200160002060008a73ffffffffffffffffffffffffffffffffffffffff1673ffffffffffffffffffffffffffffffffffffffff16815260200190815260200160002081905550816002013390806001815401808255809150509060018203906000526020600020016000909192909190916101000a81548173ffffffffffffffffffffffffffffffffffffffff021916908373ffffffffffffffffffffffffffffffffffffffff160217905550507fe239c4e608cb32aaf8ef7214f811e28ea27c91cad9f719be74579c18fc2e983133836000018a604051610fbb939291906154c8565b60405180910390a15050505050505050565b6060600660008373ffffffffffffffffffffffffffffffffffffffff1673ffffffffffffffffffffffffffffffffffffffff168152602001908152602001600020805480602002602001604051908101604052809291908181526020016000905b828210156112465783829060005260206000209060030201604051806060016040529081600082018054600181600116156101000203166002900480601f0160208091040260200160405190810160405280929190818152602001828054600181600116156101000203166002900480156110ea5780601f106110bf576101008083540402835291602001916110ea565b820191906000526020600020905b8154815290600101906020018083116110cd57829003601f168201915b50505050508152602001600182018054600181600116156101000203166002900480601f01602080910402602001604051908101604052809291908181526020018280546001816001161561010002031660029004801561118c5780601f106111615761010080835404028352916020019161118c565b820191906000526020600020905b81548152906001019060200180831161116f57829003601f168201915b50505050508152602001600282018054600181600116156101000203166002900480601f01602080910402602001604051908101604052809291908181526020018280546001816001161561010002031660029004801561122e5780601f106112035761010080835404028352916020019161122e565b820191906000526020600020905b81548152906001019060200180831161121157829003601f168201915b5050505050815250508152602001906001019061102e565b505050509050919050565b3361125a61486a565b600260008373ffffffffffffffffffffffffffffffffffffffff1673ffffffffffffffffffffffffffffffffffffffff1681526020019081526020016000206040518060a0016040529081600082018054600181600116156101000203166002900480601f01602080910402602001604051908101604052809291908181526020018280546001816001161561010002031660029004801561133d5780601f106113125761010080835404028352916020019161133d565b820191906000526020600020905b81548152906001019060200180831161132057829003601f168201915b505050505081526020016001820160009054906101000a900460ff1660ff1660ff1681526020016001820160019054906101000a900473ffffffffffffffffffffffffffffffffffffffff1673ffffffffffffffffffffffffffffffffffffffff1673ffffffffffffffffffffffffffffffffffffffff1681526020016002820180548060200260200160405190810160405280929190818152602001828054801561140857602002820191906000526020600020905b8154815260200190600101908083116113f4575b505050505081526020016003820180548060200260200160405190810160405280929190818152602001828054801561149657602002820191906000526020600020905b8160009054906101000a900473ffffffffffffffffffffffffffffffffffffffff1673ffffffffffffffffffffffffffffffffffffffff168152602001906001019080831161144c575b5050505050815250509050600073ffffffffffffffffffffffffffffffffffffffff16816040015173ffffffffffffffffffffffffffffffffffffffff16116114de57600080fd5b600660003373ffffffffffffffffffffffffffffffffffffffff1673ffffffffffffffffffffffffffffffffffffffff16815260200190815260200160002060405180606001604052808781526020018681526020018581525090806001815401808255809150509060018203906000526020600020906003020160009091929091909150600082015181600001908051906020019061157f9291906148e9565b50602082015181600101908051906020019061159c9291906148e9565b5060408201518160020190805190602001906115b99291906148e9565b505050507f20a149c8f0c0b833b524826f25e43f1650b93b8f508c11327e5fd698cab1c4a8600260003373ffffffffffffffffffffffffffffffffffffffff1673ffffffffffffffffffffffffffffffffffffffff1681526020019081526020016000206000013360405161162f929190615694565b60405180910390a15050505050565b60606000806060803361164f61486a565b600260008373ffffffffffffffffffffffffffffffffffffffff1673ffffffffffffffffffffffffffffffffffffffff1681526020019081526020016000206040518060a0016040529081600082018054600181600116156101000203166002900480601f0160208091040260200160405190810160405280929190818152602001828054600181600116156101000203166002900480156117325780601f1061170757610100808354040283529160200191611732565b820191906000526020600020905b81548152906001019060200180831161171557829003601f168201915b505050505081526020016001820160009054906101000a900460ff1660ff1660ff1681526020016001820160019054906101000a900473ffffffffffffffffffffffffffffffffffffffff1673ffffffffffffffffffffffffffffffffffffffff1673ffffffffffffffffffffffffffffffffffffffff168152602001600282018054806020026020016040519081016040528092919081815260200182805480156117fd57602002820191906000526020600020905b8154815260200190600101908083116117e9575b505050505081526020016003820180548060200260200160405190810160405280929190818152602001828054801561188b57602002820191906000526020600020905b8160009054906101000a900473ffffffffffffffffffffffffffffffffffffffff1673ffffffffffffffffffffffffffffffffffffffff1681526020019060010190808311611841575b5050505050815250509050600073ffffffffffffffffffffffffffffffffffffffff16816040015173ffffffffffffffffffffffffffffffffffffffff16116118d357600080fd5b6118db61486a565b600260003373ffffffffffffffffffffffffffffffffffffffff1673ffffffffffffffffffffffffffffffffffffffff1681526020019081526020016000206040518060a0016040529081600082018054600181600116156101000203166002900480601f0160208091040260200160405190810160405280929190818152602001828054600181600116156101000203166002900480156119be5780601f10611993576101008083540402835291602001916119be565b820191906000526020600020905b8154815290600101906020018083116119a157829003601f168201915b505050505081526020016001820160009054906101000a900460ff1660ff1660ff1681526020016001820160019054906101000a900473ffffffffffffffffffffffffffffffffffffffff1673ffffffffffffffffffffffffffffffffffffffff1673ffffffffffffffffffffffffffffffffffffffff16815260200160028201805480602002602001604051908101604052809291908181526020018280548015611a8957602002820191906000526020600020905b815481526020019060010190808311611a75575b5050505050815260200160038201805480602002602001604051908101604052809291908181526020018280548015611b1757602002820191906000526020600020905b8160009054906101000a900473ffffffffffffffffffffffffffffffffffffffff1673ffffffffffffffffffffffffffffffffffffffff1681526020019060010190808311611acd575b505050505081525050905080600001518160400151826020015183606001518460800151849450819150809050975097509750975097505050509091929394565b606081611b6361486a565b600260008373ffffffffffffffffffffffffffffffffffffffff1673ffffffffffffffffffffffffffffffffffffffff1681526020019081526020016000206040518060a0016040529081600082018054600181600116156101000203166002900480601f016020809104026020016040519081016040528092919081815260200182805460018160011615610100020316600290048015611c465780601f10611c1b57610100808354040283529160200191611c46565b820191906000526020600020905b815481529060010190602001808311611c2957829003601f168201915b505050505081526020016001820160009054906101000a900460ff1660ff1660ff1681526020016001820160019054906101000a900473ffffffffffffffffffffffffffffffffffffffff1673ffffffffffffffffffffffffffffffffffffffff1673ffffffffffffffffffffffffffffffffffffffff16815260200160028201805480602002602001604051908101604052809291908181526020018280548015611d1157602002820191906000526020600020905b815481526020019060010190808311611cfd575b5050505050815260200160038201805480602002602001604051908101604052809291908181526020018280548015611d9f57602002820191906000526020600020905b8160009054906101000a900473ffffffffffffffffffffffffffffffffffffffff1673ffffffffffffffffffffffffffffffffffffffff1681526020019060010190808311611d55575b5050505050815250509050600073ffffffffffffffffffffffffffffffffffffffff16816040015173ffffffffffffffffffffffffffffffffffffffff1611611de757600080fd5b33611df06148b2565b600160008373ffffffffffffffffffffffffffffffffffffffff1673ffffffffffffffffffffffffffffffffffffffff168152602001908152602001600020604051806060016040529081600082018054600181600116156101000203166002900480601f016020809104026020016040519081016040528092919081815260200182805460018160011615610100020316600290048015611ed35780601f10611ea857610100808354040283529160200191611ed3565b820191906000526020600020905b815481529060010190602001808311611eb657829003601f168201915b505050505081526020016001820160009054906101000a900473ffffffffffffffffffffffffffffffffffffffff1673ffffffffffffffffffffffffffffffffffffffff1673ffffffffffffffffffffffffffffffffffffffff16815260200160028201805480602002602001604051908101604052809291908181526020018280548015611fb757602002820191906000526020600020905b8160009054906101000a900473ffffffffffffffffffffffffffffffffffffffff1673ffffffffffffffffffffffffffffffffffffffff1681526020019060010190808311611f6d575b5050505050815250509050600073ffffffffffffffffffffffffffffffffffffffff16816020015173ffffffffffffffffffffffffffffffffffffffff1611611fff57600080fd5b600760008773ffffffffffffffffffffffffffffffffffffffff1673ffffffffffffffffffffffffffffffffffffffff168152602001908152602001600020805480602002602001604051908101604052809291908181526020016000905b828210156122cc57838290600052602060002090600402016040518060800160405290816000820160009054906101000a900473ffffffffffffffffffffffffffffffffffffffff1673ffffffffffffffffffffffffffffffffffffffff1673ffffffffffffffffffffffffffffffffffffffff168152602001600182018054600181600116156101000203166002900480601f0160208091040260200160405190810160405280929190818152602001828054600181600116156101000203166002900480156121705780601f1061214557610100808354040283529160200191612170565b820191906000526020600020905b81548152906001019060200180831161215357829003601f168201915b50505050508152602001600282018054600181600116156101000203166002900480601f0160208091040260200160405190810160405280929190818152602001828054600181600116156101000203166002900480156122125780601f106121e757610100808354040283529160200191612212565b820191906000526020600020905b8154815290600101906020018083116121f557829003601f168201915b50505050508152602001600382018054600181600116156101000203166002900480601f0160208091040260200160405190810160405280929190818152602001828054600181600116156101000203166002900480156122b45780601f10612289576101008083540402835291602001916122b4565b820191906000526020600020905b81548152906001019060200180831161229757829003601f168201915b5050505050815250508152602001906001019061205e565b50505050945050505050919050565b6000600160003373ffffffffffffffffffffffffffffffffffffffff1673ffffffffffffffffffffffffffffffffffffffff168152602001908152602001600020905060405161232a9061542d565b6040518091039020826040516020016123439190615416565b60405160208183030381529060405280519060200120141561236457600080fd5b600073ffffffffffffffffffffffffffffffffffffffff168160010160009054906101000a900473ffffffffffffffffffffffffffffffffffffffff1673ffffffffffffffffffffffffffffffffffffffff1611156123c257600080fd5b60405180606001604052808381526020013373ffffffffffffffffffffffffffffffffffffffff168152602001600060405190808252806020026020018201604052801561241f5781602001602082028038833980820191505090505b50815250600160003373ffffffffffffffffffffffffffffffffffffffff1673ffffffffffffffffffffffffffffffffffffffff168152602001908152602001600020600082015181600001908051906020019061247e9291906148e9565b5060208201518160010160006101000a81548173ffffffffffffffffffffffffffffffffffffffff021916908373ffffffffffffffffffffffffffffffffffffffff16021790555060408201518160020190805190602001906124e2929190614969565b509050507fdd0aa1d3beead09f31cc046643e0d63829e7c7f43e532c2523d978bc9c3bfb3333604051612515919061549a565b60405180910390a15050565b6000600260003373ffffffffffffffffffffffffffffffffffffffff1673ffffffffffffffffffffffffffffffffffffffff16815260200190815260200160002090506040516125709061542d565b6040518091039020836040516020016125899190615416565b6040516020818303038152906040528051906020012014156125aa57600080fd5b60008260ff161180156125c0575060648260ff16105b6125c957600080fd5b600073ffffffffffffffffffffffffffffffffffffffff168160010160019054906101000a900473ffffffffffffffffffffffffffffffffffffffff1673ffffffffffffffffffffffffffffffffffffffff16111561262757600080fd5b6040518060a001604052808481526020018360ff1681526020013373ffffffffffffffffffffffffffffffffffffffff168152602001600060405190808252806020026020018201604052801561268d5781602001602082028038833980820191505090505b50815260200160006040519080825280602002602001820160405280156126c35781602001602082028038833980820191505090505b50815250600260003373ffffffffffffffffffffffffffffffffffffffff1673ffffffffffffffffffffffffffffffffffffffff16815260200190815260200160002060008201518160000190805190602001906127229291906148e9565b5060208201518160010160006101000a81548160ff021916908360ff16021790555060408201518160010160016101000a81548173ffffffffffffffffffffffffffffffffffffffff021916908373ffffffffffffffffffffffffffffffffffffffff16021790555060608201518160020190805190602001906127a79291906149f3565b5060808201518160030190805190602001906127c4929190614969565b509050507ff0c358f29581a43889abe78660babebd0ac62878d0ed89571af6c2168bbcda0c336040516127f7919061546c565b60405180910390a1505050565b6060806000809054906101000a900473ffffffffffffffffffffffffffffffffffffffff1673ffffffffffffffffffffffffffffffffffffffff163373ffffffffffffffffffffffffffffffffffffffff161461286057600080fd5b8361286961486a565b600260008373ffffffffffffffffffffffffffffffffffffffff1673ffffffffffffffffffffffffffffffffffffffff1681526020019081526020016000206040518060a0016040529081600082018054600181600116156101000203166002900480601f01602080910402602001604051908101604052809291908181526020018280546001816001161561010002031660029004801561294c5780601f106129215761010080835404028352916020019161294c565b820191906000526020600020905b81548152906001019060200180831161292f57829003601f168201915b505050505081526020016001820160009054906101000a900460ff1660ff1660ff1681526020016001820160019054906101000a900473ffffffffffffffffffffffffffffffffffffffff1673ffffffffffffffffffffffffffffffffffffffff1673ffffffffffffffffffffffffffffffffffffffff16815260200160028201805480602002602001604051908101604052809291908181526020018280548015612a1757602002820191906000526020600020905b815481526020019060010190808311612a03575b5050505050815260200160038201805480602002602001604051908101604052809291908181526020018280548015612aa557602002820191906000526020600020905b8160009054906101000a900473ffffffffffffffffffffffffffffffffffffffff1673ffffffffffffffffffffffffffffffffffffffff1681526020019060010190808311612a5b575b5050505050815250509050600073ffffffffffffffffffffffffffffffffffffffff16816040015173ffffffffffffffffffffffffffffffffffffffff1611612aed57600080fd5b86612af66148b2565b600160008373ffffffffffffffffffffffffffffffffffffffff1673ffffffffffffffffffffffffffffffffffffffff168152602001908152602001600020604051806060016040529081600082018054600181600116156101000203166002900480601f016020809104026020016040519081016040528092919081815260200182805460018160011615610100020316600290048015612bd95780601f10612bae57610100808354040283529160200191612bd9565b820191906000526020600020905b815481529060010190602001808311612bbc57829003601f168201915b505050505081526020016001820160009054906101000a900473ffffffffffffffffffffffffffffffffffffffff1673ffffffffffffffffffffffffffffffffffffffff1673ffffffffffffffffffffffffffffffffffffffff16815260200160028201805480602002602001604051908101604052809291908181526020018280548015612cbd57602002820191906000526020600020905b8160009054906101000a900473ffffffffffffffffffffffffffffffffffffffff1673ffffffffffffffffffffffffffffffffffffffff1681526020019060010190808311612c73575b5050505050815250509050600073ffffffffffffffffffffffffffffffffffffffff16816020015173ffffffffffffffffffffffffffffffffffffffff1611612d0557600080fd5b6040518060400160405280600681526020017f646f63746f72000000000000000000000000000000000000000000000000000081525089888a6000604051612d4c90615457565b604051809103902085604051602001612d659190615416565b604051602081830303815290604052805190602001201415612e6f576000600360008473ffffffffffffffffffffffffffffffffffffffff1673ffffffffffffffffffffffffffffffffffffffff16815260200190815260200160002060008673ffffffffffffffffffffffffffffffffffffffff1673ffffffffffffffffffffffffffffffffffffffff1681526020019081526020016000205411612e0a57600080fd5b600560008373ffffffffffffffffffffffffffffffffffffffff1673ffffffffffffffffffffffffffffffffffffffff168152602001908152602001600020600084815260200190815260200160002054905060008111612e6a57600080fd5b612f12565b604051612e7b90615442565b604051809103902085604051602001612e949190615416565b604051602081830303815290604052805190602001201415612f1157600560008573ffffffffffffffffffffffffffffffffffffffff1673ffffffffffffffffffffffffffffffffffffffff168152602001908152602001600020600084815260200190815260200160002054905060008111612f1057600080fd5b5b5b612f1a614a40565b612f238d614593565b9050806000015181602001518191508090509b509b5050505050505050505050935093915050565b33612f546148b2565b600160008373ffffffffffffffffffffffffffffffffffffffff1673ffffffffffffffffffffffffffffffffffffffff168152602001908152602001600020604051806060016040529081600082018054600181600116156101000203166002900480601f0160208091040260200160405190810160405280929190818152602001828054600181600116156101000203166002900480156130375780601f1061300c57610100808354040283529160200191613037565b820191906000526020600020905b81548152906001019060200180831161301a57829003601f168201915b505050505081526020016001820160009054906101000a900473ffffffffffffffffffffffffffffffffffffffff1673ffffffffffffffffffffffffffffffffffffffff1673ffffffffffffffffffffffffffffffffffffffff1681526020016002820180548060200260200160405190810160405280929190818152602001828054801561311b57602002820191906000526020600020905b8160009054906101000a900473ffffffffffffffffffffffffffffffffffffffff1673ffffffffffffffffffffffffffffffffffffffff16815260200190600101908083116130d1575b5050505050815250509050600073ffffffffffffffffffffffffffffffffffffffff16816020015173ffffffffffffffffffffffffffffffffffffffff161161316357600080fd5b600760008773ffffffffffffffffffffffffffffffffffffffff1673ffffffffffffffffffffffffffffffffffffffff16815260200190815260200160002060405180608001604052803373ffffffffffffffffffffffffffffffffffffffff168152602001878152602001868152602001858152509080600181540180825580915050906001820390600052602060002090600402016000909192909190915060008201518160000160006101000a81548173ffffffffffffffffffffffffffffffffffffffff021916908373ffffffffffffffffffffffffffffffffffffffff16021790555060208201518160010190805190602001906132679291906148e9565b5060408201518160020190805190602001906132849291906148e9565b5060608201518160030190805190602001906132a19291906148e9565b50505050505050505050565b6060806000809054906101000a900473ffffffffffffffffffffffffffffffffffffffff1673ffffffffffffffffffffffffffffffffffffffff163373ffffffffffffffffffffffffffffffffffffffff161461330957600080fd5b8361331261486a565b600260008373ffffffffffffffffffffffffffffffffffffffff1673ffffffffffffffffffffffffffffffffffffffff1681526020019081526020016000206040518060a0016040529081600082018054600181600116156101000203166002900480601f0160208091040260200160405190810160405280929190818152602001828054600181600116156101000203166002900480156133f55780601f106133ca576101008083540402835291602001916133f5565b820191906000526020600020905b8154815290600101906020018083116133d857829003601f168201915b505050505081526020016001820160009054906101000a900460ff1660ff1660ff1681526020016001820160019054906101000a900473ffffffffffffffffffffffffffffffffffffffff1673ffffffffffffffffffffffffffffffffffffffff1673ffffffffffffffffffffffffffffffffffffffff168152602001600282018054806020026020016040519081016040528092919081815260200182805480156134c057602002820191906000526020600020905b8154815260200190600101908083116134ac575b505050505081526020016003820180548060200260200160405190810160405280929190818152602001828054801561354e57602002820191906000526020600020905b8160009054906101000a900473ffffffffffffffffffffffffffffffffffffffff1673ffffffffffffffffffffffffffffffffffffffff1681526020019060010190808311613504575b5050505050815250509050600073ffffffffffffffffffffffffffffffffffffffff16816040015173ffffffffffffffffffffffffffffffffffffffff161161359657600080fd5b6040518060400160405280600781526020017f70617469656e740000000000000000000000000000000000000000000000000081525086868860006040516135dd90615457565b6040518091039020856040516020016135f69190615416565b604051602081830303815290604052805190602001201415613700576000600360008473ffffffffffffffffffffffffffffffffffffffff1673ffffffffffffffffffffffffffffffffffffffff16815260200190815260200160002060008673ffffffffffffffffffffffffffffffffffffffff1673ffffffffffffffffffffffffffffffffffffffff168152602001908152602001600020541161369b57600080fd5b600560008373ffffffffffffffffffffffffffffffffffffffff1673ffffffffffffffffffffffffffffffffffffffff1681526020019081526020016000206000848152602001908152602001600020549050600081116136fb57600080fd5b6137a3565b60405161370c90615442565b6040518091039020856040516020016137259190615416565b6040516020818303038152906040528051906020012014156137a257600560008573ffffffffffffffffffffffffffffffffffffffff1673ffffffffffffffffffffffffffffffffffffffff1681526020019081526020016000206000848152602001908152602001600020549050600081116137a157600080fd5b5b5b6137ab614a40565b6137b48b614593565b9050806000015181602001518191508090509950995050505050505050509250929050565b606060006060336137e86148b2565b600160008373ffffffffffffffffffffffffffffffffffffffff1673ffffffffffffffffffffffffffffffffffffffff168152602001908152602001600020604051806060016040529081600082018054600181600116156101000203166002900480601f0160208091040260200160405190810160405280929190818152602001828054600181600116156101000203166002900480156138cb5780601f106138a0576101008083540402835291602001916138cb565b820191906000526020600020905b8154815290600101906020018083116138ae57829003601f168201915b505050505081526020016001820160009054906101000a900473ffffffffffffffffffffffffffffffffffffffff1673ffffffffffffffffffffffffffffffffffffffff1673ffffffffffffffffffffffffffffffffffffffff168152602001600282018054806020026020016040519081016040528092919081815260200182805480156139af57602002820191906000526020600020905b8160009054906101000a900473ffffffffffffffffffffffffffffffffffffffff1673ffffffffffffffffffffffffffffffffffffffff1681526020019060010190808311613965575b5050505050815250509050600073ffffffffffffffffffffffffffffffffffffffff16816020015173ffffffffffffffffffffffffffffffffffffffff16116139f757600080fd5b6139ff6148b2565b600160003373ffffffffffffffffffffffffffffffffffffffff1673ffffffffffffffffffffffffffffffffffffffff168152602001908152602001600020604051806060016040529081600082018054600181600116156101000203166002900480601f016020809104026020016040519081016040528092919081815260200182805460018160011615610100020316600290048015613ae25780601f10613ab757610100808354040283529160200191613ae2565b820191906000526020600020905b815481529060010190602001808311613ac557829003601f168201915b505050505081526020016001820160009054906101000a900473ffffffffffffffffffffffffffffffffffffffff1673ffffffffffffffffffffffffffffffffffffffff1673ffffffffffffffffffffffffffffffffffffffff16815260200160028201805480602002602001604051908101604052809291908181526020018280548015613bc657602002820191906000526020600020905b8160009054906101000a900473ffffffffffffffffffffffffffffffffffffffff1673ffffffffffffffffffffffffffffffffffffffff1681526020019060010190808311613b7c575b5050505050815250509050806000015181602001518260400151829250809050955095509550505050909192565b6060600080606084613c0461486a565b600260008373ffffffffffffffffffffffffffffffffffffffff1673ffffffffffffffffffffffffffffffffffffffff1681526020019081526020016000206040518060a0016040529081600082018054600181600116156101000203166002900480601f016020809104026020016040519081016040528092919081815260200182805460018160011615610100020316600290048015613ce75780601f10613cbc57610100808354040283529160200191613ce7565b820191906000526020600020905b815481529060010190602001808311613cca57829003601f168201915b505050505081526020016001820160009054906101000a900460ff1660ff1660ff1681526020016001820160019054906101000a900473ffffffffffffffffffffffffffffffffffffffff1673ffffffffffffffffffffffffffffffffffffffff1673ffffffffffffffffffffffffffffffffffffffff16815260200160028201805480602002602001604051908101604052809291908181526020018280548015613db257602002820191906000526020600020905b815481526020019060010190808311613d9e575b5050505050815260200160038201805480602002602001604051908101604052809291908181526020018280548015613e4057602002820191906000526020600020905b8160009054906101000a900473ffffffffffffffffffffffffffffffffffffffff1673ffffffffffffffffffffffffffffffffffffffff1681526020019060010190808311613df6575b5050505050815250509050600073ffffffffffffffffffffffffffffffffffffffff16816040015173ffffffffffffffffffffffffffffffffffffffff1611613e8857600080fd5b33613e916148b2565b600160008373ffffffffffffffffffffffffffffffffffffffff1673ffffffffffffffffffffffffffffffffffffffff168152602001908152602001600020604051806060016040529081600082018054600181600116156101000203166002900480601f016020809104026020016040519081016040528092919081815260200182805460018160011615610100020316600290048015613f745780601f10613f4957610100808354040283529160200191613f74565b820191906000526020600020905b815481529060010190602001808311613f5757829003601f168201915b505050505081526020016001820160009054906101000a900473ffffffffffffffffffffffffffffffffffffffff1673ffffffffffffffffffffffffffffffffffffffff1673ffffffffffffffffffffffffffffffffffffffff1681526020016002820180548060200260200160405190810160405280929190818152602001828054801561405857602002820191906000526020600020905b8160009054906101000a900473ffffffffffffffffffffffffffffffffffffffff1673ffffffffffffffffffffffffffffffffffffffff168152602001906001019080831161400e575b5050505050815250509050600073ffffffffffffffffffffffffffffffffffffffff16816020015173ffffffffffffffffffffffffffffffffffffffff16116140a057600080fd5b6140a861486a565b600260008b73ffffffffffffffffffffffffffffffffffffffff1673ffffffffffffffffffffffffffffffffffffffff1681526020019081526020016000206040518060a0016040529081600082018054600181600116156101000203166002900480601f01602080910402602001604051908101604052809291908181526020018280546001816001161561010002031660029004801561418b5780601f106141605761010080835404028352916020019161418b565b820191906000526020600020905b81548152906001019060200180831161416e57829003601f168201915b505050505081526020016001820160009054906101000a900460ff1660ff1660ff1681526020016001820160019054906101000a900473ffffffffffffffffffffffffffffffffffffffff1673ffffffffffffffffffffffffffffffffffffffff1673ffffffffffffffffffffffffffffffffffffffff1681526020016002820180548060200260200160405190810160405280929190818152602001828054801561425657602002820191906000526020600020905b815481526020019060010190808311614242575b50505050508152602001600382018054806020026020016040519081016040528092919081815260200182805480156142e457602002820191906000526020600020905b8160009054906101000a900473ffffffffffffffffffffffffffffffffffffffff1673ffffffffffffffffffffffffffffffffffffffff168152602001906001019080831161429a575b5050505050815250509050806000015181602001518260400151600660008e73ffffffffffffffffffffffffffffffffffffffff1673ffffffffffffffffffffffffffffffffffffffff16815260200190815260200160002083935080805480602002602001604051908101604052809291908181526020016000905b828210156145795783829060005260206000209060030201604051806060016040529081600082018054600181600116156101000203166002900480601f01602080910402602001604051908101604052809291908181526020018280546001816001161561010002031660029004801561441d5780601f106143f25761010080835404028352916020019161441d565b820191906000526020600020905b81548152906001019060200180831161440057829003601f168201915b50505050508152602001600182018054600181600116156101000203166002900480601f0160208091040260200160405190810160405280929190818152602001828054600181600116156101000203166002900480156144bf5780601f10614494576101008083540402835291602001916144bf565b820191906000526020600020905b8154815290600101906020018083116144a257829003601f168201915b50505050508152602001600282018054600181600116156101000203166002900480601f0160208091040260200160405190810160405280929190818152602001828054600181600116156101000203166002900480156145615780601f1061453657610100808354040283529160200191614561565b820191906000526020600020905b81548152906001019060200180831161454457829003601f168201915b50505050508152505081526020019060010190614361565b505050509050985098509850985050505050509193509193565b61459b614a40565b816060600460008381526020019081526020016000206000018054600181600116156101000203166002900480601f0160208091040260200160405190810160405280929190818152602001828054600181600116156101000203166002900480156146485780601f1061461d57610100808354040283529160200191614648565b820191906000526020600020905b81548152906001019060200180831161462b57829003601f168201915b50505050509050600081511161465d57600080fd5b60046000858152602001908152602001600020604051806060016040529081600082018054600181600116156101000203166002900480601f0160208091040260200160405190810160405280929190818152602001828054600181600116156101000203166002900480156147145780601f106146e957610100808354040283529160200191614714565b820191906000526020600020905b8154815290600101906020018083116146f757829003601f168201915b50505050508152602001600182018054600181600116156101000203166002900480601f0160208091040260200160405190810160405280929190818152602001828054600181600116156101000203166002900480156147b65780601f1061478b576101008083540402835291602001916147b6565b820191906000526020600020905b81548152906001019060200180831161479957829003601f168201915b50505050508152602001600282018054600181600116156101000203166002900480601f0160208091040260200160405190810160405280929190818152602001828054600181600116156101000203166002900480156148585780601f1061482d57610100808354040283529160200191614858565b820191906000526020600020905b81548152906001019060200180831161483b57829003601f168201915b50505050508152505092505050919050565b6040518060a0016040528060608152602001600060ff168152602001600073ffffffffffffffffffffffffffffffffffffffff16815260200160608152602001606081525090565b604051806060016040528060608152602001600073ffffffffffffffffffffffffffffffffffffffff168152602001606081525090565b828054600181600116156101000203166002900490600052602060002090601f016020900481019282601f1061492a57805160ff1916838001178555614958565b82800160010185558215614958579182015b8281111561495757825182559160200191906001019061493c565b5b5090506149659190614a61565b5090565b8280548282559060005260206000209081019282156149e2579160200282015b828111156149e15782518260006101000a81548173ffffffffffffffffffffffffffffffffffffffff021916908373ffffffffffffffffffffffffffffffffffffffff16021790555091602001919060010190614989565b5b5090506149ef9190614a86565b5090565b828054828255906000526020600020908101928215614a2f579160200282015b82811115614a2e578251825591602001919060010190614a13565b5b509050614a3c9190614ac9565b5090565b60405180606001604052806060815260200160608152602001606081525090565b614a8391905b80821115614a7f576000816000905550600101614a67565b5090565b90565b614ac691905b80821115614ac257600081816101000a81549073ffffffffffffffffffffffffffffffffffffffff021916905550600101614a8c565b5090565b90565b614aeb91905b80821115614ae7576000816000905550600101614acf565b5090565b90565b600081359050614afd8161593e565b92915050565b600081359050614b1281615955565b92915050565b600082601f830112614b2957600080fd5b8135614b3c614b3782615704565b6156d7565b91508082526020830160208301858383011115614b5857600080fd5b614b638382846158eb565b50505092915050565b600081359050614b7b8161596c565b92915050565b600060208284031215614b9357600080fd5b6000614ba184828501614aee565b91505092915050565b600080600060608486031215614bbf57600080fd5b6000614bcd86828701614aee565b9350506020614bde86828701614aee565b9250506040614bef86828701614b03565b9150509250925092565b60008060408385031215614c0c57600080fd5b6000614c1a85828601614aee565b9250506020614c2b85828601614b03565b9150509250929050565b60008060008060808587031215614c4b57600080fd5b6000614c5987828801614aee565b945050602085013567ffffffffffffffff811115614c7657600080fd5b614c8287828801614b18565b935050604085013567ffffffffffffffff811115614c9f57600080fd5b614cab87828801614b18565b925050606085013567ffffffffffffffff811115614cc857600080fd5b614cd487828801614b18565b91505092959194509250565b600060208284031215614cf257600080fd5b600082013567ffffffffffffffff811115614d0c57600080fd5b614d1884828501614b18565b91505092915050565b600080600060608486031215614d3657600080fd5b600084013567ffffffffffffffff811115614d5057600080fd5b614d5c86828701614b18565b935050602084013567ffffffffffffffff811115614d7957600080fd5b614d8586828701614b18565b925050604084013567ffffffffffffffff811115614da257600080fd5b614dae86828701614b18565b9150509250925092565b60008060408385031215614dcb57600080fd5b600083013567ffffffffffffffff811115614de557600080fd5b614df185828601614b18565b9250506020614e0285828601614b6c565b9150509250929050565b6000614e188383614e73565b60208301905092915050565b6000614e308383615037565b60208301905092915050565b6000614e488383615338565b905092915050565b6000614e5c83836153a9565b905092915050565b614e6d816158b5565b82525050565b614e7c8161586c565b82525050565b614e8b8161586c565b82525050565b6000614e9c82615785565b614ea681856157fb565b9350614eb183615730565b8060005b83811015614ee2578151614ec98882614e0c565b9750614ed4836157c7565b925050600181019050614eb5565b5085935050505092915050565b6000614efa82615790565b614f04818561580c565b9350614f0f83615740565b8060005b83811015614f40578151614f278882614e24565b9750614f32836157d4565b925050600181019050614f13565b5085935050505092915050565b6000614f588261579b565b614f62818561581d565b935083602082028501614f7485615750565b8060005b85811015614fb05784840389528151614f918582614e3c565b9450614f9c836157e1565b925060208a01995050600181019050614f78565b50829750879550505050505092915050565b6000614fcd826157a6565b614fd7818561582e565b935083602082028501614fe985615760565b8060005b8581101561502557848403895281516150068582614e50565b9450615011836157ee565b925060208a01995050600181019050614fed565b50829750879550505050505092915050565b6150408161587e565b82525050565b6000615051826157bc565b61505b8185615850565b935061506b8185602086016158fa565b6150748161592d565b840191505092915050565b600061508a826157bc565b6150948185615861565b93506150a48185602086016158fa565b80840191505092915050565b60006150bb826157b1565b6150c5818561583f565b93506150d58185602086016158fa565b6150de8161592d565b840191505092915050565b600081546001811660008114615106576001811461512c57615170565b607f60028304166151178187615850565b955060ff198316865260208601935050615170565b6002820461513a8187615850565b955061514585615770565b60005b8281101561516757815481890152600182019150602081019050615148565b80880195505050505b505092915050565b6000615185601a83615850565b91507f2068617320726567697374657265642061732050617469656e740000000000006000830152602082019050919050565b60006151c5600c83615850565b91507f416464656420612066696c6500000000000000000000000000000000000000006000830152602082019050919050565b6000615205601983615850565b91507f20686173207265676973746572656420617320446f63746f72000000000000006000830152602082019050919050565b6000615245600083615861565b9150600082019050919050565b600061525f600783615861565b91507f70617469656e74000000000000000000000000000000000000000000000000006000830152600782019050919050565b600061529f602683615850565b91507f486173206772616e7465642061636365737320746f2074686520646f63746f7260008301527f2062656c6f7700000000000000000000000000000000000000000000000000006020830152604082019050919050565b6000615305600683615861565b91507f646f63746f7200000000000000000000000000000000000000000000000000006000830152600682019050919050565b60006080830160008301516153506000860182614e73565b506020830151848203602086015261536882826150b0565b9150506040830151848203604086015261538282826150b0565b9150506060830151848203606086015261539c82826150b0565b9150508091505092915050565b600060608301600083015184820360008601526153c682826150b0565b915050602083015184820360208601526153e082826150b0565b915050604083015184820360408601526153fa82826150b0565b9150508091505092915050565b615410816158a8565b82525050565b6000615422828461507f565b915081905092915050565b600061543882615238565b9150819050919050565b600061544d82615252565b9150819050919050565b6000615462826152f8565b9150819050919050565b60006040820190506154816000830184614e64565b818103602083015261549281615178565b905092915050565b60006040820190506154af6000830184614e64565b81810360208301526154c0816151f8565b905092915050565b60006080820190506154dd6000830186614e64565b81810360208301526154ee81615292565b9050818103604083015261550281856150e9565b90506155116060830184614e82565b949350505050565b600060208201905081810360008301526155338184614f4d565b905092915050565b600060208201905081810360008301526155558184614fc2565b905092915050565b600060608201905081810360008301526155778186615046565b90506155866020830185614e82565b81810360408301526155988184614e91565b9050949350505050565b600060a08201905081810360008301526155bc8188615046565b90506155cb6020830187614e82565b6155d86040830186615407565b81810360608301526155ea8185614eef565b905081810360808301526155fe8184614e91565b90509695505050505050565b600060408201905081810360008301526156248185615046565b905081810360208301526156388184615046565b90509392505050565b6000608082019050818103600083015261565b8187615046565b905061566a6020830186615407565b6156776040830185614e82565b81810360608301526156898184614fc2565b905095945050505050565b600060608201905081810360008301526156ae81856150e9565b90506156bd6020830184614e64565b81810360408301526156ce816151b8565b90509392505050565b6000604051905081810181811067ffffffffffffffff821117156156fa57600080fd5b8060405250919050565b600067ffffffffffffffff82111561571b57600080fd5b601f19601f8301169050602081019050919050565b6000819050602082019050919050565b6000819050602082019050919050565b6000819050602082019050919050565b6000819050602082019050919050565b60008190508160005260206000209050919050565b600081519050919050565b600081519050919050565b600081519050919050565b600081519050919050565b600081519050919050565b600081519050919050565b6000602082019050919050565b6000602082019050919050565b6000602082019050919050565b6000602082019050919050565b600082825260208201905092915050565b600082825260208201905092915050565b600082825260208201905092915050565b600082825260208201905092915050565b600082825260208201905092915050565b600082825260208201905092915050565b600081905092915050565b600061587782615888565b9050919050565b6000819050919050565b600073ffffffffffffffffffffffffffffffffffffffff82169050919050565b600060ff82169050919050565b60006158c0826158c7565b9050919050565b60006158d2826158d9565b9050919050565b60006158e482615888565b9050919050565b82818337600083830152505050565b60005b838110156159185780820151818401526020810190506158fd565b83811115615927576000848401525b50505050565b6000601f19601f8301169050919050565b6159478161586c565b811461595257600080fd5b50565b61595e8161587e565b811461596957600080fd5b50565b615975816158a8565b811461598057600080fd5b5056fea365627a7a72315820a7ecc331f51c244c39b3d174b8a95d997abf3a93c5ee2f7e032bba58e593854b6c6578706572696d656e74616cf564736f6c63430005100040",
  "source": "pragma solidity >=0.4.21 <0.7.0;\r\npragma experimental ABIEncoderV2;\r\n\r\ncontract optimized_healthCare {\r\n  \r\n  address private owner;\r\n  mapping (address => doctor) private doctors;\r\n  \r\n  mapping (address => patient) private patients; //mapping patients to their addresses\r\n  mapping (address => mapping (address => uint)) private patientToDoctor; //patients and list of doctors allowed access to\r\n  mapping (bytes32 => filesInfo) private hashToFile; //filehash to file info\r\n  mapping (address => mapping (bytes32 => uint)) private patientToFile; //files mapped to patients\r\n  mapping (address => files[]) private patientFiles;\r\n  mapping (address => doctorOfferedConsultation[]) doctorOfferedConsultationList;\r\n  \r\n  //consultation files added by doctor to patient record\r\n  mapping(address=> files[]) private doctorAddedPatientFiles; \r\n  \r\n  \r\n  //structure of patient file\r\n  struct files{\r\n      string file_name;\r\n      string file_type;\r\n      string file_hash;\r\n  }\r\n\r\n  \r\n  \r\n  //File-info\r\n  struct filesInfo {\r\n      string file_name;\r\n      string file_type;\r\n      string file_secret;\r\n  }\r\n  \r\n\r\n  //structure of patient info\r\n  struct patient {\r\n      string name;\r\n      uint8 age;\r\n      address id;\r\n      bytes32[] files;// hashes of file that belong to this user for display purpose\r\n      // bytes32[] doctorAddedFiles; \r\n\r\n      //hashes of files that doctor added after consultation for display purpose \r\n      address[] doctor_list;\r\n  }\r\n  \r\n  // structure for doctor offered consultation\r\n  struct doctorOfferedConsultation\r\n  {\r\n    address doc_id;\r\n    string consultation_advice;\r\n    string medicine;\r\n    string time_period;\r\n  }\r\n\r\n  //structure of doctor info\r\n  struct doctor {\r\n      string name;\r\n      address id;\r\n      address[] patient_list;\r\n  }\r\n  \r\n\r\n  //setting the owner\r\n  constructor() public {\r\n    owner = msg.sender;\r\n  }\r\n  \r\n  \r\n  //verify doctor on blockchain\r\n  modifier checkDoctor(address id) {\r\n    doctor memory d = doctors[id];\r\n    require(d.id > address(0x0));//check if doctor exist\r\n    _;\r\n  }\r\n  \r\n  //verify patient on blockchain\r\n  modifier checkPatient(address id) {\r\n    patient memory p = patients[id];\r\n    require(p.id > address(0x0));//check if patient exist\r\n    _;\r\n  }\r\n  \r\n\r\n  //owner verification modifier\r\n  modifier onlyOwner() {\r\n    require(msg.sender == owner);\r\n    _;\r\n  }\r\n   \r\n\r\n  //check if user has file access\r\n  modifier checkFileAccess(string memory role, address id, bytes32 fileHashId, address pat) {\r\n    uint pos;\r\n    //check if doctor trying to access the file\r\n    if(keccak256(abi.encodePacked(role)) == keccak256(\"doctor\")) {\r\n        //check if patient granted access to doctor\r\n        require(patientToDoctor[pat][id] > 0);\r\n        pos = patientToFile[pat][fileHashId];\r\n        require(pos > 0);   \r\n    }\r\n    //check if patient trying to access the file\r\n    else if(keccak256(abi.encodePacked(role)) == keccak256(\"patient\")) \r\n    {\r\n        //check if file belongs to patient\r\n        pos = patientToFile[id][fileHashId];\r\n        require(pos > 0);\r\n    }\r\n    _; \r\n  }\r\n  \r\n\r\n  modifier checkFile(bytes32 fileHashId) {\r\n    bytes memory tempString = bytes(hashToFile[fileHashId].file_name);\r\n    require(tempString.length > 0);//check if file exist\r\n    _;\r\n  }\r\n\r\n  //Event to emit when new patient registers\r\n  event patientSignUp( address _patient, string message);\r\n\r\n  function signupPatient(string memory _name, uint8 _age) public {\r\n     //search for patient on blockchain by address \r\n     patient storage p = patients[msg.sender];\r\n     //check input name and age\r\n     require(keccak256(abi.encodePacked(_name)) != keccak256(\"\"));\r\n     require((_age > 0) && (_age < 100));\r\n     //Check if the patient already exists by address\r\n     require(!(p.id > address(0x0)));\r\n     //Add patient to blockchain\r\n    //  patients[msg.sender] = patient({name:_name,age:_age,id:msg.sender,files:new bytes32[](0),doctor_list:new address[](0), doctorAddedFiles: new bytes32[](0)});\r\n     patients[msg.sender] = patient({name:_name,age:_age,id:msg.sender,files:new bytes32[](0),doctor_list:new address[](0)});\r\n\r\n\r\n     emit patientSignUp( msg.sender, \" has registered as Patient\");\r\n  }\r\n  \r\n\r\n  //Event to emit when new doctor registers\r\n  event doctorSignUp(address _doctor, string message);\r\n\r\n  function signupDoctor(string memory _name) public {\r\n      //search for doctor on blockchain\r\n      doctor storage d = doctors[msg.sender];\r\n      //check name of doctor\r\n      require(keccak256(abi.encodePacked(_name)) != keccak256(\"\"));\r\n      //check if doctor already exists\r\n      require(!(d.id > address(0x0)));\r\n      //Add the doctor to blockchain\r\n      doctors[msg.sender] = doctor({name:_name,id:msg.sender,patient_list:new address[](0)});\r\n      emit doctorSignUp(msg.sender, \" has registered as Doctor\");\r\n  }\r\n\r\n\r\n  //Event to emit when patient grants access to doctor\r\n  event grantDoctorAccess( address patient_address, string message, string _doctor, address doctor_address);\r\n  \r\n  function grantAccessToDoctor(address doctor_id) public checkPatient(msg.sender) checkDoctor(doctor_id) {\r\n      patient storage p = patients[msg.sender];\r\n      doctor storage d = doctors[doctor_id];\r\n      require(patientToDoctor[msg.sender][doctor_id] < 1);// this means doctor already been access\r\n      \r\n      uint pos = p.doctor_list.push(doctor_id);// new length of array\r\n      \r\n      patientToDoctor[msg.sender][doctor_id] = pos;\r\n      d.patient_list.push(msg.sender);\r\n\r\n      emit grantDoctorAccess( msg.sender , \"Has granted access to the doctor below\", d.name , doctor_id);\r\n  }\r\n\r\n  \r\n  //Event to emit when patient adds a file successfully\r\n  event fileAdd(string patient_name, address patient_address, string message);\r\n\r\n  function addUserFiles(string memory _file_name, string memory _file_type,string memory _file_hash) public checkPatient(msg.sender){\r\n      \r\n      patientFiles[msg.sender].push(files({file_name:_file_name, file_type:_file_type,file_hash:_file_hash}));\r\n      emit fileAdd(patients[msg.sender].name , msg.sender, \"Added a file\");\r\n  }\r\n\r\n\r\n  function getUserFiles(address sender)public view returns(files[] memory){\r\n      return patientFiles[sender];\r\n  }\r\n\r\n\r\n\r\n  function getPatientInfo() public view checkPatient(msg.sender) returns(string memory,address, uint8, bytes32[] memory , address[] memory) {\r\n      patient memory p = patients[msg.sender];\r\n      return (p.name,p.id, p.age, p.files, p.doctor_list);\r\n  }\r\n\r\n\r\n\r\n  function getDoctorInfo() public view checkDoctor(msg.sender) returns(string memory,address, address[] memory){\r\n      doctor memory d = doctors[msg.sender];\r\n      return (d.name,d.id, d.patient_list);\r\n  }\r\n  \r\n  function checkProfile(address _user) public view onlyOwner returns(string memory, string memory){\r\n      patient memory p = patients[_user];\r\n      doctor memory d = doctors[_user];\r\n      \r\n      if(p.id > address(0x0))\r\n          return (p.name, 'patient');\r\n      else if(d.id > address(0x0))\r\n          return (d.name, 'doctor');\r\n      else\r\n          return ('', '');\r\n    }\r\n  \r\n  function getPatientInfoForDoctor(address pat) public view checkPatient(pat) checkDoctor(msg.sender) returns(string memory, uint8, address, files[] memory){\r\n      patient memory p = patients[pat];\r\n\r\n      //require(patientToDoctor[pat][msg.sender] > 0);\r\n\r\n      return (p.name, p.age, p.id, patientFiles[pat]);\r\n    }\r\n  \r\n  //  function getDoctorAddedFiles(address pat) public view checkPatient(pat) checkDoctor(msg.sender) returns(string memory, uint8, address, files[] memory){\r\n  //     patient memory p = patients[pat];\r\n\r\n  //     //require(patientToDoctor[pat][msg.sender] > 0);\r\n\r\n  //     return (p.name, p.age, p.id, doctorAddedPatientFiles[pat]);\r\n  //   }\r\n  \r\n  function getFileInfo(bytes32 fileHashId) private view checkFile(fileHashId) returns(filesInfo memory) {\r\n      return hashToFile[fileHashId];\r\n    }\r\n  \r\n  // function getFileSecret(bytes32 fileHashId, string memory role, address id, address pat) public view \r\n  // checkFile(fileHashId) checkFileAccess(role, id, fileHashId, pat)\r\n  // returns(string memory) {\r\n  //     filesInfo memory f = getFileInfo(fileHashId);\r\n  //     return (f.file_secret);\r\n  //   }\r\n\r\n  function getFileInfoDoctor(address doc, address pat, bytes32 fileHashId) public view \r\n  onlyOwner checkPatient(pat) checkDoctor(doc) checkFileAccess(\"doctor\", doc, fileHashId, pat)\r\n  returns(string memory, string memory) {\r\n      filesInfo memory f = getFileInfo(fileHashId);\r\n      return (f.file_name, f.file_type);\r\n    }\r\n  \r\n  function getFileInfoPatient(address pat, bytes32 fileHashId) public view \r\n  onlyOwner checkPatient(pat) checkFileAccess(\"patient\", pat, fileHashId, pat) returns(string memory, string memory) {\r\n      filesInfo memory f = getFileInfo(fileHashId);\r\n      return (f.file_name, f.file_type);\r\n    }\r\n\r\n  // event doctorAddFile(string doctor_name, address doctor_address, string message, address patient_address, string patient_name);\r\n\r\n  // function doctorAddConsultation(address _pat, string memory _file_name, string memory _file_type,string memory _file_hash) public checkDoctor(msg.sender)\r\n  // {\r\n  //   doctorAddedPatientFiles[_pat].push(files({file_name:_file_name, file_type:_file_type,file_hash:_file_hash}));\r\n  //   // emit doctorAddFile(doctors[msg.sender].name , msg.sender, \"Added consultation file for patient\", _pat, patients[_pat].name);\r\n  // }\r\n\r\n  function addDoctorOfferedConsultation(address _pat, string memory _consultation, string memory _medicine, string  memory _time) public checkDoctor(msg.sender)\r\n  {\r\n    doctorOfferedConsultationList[_pat].push(doctorOfferedConsultation({doc_id:msg.sender, consultation_advice:_consultation,medicine:_medicine,time_period:_time}));\r\n  }\r\n\r\n  function getDoctorConsultation(address _pat)  public view checkPatient(_pat) checkDoctor(msg.sender) returns (doctorOfferedConsultation[] memory){\r\n    return (doctorOfferedConsultationList[_pat]);\r\n  }\r\n}",
  "sourcePath": "C:\\Users\\URVASHI\\OneDrive\\Desktop\\Mnnit files\\THESIS WORK\\Thesis project\\My_projects\\EHR using Blockchain 1.1\\contracts\\optimized_healthCare.sol",
  "compiler": {
    "name": "solc",
    "version": "0.5.16+commit.9c3226ce.Emscripten.clang"
  },
  "schemaVersion": "3.4.4",
  "updatedAt": "2022-03-22T04:36:03.354Z",
  "networkType": "ethereum",
  "devdoc": {
    "methods": {}
  },
  "userdoc": {
    "methods": {}
  }
}