{
  "contractName": "optimized_healthCare",
  "abi": [
    {
      "inputs": [],
      "payable": false,
      "stateMutability": "nonpayable",
      "type": "constructor"
    },
    {
      "anonymous": false,
      "inputs": [
        {
          "indexed": false,
          "internalType": "string",
          "name": "patient_name",
          "type": "string"
        },
        {
          "indexed": false,
          "internalType": "address",
          "name": "patient_address",
          "type": "address"
        },
        {
          "indexed": false,
          "internalType": "string",
          "name": "message",
          "type": "string"
        }
      ],
      "name": "fileAdd",
      "type": "event"
    },
    {
      "anonymous": false,
      "inputs": [
        {
          "indexed": false,
          "internalType": "address",
          "name": "patient_address",
          "type": "address"
        },
        {
          "indexed": false,
          "internalType": "string",
          "name": "message",
          "type": "string"
        },
        {
          "indexed": false,
          "internalType": "string",
          "name": "_doctor",
          "type": "string"
        },
        {
          "indexed": false,
          "internalType": "address",
          "name": "doctor_address",
          "type": "address"
        }
      ],
      "name": "grantDoctorAccess",
      "type": "event"
    },
    {
      "constant": false,
      "inputs": [
        {
          "internalType": "string",
          "name": "_name",
          "type": "string"
        },
        {
          "internalType": "uint8",
          "name": "_age",
          "type": "uint8"
        }
      ],
      "name": "signupPatient",
      "outputs": [],
      "payable": false,
      "stateMutability": "nonpayable",
      "type": "function"
    },
    {
      "constant": false,
      "inputs": [
        {
          "internalType": "string",
          "name": "_name",
          "type": "string"
        }
      ],
      "name": "signupDoctor",
      "outputs": [],
      "payable": false,
      "stateMutability": "nonpayable",
      "type": "function"
    },
    {
      "constant": false,
      "inputs": [
        {
          "internalType": "address",
          "name": "doctor_id",
          "type": "address"
        }
      ],
      "name": "grantAccessToDoctor",
      "outputs": [],
      "payable": false,
      "stateMutability": "nonpayable",
      "type": "function"
    },
    {
      "constant": false,
      "inputs": [
        {
          "internalType": "address",
          "name": "doctor_id",
          "type": "address"
        }
      ],
      "name": "revokeAccessFromDoctor",
      "outputs": [],
      "payable": false,
      "stateMutability": "nonpayable",
      "type": "function"
    },
    {
      "constant": false,
      "inputs": [
        {
          "internalType": "string",
          "name": "_file_name",
          "type": "string"
        },
        {
          "internalType": "string",
          "name": "_file_type",
          "type": "string"
        },
        {
          "internalType": "string",
          "name": "_file_hash",
          "type": "string"
        }
      ],
      "name": "addUserFiles",
      "outputs": [],
      "payable": false,
      "stateMutability": "nonpayable",
      "type": "function"
    },
    {
      "constant": true,
      "inputs": [
        {
          "internalType": "address",
          "name": "sender",
          "type": "address"
        }
      ],
      "name": "getUserFiles",
      "outputs": [
        {
          "components": [
            {
              "internalType": "string",
              "name": "file_name",
              "type": "string"
            },
            {
              "internalType": "string",
              "name": "file_type",
              "type": "string"
            },
            {
              "internalType": "string",
              "name": "file_hash",
              "type": "string"
            }
          ],
          "internalType": "struct optimized_healthCare.files[]",
          "name": "",
          "type": "tuple[]"
        }
      ],
      "payable": false,
      "stateMutability": "view",
      "type": "function"
    },
    {
      "constant": true,
      "inputs": [],
      "name": "getPatientInfo",
      "outputs": [
        {
          "internalType": "string",
          "name": "",
          "type": "string"
        },
        {
          "internalType": "address",
          "name": "",
          "type": "address"
        },
        {
          "internalType": "uint8",
          "name": "",
          "type": "uint8"
        },
        {
          "internalType": "bytes32[]",
          "name": "",
          "type": "bytes32[]"
        },
        {
          "internalType": "address[]",
          "name": "",
          "type": "address[]"
        }
      ],
      "payable": false,
      "stateMutability": "view",
      "type": "function"
    },
    {
      "constant": true,
      "inputs": [],
      "name": "getDoctorInfo",
      "outputs": [
        {
          "internalType": "string",
          "name": "",
          "type": "string"
        },
        {
          "internalType": "address",
          "name": "",
          "type": "address"
        },
        {
          "internalType": "address[]",
          "name": "",
          "type": "address[]"
        }
      ],
      "payable": false,
      "stateMutability": "view",
      "type": "function"
    },
    {
      "constant": true,
      "inputs": [
        {
          "internalType": "address",
          "name": "pat",
          "type": "address"
        }
      ],
      "name": "getPatientInfoForDoctor",
      "outputs": [
        {
          "internalType": "string",
          "name": "",
          "type": "string"
        },
        {
          "internalType": "uint8",
          "name": "",
          "type": "uint8"
        },
        {
          "internalType": "address",
          "name": "",
          "type": "address"
        },
        {
          "components": [
            {
              "internalType": "string",
              "name": "file_name",
              "type": "string"
            },
            {
              "internalType": "string",
              "name": "file_type",
              "type": "string"
            },
            {
              "internalType": "string",
              "name": "file_hash",
              "type": "string"
            }
          ],
          "internalType": "struct optimized_healthCare.files[]",
          "name": "",
          "type": "tuple[]"
        }
      ],
      "payable": false,
      "stateMutability": "view",
      "type": "function"
    },
    {
      "constant": true,
      "inputs": [
        {
          "internalType": "address",
          "name": "doc",
          "type": "address"
        },
        {
          "internalType": "address",
          "name": "pat",
          "type": "address"
        },
        {
          "internalType": "bytes32",
          "name": "fileHashId",
          "type": "bytes32"
        }
      ],
      "name": "getFileInfoDoctor",
      "outputs": [
        {
          "internalType": "string",
          "name": "",
          "type": "string"
        },
        {
          "internalType": "string",
          "name": "",
          "type": "string"
        }
      ],
      "payable": false,
      "stateMutability": "view",
      "type": "function"
    },
    {
      "constant": true,
      "inputs": [
        {
          "internalType": "address",
          "name": "pat",
          "type": "address"
        },
        {
          "internalType": "bytes32",
          "name": "fileHashId",
          "type": "bytes32"
        }
      ],
      "name": "getFileInfoPatient",
      "outputs": [
        {
          "internalType": "string",
          "name": "",
          "type": "string"
        },
        {
          "internalType": "string",
          "name": "",
          "type": "string"
        }
      ],
      "payable": false,
      "stateMutability": "view",
      "type": "function"
    },
    {
      "constant": false,
      "inputs": [
        {
          "internalType": "address",
          "name": "_pat",
          "type": "address"
        },
        {
          "internalType": "string",
          "name": "_consultation",
          "type": "string"
        },
        {
          "internalType": "string",
          "name": "_medicine",
          "type": "string"
        },
        {
          "internalType": "string",
          "name": "_time",
          "type": "string"
        }
      ],
      "name": "addDoctorOfferedConsultation",
      "outputs": [],
      "payable": false,
      "stateMutability": "nonpayable",
      "type": "function"
    },
    {
      "constant": true,
      "inputs": [
        {
          "internalType": "address",
          "name": "_pat",
          "type": "address"
        }
      ],
      "name": "getDoctorConsultation",
      "outputs": [
        {
          "components": [
            {
              "internalType": "address",
              "name": "doc_id",
              "type": "address"
            },
            {
              "internalType": "string",
              "name": "consultation_advice",
              "type": "string"
            },
            {
              "internalType": "string",
              "name": "medicine",
              "type": "string"
            },
            {
              "internalType": "string",
              "name": "time_period",
              "type": "string"
            }
          ],
          "internalType": "struct optimized_healthCare.doctorOfferedConsultation[]",
          "name": "",
          "type": "tuple[]"
        }
      ],
      "payable": false,
      "stateMutability": "view",
      "type": "function"
    },
    {
      "constant": true,
      "inputs": [],
      "name": "getDoctorConsultationForPatient",
      "outputs": [
        {
          "components": [
            {
              "internalType": "address",
              "name": "doc_id",
              "type": "address"
            },
            {
              "internalType": "string",
              "name": "consultation_advice",
              "type": "string"
            },
            {
              "internalType": "string",
              "name": "medicine",
              "type": "string"
            },
            {
              "internalType": "string",
              "name": "time_period",
              "type": "string"
            }
          ],
          "internalType": "struct optimized_healthCare.doctorOfferedConsultation[]",
          "name": "",
          "type": "tuple[]"
        }
      ],
      "payable": false,
      "stateMutability": "view",
      "type": "function"
    }
  ],
  "bytecode": "0x608060405234801561001057600080fd5b50336000806101000a81548173ffffffffffffffffffffffffffffffffffffffff021916908373ffffffffffffffffffffffffffffffffffffffff160217905550615e0980620000616000396000f3fe608060405234801561001057600080fd5b50600436106100ea5760003560e01c80636459d52f1161008c578063abf2ddf111610066578063abf2ddf11461024c578063b259832d14610268578063b380f5c614610299578063fe59cc1a146102b9576100ea565b80636459d52f146101e35780637120203a146101ff5780637f34cf941461021b576100ea565b80632ae48e40116100c85780632ae48e4014610159578063326df664146101755780634257a5bc14610197578063629e559d146101c7576100ea565b80630d37f629146100ef5780631c8e251c1461010d5780631fc3792214610129575b600080fd5b6100f76102ec565b604051610104919061595c565b60405180910390f35b610127600480360361012291908101906150a0565b610853565b005b610143600480360361013e91908101906150a0565b610fa3565b604051610150919061597e565b60405180910390f35b610173600480360361016e9190810190615240565b611227565b005b61017d611614565b60405161018e9594939291906159e5565b60405180910390f35b6101b160048036036101ac91908101906150a0565b611b2e565b6040516101be919061595c565b60405180910390f35b6101e160048036036101dc91908101906150a0565b6122b1565b005b6101fd60048036036101f891908101906151ff565b612868565b005b610219600480360361021491908101906152d7565b612a77565b005b610235600480360361023091908101906150c9565b612d23565b604051610243929190615a4d565b60405180910390f35b61026660048036036102619190810190615154565b61346a565b005b610282600480360361027d9190810190615118565b6137cc565b604051610290929190615a4d565b60405180910390f35b6102a1613cf8565b6040516102b0939291906159a0565b60405180910390f35b6102d360048036036102ce91908101906150a0565b614113565b6040516102e39493929190615a84565b60405180910390f35b6060336102f7614d89565b600260008373ffffffffffffffffffffffffffffffffffffffff1673ffffffffffffffffffffffffffffffffffffffff1681526020019081526020016000206040518060a0016040529081600082018054600181600116156101000203166002900480601f0160208091040260200160405190810160405280929190818152602001828054600181600116156101000203166002900480156103da5780601f106103af576101008083540402835291602001916103da565b820191906000526020600020905b8154815290600101906020018083116103bd57829003601f168201915b505050505081526020016001820160009054906101000a900460ff1660ff1660ff1681526020016001820160019054906101000a900473ffffffffffffffffffffffffffffffffffffffff1673ffffffffffffffffffffffffffffffffffffffff1673ffffffffffffffffffffffffffffffffffffffff168152602001600282018054806020026020016040519081016040528092919081815260200182805480156104a557602002820191906000526020600020905b815481526020019060010190808311610491575b505050505081526020016003820180548060200260200160405190810160405280929190818152602001828054801561053357602002820191906000526020600020905b8160009054906101000a900473ffffffffffffffffffffffffffffffffffffffff1673ffffffffffffffffffffffffffffffffffffffff16815260200190600101908083116104e9575b5050505050815250509050600073ffffffffffffffffffffffffffffffffffffffff16816040015173ffffffffffffffffffffffffffffffffffffffff161161057b57600080fd5b600760003373ffffffffffffffffffffffffffffffffffffffff1673ffffffffffffffffffffffffffffffffffffffff168152602001908152602001600020805480602002602001604051908101604052809291908181526020016000905b8282101561084857838290600052602060002090600402016040518060800160405290816000820160009054906101000a900473ffffffffffffffffffffffffffffffffffffffff1673ffffffffffffffffffffffffffffffffffffffff1673ffffffffffffffffffffffffffffffffffffffff168152602001600182018054600181600116156101000203166002900480601f0160208091040260200160405190810160405280929190818152602001828054600181600116156101000203166002900480156106ec5780601f106106c1576101008083540402835291602001916106ec565b820191906000526020600020905b8154815290600101906020018083116106cf57829003601f168201915b50505050508152602001600282018054600181600116156101000203166002900480601f01602080910402602001604051908101604052809291908181526020018280546001816001161561010002031660029004801561078e5780601f106107635761010080835404028352916020019161078e565b820191906000526020600020905b81548152906001019060200180831161077157829003601f168201915b50505050508152602001600382018054600181600116156101000203166002900480601f0160208091040260200160405190810160405280929190818152602001828054600181600116156101000203166002900480156108305780601f1061080557610100808354040283529160200191610830565b820191906000526020600020905b81548152906001019060200180831161081357829003601f168201915b505050505081525050815260200190600101906105da565b505050509250505090565b3361085c614d89565b600260008373ffffffffffffffffffffffffffffffffffffffff1673ffffffffffffffffffffffffffffffffffffffff1681526020019081526020016000206040518060a0016040529081600082018054600181600116156101000203166002900480601f01602080910402602001604051908101604052809291908181526020018280546001816001161561010002031660029004801561093f5780601f106109145761010080835404028352916020019161093f565b820191906000526020600020905b81548152906001019060200180831161092257829003601f168201915b505050505081526020016001820160009054906101000a900460ff1660ff1660ff1681526020016001820160019054906101000a900473ffffffffffffffffffffffffffffffffffffffff1673ffffffffffffffffffffffffffffffffffffffff1673ffffffffffffffffffffffffffffffffffffffff16815260200160028201805480602002602001604051908101604052809291908181526020018280548015610a0a57602002820191906000526020600020905b8154815260200190600101908083116109f6575b5050505050815260200160038201805480602002602001604051908101604052809291908181526020018280548015610a9857602002820191906000526020600020905b8160009054906101000a900473ffffffffffffffffffffffffffffffffffffffff1673ffffffffffffffffffffffffffffffffffffffff1681526020019060010190808311610a4e575b5050505050815250509050600073ffffffffffffffffffffffffffffffffffffffff16816040015173ffffffffffffffffffffffffffffffffffffffff1611610ae057600080fd5b82610ae9614dd1565b600160008373ffffffffffffffffffffffffffffffffffffffff1673ffffffffffffffffffffffffffffffffffffffff168152602001908152602001600020604051806060016040529081600082018054600181600116156101000203166002900480601f016020809104026020016040519081016040528092919081815260200182805460018160011615610100020316600290048015610bcc5780601f10610ba157610100808354040283529160200191610bcc565b820191906000526020600020905b815481529060010190602001808311610baf57829003601f168201915b505050505081526020016001820160009054906101000a900473ffffffffffffffffffffffffffffffffffffffff1673ffffffffffffffffffffffffffffffffffffffff1673ffffffffffffffffffffffffffffffffffffffff16815260200160028201805480602002602001604051908101604052809291908181526020018280548015610cb057602002820191906000526020600020905b8160009054906101000a900473ffffffffffffffffffffffffffffffffffffffff1673ffffffffffffffffffffffffffffffffffffffff1681526020019060010190808311610c66575b5050505050815250509050600073ffffffffffffffffffffffffffffffffffffffff16816020015173ffffffffffffffffffffffffffffffffffffffff1611610cf857600080fd5b6000600260003373ffffffffffffffffffffffffffffffffffffffff1673ffffffffffffffffffffffffffffffffffffffff16815260200190815260200160002090506000600160008873ffffffffffffffffffffffffffffffffffffffff1673ffffffffffffffffffffffffffffffffffffffff16815260200190815260200160002090506001600360003373ffffffffffffffffffffffffffffffffffffffff1673ffffffffffffffffffffffffffffffffffffffff16815260200190815260200160002060008973ffffffffffffffffffffffffffffffffffffffff1673ffffffffffffffffffffffffffffffffffffffff1681526020019081526020016000205410610e0757600080fd5b6000826003018890806001815401808255809150509060018203906000526020600020016000909192909190916101000a81548173ffffffffffffffffffffffffffffffffffffffff021916908373ffffffffffffffffffffffffffffffffffffffff160217905550905080600360003373ffffffffffffffffffffffffffffffffffffffff1673ffffffffffffffffffffffffffffffffffffffff16815260200190815260200160002060008a73ffffffffffffffffffffffffffffffffffffffff1673ffffffffffffffffffffffffffffffffffffffff16815260200190815260200160002081905550816002013390806001815401808255809150509060018203906000526020600020016000909192909190916101000a81548173ffffffffffffffffffffffffffffffffffffffff021916908373ffffffffffffffffffffffffffffffffffffffff160217905550507fe239c4e608cb32aaf8ef7214f811e28ea27c91cad9f719be74579c18fc2e983133836000018a604051610f919392919061590b565b60405180910390a15050505050505050565b6060600660008373ffffffffffffffffffffffffffffffffffffffff1673ffffffffffffffffffffffffffffffffffffffff168152602001908152602001600020805480602002602001604051908101604052809291908181526020016000905b8282101561121c5783829060005260206000209060030201604051806060016040529081600082018054600181600116156101000203166002900480601f0160208091040260200160405190810160405280929190818152602001828054600181600116156101000203166002900480156110c05780601f10611095576101008083540402835291602001916110c0565b820191906000526020600020905b8154815290600101906020018083116110a357829003601f168201915b50505050508152602001600182018054600181600116156101000203166002900480601f0160208091040260200160405190810160405280929190818152602001828054600181600116156101000203166002900480156111625780601f1061113757610100808354040283529160200191611162565b820191906000526020600020905b81548152906001019060200180831161114557829003601f168201915b50505050508152602001600282018054600181600116156101000203166002900480601f0160208091040260200160405190810160405280929190818152602001828054600181600116156101000203166002900480156112045780601f106111d957610100808354040283529160200191611204565b820191906000526020600020905b8154815290600101906020018083116111e757829003601f168201915b50505050508152505081526020019060010190611004565b505050509050919050565b33611230614d89565b600260008373ffffffffffffffffffffffffffffffffffffffff1673ffffffffffffffffffffffffffffffffffffffff1681526020019081526020016000206040518060a0016040529081600082018054600181600116156101000203166002900480601f0160208091040260200160405190810160405280929190818152602001828054600181600116156101000203166002900480156113135780601f106112e857610100808354040283529160200191611313565b820191906000526020600020905b8154815290600101906020018083116112f657829003601f168201915b505050505081526020016001820160009054906101000a900460ff1660ff1660ff1681526020016001820160019054906101000a900473ffffffffffffffffffffffffffffffffffffffff1673ffffffffffffffffffffffffffffffffffffffff1673ffffffffffffffffffffffffffffffffffffffff168152602001600282018054806020026020016040519081016040528092919081815260200182805480156113de57602002820191906000526020600020905b8154815260200190600101908083116113ca575b505050505081526020016003820180548060200260200160405190810160405280929190818152602001828054801561146c57602002820191906000526020600020905b8160009054906101000a900473ffffffffffffffffffffffffffffffffffffffff1673ffffffffffffffffffffffffffffffffffffffff1681526020019060010190808311611422575b5050505050815250509050600073ffffffffffffffffffffffffffffffffffffffff16816040015173ffffffffffffffffffffffffffffffffffffffff16116114b457600080fd5b600660003373ffffffffffffffffffffffffffffffffffffffff1673ffffffffffffffffffffffffffffffffffffffff168152602001908152602001600020604051806060016040528087815260200186815260200185815250908060018154018082558091505090600182039060005260206000209060030201600090919290919091506000820151816000019080519060200190611555929190614e08565b506020820151816001019080519060200190611572929190614e08565b50604082015181600201908051906020019061158f929190614e08565b505050507f20a149c8f0c0b833b524826f25e43f1650b93b8f508c11327e5fd698cab1c4a8600260003373ffffffffffffffffffffffffffffffffffffffff1673ffffffffffffffffffffffffffffffffffffffff16815260200190815260200160002060000133604051611605929190615ad7565b60405180910390a15050505050565b606060008060608033611625614d89565b600260008373ffffffffffffffffffffffffffffffffffffffff1673ffffffffffffffffffffffffffffffffffffffff1681526020019081526020016000206040518060a0016040529081600082018054600181600116156101000203166002900480601f0160208091040260200160405190810160405280929190818152602001828054600181600116156101000203166002900480156117085780601f106116dd57610100808354040283529160200191611708565b820191906000526020600020905b8154815290600101906020018083116116eb57829003601f168201915b505050505081526020016001820160009054906101000a900460ff1660ff1660ff1681526020016001820160019054906101000a900473ffffffffffffffffffffffffffffffffffffffff1673ffffffffffffffffffffffffffffffffffffffff1673ffffffffffffffffffffffffffffffffffffffff168152602001600282018054806020026020016040519081016040528092919081815260200182805480156117d357602002820191906000526020600020905b8154815260200190600101908083116117bf575b505050505081526020016003820180548060200260200160405190810160405280929190818152602001828054801561186157602002820191906000526020600020905b8160009054906101000a900473ffffffffffffffffffffffffffffffffffffffff1673ffffffffffffffffffffffffffffffffffffffff1681526020019060010190808311611817575b5050505050815250509050600073ffffffffffffffffffffffffffffffffffffffff16816040015173ffffffffffffffffffffffffffffffffffffffff16116118a957600080fd5b6118b1614d89565b600260003373ffffffffffffffffffffffffffffffffffffffff1673ffffffffffffffffffffffffffffffffffffffff1681526020019081526020016000206040518060a0016040529081600082018054600181600116156101000203166002900480601f0160208091040260200160405190810160405280929190818152602001828054600181600116156101000203166002900480156119945780601f1061196957610100808354040283529160200191611994565b820191906000526020600020905b81548152906001019060200180831161197757829003601f168201915b505050505081526020016001820160009054906101000a900460ff1660ff1660ff1681526020016001820160019054906101000a900473ffffffffffffffffffffffffffffffffffffffff1673ffffffffffffffffffffffffffffffffffffffff1673ffffffffffffffffffffffffffffffffffffffff16815260200160028201805480602002602001604051908101604052809291908181526020018280548015611a5f57602002820191906000526020600020905b815481526020019060010190808311611a4b575b5050505050815260200160038201805480602002602001604051908101604052809291908181526020018280548015611aed57602002820191906000526020600020905b8160009054906101000a900473ffffffffffffffffffffffffffffffffffffffff1673ffffffffffffffffffffffffffffffffffffffff1681526020019060010190808311611aa3575b505050505081525050905080600001518160400151826020015183606001518460800151849450819150809050975097509750975097505050509091929394565b606081611b39614d89565b600260008373ffffffffffffffffffffffffffffffffffffffff1673ffffffffffffffffffffffffffffffffffffffff1681526020019081526020016000206040518060a0016040529081600082018054600181600116156101000203166002900480601f016020809104026020016040519081016040528092919081815260200182805460018160011615610100020316600290048015611c1c5780601f10611bf157610100808354040283529160200191611c1c565b820191906000526020600020905b815481529060010190602001808311611bff57829003601f168201915b505050505081526020016001820160009054906101000a900460ff1660ff1660ff1681526020016001820160019054906101000a900473ffffffffffffffffffffffffffffffffffffffff1673ffffffffffffffffffffffffffffffffffffffff1673ffffffffffffffffffffffffffffffffffffffff16815260200160028201805480602002602001604051908101604052809291908181526020018280548015611ce757602002820191906000526020600020905b815481526020019060010190808311611cd3575b5050505050815260200160038201805480602002602001604051908101604052809291908181526020018280548015611d7557602002820191906000526020600020905b8160009054906101000a900473ffffffffffffffffffffffffffffffffffffffff1673ffffffffffffffffffffffffffffffffffffffff1681526020019060010190808311611d2b575b5050505050815250509050600073ffffffffffffffffffffffffffffffffffffffff16816040015173ffffffffffffffffffffffffffffffffffffffff1611611dbd57600080fd5b33611dc6614dd1565b600160008373ffffffffffffffffffffffffffffffffffffffff1673ffffffffffffffffffffffffffffffffffffffff168152602001908152602001600020604051806060016040529081600082018054600181600116156101000203166002900480601f016020809104026020016040519081016040528092919081815260200182805460018160011615610100020316600290048015611ea95780601f10611e7e57610100808354040283529160200191611ea9565b820191906000526020600020905b815481529060010190602001808311611e8c57829003601f168201915b505050505081526020016001820160009054906101000a900473ffffffffffffffffffffffffffffffffffffffff1673ffffffffffffffffffffffffffffffffffffffff1673ffffffffffffffffffffffffffffffffffffffff16815260200160028201805480602002602001604051908101604052809291908181526020018280548015611f8d57602002820191906000526020600020905b8160009054906101000a900473ffffffffffffffffffffffffffffffffffffffff1673ffffffffffffffffffffffffffffffffffffffff1681526020019060010190808311611f43575b5050505050815250509050600073ffffffffffffffffffffffffffffffffffffffff16816020015173ffffffffffffffffffffffffffffffffffffffff1611611fd557600080fd5b600760008773ffffffffffffffffffffffffffffffffffffffff1673ffffffffffffffffffffffffffffffffffffffff168152602001908152602001600020805480602002602001604051908101604052809291908181526020016000905b828210156122a257838290600052602060002090600402016040518060800160405290816000820160009054906101000a900473ffffffffffffffffffffffffffffffffffffffff1673ffffffffffffffffffffffffffffffffffffffff1673ffffffffffffffffffffffffffffffffffffffff168152602001600182018054600181600116156101000203166002900480601f0160208091040260200160405190810160405280929190818152602001828054600181600116156101000203166002900480156121465780601f1061211b57610100808354040283529160200191612146565b820191906000526020600020905b81548152906001019060200180831161212957829003601f168201915b50505050508152602001600282018054600181600116156101000203166002900480601f0160208091040260200160405190810160405280929190818152602001828054600181600116156101000203166002900480156121e85780601f106121bd576101008083540402835291602001916121e8565b820191906000526020600020905b8154815290600101906020018083116121cb57829003601f168201915b50505050508152602001600382018054600181600116156101000203166002900480601f01602080910402602001604051908101604052809291908181526020018280546001816001161561010002031660029004801561228a5780601f1061225f5761010080835404028352916020019161228a565b820191906000526020600020905b81548152906001019060200180831161226d57829003601f168201915b50505050508152505081526020019060010190612034565b50505050945050505050919050565b336122ba614d89565b600260008373ffffffffffffffffffffffffffffffffffffffff1673ffffffffffffffffffffffffffffffffffffffff1681526020019081526020016000206040518060a0016040529081600082018054600181600116156101000203166002900480601f01602080910402602001604051908101604052809291908181526020018280546001816001161561010002031660029004801561239d5780601f106123725761010080835404028352916020019161239d565b820191906000526020600020905b81548152906001019060200180831161238057829003601f168201915b505050505081526020016001820160009054906101000a900460ff1660ff1660ff1681526020016001820160019054906101000a900473ffffffffffffffffffffffffffffffffffffffff1673ffffffffffffffffffffffffffffffffffffffff1673ffffffffffffffffffffffffffffffffffffffff1681526020016002820180548060200260200160405190810160405280929190818152602001828054801561246857602002820191906000526020600020905b815481526020019060010190808311612454575b50505050508152602001600382018054806020026020016040519081016040528092919081815260200182805480156124f657602002820191906000526020600020905b8160009054906101000a900473ffffffffffffffffffffffffffffffffffffffff1673ffffffffffffffffffffffffffffffffffffffff16815260200190600101908083116124ac575b5050505050815250509050600073ffffffffffffffffffffffffffffffffffffffff16816040015173ffffffffffffffffffffffffffffffffffffffff161161253e57600080fd5b82612547614dd1565b600160008373ffffffffffffffffffffffffffffffffffffffff1673ffffffffffffffffffffffffffffffffffffffff168152602001908152602001600020604051806060016040529081600082018054600181600116156101000203166002900480601f01602080910402602001604051908101604052809291908181526020018280546001816001161561010002031660029004801561262a5780601f106125ff5761010080835404028352916020019161262a565b820191906000526020600020905b81548152906001019060200180831161260d57829003601f168201915b505050505081526020016001820160009054906101000a900473ffffffffffffffffffffffffffffffffffffffff1673ffffffffffffffffffffffffffffffffffffffff1673ffffffffffffffffffffffffffffffffffffffff1681526020016002820180548060200260200160405190810160405280929190818152602001828054801561270e57602002820191906000526020600020905b8160009054906101000a900473ffffffffffffffffffffffffffffffffffffffff1673ffffffffffffffffffffffffffffffffffffffff16815260200190600101908083116126c4575b5050505050815250509050600073ffffffffffffffffffffffffffffffffffffffff16816020015173ffffffffffffffffffffffffffffffffffffffff161161275657600080fd5b6000600360003373ffffffffffffffffffffffffffffffffffffffff1673ffffffffffffffffffffffffffffffffffffffff16815260200190815260200160002060008773ffffffffffffffffffffffffffffffffffffffff1673ffffffffffffffffffffffffffffffffffffffff16815260200190815260200160002054116127df57600080fd5b6000600360003373ffffffffffffffffffffffffffffffffffffffff1673ffffffffffffffffffffffffffffffffffffffff16815260200190815260200160002060008773ffffffffffffffffffffffffffffffffffffffff1673ffffffffffffffffffffffffffffffffffffffff168152602001908152602001600020819055505050505050565b6000600160003373ffffffffffffffffffffffffffffffffffffffff1673ffffffffffffffffffffffffffffffffffffffff16815260200190815260200160002090506040516128b7906158cc565b6040518091039020826040516020016128d091906158b5565b6040516020818303038152906040528051906020012014156128f157600080fd5b600073ffffffffffffffffffffffffffffffffffffffff168160010160009054906101000a900473ffffffffffffffffffffffffffffffffffffffff1673ffffffffffffffffffffffffffffffffffffffff16111561294f57600080fd5b60405180606001604052808381526020013373ffffffffffffffffffffffffffffffffffffffff16815260200160006040519080825280602002602001820160405280156129ac5781602001602082028038833980820191505090505b50815250600160003373ffffffffffffffffffffffffffffffffffffffff1673ffffffffffffffffffffffffffffffffffffffff1681526020019081526020016000206000820151816000019080519060200190612a0b929190614e08565b5060208201518160010160006101000a81548173ffffffffffffffffffffffffffffffffffffffff021916908373ffffffffffffffffffffffffffffffffffffffff1602179055506040820151816002019080519060200190612a6f929190614e88565b509050505050565b6000600260003373ffffffffffffffffffffffffffffffffffffffff1673ffffffffffffffffffffffffffffffffffffffff1681526020019081526020016000209050604051612ac6906158cc565b604051809103902083604051602001612adf91906158b5565b604051602081830303815290604052805190602001201415612b0057600080fd5b60008260ff16118015612b16575060648260ff16105b612b1f57600080fd5b600073ffffffffffffffffffffffffffffffffffffffff168160010160019054906101000a900473ffffffffffffffffffffffffffffffffffffffff1673ffffffffffffffffffffffffffffffffffffffff161115612b7d57600080fd5b6040518060a001604052808481526020018360ff1681526020013373ffffffffffffffffffffffffffffffffffffffff1681526020016000604051908082528060200260200182016040528015612be35781602001602082028038833980820191505090505b5081526020016000604051908082528060200260200182016040528015612c195781602001602082028038833980820191505090505b50815250600260003373ffffffffffffffffffffffffffffffffffffffff1673ffffffffffffffffffffffffffffffffffffffff1681526020019081526020016000206000820151816000019080519060200190612c78929190614e08565b5060208201518160010160006101000a81548160ff021916908360ff16021790555060408201518160010160016101000a81548173ffffffffffffffffffffffffffffffffffffffff021916908373ffffffffffffffffffffffffffffffffffffffff1602179055506060820151816002019080519060200190612cfd929190614f12565b506080820151816003019080519060200190612d1a929190614e88565b50905050505050565b6060806000809054906101000a900473ffffffffffffffffffffffffffffffffffffffff1673ffffffffffffffffffffffffffffffffffffffff163373ffffffffffffffffffffffffffffffffffffffff1614612d7f57600080fd5b83612d88614d89565b600260008373ffffffffffffffffffffffffffffffffffffffff1673ffffffffffffffffffffffffffffffffffffffff1681526020019081526020016000206040518060a0016040529081600082018054600181600116156101000203166002900480601f016020809104026020016040519081016040528092919081815260200182805460018160011615610100020316600290048015612e6b5780601f10612e4057610100808354040283529160200191612e6b565b820191906000526020600020905b815481529060010190602001808311612e4e57829003601f168201915b505050505081526020016001820160009054906101000a900460ff1660ff1660ff1681526020016001820160019054906101000a900473ffffffffffffffffffffffffffffffffffffffff1673ffffffffffffffffffffffffffffffffffffffff1673ffffffffffffffffffffffffffffffffffffffff16815260200160028201805480602002602001604051908101604052809291908181526020018280548015612f3657602002820191906000526020600020905b815481526020019060010190808311612f22575b5050505050815260200160038201805480602002602001604051908101604052809291908181526020018280548015612fc457602002820191906000526020600020905b8160009054906101000a900473ffffffffffffffffffffffffffffffffffffffff1673ffffffffffffffffffffffffffffffffffffffff1681526020019060010190808311612f7a575b5050505050815250509050600073ffffffffffffffffffffffffffffffffffffffff16816040015173ffffffffffffffffffffffffffffffffffffffff161161300c57600080fd5b86613015614dd1565b600160008373ffffffffffffffffffffffffffffffffffffffff1673ffffffffffffffffffffffffffffffffffffffff168152602001908152602001600020604051806060016040529081600082018054600181600116156101000203166002900480601f0160208091040260200160405190810160405280929190818152602001828054600181600116156101000203166002900480156130f85780601f106130cd576101008083540402835291602001916130f8565b820191906000526020600020905b8154815290600101906020018083116130db57829003601f168201915b505050505081526020016001820160009054906101000a900473ffffffffffffffffffffffffffffffffffffffff1673ffffffffffffffffffffffffffffffffffffffff1673ffffffffffffffffffffffffffffffffffffffff168152602001600282018054806020026020016040519081016040528092919081815260200182805480156131dc57602002820191906000526020600020905b8160009054906101000a900473ffffffffffffffffffffffffffffffffffffffff1673ffffffffffffffffffffffffffffffffffffffff1681526020019060010190808311613192575b5050505050815250509050600073ffffffffffffffffffffffffffffffffffffffff16816020015173ffffffffffffffffffffffffffffffffffffffff161161322457600080fd5b6040518060400160405280600681526020017f646f63746f72000000000000000000000000000000000000000000000000000081525089888a600060405161326b906158f6565b60405180910390208560405160200161328491906158b5565b60405160208183030381529060405280519060200120141561338e576000600360008473ffffffffffffffffffffffffffffffffffffffff1673ffffffffffffffffffffffffffffffffffffffff16815260200190815260200160002060008673ffffffffffffffffffffffffffffffffffffffff1673ffffffffffffffffffffffffffffffffffffffff168152602001908152602001600020541161332957600080fd5b600560008373ffffffffffffffffffffffffffffffffffffffff1673ffffffffffffffffffffffffffffffffffffffff16815260200190815260200160002060008481526020019081526020016000205490506000811161338957600080fd5b613431565b60405161339a906158e1565b6040518091039020856040516020016133b391906158b5565b60405160208183030381529060405280519060200120141561343057600560008573ffffffffffffffffffffffffffffffffffffffff1673ffffffffffffffffffffffffffffffffffffffff16815260200190815260200160002060008481526020019081526020016000205490506000811161342f57600080fd5b5b5b613439614f5f565b6134428d614ab2565b9050806000015181602001518191508090509b509b5050505050505050505050935093915050565b33613473614dd1565b600160008373ffffffffffffffffffffffffffffffffffffffff1673ffffffffffffffffffffffffffffffffffffffff168152602001908152602001600020604051806060016040529081600082018054600181600116156101000203166002900480601f0160208091040260200160405190810160405280929190818152602001828054600181600116156101000203166002900480156135565780601f1061352b57610100808354040283529160200191613556565b820191906000526020600020905b81548152906001019060200180831161353957829003601f168201915b505050505081526020016001820160009054906101000a900473ffffffffffffffffffffffffffffffffffffffff1673ffffffffffffffffffffffffffffffffffffffff1673ffffffffffffffffffffffffffffffffffffffff1681526020016002820180548060200260200160405190810160405280929190818152602001828054801561363a57602002820191906000526020600020905b8160009054906101000a900473ffffffffffffffffffffffffffffffffffffffff1673ffffffffffffffffffffffffffffffffffffffff16815260200190600101908083116135f0575b5050505050815250509050600073ffffffffffffffffffffffffffffffffffffffff16816020015173ffffffffffffffffffffffffffffffffffffffff161161368257600080fd5b600760008773ffffffffffffffffffffffffffffffffffffffff1673ffffffffffffffffffffffffffffffffffffffff16815260200190815260200160002060405180608001604052803373ffffffffffffffffffffffffffffffffffffffff168152602001878152602001868152602001858152509080600181540180825580915050906001820390600052602060002090600402016000909192909190915060008201518160000160006101000a81548173ffffffffffffffffffffffffffffffffffffffff021916908373ffffffffffffffffffffffffffffffffffffffff1602179055506020820151816001019080519060200190613786929190614e08565b5060408201518160020190805190602001906137a3929190614e08565b5060608201518160030190805190602001906137c0929190614e08565b50505050505050505050565b6060806000809054906101000a900473ffffffffffffffffffffffffffffffffffffffff1673ffffffffffffffffffffffffffffffffffffffff163373ffffffffffffffffffffffffffffffffffffffff161461382857600080fd5b83613831614d89565b600260008373ffffffffffffffffffffffffffffffffffffffff1673ffffffffffffffffffffffffffffffffffffffff1681526020019081526020016000206040518060a0016040529081600082018054600181600116156101000203166002900480601f0160208091040260200160405190810160405280929190818152602001828054600181600116156101000203166002900480156139145780601f106138e957610100808354040283529160200191613914565b820191906000526020600020905b8154815290600101906020018083116138f757829003601f168201915b505050505081526020016001820160009054906101000a900460ff1660ff1660ff1681526020016001820160019054906101000a900473ffffffffffffffffffffffffffffffffffffffff1673ffffffffffffffffffffffffffffffffffffffff1673ffffffffffffffffffffffffffffffffffffffff168152602001600282018054806020026020016040519081016040528092919081815260200182805480156139df57602002820191906000526020600020905b8154815260200190600101908083116139cb575b5050505050815260200160038201805480602002602001604051908101604052809291908181526020018280548015613a6d57602002820191906000526020600020905b8160009054906101000a900473ffffffffffffffffffffffffffffffffffffffff1673ffffffffffffffffffffffffffffffffffffffff1681526020019060010190808311613a23575b5050505050815250509050600073ffffffffffffffffffffffffffffffffffffffff16816040015173ffffffffffffffffffffffffffffffffffffffff1611613ab557600080fd5b6040518060400160405280600781526020017f70617469656e74000000000000000000000000000000000000000000000000008152508686886000604051613afc906158f6565b604051809103902085604051602001613b1591906158b5565b604051602081830303815290604052805190602001201415613c1f576000600360008473ffffffffffffffffffffffffffffffffffffffff1673ffffffffffffffffffffffffffffffffffffffff16815260200190815260200160002060008673ffffffffffffffffffffffffffffffffffffffff1673ffffffffffffffffffffffffffffffffffffffff1681526020019081526020016000205411613bba57600080fd5b600560008373ffffffffffffffffffffffffffffffffffffffff1673ffffffffffffffffffffffffffffffffffffffff168152602001908152602001600020600084815260200190815260200160002054905060008111613c1a57600080fd5b613cc2565b604051613c2b906158e1565b604051809103902085604051602001613c4491906158b5565b604051602081830303815290604052805190602001201415613cc157600560008573ffffffffffffffffffffffffffffffffffffffff1673ffffffffffffffffffffffffffffffffffffffff168152602001908152602001600020600084815260200190815260200160002054905060008111613cc057600080fd5b5b5b613cca614f5f565b613cd38b614ab2565b9050806000015181602001518191508090509950995050505050505050509250929050565b60606000606033613d07614dd1565b600160008373ffffffffffffffffffffffffffffffffffffffff1673ffffffffffffffffffffffffffffffffffffffff168152602001908152602001600020604051806060016040529081600082018054600181600116156101000203166002900480601f016020809104026020016040519081016040528092919081815260200182805460018160011615610100020316600290048015613dea5780601f10613dbf57610100808354040283529160200191613dea565b820191906000526020600020905b815481529060010190602001808311613dcd57829003601f168201915b505050505081526020016001820160009054906101000a900473ffffffffffffffffffffffffffffffffffffffff1673ffffffffffffffffffffffffffffffffffffffff1673ffffffffffffffffffffffffffffffffffffffff16815260200160028201805480602002602001604051908101604052809291908181526020018280548015613ece57602002820191906000526020600020905b8160009054906101000a900473ffffffffffffffffffffffffffffffffffffffff1673ffffffffffffffffffffffffffffffffffffffff1681526020019060010190808311613e84575b5050505050815250509050600073ffffffffffffffffffffffffffffffffffffffff16816020015173ffffffffffffffffffffffffffffffffffffffff1611613f1657600080fd5b613f1e614dd1565b600160003373ffffffffffffffffffffffffffffffffffffffff1673ffffffffffffffffffffffffffffffffffffffff168152602001908152602001600020604051806060016040529081600082018054600181600116156101000203166002900480601f0160208091040260200160405190810160405280929190818152602001828054600181600116156101000203166002900480156140015780601f10613fd657610100808354040283529160200191614001565b820191906000526020600020905b815481529060010190602001808311613fe457829003601f168201915b505050505081526020016001820160009054906101000a900473ffffffffffffffffffffffffffffffffffffffff1673ffffffffffffffffffffffffffffffffffffffff1673ffffffffffffffffffffffffffffffffffffffff168152602001600282018054806020026020016040519081016040528092919081815260200182805480156140e557602002820191906000526020600020905b8160009054906101000a900473ffffffffffffffffffffffffffffffffffffffff1673ffffffffffffffffffffffffffffffffffffffff168152602001906001019080831161409b575b5050505050815250509050806000015181602001518260400151829250809050955095509550505050909192565b6060600080606084614123614d89565b600260008373ffffffffffffffffffffffffffffffffffffffff1673ffffffffffffffffffffffffffffffffffffffff1681526020019081526020016000206040518060a0016040529081600082018054600181600116156101000203166002900480601f0160208091040260200160405190810160405280929190818152602001828054600181600116156101000203166002900480156142065780601f106141db57610100808354040283529160200191614206565b820191906000526020600020905b8154815290600101906020018083116141e957829003601f168201915b505050505081526020016001820160009054906101000a900460ff1660ff1660ff1681526020016001820160019054906101000a900473ffffffffffffffffffffffffffffffffffffffff1673ffffffffffffffffffffffffffffffffffffffff1673ffffffffffffffffffffffffffffffffffffffff168152602001600282018054806020026020016040519081016040528092919081815260200182805480156142d157602002820191906000526020600020905b8154815260200190600101908083116142bd575b505050505081526020016003820180548060200260200160405190810160405280929190818152602001828054801561435f57602002820191906000526020600020905b8160009054906101000a900473ffffffffffffffffffffffffffffffffffffffff1673ffffffffffffffffffffffffffffffffffffffff1681526020019060010190808311614315575b5050505050815250509050600073ffffffffffffffffffffffffffffffffffffffff16816040015173ffffffffffffffffffffffffffffffffffffffff16116143a757600080fd5b336143b0614dd1565b600160008373ffffffffffffffffffffffffffffffffffffffff1673ffffffffffffffffffffffffffffffffffffffff168152602001908152602001600020604051806060016040529081600082018054600181600116156101000203166002900480601f0160208091040260200160405190810160405280929190818152602001828054600181600116156101000203166002900480156144935780601f1061446857610100808354040283529160200191614493565b820191906000526020600020905b81548152906001019060200180831161447657829003601f168201915b505050505081526020016001820160009054906101000a900473ffffffffffffffffffffffffffffffffffffffff1673ffffffffffffffffffffffffffffffffffffffff1673ffffffffffffffffffffffffffffffffffffffff1681526020016002820180548060200260200160405190810160405280929190818152602001828054801561457757602002820191906000526020600020905b8160009054906101000a900473ffffffffffffffffffffffffffffffffffffffff1673ffffffffffffffffffffffffffffffffffffffff168152602001906001019080831161452d575b5050505050815250509050600073ffffffffffffffffffffffffffffffffffffffff16816020015173ffffffffffffffffffffffffffffffffffffffff16116145bf57600080fd5b6145c7614d89565b600260008b73ffffffffffffffffffffffffffffffffffffffff1673ffffffffffffffffffffffffffffffffffffffff1681526020019081526020016000206040518060a0016040529081600082018054600181600116156101000203166002900480601f0160208091040260200160405190810160405280929190818152602001828054600181600116156101000203166002900480156146aa5780601f1061467f576101008083540402835291602001916146aa565b820191906000526020600020905b81548152906001019060200180831161468d57829003601f168201915b505050505081526020016001820160009054906101000a900460ff1660ff1660ff1681526020016001820160019054906101000a900473ffffffffffffffffffffffffffffffffffffffff1673ffffffffffffffffffffffffffffffffffffffff1673ffffffffffffffffffffffffffffffffffffffff1681526020016002820180548060200260200160405190810160405280929190818152602001828054801561477557602002820191906000526020600020905b815481526020019060010190808311614761575b505050505081526020016003820180548060200260200160405190810160405280929190818152602001828054801561480357602002820191906000526020600020905b8160009054906101000a900473ffffffffffffffffffffffffffffffffffffffff1673ffffffffffffffffffffffffffffffffffffffff16815260200190600101908083116147b9575b5050505050815250509050806000015181602001518260400151600660008e73ffffffffffffffffffffffffffffffffffffffff1673ffffffffffffffffffffffffffffffffffffffff16815260200190815260200160002083935080805480602002602001604051908101604052809291908181526020016000905b82821015614a985783829060005260206000209060030201604051806060016040529081600082018054600181600116156101000203166002900480601f01602080910402602001604051908101604052809291908181526020018280546001816001161561010002031660029004801561493c5780601f106149115761010080835404028352916020019161493c565b820191906000526020600020905b81548152906001019060200180831161491f57829003601f168201915b50505050508152602001600182018054600181600116156101000203166002900480601f0160208091040260200160405190810160405280929190818152602001828054600181600116156101000203166002900480156149de5780601f106149b3576101008083540402835291602001916149de565b820191906000526020600020905b8154815290600101906020018083116149c157829003601f168201915b50505050508152602001600282018054600181600116156101000203166002900480601f016020809104026020016040519081016040528092919081815260200182805460018160011615610100020316600290048015614a805780601f10614a5557610100808354040283529160200191614a80565b820191906000526020600020905b815481529060010190602001808311614a6357829003601f168201915b50505050508152505081526020019060010190614880565b505050509050985098509850985050505050509193509193565b614aba614f5f565b816060600460008381526020019081526020016000206000018054600181600116156101000203166002900480601f016020809104026020016040519081016040528092919081815260200182805460018160011615610100020316600290048015614b675780601f10614b3c57610100808354040283529160200191614b67565b820191906000526020600020905b815481529060010190602001808311614b4a57829003601f168201915b505050505090506000815111614b7c57600080fd5b60046000858152602001908152602001600020604051806060016040529081600082018054600181600116156101000203166002900480601f016020809104026020016040519081016040528092919081815260200182805460018160011615610100020316600290048015614c335780601f10614c0857610100808354040283529160200191614c33565b820191906000526020600020905b815481529060010190602001808311614c1657829003601f168201915b50505050508152602001600182018054600181600116156101000203166002900480601f016020809104026020016040519081016040528092919081815260200182805460018160011615610100020316600290048015614cd55780601f10614caa57610100808354040283529160200191614cd5565b820191906000526020600020905b815481529060010190602001808311614cb857829003601f168201915b50505050508152602001600282018054600181600116156101000203166002900480601f016020809104026020016040519081016040528092919081815260200182805460018160011615610100020316600290048015614d775780601f10614d4c57610100808354040283529160200191614d77565b820191906000526020600020905b815481529060010190602001808311614d5a57829003601f168201915b50505050508152505092505050919050565b6040518060a0016040528060608152602001600060ff168152602001600073ffffffffffffffffffffffffffffffffffffffff16815260200160608152602001606081525090565b604051806060016040528060608152602001600073ffffffffffffffffffffffffffffffffffffffff168152602001606081525090565b828054600181600116156101000203166002900490600052602060002090601f016020900481019282601f10614e4957805160ff1916838001178555614e77565b82800160010185558215614e77579182015b82811115614e76578251825591602001919060010190614e5b565b5b509050614e849190614f80565b5090565b828054828255906000526020600020908101928215614f01579160200282015b82811115614f005782518260006101000a81548173ffffffffffffffffffffffffffffffffffffffff021916908373ffffffffffffffffffffffffffffffffffffffff16021790555091602001919060010190614ea8565b5b509050614f0e9190614fa5565b5090565b828054828255906000526020600020908101928215614f4e579160200282015b82811115614f4d578251825591602001919060010190614f32565b5b509050614f5b9190614fe8565b5090565b60405180606001604052806060815260200160608152602001606081525090565b614fa291905b80821115614f9e576000816000905550600101614f86565b5090565b90565b614fe591905b80821115614fe157600081816101000a81549073ffffffffffffffffffffffffffffffffffffffff021916905550600101614fab565b5090565b90565b61500a91905b80821115615006576000816000905550600101614fee565b5090565b90565b60008135905061501c81615d81565b92915050565b60008135905061503181615d98565b92915050565b600082601f83011261504857600080fd5b813561505b61505682615b47565b615b1a565b9150808252602083016020830185838301111561507757600080fd5b615082838284615d2e565b50505092915050565b60008135905061509a81615daf565b92915050565b6000602082840312156150b257600080fd5b60006150c08482850161500d565b91505092915050565b6000806000606084860312156150de57600080fd5b60006150ec8682870161500d565b93505060206150fd8682870161500d565b925050604061510e86828701615022565b9150509250925092565b6000806040838503121561512b57600080fd5b60006151398582860161500d565b925050602061514a85828601615022565b9150509250929050565b6000806000806080858703121561516a57600080fd5b60006151788782880161500d565b945050602085013567ffffffffffffffff81111561519557600080fd5b6151a187828801615037565b935050604085013567ffffffffffffffff8111156151be57600080fd5b6151ca87828801615037565b925050606085013567ffffffffffffffff8111156151e757600080fd5b6151f387828801615037565b91505092959194509250565b60006020828403121561521157600080fd5b600082013567ffffffffffffffff81111561522b57600080fd5b61523784828501615037565b91505092915050565b60008060006060848603121561525557600080fd5b600084013567ffffffffffffffff81111561526f57600080fd5b61527b86828701615037565b935050602084013567ffffffffffffffff81111561529857600080fd5b6152a486828701615037565b925050604084013567ffffffffffffffff8111156152c157600080fd5b6152cd86828701615037565b9150509250925092565b600080604083850312156152ea57600080fd5b600083013567ffffffffffffffff81111561530457600080fd5b61531085828601615037565b92505060206153218582860161508b565b9150509250929050565b60006153378383615392565b60208301905092915050565b600061534f8383615556565b60208301905092915050565b600061536783836157d7565b905092915050565b600061537b8383615848565b905092915050565b61538c81615cf8565b82525050565b61539b81615caf565b82525050565b6153aa81615caf565b82525050565b60006153bb82615bc8565b6153c58185615c3e565b93506153d083615b73565b8060005b838110156154015781516153e8888261532b565b97506153f383615c0a565b9250506001810190506153d4565b5085935050505092915050565b600061541982615bd3565b6154238185615c4f565b935061542e83615b83565b8060005b8381101561545f5781516154468882615343565b975061545183615c17565b925050600181019050615432565b5085935050505092915050565b600061547782615bde565b6154818185615c60565b93508360208202850161549385615b93565b8060005b858110156154cf57848403895281516154b0858261535b565b94506154bb83615c24565b925060208a01995050600181019050615497565b50829750879550505050505092915050565b60006154ec82615be9565b6154f68185615c71565b93508360208202850161550885615ba3565b8060005b858110156155445784840389528151615525858261536f565b945061553083615c31565b925060208a0199505060018101905061550c565b50829750879550505050505092915050565b61555f81615cc1565b82525050565b600061557082615bff565b61557a8185615c93565b935061558a818560208601615d3d565b61559381615d70565b840191505092915050565b60006155a982615bff565b6155b38185615ca4565b93506155c3818560208601615d3d565b80840191505092915050565b60006155da82615bf4565b6155e48185615c82565b93506155f4818560208601615d3d565b6155fd81615d70565b840191505092915050565b600081546001811660008114615625576001811461564b5761568f565b607f60028304166156368187615c93565b955060ff19831686526020860193505061568f565b600282046156598187615c93565b955061566485615bb3565b60005b8281101561568657815481890152600182019150602081019050615667565b80880195505050505b505092915050565b60006156a4600c83615c93565b91507f416464656420612066696c6500000000000000000000000000000000000000006000830152602082019050919050565b60006156e4600083615ca4565b9150600082019050919050565b60006156fe600783615ca4565b91507f70617469656e74000000000000000000000000000000000000000000000000006000830152600782019050919050565b600061573e602683615c93565b91507f486173206772616e7465642061636365737320746f2074686520646f63746f7260008301527f2062656c6f7700000000000000000000000000000000000000000000000000006020830152604082019050919050565b60006157a4600683615ca4565b91507f646f63746f7200000000000000000000000000000000000000000000000000006000830152600682019050919050565b60006080830160008301516157ef6000860182615392565b506020830151848203602086015261580782826155cf565b9150506040830151848203604086015261582182826155cf565b9150506060830151848203606086015261583b82826155cf565b9150508091505092915050565b6000606083016000830151848203600086015261586582826155cf565b9150506020830151848203602086015261587f82826155cf565b9150506040830151848203604086015261589982826155cf565b9150508091505092915050565b6158af81615ceb565b82525050565b60006158c1828461559e565b915081905092915050565b60006158d7826156d7565b9150819050919050565b60006158ec826156f1565b9150819050919050565b600061590182615797565b9150819050919050565b60006080820190506159206000830186615383565b818103602083015261593181615731565b905081810360408301526159458185615608565b905061595460608301846153a1565b949350505050565b60006020820190508181036000830152615976818461546c565b905092915050565b6000602082019050818103600083015261599881846154e1565b905092915050565b600060608201905081810360008301526159ba8186615565565b90506159c960208301856153a1565b81810360408301526159db81846153b0565b9050949350505050565b600060a08201905081810360008301526159ff8188615565565b9050615a0e60208301876153a1565b615a1b60408301866158a6565b8181036060830152615a2d818561540e565b90508181036080830152615a4181846153b0565b90509695505050505050565b60006040820190508181036000830152615a678185615565565b90508181036020830152615a7b8184615565565b90509392505050565b60006080820190508181036000830152615a9e8187615565565b9050615aad60208301866158a6565b615aba60408301856153a1565b8181036060830152615acc81846154e1565b905095945050505050565b60006060820190508181036000830152615af18185615608565b9050615b006020830184615383565b8181036040830152615b1181615697565b90509392505050565b6000604051905081810181811067ffffffffffffffff82111715615b3d57600080fd5b8060405250919050565b600067ffffffffffffffff821115615b5e57600080fd5b601f19601f8301169050602081019050919050565b6000819050602082019050919050565b6000819050602082019050919050565b6000819050602082019050919050565b6000819050602082019050919050565b60008190508160005260206000209050919050565b600081519050919050565b600081519050919050565b600081519050919050565b600081519050919050565b600081519050919050565b600081519050919050565b6000602082019050919050565b6000602082019050919050565b6000602082019050919050565b6000602082019050919050565b600082825260208201905092915050565b600082825260208201905092915050565b600082825260208201905092915050565b600082825260208201905092915050565b600082825260208201905092915050565b600082825260208201905092915050565b600081905092915050565b6000615cba82615ccb565b9050919050565b6000819050919050565b600073ffffffffffffffffffffffffffffffffffffffff82169050919050565b600060ff82169050919050565b6000615d0382615d0a565b9050919050565b6000615d1582615d1c565b9050919050565b6000615d2782615ccb565b9050919050565b82818337600083830152505050565b60005b83811015615d5b578082015181840152602081019050615d40565b83811115615d6a576000848401525b50505050565b6000601f19601f8301169050919050565b615d8a81615caf565b8114615d9557600080fd5b50565b615da181615cc1565b8114615dac57600080fd5b50565b615db881615ceb565b8114615dc357600080fd5b5056fea365627a7a72315820e88c5383d6d023ab366c242cbf405e5a4918de978bfb3d9a12a2f0001f2d41f86c6578706572696d656e74616cf564736f6c63430005100040",
  "source": "pragma solidity >=0.4.21 <0.7.0;\r\npragma experimental ABIEncoderV2;\r\n\r\ncontract optimized_healthCare {\r\n  \r\n  address private owner;\r\n  mapping (address => doctor) private doctors;\r\n  \r\n  mapping (address => patient) private patients; //mapping patients to their addresses\r\n  mapping (address => mapping (address => uint)) private patientToDoctor; //patients and list of doctors allowed access to\r\n  mapping (bytes32 => filesInfo) private hashToFile; //filehash to file info\r\n  mapping (address => mapping (bytes32 => uint)) private patientToFile; //files mapped to patients\r\n  mapping (address => files[]) private patientFiles;\r\n  mapping (address => doctorOfferedConsultation[]) doctorOfferedConsultationList;\r\n  \r\n  //consultation files added by doctor to patient record\r\n  // mapping(address=> files[]) private doctorAddedPatientFiles; \r\n  \r\n  \r\n  //structure of patient file\r\n  struct files{\r\n      string file_name;\r\n      string file_type;\r\n      string file_hash;\r\n  }\r\n\r\n  \r\n  \r\n  //File-info\r\n  struct filesInfo {\r\n      string file_name;\r\n      string file_type;\r\n      string file_secret;\r\n  }\r\n  \r\n\r\n  //structure of patient info\r\n  struct patient {\r\n      string name;\r\n      uint8 age;\r\n      address id;\r\n      bytes32[] files;// hashes of file that belong to this user for display purpose\r\n      // bytes32[] doctorAddedFiles; \r\n\r\n      //hashes of files that doctor added after consultation for display purpose \r\n      address[] doctor_list;\r\n  }\r\n  \r\n  // structure for doctor offered consultation\r\n  struct doctorOfferedConsultation\r\n  {\r\n    address doc_id;\r\n    string consultation_advice;\r\n    string medicine;\r\n    string time_period;\r\n  }\r\n\r\n  //structure of doctor info\r\n  struct doctor {\r\n      string name;\r\n      address id;\r\n      address[] patient_list;\r\n  }\r\n  \r\n\r\n  //setting the owner\r\n  constructor() public {\r\n    owner = msg.sender;\r\n  }\r\n  \r\n  \r\n  //verify doctor on blockchain\r\n  modifier checkDoctor(address id) {\r\n    doctor memory d = doctors[id];\r\n    require(d.id > address(0x0));//check if doctor exist\r\n    _;\r\n  }\r\n  \r\n  //verify patient on blockchain\r\n  modifier checkPatient(address id) {\r\n    patient memory p = patients[id];\r\n    require(p.id > address(0x0));//check if patient exist\r\n    _;\r\n  }\r\n  \r\n\r\n  //owner verification modifier\r\n  modifier onlyOwner() {\r\n    require(msg.sender == owner);\r\n    _;\r\n  }\r\n   \r\n\r\n  //check if user has file access\r\n  modifier checkFileAccess(string memory role, address id, bytes32 fileHashId, address pat) {\r\n    uint pos;\r\n    //check if doctor trying to access the file\r\n    if(keccak256(abi.encodePacked(role)) == keccak256(\"doctor\")) {\r\n        //check if patient granted access to doctor\r\n        require(patientToDoctor[pat][id] > 0);\r\n        pos = patientToFile[pat][fileHashId];\r\n        require(pos > 0);   \r\n    }\r\n    //check if patient trying to access the file\r\n    else if(keccak256(abi.encodePacked(role)) == keccak256(\"patient\")) \r\n    {\r\n        //check if file belongs to patient\r\n        pos = patientToFile[id][fileHashId];\r\n        require(pos > 0);\r\n    }\r\n    _; \r\n  }\r\n  \r\n\r\n  modifier checkFile(bytes32 fileHashId) {\r\n    bytes memory tempString = bytes(hashToFile[fileHashId].file_name);\r\n    require(tempString.length > 0);//check if file exist\r\n    _;\r\n  }\r\n\r\n  //Event to emit when new patient registers\r\n  // event patientSignUp( address _patient, string message);\r\n\r\n  function signupPatient(string memory _name, uint8 _age) public {\r\n     //search for patient on blockchain by address \r\n     patient storage p = patients[msg.sender];\r\n     //check input name and age\r\n     require(keccak256(abi.encodePacked(_name)) != keccak256(\"\"));\r\n     require((_age > 0) && (_age < 100));\r\n     //Check if the patient already exists by address\r\n     require(!(p.id > address(0x0)));\r\n     //Add patient to blockchain\r\n    //  patients[msg.sender] = patient({name:_name,age:_age,id:msg.sender,files:new bytes32[](0),doctor_list:new address[](0), doctorAddedFiles: new bytes32[](0)});\r\n     patients[msg.sender] = patient({name:_name,age:_age,id:msg.sender,files:new bytes32[](0),doctor_list:new address[](0)});\r\n\r\n\r\n    //  emit patientSignUp( msg.sender, \" has registered as Patient\");\r\n  }\r\n  \r\n\r\n  //Event to emit when new doctor registers\r\n  // event doctorSignUp(address _doctor, string message);\r\n\r\n  function signupDoctor(string memory _name) public {\r\n      //search for doctor on blockchain\r\n      doctor storage d = doctors[msg.sender];\r\n      //check name of doctor\r\n      require(keccak256(abi.encodePacked(_name)) != keccak256(\"\"));\r\n      //check if doctor already exists\r\n      require(!(d.id > address(0x0)));\r\n      //Add the doctor to blockchain\r\n      doctors[msg.sender] = doctor({name:_name,id:msg.sender,patient_list:new address[](0)});\r\n      // emit doctorSignUp(msg.sender, \" has registered as Doctor\");\r\n  }\r\n\r\n\r\n  //Event to emit when patient grants access to doctor\r\n  event grantDoctorAccess( address patient_address, string message, string _doctor, address doctor_address);\r\n  \r\n  function grantAccessToDoctor(address doctor_id) public checkPatient(msg.sender) checkDoctor(doctor_id) {\r\n      patient storage p = patients[msg.sender];\r\n      doctor storage d = doctors[doctor_id];\r\n      require(patientToDoctor[msg.sender][doctor_id] < 1);// this means doctor already been access\r\n      \r\n      uint pos = p.doctor_list.push(doctor_id);// new length of array\r\n      \r\n      patientToDoctor[msg.sender][doctor_id] = pos;\r\n      d.patient_list.push(msg.sender);\r\n\r\n      emit grantDoctorAccess( msg.sender , \"Has granted access to the doctor below\", d.name , doctor_id);\r\n  }\r\n\r\n  function revokeAccessFromDoctor(address doctor_id) public checkPatient(msg.sender) checkDoctor(doctor_id) {\r\n    require(patientToDoctor[msg.sender][doctor_id] > 0);\r\n    patientToDoctor[msg.sender][doctor_id] = 0;\r\n  }\r\n  \r\n  //Event to emit when patient adds a file successfully\r\n  event fileAdd(string patient_name, address patient_address, string message);\r\n\r\n  function addUserFiles(string memory _file_name, string memory _file_type,string memory _file_hash) public checkPatient(msg.sender){\r\n      \r\n      patientFiles[msg.sender].push(files({file_name:_file_name, file_type:_file_type,file_hash:_file_hash}));\r\n      emit fileAdd(patients[msg.sender].name , msg.sender, \"Added a file\");\r\n  }\r\n\r\n\r\n  function getUserFiles(address sender)public view returns(files[] memory){\r\n      return patientFiles[sender];\r\n  }\r\n\r\n\r\n\r\n  function getPatientInfo() public view checkPatient(msg.sender) returns(string memory,address, uint8, bytes32[] memory , address[] memory) {\r\n      patient memory p = patients[msg.sender];\r\n      return (p.name,p.id, p.age, p.files, p.doctor_list);\r\n  }\r\n\r\n\r\n\r\n  function getDoctorInfo() public view checkDoctor(msg.sender) returns(string memory,address, address[] memory){\r\n      doctor memory d = doctors[msg.sender];\r\n      return (d.name,d.id, d.patient_list);\r\n  }\r\n  \r\n  // function checkProfile(address _user) public view onlyOwner returns(string memory, string memory){\r\n  //     patient memory p = patients[_user];\r\n  //     doctor memory d = doctors[_user];\r\n      \r\n  //     if(p.id > address(0x0))\r\n  //         return (p.name, 'patient');\r\n  //     else if(d.id > address(0x0))\r\n  //         return (d.name, 'doctor');\r\n  //     else\r\n  //         return ('', '');\r\n  //   }\r\n  \r\n  function getPatientInfoForDoctor(address pat) public view checkPatient(pat) checkDoctor(msg.sender) returns(string memory, uint8, address, files[] memory){\r\n      patient memory p = patients[pat];\r\n\r\n      //require(patientToDoctor[pat][msg.sender] > 0);\r\n\r\n      return (p.name, p.age, p.id, patientFiles[pat]);\r\n    }\r\n  \r\n  //  function getDoctorAddedFiles(address pat) public view checkPatient(pat) checkDoctor(msg.sender) returns(string memory, uint8, address, files[] memory){\r\n  //     patient memory p = patients[pat];\r\n\r\n  //     //require(patientToDoctor[pat][msg.sender] > 0);\r\n\r\n  //     return (p.name, p.age, p.id, doctorAddedPatientFiles[pat]);\r\n  //   }\r\n  \r\n  function getFileInfo(bytes32 fileHashId) private view checkFile(fileHashId) returns(filesInfo memory) {\r\n      return hashToFile[fileHashId];\r\n    }\r\n  \r\n  // function getFileSecret(bytes32 fileHashId, string memory role, address id, address pat) public view \r\n  // checkFile(fileHashId) checkFileAccess(role, id, fileHashId, pat)\r\n  // returns(string memory) {\r\n  //     filesInfo memory f = getFileInfo(fileHashId);\r\n  //     return (f.file_secret);\r\n  //   }\r\n\r\n  function getFileInfoDoctor(address doc, address pat, bytes32 fileHashId) public view \r\n  onlyOwner checkPatient(pat) checkDoctor(doc) checkFileAccess(\"doctor\", doc, fileHashId, pat)\r\n  returns(string memory, string memory) {\r\n      filesInfo memory f = getFileInfo(fileHashId);\r\n      return (f.file_name, f.file_type);\r\n    }\r\n  \r\n  function getFileInfoPatient(address pat, bytes32 fileHashId) public view \r\n  onlyOwner checkPatient(pat) checkFileAccess(\"patient\", pat, fileHashId, pat) returns(string memory, string memory) {\r\n      filesInfo memory f = getFileInfo(fileHashId);\r\n      return (f.file_name, f.file_type);\r\n    }\r\n\r\n  // event doctorAddFile(string doctor_name, address doctor_address, string message, address patient_address, string patient_name);\r\n\r\n  // function doctorAddConsultation(address _pat, string memory _file_name, string memory _file_type,string memory _file_hash) public checkDoctor(msg.sender)\r\n  // {\r\n  //   doctorAddedPatientFiles[_pat].push(files({file_name:_file_name, file_type:_file_type,file_hash:_file_hash}));\r\n  //   // emit doctorAddFile(doctors[msg.sender].name , msg.sender, \"Added consultation file for patient\", _pat, patients[_pat].name);\r\n  // }\r\n\r\n  function addDoctorOfferedConsultation(address _pat, string memory _consultation, string memory _medicine, string  memory _time) public checkDoctor(msg.sender)\r\n  {\r\n    doctorOfferedConsultationList[_pat].push(doctorOfferedConsultation({doc_id:msg.sender, consultation_advice:_consultation,medicine:_medicine,time_period:_time}));\r\n  }\r\n\r\n  function getDoctorConsultation(address _pat)  public view checkPatient(_pat) checkDoctor(msg.sender) returns (doctorOfferedConsultation[] memory){\r\n    return (doctorOfferedConsultationList[_pat]);\r\n  }\r\n\r\n  \r\n  function getDoctorConsultationForPatient()  public view checkPatient(msg.sender) returns (doctorOfferedConsultation[] memory){\r\n    return (doctorOfferedConsultationList[msg.sender]);\r\n  }\r\n}",
  "sourcePath": "C:\\Users\\URVASHI\\OneDrive\\Desktop\\Mnnit files\\THESIS WORK\\Thesis project\\My_projects\\EHR using Blockchain 1.1\\contracts\\optimized_healthCare.sol",
  "compiler": {
    "name": "solc",
    "version": "0.5.16+commit.9c3226ce.Emscripten.clang"
  },
  "schemaVersion": "3.4.4",
  "updatedAt": "2022-03-24T05:16:41.335Z",
  "networkType": "ethereum",
  "devdoc": {
    "methods": {}
  },
  "userdoc": {
    "methods": {}
  }
}