{
  "contractName": "optimized_healthCare",
  "abi": [
    {
      "inputs": [],
      "payable": false,
      "stateMutability": "nonpayable",
      "type": "constructor"
    },
    {
      "anonymous": false,
      "inputs": [
        {
          "indexed": false,
          "internalType": "address",
          "name": "_doctor",
          "type": "address"
        },
        {
          "indexed": false,
          "internalType": "string",
          "name": "message",
          "type": "string"
        }
      ],
      "name": "doctorSignUp",
      "type": "event"
    },
    {
      "anonymous": false,
      "inputs": [
        {
          "indexed": false,
          "internalType": "address",
          "name": "patient_address",
          "type": "address"
        },
        {
          "indexed": false,
          "internalType": "string",
          "name": "message",
          "type": "string"
        },
        {
          "indexed": false,
          "internalType": "string",
          "name": "_doctor",
          "type": "string"
        },
        {
          "indexed": false,
          "internalType": "address",
          "name": "doctor_address",
          "type": "address"
        }
      ],
      "name": "grantDoctorAccess",
      "type": "event"
    },
    {
      "anonymous": false,
      "inputs": [
        {
          "indexed": false,
          "internalType": "address",
          "name": "_patient",
          "type": "address"
        },
        {
          "indexed": false,
          "internalType": "string",
          "name": "message",
          "type": "string"
        }
      ],
      "name": "patientSignUp",
      "type": "event"
    },
    {
      "anonymous": false,
      "inputs": [
        {
          "indexed": false,
          "internalType": "address",
          "name": "patient_address",
          "type": "address"
        },
        {
          "indexed": false,
          "internalType": "string",
          "name": "message",
          "type": "string"
        },
        {
          "indexed": false,
          "internalType": "string",
          "name": "_doctor",
          "type": "string"
        },
        {
          "indexed": false,
          "internalType": "address",
          "name": "doctor_address",
          "type": "address"
        }
      ],
      "name": "revokeDoctorAccess",
      "type": "event"
    },
    {
      "constant": true,
      "inputs": [],
      "name": "doctorAddRecord",
      "outputs": [
        {
          "internalType": "contract DoctorAddRecord",
          "name": "",
          "type": "address"
        }
      ],
      "payable": false,
      "stateMutability": "view",
      "type": "function"
    },
    {
      "constant": false,
      "inputs": [
        {
          "internalType": "address",
          "name": "_id",
          "type": "address"
        },
        {
          "internalType": "string",
          "name": "_name",
          "type": "string"
        },
        {
          "internalType": "string",
          "name": "_location",
          "type": "string"
        }
      ],
      "name": "hospitalSignUp",
      "outputs": [],
      "payable": false,
      "stateMutability": "nonpayable",
      "type": "function"
    },
    {
      "constant": false,
      "inputs": [
        {
          "internalType": "string",
          "name": "_name",
          "type": "string"
        },
        {
          "internalType": "uint8",
          "name": "_age",
          "type": "uint8"
        },
        {
          "internalType": "string",
          "name": "_contact",
          "type": "string"
        },
        {
          "internalType": "string",
          "name": "_gender",
          "type": "string"
        }
      ],
      "name": "signupPatient",
      "outputs": [],
      "payable": false,
      "stateMutability": "nonpayable",
      "type": "function"
    },
    {
      "constant": false,
      "inputs": [
        {
          "internalType": "string",
          "name": "_name",
          "type": "string"
        },
        {
          "internalType": "string",
          "name": "_address",
          "type": "string"
        },
        {
          "internalType": "string",
          "name": "_contact",
          "type": "string"
        },
        {
          "internalType": "string",
          "name": "_specialization",
          "type": "string"
        }
      ],
      "name": "signupDoctor",
      "outputs": [],
      "payable": false,
      "stateMutability": "nonpayable",
      "type": "function"
    },
    {
      "constant": false,
      "inputs": [
        {
          "internalType": "address",
          "name": "doctor_id",
          "type": "address"
        }
      ],
      "name": "grantAccessToDoctor",
      "outputs": [],
      "payable": false,
      "stateMutability": "nonpayable",
      "type": "function"
    },
    {
      "constant": false,
      "inputs": [
        {
          "internalType": "address",
          "name": "doctor_id",
          "type": "address"
        }
      ],
      "name": "revokeAccessFromDoctor",
      "outputs": [],
      "payable": false,
      "stateMutability": "nonpayable",
      "type": "function"
    },
    {
      "constant": false,
      "inputs": [
        {
          "internalType": "string",
          "name": "_file_name",
          "type": "string"
        },
        {
          "internalType": "string",
          "name": "_file_type",
          "type": "string"
        },
        {
          "internalType": "string",
          "name": "_file_hash",
          "type": "string"
        }
      ],
      "name": "addUserFiles",
      "outputs": [],
      "payable": false,
      "stateMutability": "nonpayable",
      "type": "function"
    },
    {
      "constant": true,
      "inputs": [
        {
          "internalType": "address",
          "name": "sender",
          "type": "address"
        }
      ],
      "name": "getUserFiles",
      "outputs": [
        {
          "components": [
            {
              "internalType": "string",
              "name": "file_name",
              "type": "string"
            },
            {
              "internalType": "string",
              "name": "file_type",
              "type": "string"
            },
            {
              "internalType": "string",
              "name": "file_hash",
              "type": "string"
            }
          ],
          "internalType": "struct optimized_healthCare.files[]",
          "name": "",
          "type": "tuple[]"
        }
      ],
      "payable": false,
      "stateMutability": "view",
      "type": "function"
    },
    {
      "constant": true,
      "inputs": [],
      "name": "getPatientInfo",
      "outputs": [
        {
          "internalType": "string",
          "name": "",
          "type": "string"
        },
        {
          "internalType": "address",
          "name": "",
          "type": "address"
        },
        {
          "internalType": "uint8",
          "name": "",
          "type": "uint8"
        },
        {
          "internalType": "bytes32[]",
          "name": "",
          "type": "bytes32[]"
        },
        {
          "internalType": "address[]",
          "name": "",
          "type": "address[]"
        }
      ],
      "payable": false,
      "stateMutability": "view",
      "type": "function"
    },
    {
      "constant": true,
      "inputs": [],
      "name": "getDoctorInfo",
      "outputs": [
        {
          "internalType": "string",
          "name": "",
          "type": "string"
        },
        {
          "internalType": "address",
          "name": "",
          "type": "address"
        },
        {
          "internalType": "address[]",
          "name": "",
          "type": "address[]"
        }
      ],
      "payable": false,
      "stateMutability": "view",
      "type": "function"
    },
    {
      "constant": true,
      "inputs": [
        {
          "internalType": "address",
          "name": "pat",
          "type": "address"
        }
      ],
      "name": "getPatientInfoForDoctor",
      "outputs": [
        {
          "internalType": "string",
          "name": "",
          "type": "string"
        },
        {
          "internalType": "uint8",
          "name": "",
          "type": "uint8"
        },
        {
          "internalType": "address",
          "name": "",
          "type": "address"
        },
        {
          "components": [
            {
              "internalType": "string",
              "name": "file_name",
              "type": "string"
            },
            {
              "internalType": "string",
              "name": "file_type",
              "type": "string"
            },
            {
              "internalType": "string",
              "name": "file_hash",
              "type": "string"
            }
          ],
          "internalType": "struct optimized_healthCare.files[]",
          "name": "",
          "type": "tuple[]"
        }
      ],
      "payable": false,
      "stateMutability": "view",
      "type": "function"
    },
    {
      "constant": true,
      "inputs": [],
      "name": "getHospitalInfo",
      "outputs": [
        {
          "internalType": "address",
          "name": "",
          "type": "address"
        },
        {
          "internalType": "string",
          "name": "",
          "type": "string"
        },
        {
          "internalType": "string",
          "name": "",
          "type": "string"
        }
      ],
      "payable": false,
      "stateMutability": "view",
      "type": "function"
    },
    {
      "constant": true,
      "inputs": [],
      "name": "getOwnerInfo",
      "outputs": [
        {
          "internalType": "address",
          "name": "",
          "type": "address"
        }
      ],
      "payable": false,
      "stateMutability": "view",
      "type": "function"
    },
    {
      "constant": false,
      "inputs": [
        {
          "internalType": "address",
          "name": "_user",
          "type": "address"
        },
        {
          "internalType": "address",
          "name": "_patient",
          "type": "address"
        }
      ],
      "name": "hospitalGrantAccess",
      "outputs": [],
      "payable": false,
      "stateMutability": "nonpayable",
      "type": "function"
    },
    {
      "constant": false,
      "inputs": [
        {
          "internalType": "address",
          "name": "_id",
          "type": "address"
        },
        {
          "internalType": "string",
          "name": "_name",
          "type": "string"
        },
        {
          "internalType": "string",
          "name": "_location",
          "type": "string"
        }
      ],
      "name": "addHospital",
      "outputs": [],
      "payable": false,
      "stateMutability": "nonpayable",
      "type": "function"
    }
  ],
  "bytecode": "0x608060405234801561001057600080fd5b50735686638c16d74b6ef74ca24a10098a9360ac73f0600160006101000a81548173ffffffffffffffffffffffffffffffffffffffff021916908373ffffffffffffffffffffffffffffffffffffffff160217905550615e6b80620000766000396000f3fe608060405234801561001057600080fd5b50600436106100f55760003560e01c8063629e559d11610097578063c4fa7adb11610066578063c4fa7adb1461024c578063c671cbc51461026c578063facf83231461028a578063fe59cc1a146102a8576100f5565b8063629e559d146101d85780636a775778146101f4578063828566fc14610210578063b380f5c61461022c576100f5565b80632cecb523116100d35780632cecb52314610162578063326df6641461017e5780633b0e67ec146101a05780633c3f5d8d146101bc576100f5565b80631c8e251c146100fa5780631fc37922146101165780632ae48e4014610146575b600080fd5b610114600480360361010f919081019061517f565b6102db565b005b610130600480360361012b919081019061517f565b610e3f565b60405161013d9190615a6b565b60405180910390f35b610160600480360361015b9190810190615263565b6110c3565b005b61017c600480360361017791908101906151a8565b6111a7565b005b610186611928565b604051610197959493929190615aed565b60405180910390f35b6101ba60048036036101b591908101906151e4565b61229e565b005b6101d660048036036101d191908101906153bd565b612664565b005b6101f260048036036101ed919081019061517f565b6129e8565b005b61020e600480360361020991908101906152fa565b61339a565b005b61022a600480360361022591908101906151e4565b61364c565b005b610234613972565b60405161024393929190615aa8565b60405180910390f35b610254614159565b60405161026393929190615a26565b60405180910390f35b61027461459b565b6040516102819190615a8d565b60405180910390f35b6102926145c0565b60405161029f919061590d565b60405180910390f35b6102c260048036036102bd919081019061517f565b614644565b6040516102d29493929190615b55565b60405180910390f35b336102e4614d68565b600360008373ffffffffffffffffffffffffffffffffffffffff1673ffffffffffffffffffffffffffffffffffffffff16815260200190815260200160002060405180610100016040529081600082018054600181600116156101000203166002900480601f0160208091040260200160405190810160405280929190818152602001828054600181600116156101000203166002900480156103c85780601f1061039d576101008083540402835291602001916103c8565b820191906000526020600020905b8154815290600101906020018083116103ab57829003601f168201915b505050505081526020016001820160009054906101000a900460ff1660ff1660ff1681526020016001820160019054906101000a900473ffffffffffffffffffffffffffffffffffffffff1673ffffffffffffffffffffffffffffffffffffffff1673ffffffffffffffffffffffffffffffffffffffff168152602001600282018054600181600116156101000203166002900480601f0160208091040260200160405190810160405280929190818152602001828054600181600116156101000203166002900480156104dd5780601f106104b2576101008083540402835291602001916104dd565b820191906000526020600020905b8154815290600101906020018083116104c057829003601f168201915b50505050508152602001600382018054600181600116156101000203166002900480601f01602080910402602001604051908101604052809291908181526020018280546001816001161561010002031660029004801561057f5780601f106105545761010080835404028352916020019161057f565b820191906000526020600020905b81548152906001019060200180831161056257829003601f168201915b5050505050815260200160048201805480602002602001604051908101604052809291908181526020016000905b82821015610669578382906000526020600020018054600181600116156101000203166002900480601f0160208091040260200160405190810160405280929190818152602001828054600181600116156101000203166002900480156106555780601f1061062a57610100808354040283529160200191610655565b820191906000526020600020905b81548152906001019060200180831161063857829003601f168201915b5050505050815260200190600101906105ad565b505050508152602001600582018054806020026020016040519081016040528092919081815260200182805480156106c057602002820191906000526020600020905b8154815260200190600101908083116106ac575b505050505081526020016006820180548060200260200160405190810160405280929190818152602001828054801561074e57602002820191906000526020600020905b8160009054906101000a900473ffffffffffffffffffffffffffffffffffffffff1673ffffffffffffffffffffffffffffffffffffffff1681526020019060010190808311610704575b5050505050815250509050600073ffffffffffffffffffffffffffffffffffffffff16816040015173ffffffffffffffffffffffffffffffffffffffff161161079657600080fd5b8261079f614dc6565b600260008373ffffffffffffffffffffffffffffffffffffffff1673ffffffffffffffffffffffffffffffffffffffff1681526020019081526020016000206040518060c0016040529081600082018054600181600116156101000203166002900480601f0160208091040260200160405190810160405280929190818152602001828054600181600116156101000203166002900480156108825780601f1061085757610100808354040283529160200191610882565b820191906000526020600020905b81548152906001019060200180831161086557829003601f168201915b505050505081526020016001820160009054906101000a900473ffffffffffffffffffffffffffffffffffffffff1673ffffffffffffffffffffffffffffffffffffffff1673ffffffffffffffffffffffffffffffffffffffff168152602001600282018054600181600116156101000203166002900480601f01602080910402602001604051908101604052809291908181526020018280546001816001161561010002031660029004801561097a5780601f1061094f5761010080835404028352916020019161097a565b820191906000526020600020905b81548152906001019060200180831161095d57829003601f168201915b50505050508152602001600382018054600181600116156101000203166002900480601f016020809104026020016040519081016040528092919081815260200182805460018160011615610100020316600290048015610a1c5780601f106109f157610100808354040283529160200191610a1c565b820191906000526020600020905b8154815290600101906020018083116109ff57829003601f168201915b50505050508152602001600482018054600181600116156101000203166002900480601f016020809104026020016040519081016040528092919081815260200182805460018160011615610100020316600290048015610abe5780601f10610a9357610100808354040283529160200191610abe565b820191906000526020600020905b815481529060010190602001808311610aa157829003601f168201915b5050505050815260200160058201805480602002602001604051908101604052809291908181526020018280548015610b4c57602002820191906000526020600020905b8160009054906101000a900473ffffffffffffffffffffffffffffffffffffffff1673ffffffffffffffffffffffffffffffffffffffff1681526020019060010190808311610b02575b5050505050815250509050600073ffffffffffffffffffffffffffffffffffffffff16816020015173ffffffffffffffffffffffffffffffffffffffff1611610b9457600080fd5b6000600360003373ffffffffffffffffffffffffffffffffffffffff1673ffffffffffffffffffffffffffffffffffffffff16815260200190815260200160002090506000600260008873ffffffffffffffffffffffffffffffffffffffff1673ffffffffffffffffffffffffffffffffffffffff16815260200190815260200160002090506001600460003373ffffffffffffffffffffffffffffffffffffffff1673ffffffffffffffffffffffffffffffffffffffff16815260200190815260200160002060008973ffffffffffffffffffffffffffffffffffffffff1673ffffffffffffffffffffffffffffffffffffffff1681526020019081526020016000205410610ca357600080fd5b6000826006018890806001815401808255809150509060018203906000526020600020016000909192909190916101000a81548173ffffffffffffffffffffffffffffffffffffffff021916908373ffffffffffffffffffffffffffffffffffffffff160217905550905080600460003373ffffffffffffffffffffffffffffffffffffffff1673ffffffffffffffffffffffffffffffffffffffff16815260200190815260200160002060008a73ffffffffffffffffffffffffffffffffffffffff1673ffffffffffffffffffffffffffffffffffffffff16815260200190815260200160002081905550816005013390806001815401808255809150509060018203906000526020600020016000909192909190916101000a81548173ffffffffffffffffffffffffffffffffffffffff021916908373ffffffffffffffffffffffffffffffffffffffff160217905550507fe239c4e608cb32aaf8ef7214f811e28ea27c91cad9f719be74579c18fc2e983133836000018a604051610e2d93929190615984565b60405180910390a15050505050505050565b6060600660008373ffffffffffffffffffffffffffffffffffffffff1673ffffffffffffffffffffffffffffffffffffffff168152602001908152602001600020805480602002602001604051908101604052809291908181526020016000905b828210156110b85783829060005260206000209060030201604051806060016040529081600082018054600181600116156101000203166002900480601f016020809104026020016040519081016040528092919081815260200182805460018160011615610100020316600290048015610f5c5780601f10610f3157610100808354040283529160200191610f5c565b820191906000526020600020905b815481529060010190602001808311610f3f57829003601f168201915b50505050508152602001600182018054600181600116156101000203166002900480601f016020809104026020016040519081016040528092919081815260200182805460018160011615610100020316600290048015610ffe5780601f10610fd357610100808354040283529160200191610ffe565b820191906000526020600020905b815481529060010190602001808311610fe157829003601f168201915b50505050508152602001600282018054600181600116156101000203166002900480601f0160208091040260200160405190810160405280929190818152602001828054600181600116156101000203166002900480156110a05780601f10611075576101008083540402835291602001916110a0565b820191906000526020600020905b81548152906001019060200180831161108357829003601f168201915b50505050508152505081526020019060010190610ea0565b505050509050919050565b600660003373ffffffffffffffffffffffffffffffffffffffff1673ffffffffffffffffffffffffffffffffffffffff168152602001908152602001600020604051806060016040528085815260200184815260200183815250908060018154018082558091505090600182039060005260206000209060030201600090919290919091506000820151816000019080519060200190611164929190614e12565b506020820151816001019080519060200190611181929190614e12565b50604082015181600201908051906020019061119e929190614e12565b50505050505050565b806111b0614d68565b600360008373ffffffffffffffffffffffffffffffffffffffff1673ffffffffffffffffffffffffffffffffffffffff16815260200190815260200160002060405180610100016040529081600082018054600181600116156101000203166002900480601f0160208091040260200160405190810160405280929190818152602001828054600181600116156101000203166002900480156112945780601f1061126957610100808354040283529160200191611294565b820191906000526020600020905b81548152906001019060200180831161127757829003601f168201915b505050505081526020016001820160009054906101000a900460ff1660ff1660ff1681526020016001820160019054906101000a900473ffffffffffffffffffffffffffffffffffffffff1673ffffffffffffffffffffffffffffffffffffffff1673ffffffffffffffffffffffffffffffffffffffff168152602001600282018054600181600116156101000203166002900480601f0160208091040260200160405190810160405280929190818152602001828054600181600116156101000203166002900480156113a95780601f1061137e576101008083540402835291602001916113a9565b820191906000526020600020905b81548152906001019060200180831161138c57829003601f168201915b50505050508152602001600382018054600181600116156101000203166002900480601f01602080910402602001604051908101604052809291908181526020018280546001816001161561010002031660029004801561144b5780601f106114205761010080835404028352916020019161144b565b820191906000526020600020905b81548152906001019060200180831161142e57829003601f168201915b5050505050815260200160048201805480602002602001604051908101604052809291908181526020016000905b82821015611535578382906000526020600020018054600181600116156101000203166002900480601f0160208091040260200160405190810160405280929190818152602001828054600181600116156101000203166002900480156115215780601f106114f657610100808354040283529160200191611521565b820191906000526020600020905b81548152906001019060200180831161150457829003601f168201915b505050505081526020019060010190611479565b5050505081526020016005820180548060200260200160405190810160405280929190818152602001828054801561158c57602002820191906000526020600020905b815481526020019060010190808311611578575b505050505081526020016006820180548060200260200160405190810160405280929190818152602001828054801561161a57602002820191906000526020600020905b8160009054906101000a900473ffffffffffffffffffffffffffffffffffffffff1673ffffffffffffffffffffffffffffffffffffffff16815260200190600101908083116115d0575b5050505050815250509050600073ffffffffffffffffffffffffffffffffffffffff16816040015173ffffffffffffffffffffffffffffffffffffffff161161166257600080fd5b6000600260008673ffffffffffffffffffffffffffffffffffffffff1673ffffffffffffffffffffffffffffffffffffffff16815260200190815260200160002090506000600360008673ffffffffffffffffffffffffffffffffffffffff1673ffffffffffffffffffffffffffffffffffffffff1681526020019081526020016000209050600073ffffffffffffffffffffffffffffffffffffffff168260010160009054906101000a900473ffffffffffffffffffffffffffffffffffffffff1673ffffffffffffffffffffffffffffffffffffffff161115611920576001600460008773ffffffffffffffffffffffffffffffffffffffff1673ffffffffffffffffffffffffffffffffffffffff16815260200190815260200160002060008873ffffffffffffffffffffffffffffffffffffffff1673ffffffffffffffffffffffffffffffffffffffff16815260200190815260200160002054106117ca57600080fd5b6000816006018790806001815401808255809150509060018203906000526020600020016000909192909190916101000a81548173ffffffffffffffffffffffffffffffffffffffff021916908373ffffffffffffffffffffffffffffffffffffffff160217905550905080600460008873ffffffffffffffffffffffffffffffffffffffff1673ffffffffffffffffffffffffffffffffffffffff16815260200190815260200160002060008973ffffffffffffffffffffffffffffffffffffffff1673ffffffffffffffffffffffffffffffffffffffff16815260200190815260200160002081905550826005018690806001815401808255809150509060018203906000526020600020016000909192909190916101000a81548173ffffffffffffffffffffffffffffffffffffffff021916908373ffffffffffffffffffffffffffffffffffffffff16021790555050505b505050505050565b606060008060608033611939614d68565b600360008373ffffffffffffffffffffffffffffffffffffffff1673ffffffffffffffffffffffffffffffffffffffff16815260200190815260200160002060405180610100016040529081600082018054600181600116156101000203166002900480601f016020809104026020016040519081016040528092919081815260200182805460018160011615610100020316600290048015611a1d5780601f106119f257610100808354040283529160200191611a1d565b820191906000526020600020905b815481529060010190602001808311611a0057829003601f168201915b505050505081526020016001820160009054906101000a900460ff1660ff1660ff1681526020016001820160019054906101000a900473ffffffffffffffffffffffffffffffffffffffff1673ffffffffffffffffffffffffffffffffffffffff1673ffffffffffffffffffffffffffffffffffffffff168152602001600282018054600181600116156101000203166002900480601f016020809104026020016040519081016040528092919081815260200182805460018160011615610100020316600290048015611b325780601f10611b0757610100808354040283529160200191611b32565b820191906000526020600020905b815481529060010190602001808311611b1557829003601f168201915b50505050508152602001600382018054600181600116156101000203166002900480601f016020809104026020016040519081016040528092919081815260200182805460018160011615610100020316600290048015611bd45780601f10611ba957610100808354040283529160200191611bd4565b820191906000526020600020905b815481529060010190602001808311611bb757829003601f168201915b5050505050815260200160048201805480602002602001604051908101604052809291908181526020016000905b82821015611cbe578382906000526020600020018054600181600116156101000203166002900480601f016020809104026020016040519081016040528092919081815260200182805460018160011615610100020316600290048015611caa5780601f10611c7f57610100808354040283529160200191611caa565b820191906000526020600020905b815481529060010190602001808311611c8d57829003601f168201915b505050505081526020019060010190611c02565b50505050815260200160058201805480602002602001604051908101604052809291908181526020018280548015611d1557602002820191906000526020600020905b815481526020019060010190808311611d01575b5050505050815260200160068201805480602002602001604051908101604052809291908181526020018280548015611da357602002820191906000526020600020905b8160009054906101000a900473ffffffffffffffffffffffffffffffffffffffff1673ffffffffffffffffffffffffffffffffffffffff1681526020019060010190808311611d59575b5050505050815250509050600073ffffffffffffffffffffffffffffffffffffffff16816040015173ffffffffffffffffffffffffffffffffffffffff1611611deb57600080fd5b611df3614d68565b600360003373ffffffffffffffffffffffffffffffffffffffff1673ffffffffffffffffffffffffffffffffffffffff16815260200190815260200160002060405180610100016040529081600082018054600181600116156101000203166002900480601f016020809104026020016040519081016040528092919081815260200182805460018160011615610100020316600290048015611ed75780601f10611eac57610100808354040283529160200191611ed7565b820191906000526020600020905b815481529060010190602001808311611eba57829003601f168201915b505050505081526020016001820160009054906101000a900460ff1660ff1660ff1681526020016001820160019054906101000a900473ffffffffffffffffffffffffffffffffffffffff1673ffffffffffffffffffffffffffffffffffffffff1673ffffffffffffffffffffffffffffffffffffffff168152602001600282018054600181600116156101000203166002900480601f016020809104026020016040519081016040528092919081815260200182805460018160011615610100020316600290048015611fec5780601f10611fc157610100808354040283529160200191611fec565b820191906000526020600020905b815481529060010190602001808311611fcf57829003601f168201915b50505050508152602001600382018054600181600116156101000203166002900480601f01602080910402602001604051908101604052809291908181526020018280546001816001161561010002031660029004801561208e5780601f106120635761010080835404028352916020019161208e565b820191906000526020600020905b81548152906001019060200180831161207157829003601f168201915b5050505050815260200160048201805480602002602001604051908101604052809291908181526020016000905b82821015612178578382906000526020600020018054600181600116156101000203166002900480601f0160208091040260200160405190810160405280929190818152602001828054600181600116156101000203166002900480156121645780601f1061213957610100808354040283529160200191612164565b820191906000526020600020905b81548152906001019060200180831161214757829003601f168201915b5050505050815260200190600101906120bc565b505050508152602001600582018054806020026020016040519081016040528092919081815260200182805480156121cf57602002820191906000526020600020905b8154815260200190600101908083116121bb575b505050505081526020016006820180548060200260200160405190810160405280929190818152602001828054801561225d57602002820191906000526020600020905b8160009054906101000a900473ffffffffffffffffffffffffffffffffffffffff1673ffffffffffffffffffffffffffffffffffffffff1681526020019060010190808311612213575b50505050508152505090508060000151816040015182602001518360c001518460e00151849450819150809050975097509750975097505050509091929394565b600160009054906101000a900473ffffffffffffffffffffffffffffffffffffffff1673ffffffffffffffffffffffffffffffffffffffff163373ffffffffffffffffffffffffffffffffffffffff16146122f857600080fd5b612300614e92565b600760008573ffffffffffffffffffffffffffffffffffffffff1673ffffffffffffffffffffffffffffffffffffffff1681526020019081526020016000206040518060600160405290816000820160009054906101000a900473ffffffffffffffffffffffffffffffffffffffff1673ffffffffffffffffffffffffffffffffffffffff1673ffffffffffffffffffffffffffffffffffffffff168152602001600182018054600181600116156101000203166002900480601f0160208091040260200160405190810160405280929190818152602001828054600181600116156101000203166002900480156124395780601f1061240e57610100808354040283529160200191612439565b820191906000526020600020905b81548152906001019060200180831161241c57829003601f168201915b50505050508152602001600282018054600181600116156101000203166002900480601f0160208091040260200160405190810160405280929190818152602001828054600181600116156101000203166002900480156124db5780601f106124b0576101008083540402835291602001916124db565b820191906000526020600020905b8154815290600101906020018083116124be57829003601f168201915b5050505050815250509050600073ffffffffffffffffffffffffffffffffffffffff16816000015173ffffffffffffffffffffffffffffffffffffffff16111561252457600080fd5b604051612530906158f8565b60405180910390208360405160200161254991906158e1565b60405160208183030381529060405280519060200120141561256a57600080fd5b60405180606001604052808573ffffffffffffffffffffffffffffffffffffffff16815260200184815260200183815250600760008673ffffffffffffffffffffffffffffffffffffffff1673ffffffffffffffffffffffffffffffffffffffff16815260200190815260200160002060008201518160000160006101000a81548173ffffffffffffffffffffffffffffffffffffffff021916908373ffffffffffffffffffffffffffffffffffffffff160217905550602082015181600101908051906020019061263d929190614e12565b50604082015181600201908051906020019061265a929190614e12565b5090505050505050565b6000600360003373ffffffffffffffffffffffffffffffffffffffff1673ffffffffffffffffffffffffffffffffffffffff16815260200190815260200160002090506040516126b3906158f8565b6040518091039020856040516020016126cc91906158e1565b6040516020818303038152906040528051906020012014156126ed57600080fd5b60008460ff16118015612703575060648460ff16105b61270c57600080fd5b600073ffffffffffffffffffffffffffffffffffffffff168160010160019054906101000a900473ffffffffffffffffffffffffffffffffffffffff1673ffffffffffffffffffffffffffffffffffffffff16111561276a57600080fd5b6040518061010001604052808681526020018560ff1681526020013373ffffffffffffffffffffffffffffffffffffffff16815260200183815260200184815260200160006040519080825280602002602001820160405280156127e257816020015b60608152602001906001900390816127cd5790505b50815260200160006040519080825280602002602001820160405280156128185781602001602082028038833980820191505090505b508152602001600060405190808252806020026020018201604052801561284e5781602001602082028038833980820191505090505b50815250600360003373ffffffffffffffffffffffffffffffffffffffff1673ffffffffffffffffffffffffffffffffffffffff16815260200190815260200160002060008201518160000190805190602001906128ad929190614e12565b5060208201518160010160006101000a81548160ff021916908360ff16021790555060408201518160010160016101000a81548173ffffffffffffffffffffffffffffffffffffffff021916908373ffffffffffffffffffffffffffffffffffffffff1602179055506060820151816002019080519060200190612932929190614e12565b50608082015181600301908051906020019061294f929190614e12565b5060a082015181600401908051906020019061296c929190614ec9565b5060c0820151816005019080519060200190612989929190614f29565b5060e08201518160060190805190602001906129a6929190614f76565b509050507ff0c358f29581a43889abe78660babebd0ac62878d0ed89571af6c2168bbcda0c336040516129d99190615956565b60405180910390a15050505050565b336129f1614d68565b600360008373ffffffffffffffffffffffffffffffffffffffff1673ffffffffffffffffffffffffffffffffffffffff16815260200190815260200160002060405180610100016040529081600082018054600181600116156101000203166002900480601f016020809104026020016040519081016040528092919081815260200182805460018160011615610100020316600290048015612ad55780601f10612aaa57610100808354040283529160200191612ad5565b820191906000526020600020905b815481529060010190602001808311612ab857829003601f168201915b505050505081526020016001820160009054906101000a900460ff1660ff1660ff1681526020016001820160019054906101000a900473ffffffffffffffffffffffffffffffffffffffff1673ffffffffffffffffffffffffffffffffffffffff1673ffffffffffffffffffffffffffffffffffffffff168152602001600282018054600181600116156101000203166002900480601f016020809104026020016040519081016040528092919081815260200182805460018160011615610100020316600290048015612bea5780601f10612bbf57610100808354040283529160200191612bea565b820191906000526020600020905b815481529060010190602001808311612bcd57829003601f168201915b50505050508152602001600382018054600181600116156101000203166002900480601f016020809104026020016040519081016040528092919081815260200182805460018160011615610100020316600290048015612c8c5780601f10612c6157610100808354040283529160200191612c8c565b820191906000526020600020905b815481529060010190602001808311612c6f57829003601f168201915b5050505050815260200160048201805480602002602001604051908101604052809291908181526020016000905b82821015612d76578382906000526020600020018054600181600116156101000203166002900480601f016020809104026020016040519081016040528092919081815260200182805460018160011615610100020316600290048015612d625780601f10612d3757610100808354040283529160200191612d62565b820191906000526020600020905b815481529060010190602001808311612d4557829003601f168201915b505050505081526020019060010190612cba565b50505050815260200160058201805480602002602001604051908101604052809291908181526020018280548015612dcd57602002820191906000526020600020905b815481526020019060010190808311612db9575b5050505050815260200160068201805480602002602001604051908101604052809291908181526020018280548015612e5b57602002820191906000526020600020905b8160009054906101000a900473ffffffffffffffffffffffffffffffffffffffff1673ffffffffffffffffffffffffffffffffffffffff1681526020019060010190808311612e11575b5050505050815250509050600073ffffffffffffffffffffffffffffffffffffffff16816040015173ffffffffffffffffffffffffffffffffffffffff1611612ea357600080fd5b6000600460003373ffffffffffffffffffffffffffffffffffffffff1673ffffffffffffffffffffffffffffffffffffffff16815260200190815260200160002060008573ffffffffffffffffffffffffffffffffffffffff1673ffffffffffffffffffffffffffffffffffffffff1681526020019081526020016000205411612f2c57600080fd5b6000600460003373ffffffffffffffffffffffffffffffffffffffff1673ffffffffffffffffffffffffffffffffffffffff16815260200190815260200160002060008573ffffffffffffffffffffffffffffffffffffffff1673ffffffffffffffffffffffffffffffffffffffff168152602001908152602001600020819055506000600360003373ffffffffffffffffffffffffffffffffffffffff1673ffffffffffffffffffffffffffffffffffffffff16815260200190815260200160002090506000600260008673ffffffffffffffffffffffffffffffffffffffff1673ffffffffffffffffffffffffffffffffffffffff1681526020019081526020016000209050600082600601805490509050600080905060008090505b828110156130d5578773ffffffffffffffffffffffffffffffffffffffff1685600601828154811061307957fe5b9060005260206000200160009054906101000a900473ffffffffffffffffffffffffffffffffffffffff1673ffffffffffffffffffffffffffffffffffffffff1614156130c8578091506130d5565b808060010191505061304b565b505b60018203811015613183578360060160018201815481106130f457fe5b9060005260206000200160009054906101000a900473ffffffffffffffffffffffffffffffffffffffff1684600601828154811061312e57fe5b9060005260206000200160006101000a81548173ffffffffffffffffffffffffffffffffffffffff021916908373ffffffffffffffffffffffffffffffffffffffff16021790555080806001019150506130d7565b8360060180548061319057fe5b6001900381819060005260206000200160006101000a81549073ffffffffffffffffffffffffffffffffffffffff02191690559055826005018054905091506000905060008090505b82811015613263573373ffffffffffffffffffffffffffffffffffffffff1684600501828154811061320757fe5b9060005260206000200160009054906101000a900473ffffffffffffffffffffffffffffffffffffffff1673ffffffffffffffffffffffffffffffffffffffff16141561325657809150613263565b80806001019150506131d9565b505b600182038110156133115782600501600182018154811061328257fe5b9060005260206000200160009054906101000a900473ffffffffffffffffffffffffffffffffffffffff168360050182815481106132bc57fe5b9060005260206000200160006101000a81548173ffffffffffffffffffffffffffffffffffffffff021916908373ffffffffffffffffffffffffffffffffffffffff1602179055508080600101915050613265565b8260050180548061331e57fe5b6001900381819060005260206000200160006101000a81549073ffffffffffffffffffffffffffffffffffffffff021916905590557f212bcbf580385b870fe82b11fdd99334c16d187419727ccfb2b89aea2f872785338460000189604051613389939291906159d5565b60405180910390a150505050505050565b6000600260003373ffffffffffffffffffffffffffffffffffffffff1673ffffffffffffffffffffffffffffffffffffffff16815260200190815260200160002090506040516133e9906158f8565b60405180910390208560405160200161340291906158e1565b60405160208183030381529060405280519060200120141561342357600080fd5b600073ffffffffffffffffffffffffffffffffffffffff168160010160009054906101000a900473ffffffffffffffffffffffffffffffffffffffff1673ffffffffffffffffffffffffffffffffffffffff16111561348157600080fd5b6040518060c001604052808681526020013373ffffffffffffffffffffffffffffffffffffffff16815260200185815260200184815260200183815260200160006040519080825280602002602001820160405280156134f05781602001602082028038833980820191505090505b50815250600260003373ffffffffffffffffffffffffffffffffffffffff1673ffffffffffffffffffffffffffffffffffffffff168152602001908152602001600020600082015181600001908051906020019061354f929190614e12565b5060208201518160010160006101000a81548173ffffffffffffffffffffffffffffffffffffffff021916908373ffffffffffffffffffffffffffffffffffffffff16021790555060408201518160020190805190602001906135b3929190614e12565b5060608201518160030190805190602001906135d0929190614e12565b5060808201518160040190805190602001906135ed929190614e12565b5060a082015181600501908051906020019061360a929190614f76565b509050507fdd0aa1d3beead09f31cc046643e0d63829e7c7f43e532c2523d978bc9c3bfb333360405161363d9190615928565b60405180910390a15050505050565b613654614e92565b600760008573ffffffffffffffffffffffffffffffffffffffff1673ffffffffffffffffffffffffffffffffffffffff1681526020019081526020016000206040518060600160405290816000820160009054906101000a900473ffffffffffffffffffffffffffffffffffffffff1673ffffffffffffffffffffffffffffffffffffffff1673ffffffffffffffffffffffffffffffffffffffff168152602001600182018054600181600116156101000203166002900480601f01602080910402602001604051908101604052809291908181526020018280546001816001161561010002031660029004801561378d5780601f106137625761010080835404028352916020019161378d565b820191906000526020600020905b81548152906001019060200180831161377057829003601f168201915b50505050508152602001600282018054600181600116156101000203166002900480601f01602080910402602001604051908101604052809291908181526020018280546001816001161561010002031660029004801561382f5780601f106138045761010080835404028352916020019161382f565b820191906000526020600020905b81548152906001019060200180831161381257829003601f168201915b5050505050815250509050600073ffffffffffffffffffffffffffffffffffffffff16816000015173ffffffffffffffffffffffffffffffffffffffff16111561387857600080fd5b60405180606001604052808573ffffffffffffffffffffffffffffffffffffffff16815260200184815260200183815250600760008673ffffffffffffffffffffffffffffffffffffffff1673ffffffffffffffffffffffffffffffffffffffff16815260200190815260200160002060008201518160000160006101000a81548173ffffffffffffffffffffffffffffffffffffffff021916908373ffffffffffffffffffffffffffffffffffffffff160217905550602082015181600101908051906020019061394b929190614e12565b506040820151816002019080519060200190613968929190614e12565b5090505050505050565b60606000606033613981614dc6565b600260008373ffffffffffffffffffffffffffffffffffffffff1673ffffffffffffffffffffffffffffffffffffffff1681526020019081526020016000206040518060c0016040529081600082018054600181600116156101000203166002900480601f016020809104026020016040519081016040528092919081815260200182805460018160011615610100020316600290048015613a645780601f10613a3957610100808354040283529160200191613a64565b820191906000526020600020905b815481529060010190602001808311613a4757829003601f168201915b505050505081526020016001820160009054906101000a900473ffffffffffffffffffffffffffffffffffffffff1673ffffffffffffffffffffffffffffffffffffffff1673ffffffffffffffffffffffffffffffffffffffff168152602001600282018054600181600116156101000203166002900480601f016020809104026020016040519081016040528092919081815260200182805460018160011615610100020316600290048015613b5c5780601f10613b3157610100808354040283529160200191613b5c565b820191906000526020600020905b815481529060010190602001808311613b3f57829003601f168201915b50505050508152602001600382018054600181600116156101000203166002900480601f016020809104026020016040519081016040528092919081815260200182805460018160011615610100020316600290048015613bfe5780601f10613bd357610100808354040283529160200191613bfe565b820191906000526020600020905b815481529060010190602001808311613be157829003601f168201915b50505050508152602001600482018054600181600116156101000203166002900480601f016020809104026020016040519081016040528092919081815260200182805460018160011615610100020316600290048015613ca05780601f10613c7557610100808354040283529160200191613ca0565b820191906000526020600020905b815481529060010190602001808311613c8357829003601f168201915b5050505050815260200160058201805480602002602001604051908101604052809291908181526020018280548015613d2e57602002820191906000526020600020905b8160009054906101000a900473ffffffffffffffffffffffffffffffffffffffff1673ffffffffffffffffffffffffffffffffffffffff1681526020019060010190808311613ce4575b5050505050815250509050600073ffffffffffffffffffffffffffffffffffffffff16816020015173ffffffffffffffffffffffffffffffffffffffff1611613d7657600080fd5b613d7e614dc6565b600260003373ffffffffffffffffffffffffffffffffffffffff1673ffffffffffffffffffffffffffffffffffffffff1681526020019081526020016000206040518060c0016040529081600082018054600181600116156101000203166002900480601f016020809104026020016040519081016040528092919081815260200182805460018160011615610100020316600290048015613e615780601f10613e3657610100808354040283529160200191613e61565b820191906000526020600020905b815481529060010190602001808311613e4457829003601f168201915b505050505081526020016001820160009054906101000a900473ffffffffffffffffffffffffffffffffffffffff1673ffffffffffffffffffffffffffffffffffffffff1673ffffffffffffffffffffffffffffffffffffffff168152602001600282018054600181600116156101000203166002900480601f016020809104026020016040519081016040528092919081815260200182805460018160011615610100020316600290048015613f595780601f10613f2e57610100808354040283529160200191613f59565b820191906000526020600020905b815481529060010190602001808311613f3c57829003601f168201915b50505050508152602001600382018054600181600116156101000203166002900480601f016020809104026020016040519081016040528092919081815260200182805460018160011615610100020316600290048015613ffb5780601f10613fd057610100808354040283529160200191613ffb565b820191906000526020600020905b815481529060010190602001808311613fde57829003601f168201915b50505050508152602001600482018054600181600116156101000203166002900480601f01602080910402602001604051908101604052809291908181526020018280546001816001161561010002031660029004801561409d5780601f106140725761010080835404028352916020019161409d565b820191906000526020600020905b81548152906001019060200180831161408057829003601f168201915b505050505081526020016005820180548060200260200160405190810160405280929190818152602001828054801561412b57602002820191906000526020600020905b8160009054906101000a900473ffffffffffffffffffffffffffffffffffffffff1673ffffffffffffffffffffffffffffffffffffffff16815260200190600101908083116140e1575b5050505050815250509050806000015181602001518260a00151829250809050955095509550505050909192565b600060608033614167614e92565b600760008373ffffffffffffffffffffffffffffffffffffffff1673ffffffffffffffffffffffffffffffffffffffff1681526020019081526020016000206040518060600160405290816000820160009054906101000a900473ffffffffffffffffffffffffffffffffffffffff1673ffffffffffffffffffffffffffffffffffffffff1673ffffffffffffffffffffffffffffffffffffffff168152602001600182018054600181600116156101000203166002900480601f0160208091040260200160405190810160405280929190818152602001828054600181600116156101000203166002900480156142a05780601f10614275576101008083540402835291602001916142a0565b820191906000526020600020905b81548152906001019060200180831161428357829003601f168201915b50505050508152602001600282018054600181600116156101000203166002900480601f0160208091040260200160405190810160405280929190818152602001828054600181600116156101000203166002900480156143425780601f1061431757610100808354040283529160200191614342565b820191906000526020600020905b81548152906001019060200180831161432557829003601f168201915b5050505050815250509050600073ffffffffffffffffffffffffffffffffffffffff16816000015173ffffffffffffffffffffffffffffffffffffffff161161438a57600080fd5b614392614e92565b600760003373ffffffffffffffffffffffffffffffffffffffff1673ffffffffffffffffffffffffffffffffffffffff1681526020019081526020016000206040518060600160405290816000820160009054906101000a900473ffffffffffffffffffffffffffffffffffffffff1673ffffffffffffffffffffffffffffffffffffffff1673ffffffffffffffffffffffffffffffffffffffff168152602001600182018054600181600116156101000203166002900480601f0160208091040260200160405190810160405280929190818152602001828054600181600116156101000203166002900480156144cb5780601f106144a0576101008083540402835291602001916144cb565b820191906000526020600020905b8154815290600101906020018083116144ae57829003601f168201915b50505050508152602001600282018054600181600116156101000203166002900480601f01602080910402602001604051908101604052809291908181526020018280546001816001161561010002031660029004801561456d5780601f106145425761010080835404028352916020019161456d565b820191906000526020600020905b81548152906001019060200180831161455057829003601f168201915b5050505050815250509050806000015181602001518260400151819150809050955095509550505050909192565b6000809054906101000a900473ffffffffffffffffffffffffffffffffffffffff1681565b6000600160009054906101000a900473ffffffffffffffffffffffffffffffffffffffff1673ffffffffffffffffffffffffffffffffffffffff163373ffffffffffffffffffffffffffffffffffffffff161461461c57600080fd5b600160009054906101000a900473ffffffffffffffffffffffffffffffffffffffff16905090565b60606000806060614653614d68565b600360008773ffffffffffffffffffffffffffffffffffffffff1673ffffffffffffffffffffffffffffffffffffffff16815260200190815260200160002060405180610100016040529081600082018054600181600116156101000203166002900480601f0160208091040260200160405190810160405280929190818152602001828054600181600116156101000203166002900480156147375780601f1061470c57610100808354040283529160200191614737565b820191906000526020600020905b81548152906001019060200180831161471a57829003601f168201915b505050505081526020016001820160009054906101000a900460ff1660ff1660ff1681526020016001820160019054906101000a900473ffffffffffffffffffffffffffffffffffffffff1673ffffffffffffffffffffffffffffffffffffffff1673ffffffffffffffffffffffffffffffffffffffff168152602001600282018054600181600116156101000203166002900480601f01602080910402602001604051908101604052809291908181526020018280546001816001161561010002031660029004801561484c5780601f106148215761010080835404028352916020019161484c565b820191906000526020600020905b81548152906001019060200180831161482f57829003601f168201915b50505050508152602001600382018054600181600116156101000203166002900480601f0160208091040260200160405190810160405280929190818152602001828054600181600116156101000203166002900480156148ee5780601f106148c3576101008083540402835291602001916148ee565b820191906000526020600020905b8154815290600101906020018083116148d157829003601f168201915b5050505050815260200160048201805480602002602001604051908101604052809291908181526020016000905b828210156149d8578382906000526020600020018054600181600116156101000203166002900480601f0160208091040260200160405190810160405280929190818152602001828054600181600116156101000203166002900480156149c45780601f10614999576101008083540402835291602001916149c4565b820191906000526020600020905b8154815290600101906020018083116149a757829003601f168201915b50505050508152602001906001019061491c565b50505050815260200160058201805480602002602001604051908101604052809291908181526020018280548015614a2f57602002820191906000526020600020905b815481526020019060010190808311614a1b575b5050505050815260200160068201805480602002602001604051908101604052809291908181526020018280548015614abd57602002820191906000526020600020905b8160009054906101000a900473ffffffffffffffffffffffffffffffffffffffff1673ffffffffffffffffffffffffffffffffffffffff1681526020019060010190808311614a73575b5050505050815250509050806000015181602001518260400151600660008a73ffffffffffffffffffffffffffffffffffffffff1673ffffffffffffffffffffffffffffffffffffffff16815260200190815260200160002083935080805480602002602001604051908101604052809291908181526020016000905b82821015614d525783829060005260206000209060030201604051806060016040529081600082018054600181600116156101000203166002900480601f016020809104026020016040519081016040528092919081815260200182805460018160011615610100020316600290048015614bf65780601f10614bcb57610100808354040283529160200191614bf6565b820191906000526020600020905b815481529060010190602001808311614bd957829003601f168201915b50505050508152602001600182018054600181600116156101000203166002900480601f016020809104026020016040519081016040528092919081815260200182805460018160011615610100020316600290048015614c985780601f10614c6d57610100808354040283529160200191614c98565b820191906000526020600020905b815481529060010190602001808311614c7b57829003601f168201915b50505050508152602001600282018054600181600116156101000203166002900480601f016020809104026020016040519081016040528092919081815260200182805460018160011615610100020316600290048015614d3a5780601f10614d0f57610100808354040283529160200191614d3a565b820191906000526020600020905b815481529060010190602001808311614d1d57829003601f168201915b50505050508152505081526020019060010190614b3a565b5050505090509450945094509450509193509193565b60405180610100016040528060608152602001600060ff168152602001600073ffffffffffffffffffffffffffffffffffffffff16815260200160608152602001606081526020016060815260200160608152602001606081525090565b6040518060c0016040528060608152602001600073ffffffffffffffffffffffffffffffffffffffff168152602001606081526020016060815260200160608152602001606081525090565b828054600181600116156101000203166002900490600052602060002090601f016020900481019282601f10614e5357805160ff1916838001178555614e81565b82800160010185558215614e81579182015b82811115614e80578251825591602001919060010190614e65565b5b509050614e8e9190615000565b5090565b6040518060600160405280600073ffffffffffffffffffffffffffffffffffffffff16815260200160608152602001606081525090565b828054828255906000526020600020908101928215614f18579160200282015b82811115614f17578251829080519060200190614f07929190614e12565b5091602001919060010190614ee9565b5b509050614f259190615025565b5090565b828054828255906000526020600020908101928215614f65579160200282015b82811115614f64578251825591602001919060010190614f49565b5b509050614f729190615051565b5090565b828054828255906000526020600020908101928215614fef579160200282015b82811115614fee5782518260006101000a81548173ffffffffffffffffffffffffffffffffffffffff021916908373ffffffffffffffffffffffffffffffffffffffff16021790555091602001919060010190614f96565b5b509050614ffc9190615076565b5090565b61502291905b8082111561501e576000816000905550600101615006565b5090565b90565b61504e91905b8082111561504a576000818161504191906150b9565b5060010161502b565b5090565b90565b61507391905b8082111561506f576000816000905550600101615057565b5090565b90565b6150b691905b808211156150b257600081816101000a81549073ffffffffffffffffffffffffffffffffffffffff02191690555060010161507c565b5090565b90565b50805460018160011615610100020316600290046000825580601f106150df57506150fe565b601f0160209004906000526020600020908101906150fd9190615000565b5b50565b60008135905061511081615dfa565b92915050565b600082601f83011261512757600080fd5b813561513a61513582615bd5565b615ba8565b9150808252602083016020830185838301111561515657600080fd5b615161838284615da7565b50505092915050565b60008135905061517981615e11565b92915050565b60006020828403121561519157600080fd5b600061519f84828501615101565b91505092915050565b600080604083850312156151bb57600080fd5b60006151c985828601615101565b92505060206151da85828601615101565b9150509250929050565b6000806000606084860312156151f957600080fd5b600061520786828701615101565b935050602084013567ffffffffffffffff81111561522457600080fd5b61523086828701615116565b925050604084013567ffffffffffffffff81111561524d57600080fd5b61525986828701615116565b9150509250925092565b60008060006060848603121561527857600080fd5b600084013567ffffffffffffffff81111561529257600080fd5b61529e86828701615116565b935050602084013567ffffffffffffffff8111156152bb57600080fd5b6152c786828701615116565b925050604084013567ffffffffffffffff8111156152e457600080fd5b6152f086828701615116565b9150509250925092565b6000806000806080858703121561531057600080fd5b600085013567ffffffffffffffff81111561532a57600080fd5b61533687828801615116565b945050602085013567ffffffffffffffff81111561535357600080fd5b61535f87828801615116565b935050604085013567ffffffffffffffff81111561537c57600080fd5b61538887828801615116565b925050606085013567ffffffffffffffff8111156153a557600080fd5b6153b187828801615116565b91505092959194509250565b600080600080608085870312156153d357600080fd5b600085013567ffffffffffffffff8111156153ed57600080fd5b6153f987828801615116565b945050602061540a8782880161516a565b935050604085013567ffffffffffffffff81111561542757600080fd5b61543387828801615116565b925050606085013567ffffffffffffffff81111561545057600080fd5b61545c87828801615116565b91505092959194509250565b600061547483836154bb565b60208301905092915050565b600061548c838361560a565b60208301905092915050565b60006154a48383615874565b905092915050565b6154b581615d4d565b82525050565b6154c481615d04565b82525050565b6154d381615d04565b82525050565b60006154e482615c46565b6154ee8185615ca4565b93506154f983615c01565b8060005b8381101561552a5781516155118882615468565b975061551c83615c7d565b9250506001810190506154fd565b5085935050505092915050565b600061554282615c51565b61554c8185615cb5565b935061555783615c11565b8060005b8381101561558857815161556f8882615480565b975061557a83615c8a565b92505060018101905061555b565b5085935050505092915050565b60006155a082615c5c565b6155aa8185615cc6565b9350836020820285016155bc85615c21565b8060005b858110156155f857848403895281516155d98582615498565b94506155e483615c97565b925060208a019950506001810190506155c0565b50829750879550505050505092915050565b61561381615d16565b82525050565b61562281615d5f565b82525050565b600061563382615c72565b61563d8185615ce8565b935061564d818560208601615db6565b61565681615de9565b840191505092915050565b600061566c82615c72565b6156768185615cf9565b9350615686818560208601615db6565b80840191505092915050565b600061569d82615c67565b6156a78185615cd7565b93506156b7818560208601615db6565b6156c081615de9565b840191505092915050565b6000815460018116600081146156e8576001811461570e57615752565b607f60028304166156f98187615ce8565b955060ff198316865260208601935050615752565b6002820461571c8187615ce8565b955061572785615c31565b60005b828110156157495781548189015260018201915060208101905061572a565b80880195505050505b505092915050565b6000615767601483615ce8565b91507f5265676973746572656420617320446f63746f720000000000000000000000006000830152602082019050919050565b60006157a7601583615ce8565b91507f526567697374657265642061732050617469656e7400000000000000000000006000830152602082019050919050565b60006157e7601883615ce8565b91507f4772616e7465642061636365737320746f20646f63746f7200000000000000006000830152602082019050919050565b6000615827601883615ce8565b91507f5265766f6b656420616363657373206f6620646f63746f7200000000000000006000830152602082019050919050565b6000615867600083615cf9565b9150600082019050919050565b600060608301600083015184820360008601526158918282615692565b915050602083015184820360208601526158ab8282615692565b915050604083015184820360408601526158c58282615692565b9150508091505092915050565b6158db81615d40565b82525050565b60006158ed8284615661565b915081905092915050565b60006159038261585a565b9150819050919050565b600060208201905061592260008301846154ca565b92915050565b600060408201905061593d60008301846154ac565b818103602083015261594e8161575a565b905092915050565b600060408201905061596b60008301846154ac565b818103602083015261597c8161579a565b905092915050565b600060808201905061599960008301866154ac565b81810360208301526159aa816157da565b905081810360408301526159be81856156cb565b90506159cd60608301846154ca565b949350505050565b60006080820190506159ea60008301866154ac565b81810360208301526159fb8161581a565b90508181036040830152615a0f81856156cb565b9050615a1e60608301846154ca565b949350505050565b6000606082019050615a3b60008301866154ca565b8181036020830152615a4d8185615628565b90508181036040830152615a618184615628565b9050949350505050565b60006020820190508181036000830152615a858184615595565b905092915050565b6000602082019050615aa26000830184615619565b92915050565b60006060820190508181036000830152615ac28186615628565b9050615ad160208301856154ca565b8181036040830152615ae381846154d9565b9050949350505050565b600060a0820190508181036000830152615b078188615628565b9050615b1660208301876154ca565b615b2360408301866158d2565b8181036060830152615b358185615537565b90508181036080830152615b4981846154d9565b90509695505050505050565b60006080820190508181036000830152615b6f8187615628565b9050615b7e60208301866158d2565b615b8b60408301856154ca565b8181036060830152615b9d8184615595565b905095945050505050565b6000604051905081810181811067ffffffffffffffff82111715615bcb57600080fd5b8060405250919050565b600067ffffffffffffffff821115615bec57600080fd5b601f19601f8301169050602081019050919050565b6000819050602082019050919050565b6000819050602082019050919050565b6000819050602082019050919050565b60008190508160005260206000209050919050565b600081519050919050565b600081519050919050565b600081519050919050565b600081519050919050565b600081519050919050565b6000602082019050919050565b6000602082019050919050565b6000602082019050919050565b600082825260208201905092915050565b600082825260208201905092915050565b600082825260208201905092915050565b600082825260208201905092915050565b600082825260208201905092915050565b600081905092915050565b6000615d0f82615d20565b9050919050565b6000819050919050565b600073ffffffffffffffffffffffffffffffffffffffff82169050919050565b600060ff82169050919050565b6000615d5882615d83565b9050919050565b6000615d6a82615d71565b9050919050565b6000615d7c82615d20565b9050919050565b6000615d8e82615d95565b9050919050565b6000615da082615d20565b9050919050565b82818337600083830152505050565b60005b83811015615dd4578082015181840152602081019050615db9565b83811115615de3576000848401525b50505050565b6000601f19601f8301169050919050565b615e0381615d04565b8114615e0e57600080fd5b50565b615e1a81615d40565b8114615e2557600080fd5b5056fea365627a7a7231582055902425d71277293a1ae0bb6a0447fe29a86ce57d8da477b55fad339f8bf0f96c6578706572696d656e74616cf564736f6c63430005100040",
  "source": "pragma solidity >=0.4.21 <0.7.0;\r\npragma experimental ABIEncoderV2;\r\nimport \"./DoctorAddRecord.sol\";\r\n\r\ncontract optimized_healthCare {\r\n  \r\n  DoctorAddRecord public doctorAddRecord;\r\n\r\n  address private owner;\r\n  mapping (address => doctor) private doctors;\r\n  \r\n  mapping (address => patient) private patients; //mapping patients to their addresses\r\n  mapping (address => mapping (address => uint)) private patientToDoctor; //patients and list of doctors allowed access to\r\n  mapping (address => mapping (bytes32 => uint)) private patientToFile; //files mapped to patients\r\n  mapping (address => files[]) private patientFiles;\r\n  mapping (address => hospital) private hospitals;\r\n\r\n  \r\n  \r\n  //structure of patient file\r\n  struct files{\r\n      string file_name;\r\n      string file_type;\r\n      string file_hash;\r\n  }\r\n  \r\n  //structure of hospital\r\n  struct hospital{\r\n    address id;  \r\n    string name;\r\n    string location;\r\n  }\r\n  \r\n\r\n  //structure of patient info\r\n  struct patient {\r\n    string name;\r\n    uint8 age;\r\n    address id;\r\n    string gender;\r\n    string contact_info;\r\n\r\n    string[] allergies;\r\n\r\n    bytes32[] files;// hashes of file that belong to this user for display purpose\r\n    address[] doctor_list;\r\n  }\r\n  \r\n \r\n  //structure of doctor info\r\n  struct doctor {\r\n      string name;\r\n      address id;\r\n      string doc_address;\r\n      string contact;\r\n      string specialization;\r\n      address[] patient_list;\r\n  }\r\n  \r\n\r\n  //setting the owner\r\n  constructor() public {\r\n    owner = 0x5686638C16d74B6ef74CA24A10098a9360AC73F0;\r\n  }\r\n  \r\n  //verify doctor \r\n  modifier checkDoctor(address id) {\r\n    doctor memory d = doctors[id];\r\n    require(d.id > address(0x0));//check if doctor exist\r\n    _;\r\n  }\r\n  \r\n  //verify patient\r\n  modifier checkPatient(address id) {\r\n    patient memory p = patients[id];\r\n    require(p.id > address(0x0));//check if patient exist\r\n    _;\r\n  }\r\n\r\n  //verify hospital\r\n  modifier checkHospital(address id) {\r\n    hospital memory h = hospitals[id];\r\n    require(h.id > address(0x0));//check if patient exist\r\n    _;\r\n  }\r\n\r\n  //owner verification modifier\r\n  modifier onlyOwner() {\r\n    require(msg.sender == owner);\r\n    _;\r\n  }\r\n   \r\n\r\n\r\n  function hospitalSignUp(address _id, string memory _name, string memory _location ) public onlyOwner() {\r\n    \r\n    hospital memory h= hospitals[_id];\r\n    require(!(h.id > address(0x0)));\r\n    require(keccak256(abi.encodePacked(_name)) != keccak256(\"\"));\r\n    hospitals[_id] = hospital({id:_id, name:_name, location: _location});\r\n  }\r\n\r\n  //Event to emit when new patient registers\r\n  event patientSignUp( address _patient, string message);\r\n\r\n  function signupPatient(string memory _name, uint8 _age, string memory _contact, string memory _gender) public {\r\n\r\n    //search for patient on blockchain by address \r\n    patient storage p = patients[msg.sender];\r\n    //check input name and age\r\n    require(keccak256(abi.encodePacked(_name)) != keccak256(\"\"));\r\n    require((_age > 0) && (_age < 100));\r\n    //Check if the patient already exists by address\r\n    require(!(p.id > address(0x0)));\r\n    //Add patient to blockchain\r\n    patients[msg.sender] = patient({name:_name, age:_age, id:msg.sender, gender:_gender, contact_info:_contact, allergies:new string[](0), files:new bytes32[](0), doctor_list:new address[](0)});\r\n    \r\n\r\n    emit patientSignUp( msg.sender, \"Registered as Patient\");\r\n  }\r\n  \r\n\r\n  //Event to emit when new doctor registers\r\n  event doctorSignUp(address _doctor, string message);\r\n\r\n  function signupDoctor(string memory _name, string memory _address, string memory _contact, string memory _specialization) public {\r\n\r\n      //search for doctor on blockchain\r\n      doctor storage d = doctors[msg.sender];\r\n      //check name of doctor\r\n      require(keccak256(abi.encodePacked(_name)) != keccak256(\"\"));\r\n      //check if doctor already exists\r\n      require(!(d.id > address(0x0)));\r\n      //Add the doctor to blockchain\r\n      doctors[msg.sender] = doctor({name:_name, id:msg.sender, doc_address:_address, contact:_contact, specialization: _specialization, patient_list:new address[](0)});\r\n     \r\n      emit doctorSignUp(msg.sender, \"Registered as Doctor\");\r\n  }\r\n\r\n\r\n  //Event to emit when patient grants access to doctor\r\n  event grantDoctorAccess( address patient_address, string message, string _doctor, address doctor_address);\r\n  \r\n  function grantAccessToDoctor(address doctor_id) public checkPatient(msg.sender) checkDoctor(doctor_id) {\r\n      \r\n      patient storage p = patients[msg.sender];\r\n      doctor storage d = doctors[doctor_id];\r\n      require(patientToDoctor[msg.sender][doctor_id] < 1);// this means doctor already been access\r\n      \r\n      uint pos = p.doctor_list.push(doctor_id);// new length of array\r\n      \r\n      patientToDoctor[msg.sender][doctor_id] = pos;\r\n      d.patient_list.push(msg.sender);\r\n\r\n   \r\n      \r\n      emit grantDoctorAccess( msg.sender , \"Granted access to doctor\", d.name , doctor_id);\r\n  }\r\n\r\n  //Event to emit when patient revokes a doctor's access\r\n  event revokeDoctorAccess(address patient_address, string message, string _doctor, address doctor_address);\r\n\r\n  function revokeAccessFromDoctor(address doctor_id) public checkPatient(msg.sender){\r\n    require(patientToDoctor[msg.sender][doctor_id] > 0);\r\n    patientToDoctor[msg.sender][doctor_id] = 0;\r\n\r\n\r\n    patient storage p = patients[msg.sender];\r\n    doctor storage d = doctors[doctor_id];\r\n\r\n    uint pdlength= p.doctor_list.length;\r\n    uint pos=0;\r\n\r\n    for (uint i = 0; i < pdlength; i++) {\r\n      if(p.doctor_list[i] == doctor_id)\r\n      {\r\n        pos=i;\r\n        break;\r\n      }\r\n    }\r\n\r\n    for(;pos<pdlength-1;pos++)\r\n    {\r\n      p.doctor_list[pos]= p.doctor_list[pos+1];\r\n    }\r\n\r\n    p.doctor_list.pop();\r\n\r\n    pdlength= d.patient_list.length;\r\n    pos=0;\r\n\r\n    for (uint i = 0; i < pdlength; i++) {\r\n      if(d.patient_list[i] == msg.sender)\r\n      {\r\n        pos=i;\r\n        break;\r\n      }\r\n    }\r\n\r\n    for(;pos<pdlength-1;pos++)\r\n    {\r\n      d.patient_list[pos]= d.patient_list[pos+1];\r\n    }\r\n\r\n    d.patient_list.pop();\r\n\r\n    emit revokeDoctorAccess(msg.sender, \"Revoked access of doctor\", d.name, doctor_id);\r\n  }\r\n  \r\n\r\n\r\n  function addUserFiles(string memory _file_name, string memory _file_type,string memory _file_hash) public{\r\n\r\n    patientFiles[msg.sender].push(files({file_name:_file_name, file_type:_file_type,file_hash:_file_hash}));\r\n\r\n  }\r\n\r\n\r\n  function getUserFiles(address sender)public view returns(files[] memory){\r\n      return patientFiles[sender];\r\n  }\r\n\r\n\r\n\r\n  function getPatientInfo() public view checkPatient(msg.sender) returns(string memory,address, uint8, bytes32[] memory , address[] memory) {\r\n      patient memory p = patients[msg.sender];\r\n      return (p.name,p.id, p.age, p.files, p.doctor_list);\r\n  }\r\n\r\n\r\n\r\n  function getDoctorInfo() public view checkDoctor(msg.sender) returns(string memory,address, address[] memory) {\r\n      doctor memory d = doctors[msg.sender];\r\n      return (d.name,d.id, d.patient_list);\r\n  }\r\n  \r\n  \r\n  \r\n  function getPatientInfoForDoctor(address pat) public view returns(string memory, uint8, address, files[] memory){\r\n      patient memory p = patients[pat];\r\n      return (p.name, p.age, p.id, patientFiles[pat]);\r\n    }\r\n\r\n  function getHospitalInfo() public view checkHospital(msg.sender) returns(address, string memory, string memory)\r\n  {\r\n    hospital memory h = hospitals[msg.sender];\r\n    return (h.id, h.name, h.location);\r\n  }\r\n\r\n  function getOwnerInfo() public view  onlyOwner() returns(address)\r\n  {\r\n    return (owner);\r\n  }\r\n\r\n  function hospitalGrantAccess(address _user, address _patient) public checkPatient(_patient)\r\n  {\r\n    doctor storage d = doctors[_user];\r\n    patient storage p = patients[_patient];\r\n    if(d.id > address(0x0))\r\n    {\r\n      require(patientToDoctor[_patient][_user] < 1);// this means doctor already been access\r\n      \r\n      uint pos = p.doctor_list.push(_user);// new length of array\r\n      \r\n      patientToDoctor[_patient][_user] = pos;\r\n      d.patient_list.push(_patient);    \r\n    }\r\n  }\r\n\r\n  function addHospital(address _id, string memory _name, string memory _location) public{\r\n    hospital memory h = hospitals[_id];\r\n    require(!(h.id > address(0x0)));\r\n    hospitals[_id] = hospital({id:_id, name:_name, location:_location});\r\n  }\r\n \r\n}",
  "sourcePath": "C:\\Users\\URVASHI\\OneDrive\\Desktop\\Mnnit files\\THESIS WORK\\Thesis project\\My_projects\\EHR using Blockchain 1.1\\contracts\\optimized_healthCare.sol",
  "compiler": {
    "name": "solc",
    "version": "0.5.16+commit.9c3226ce.Emscripten.clang"
  },
  "schemaVersion": "3.4.4",
  "updatedAt": "2022-04-11T09:55:06.285Z",
  "devdoc": {
    "methods": {}
  },
  "userdoc": {
    "methods": {}
  }
}