{
  "contractName": "optimized_healthCare",
  "abi": [
    {
      "inputs": [],
      "payable": false,
      "stateMutability": "nonpayable",
      "type": "constructor"
    },
    {
      "anonymous": false,
      "inputs": [
        {
          "indexed": false,
          "internalType": "address",
          "name": "_doctor",
          "type": "address"
        },
        {
          "indexed": false,
          "internalType": "string",
          "name": "message",
          "type": "string"
        }
      ],
      "name": "doctorSignUp",
      "type": "event"
    },
    {
      "anonymous": false,
      "inputs": [
        {
          "indexed": false,
          "internalType": "address",
          "name": "patient_address",
          "type": "address"
        },
        {
          "indexed": false,
          "internalType": "string",
          "name": "message",
          "type": "string"
        },
        {
          "indexed": false,
          "internalType": "string",
          "name": "_doctor",
          "type": "string"
        },
        {
          "indexed": false,
          "internalType": "address",
          "name": "doctor_address",
          "type": "address"
        }
      ],
      "name": "grantDoctorAccess",
      "type": "event"
    },
    {
      "anonymous": false,
      "inputs": [
        {
          "indexed": false,
          "internalType": "address",
          "name": "_patient",
          "type": "address"
        },
        {
          "indexed": false,
          "internalType": "string",
          "name": "message",
          "type": "string"
        }
      ],
      "name": "patientSignUp",
      "type": "event"
    },
    {
      "anonymous": false,
      "inputs": [
        {
          "indexed": false,
          "internalType": "address",
          "name": "patient_address",
          "type": "address"
        },
        {
          "indexed": false,
          "internalType": "string",
          "name": "message",
          "type": "string"
        },
        {
          "indexed": false,
          "internalType": "string",
          "name": "_doctor",
          "type": "string"
        },
        {
          "indexed": false,
          "internalType": "address",
          "name": "doctor_address",
          "type": "address"
        }
      ],
      "name": "revokeDoctorAccess",
      "type": "event"
    },
    {
      "constant": false,
      "inputs": [
        {
          "internalType": "address",
          "name": "_id",
          "type": "address"
        },
        {
          "internalType": "string",
          "name": "_name",
          "type": "string"
        },
        {
          "internalType": "string",
          "name": "_location",
          "type": "string"
        }
      ],
      "name": "hospitalSignUp",
      "outputs": [],
      "payable": false,
      "stateMutability": "nonpayable",
      "type": "function"
    },
    {
      "constant": false,
      "inputs": [
        {
          "internalType": "string",
          "name": "_name",
          "type": "string"
        },
        {
          "internalType": "uint8",
          "name": "_age",
          "type": "uint8"
        },
        {
          "internalType": "string",
          "name": "_contact",
          "type": "string"
        },
        {
          "internalType": "string",
          "name": "_gender",
          "type": "string"
        }
      ],
      "name": "signupPatient",
      "outputs": [],
      "payable": false,
      "stateMutability": "nonpayable",
      "type": "function"
    },
    {
      "constant": false,
      "inputs": [
        {
          "internalType": "address",
          "name": "_id",
          "type": "address"
        },
        {
          "internalType": "string",
          "name": "_name",
          "type": "string"
        },
        {
          "internalType": "string",
          "name": "_contact",
          "type": "string"
        },
        {
          "internalType": "string",
          "name": "_specialization",
          "type": "string"
        }
      ],
      "name": "signupDoctor",
      "outputs": [],
      "payable": false,
      "stateMutability": "nonpayable",
      "type": "function"
    },
    {
      "constant": false,
      "inputs": [
        {
          "internalType": "address",
          "name": "doctor_id",
          "type": "address"
        }
      ],
      "name": "grantAccessToDoctor",
      "outputs": [],
      "payable": false,
      "stateMutability": "nonpayable",
      "type": "function"
    },
    {
      "constant": false,
      "inputs": [
        {
          "internalType": "address",
          "name": "doctor_id",
          "type": "address"
        }
      ],
      "name": "revokeAccessFromDoctor",
      "outputs": [],
      "payable": false,
      "stateMutability": "nonpayable",
      "type": "function"
    },
    {
      "constant": false,
      "inputs": [
        {
          "internalType": "string",
          "name": "_file_name",
          "type": "string"
        },
        {
          "internalType": "string",
          "name": "_file_type",
          "type": "string"
        },
        {
          "internalType": "string",
          "name": "_file_hash",
          "type": "string"
        }
      ],
      "name": "addUserFiles",
      "outputs": [],
      "payable": false,
      "stateMutability": "nonpayable",
      "type": "function"
    },
    {
      "constant": true,
      "inputs": [
        {
          "internalType": "address",
          "name": "sender",
          "type": "address"
        }
      ],
      "name": "getUserFiles",
      "outputs": [
        {
          "components": [
            {
              "internalType": "string",
              "name": "file_name",
              "type": "string"
            },
            {
              "internalType": "string",
              "name": "file_type",
              "type": "string"
            },
            {
              "internalType": "string",
              "name": "file_hash",
              "type": "string"
            }
          ],
          "internalType": "struct optimized_healthCare.files[]",
          "name": "",
          "type": "tuple[]"
        }
      ],
      "payable": false,
      "stateMutability": "view",
      "type": "function"
    },
    {
      "constant": true,
      "inputs": [],
      "name": "getPatientInfo",
      "outputs": [
        {
          "internalType": "string",
          "name": "",
          "type": "string"
        },
        {
          "internalType": "address",
          "name": "",
          "type": "address"
        },
        {
          "internalType": "uint8",
          "name": "",
          "type": "uint8"
        },
        {
          "internalType": "bytes32[]",
          "name": "",
          "type": "bytes32[]"
        },
        {
          "internalType": "address[]",
          "name": "",
          "type": "address[]"
        },
        {
          "internalType": "string",
          "name": "",
          "type": "string"
        },
        {
          "internalType": "string",
          "name": "",
          "type": "string"
        }
      ],
      "payable": false,
      "stateMutability": "view",
      "type": "function"
    },
    {
      "constant": true,
      "inputs": [],
      "name": "getDoctorInfo",
      "outputs": [
        {
          "internalType": "string",
          "name": "",
          "type": "string"
        },
        {
          "internalType": "address",
          "name": "",
          "type": "address"
        },
        {
          "internalType": "address[]",
          "name": "",
          "type": "address[]"
        },
        {
          "internalType": "string",
          "name": "",
          "type": "string"
        },
        {
          "internalType": "string",
          "name": "",
          "type": "string"
        }
      ],
      "payable": false,
      "stateMutability": "view",
      "type": "function"
    },
    {
      "constant": true,
      "inputs": [
        {
          "internalType": "address",
          "name": "pat",
          "type": "address"
        }
      ],
      "name": "getPatientInfoForDoctor",
      "outputs": [
        {
          "internalType": "string",
          "name": "",
          "type": "string"
        },
        {
          "internalType": "uint8",
          "name": "",
          "type": "uint8"
        },
        {
          "internalType": "address",
          "name": "",
          "type": "address"
        },
        {
          "components": [
            {
              "internalType": "string",
              "name": "file_name",
              "type": "string"
            },
            {
              "internalType": "string",
              "name": "file_type",
              "type": "string"
            },
            {
              "internalType": "string",
              "name": "file_hash",
              "type": "string"
            }
          ],
          "internalType": "struct optimized_healthCare.files[]",
          "name": "",
          "type": "tuple[]"
        }
      ],
      "payable": false,
      "stateMutability": "view",
      "type": "function"
    },
    {
      "constant": true,
      "inputs": [],
      "name": "getHospitalInfo",
      "outputs": [
        {
          "internalType": "address",
          "name": "",
          "type": "address"
        },
        {
          "internalType": "string",
          "name": "",
          "type": "string"
        },
        {
          "internalType": "string",
          "name": "",
          "type": "string"
        }
      ],
      "payable": false,
      "stateMutability": "view",
      "type": "function"
    },
    {
      "constant": true,
      "inputs": [],
      "name": "getOwnerInfo",
      "outputs": [
        {
          "internalType": "address",
          "name": "",
          "type": "address"
        }
      ],
      "payable": false,
      "stateMutability": "view",
      "type": "function"
    },
    {
      "constant": false,
      "inputs": [
        {
          "internalType": "address",
          "name": "_user",
          "type": "address"
        },
        {
          "internalType": "address",
          "name": "_patient",
          "type": "address"
        }
      ],
      "name": "hospitalGrantAccess",
      "outputs": [],
      "payable": false,
      "stateMutability": "nonpayable",
      "type": "function"
    },
    {
      "constant": false,
      "inputs": [
        {
          "internalType": "address",
          "name": "_id",
          "type": "address"
        },
        {
          "internalType": "string",
          "name": "_name",
          "type": "string"
        },
        {
          "internalType": "string",
          "name": "_location",
          "type": "string"
        }
      ],
      "name": "addHospital",
      "outputs": [],
      "payable": false,
      "stateMutability": "nonpayable",
      "type": "function"
    },
    {
      "constant": false,
      "inputs": [
        {
          "internalType": "address",
          "name": "_id",
          "type": "address"
        },
        {
          "internalType": "string",
          "name": "_name",
          "type": "string"
        }
      ],
      "name": "regInsuranceComp",
      "outputs": [],
      "payable": false,
      "stateMutability": "nonpayable",
      "type": "function"
    },
    {
      "constant": true,
      "inputs": [],
      "name": "getInsuranceCompInfo",
      "outputs": [
        {
          "internalType": "address",
          "name": "",
          "type": "address"
        },
        {
          "internalType": "string",
          "name": "",
          "type": "string"
        },
        {
          "internalType": "address[]",
          "name": "",
          "type": "address[]"
        }
      ],
      "payable": false,
      "stateMutability": "view",
      "type": "function"
    },
    {
      "constant": false,
      "inputs": [
        {
          "internalType": "address",
          "name": "_insuranceComp",
          "type": "address"
        },
        {
          "internalType": "address",
          "name": "_pat",
          "type": "address"
        }
      ],
      "name": "addPatientToInsuranceComp",
      "outputs": [],
      "payable": false,
      "stateMutability": "nonpayable",
      "type": "function"
    }
  ],
  "bytecode": "0x608060405234801561001057600080fd5b5060008054600160a060020a031916735686638c16d74b6ef74ca24a10098a9360ac73f0179055613f9a806100466000396000f3fe608060405234801561001057600080fd5b5060043610610138576000357c010000000000000000000000000000000000000000000000000000000090048063405b8af0116100cf57806397f7f06d1161009e578063c4fa7adb11610083578063c4fa7adb14610271578063facf832314610288578063fe59cc1a1461029d57610138565b806397f7f06d14610245578063b380f5c61461025857610138565b8063405b8af0146101f9578063629e559d1461020c578063828566fc1461021f578063859287b11461023257610138565b8063326df6641161010b578063326df664146101a15780633b0e67ec146101bc5780633b17c592146101cf5780633c3f5d8d146101e657610138565b80631c8e251c1461013d5780631fc37922146101525780632ae48e401461017b5780632cecb5231461018e575b600080fd5b61015061014b3660046135ea565b6102c0565b005b6101656101603660046135ea565b610937565b6040516101729190613d0f565b60405180910390f35b6101506101893660046137b8565b610b6f565b61015061019c366004613610565b610c06565b6101a9610fec565b6040516101729796959493929190613d85565b6101506101ca366004613692565b6115d8565b6101d7611819565b60405161017293929190613c88565b6101506101f43660046137f0565b611965565b61015061020736600461370f565b611bb8565b61015061021a3660046135ea565b611d70565b61015061022d366004613692565b612372565b61015061024036600461364a565b6124ff565b610150610253366004613610565b6126f1565b610260612794565b604051610172959493929190613d20565b610279612c9c565b60405161017293929190613cbc565b610290612e0e565b6040516101729190613bfa565b6102b06102ab3660046135ea565b612e37565b6040516101729493929190613e0d565b336102c961335e565b600160a060020a0382166000908152600260208181526040928390208351815460018116156101009081026000190190911694909404601f81018490049093028101840190945260e0840182815290928492849184018282801561036e5780601f106103435761010080835404028352916020019161036e565b820191906000526020600020905b81548152906001019060200180831161035157829003601f168201915b505050918352505060018281015460ff811660208085019190915261010091829004600160a060020a0316604080860191909152600280870180548351968116159095026000190190941604601f8101839004830285018301909152808452606090940193908301828280156104255780601f106103fa57610100808354040283529160200191610425565b820191906000526020600020905b81548152906001019060200180831161040857829003601f168201915b505050918352505060038201805460408051602060026001851615610100026000190190941693909304601f81018490048402820184019092528181529382019392918301828280156104b95780601f1061048e576101008083540402835291602001916104b9565b820191906000526020600020905b81548152906001019060200180831161049c57829003601f168201915b505050505081526020016004820180548060200260200160405190810160405280929190818152602001828054801561051157602002820191906000526020600020905b8154815260200190600101908083116104fd575b505050505081526020016005820180548060200260200160405190810160405280929190818152602001828054801561057357602002820191906000526020600020905b8154600160a060020a03168152600190910190602001808311610555575b50505050508152505090506000600160a060020a03168160400151600160a060020a0316116105a157600080fd5b826105aa6133a7565b600160a060020a0382166000908152600160208181526040928390208351815460029481161561010002600019011693909304601f8101839004909202830160c090810190945260a0830182815292939092849290918491908401828280156106545780601f1061062957610100808354040283529160200191610654565b820191906000526020600020905b81548152906001019060200180831161063757829003601f168201915b5050509183525050600182810154600160a060020a0316602080840191909152600280850180546040805161010096831615969096026000190190911692909204601f810184900484028501840183528085529190940193918301828280156106fe5780601f106106d3576101008083540402835291602001916106fe565b820191906000526020600020905b8154815290600101906020018083116106e157829003601f168201915b505050918352505060038201805460408051602060026001851615610100026000190190941693909304601f81018490048402820184019092528181529382019392918301828280156107925780601f1061076757610100808354040283529160200191610792565b820191906000526020600020905b81548152906001019060200180831161077557829003601f168201915b50505050508152602001600482018054806020026020016040519081016040528092919081815260200182805480156107f457602002820191906000526020600020905b8154600160a060020a031681526001909101906020018083116107d6575b50505050508152505090506000600160a060020a03168160200151600160a060020a03161161082257600080fd5b336000818152600260209081526040808320600160a060020a038a16808552600180855283862096865260038552838620918652935292205491929161ffff161061086c57600080fd5b600582018054600180820180845560009384526020808520909301805473ffffffffffffffffffffffffffffffffffffffff19908116600160a060020a038e1690811790925533808752600386526040808820938852928652828720805461ffff191661ffff8616179055600488018054958601815587529490952090920180549094168317909355517fe239c4e608cb32aaf8ef7214f811e28ea27c91cad9f719be74579c18fc2e9831916109259185908c90613c27565b60405180910390a15050505050505050565b600160a060020a0381166000908152600560209081526040808320805482518185028101850190935280835260609492939192909184015b82821015610b645760008481526020908190206040805160038602909201805460026001821615610100026000190190911604601f8101859004909402830160809081019092526060830184815292939092849290918491840182828015610a185780601f106109ed57610100808354040283529160200191610a18565b820191906000526020600020905b8154815290600101906020018083116109fb57829003601f168201915b50505050508152602001600182018054600181600116156101000203166002900480601f016020809104026020016040519081016040528092919081815260200182805460018160011615610100020316600290048015610aba5780601f10610a8f57610100808354040283529160200191610aba565b820191906000526020600020905b815481529060010190602001808311610a9d57829003601f168201915b5050509183525050600282810180546040805160206001841615610100026000190190931694909404601f81018390048302850183019091528084529381019390830182828015610b4c5780601f10610b2157610100808354040283529160200191610b4c565b820191906000526020600020905b815481529060010190602001808311610b2f57829003601f168201915b5050505050815250508152602001906001019061096f565b505050509050919050565b3360009081526005602090815260408083208151606081018352878152808401879052918201859052805460018101808355918552938390208251805192959394600390940290910192610bc8928492909101906133df565b506020828101518051610be192600185019201906133df565b5060408201518051610bfd9160028401916020909101906133df565b50505050505050565b80610c0f61335e565b600160a060020a0382166000908152600260208181526040928390208351815460018116156101009081026000190190911694909404601f81018490049093028101840190945260e08401828152909284928491840182828015610cb45780601f10610c8957610100808354040283529160200191610cb4565b820191906000526020600020905b815481529060010190602001808311610c9757829003601f168201915b505050918352505060018281015460ff811660208085019190915261010091829004600160a060020a0316604080860191909152600280870180548351968116159095026000190190941604601f810183900483028501830190915280845260609094019390830182828015610d6b5780601f10610d4057610100808354040283529160200191610d6b565b820191906000526020600020905b815481529060010190602001808311610d4e57829003601f168201915b505050918352505060038201805460408051602060026001851615610100026000190190941693909304601f8101849004840282018401909252818152938201939291830182828015610dff5780601f10610dd457610100808354040283529160200191610dff565b820191906000526020600020905b815481529060010190602001808311610de257829003601f168201915b5050505050815260200160048201805480602002602001604051908101604052809291908181526020018280548015610e5757602002820191906000526020600020905b815481526020019060010190808311610e43575b5050505050815260200160058201805480602002602001604051908101604052809291908181526020018280548015610eb957602002820191906000526020600020905b8154600160a060020a03168152600190910190602001808311610e9b575b50505050508152505090506000600160a060020a03168160400151600160a060020a031611610ee757600080fd5b600160a060020a0380851660009081526001602081815260408084208886168552600290925290922090820154919290911615610fe457600160a060020a038086166000908152600360209081526040808320938a1683529290522054600161ffff90911610610f5657600080fd5b6005810180546001818101808455600093845260208085209093018054600160a060020a03808d1673ffffffffffffffffffffffffffffffffffffffff1992831681179093558b16808752600386526040808820938852928652918620805461ffff90941661ffff199094169390931790925560048701805493840181558552929093200180549092161790555b505050505050565b60606000806060806060803361100061335e565b600160a060020a0382166000908152600260208181526040928390208351815460018116156101009081026000190190911694909404601f81018490049093028101840190945260e084018281529092849284918401828280156110a55780601f1061107a576101008083540402835291602001916110a5565b820191906000526020600020905b81548152906001019060200180831161108857829003601f168201915b505050918352505060018281015460ff811660208085019190915261010091829004600160a060020a0316604080860191909152600280870180548351968116159095026000190190941604601f81018390048302850183019091528084526060909401939083018282801561115c5780601f106111315761010080835404028352916020019161115c565b820191906000526020600020905b81548152906001019060200180831161113f57829003601f168201915b505050918352505060038201805460408051602060026001851615610100026000190190941693909304601f81018490048402820184019092528181529382019392918301828280156111f05780601f106111c5576101008083540402835291602001916111f0565b820191906000526020600020905b8154815290600101906020018083116111d357829003601f168201915b505050505081526020016004820180548060200260200160405190810160405280929190818152602001828054801561124857602002820191906000526020600020905b815481526020019060010190808311611234575b50505050508152602001600582018054806020026020016040519081016040528092919081815260200182805480156112aa57602002820191906000526020600020905b8154600160a060020a0316815260019091019060200180831161128c575b50505050508152505090506000600160a060020a03168160400151600160a060020a0316116112d857600080fd5b6112e061335e565b336000908152600260208181526040928390208351815460018116156101009081026000190190911694909404601f81018490049093028101840190945260e0840182815290928492849184018282801561137c5780601f106113515761010080835404028352916020019161137c565b820191906000526020600020905b81548152906001019060200180831161135f57829003601f168201915b505050918352505060018281015460ff811660208085019190915261010091829004600160a060020a0316604080860191909152600280870180548351968116159095026000190190941604601f8101839004830285018301909152808452606090940193908301828280156114335780601f1061140857610100808354040283529160200191611433565b820191906000526020600020905b81548152906001019060200180831161141657829003601f168201915b505050918352505060038201805460408051602060026001851615610100026000190190941693909304601f81018490048402820184019092528181529382019392918301828280156114c75780601f1061149c576101008083540402835291602001916114c7565b820191906000526020600020905b8154815290600101906020018083116114aa57829003601f168201915b505050505081526020016004820180548060200260200160405190810160405280929190818152602001828054801561151f57602002820191906000526020600020905b81548152602001906001019080831161150b575b505050505081526020016005820180548060200260200160405190810160405280929190818152602001828054801561158157602002820191906000526020600020905b8154600160a060020a03168152600190910190602001808311611563575b50505050508152505090508060000151816040015182602001518360a001518460c0015185606001518660800151869650839350829250819150809050995099509950995099509950995050505090919293949596565b600054600160a060020a031633146115ef57600080fd5b6115f761345d565b600160a060020a03848116600090815260066020908152604091829020825160608101845281549094168452600180820180548551600261010094831615949094026000190190911692909204601f81018590048502830185019095528482529193858401939192918301828280156116b15780601f10611686576101008083540402835291602001916116b1565b820191906000526020600020905b81548152906001019060200180831161169457829003601f168201915b5050509183525050600282810180546040805160206001841615610100026000190190931694909404601f810183900483028501830190915280845293810193908301828280156117435780601f1061171857610100808354040283529160200191611743565b820191906000526020600020905b81548152906001019060200180831161172657829003601f168201915b505050919092525050815191925050600160a060020a03161561176557600080fd5b60405161177190613bef565b60405180910390208360405160200161178a9190613be3565b6040516020818303038152906040528051906020012014156117ab57600080fd5b60408051606081018252600160a060020a038681168083526020808401888152848601889052600092835260068252949091208351815473ffffffffffffffffffffffffffffffffffffffff191693169290921782559251805192939192610be192600185019201906133df565b600060608061182661345d565b3360009081526007602090815260409182902082516060810184528154600160a060020a03168152600180830180548651600261010094831615949094026000190190911692909204601f81018690048602830186019096528582529194929385810193919291908301828280156118df5780601f106118b4576101008083540402835291602001916118df565b820191906000526020600020905b8154815290600101906020018083116118c257829003601f168201915b505050505081526020016003820180548060200260200160405190810160405280929190818152602001828054801561194157602002820191906000526020600020905b8154600160a060020a03168152600190910190602001808311611923575b50505091909252505081516020830151604090930151909792965094509092505050565b3360009081526002602052604090819020905161198190613bef565b60405180910390208560405160200161199a9190613be3565b6040516020818303038152906040528051906020012014156119bb57600080fd5b60008460ff161180156119d1575060648460ff16105b6119da57600080fd5b60018101546101009004600160a060020a0316156119f757600080fd5b6040518060e001604052808681526020018560ff16815260200133600160a060020a031681526020018381526020018481526020016000604051908082528060200260200182016040528015611a57578160200160208202803883390190505b5081526020016000604051908082528060200260200182016040528015611a88578160200160208202803883390190505b509052336000908152600260209081526040909120825180519192611ab2928492909101906133df565b506020828101516001830180546040860151600160a060020a0316610100027fffffffffffffffffffffff0000000000000000000000000000000000000000ff60ff90941660ff19909216919091179290921691909117905560608301518051611b2292600285019201906133df565b5060808201518051611b3e9160038401916020909101906133df565b5060a08201518051611b5a916004840191602090910190613487565b5060c08201518051611b769160058401916020909101906134c1565b509050507ff0c358f29581a43889abe78660babebd0ac62878d0ed89571af6c2168bbcda0c33604051611ba99190613c08565b60405180910390a15050505050565b600160a060020a038416600090815260016020526040908190209051611bdd90613bef565b604051809103902084604051602001611bf69190613be3565b604051602081830303815290604052805190602001201415611c1757600080fd5b6001810154600160a060020a031615611c2f57600080fd5b6040518060a0016040528085815260200186600160a060020a031681526020018481526020018381526020016000604051908082528060200260200182016040528015611c86578160200160208202803883390190505b509052600160a060020a0386166000908152600160209081526040909120825180519192611cb9928492909101906133df565b5060208281015160018301805473ffffffffffffffffffffffffffffffffffffffff1916600160a060020a0390921691909117905560408301518051611d0592600285019201906133df565b5060608201518051611d219160038401916020909101906133df565b5060808201518051611d3d9160048401916020909101906134c1565b509050507fdd0aa1d3beead09f31cc046643e0d63829e7c7f43e532c2523d978bc9c3bfb3385604051611ba99190613cf0565b33611d7961335e565b600160a060020a0382166000908152600260208181526040928390208351815460018116156101009081026000190190911694909404601f81018490049093028101840190945260e08401828152909284928491840182828015611e1e5780601f10611df357610100808354040283529160200191611e1e565b820191906000526020600020905b815481529060010190602001808311611e0157829003601f168201915b505050918352505060018281015460ff811660208085019190915261010091829004600160a060020a0316604080860191909152600280870180548351968116159095026000190190941604601f810183900483028501830190915280845260609094019390830182828015611ed55780601f10611eaa57610100808354040283529160200191611ed5565b820191906000526020600020905b815481529060010190602001808311611eb857829003601f168201915b505050918352505060038201805460408051602060026001851615610100026000190190941693909304601f8101849004840282018401909252818152938201939291830182828015611f695780601f10611f3e57610100808354040283529160200191611f69565b820191906000526020600020905b815481529060010190602001808311611f4c57829003601f168201915b5050505050815260200160048201805480602002602001604051908101604052809291908181526020018280548015611fc157602002820191906000526020600020905b815481526020019060010190808311611fad575b505050505081526020016005820180548060200260200160405190810160405280929190818152602001828054801561202357602002820191906000526020600020905b8154600160a060020a03168152600190910190602001808311612005575b50505050508152505090506000600160a060020a03168160400151600160a060020a03161161205157600080fd5b336000908152600360209081526040808320600160a060020a038716845290915290205461ffff1661208257600080fd5b336000818152600360209081526040808320600160a060020a038816808552908352818420805461ffff19169055938352600282528083209383526001909152812060058301549091805b8261ffff168161ffff1610156121255787600160a060020a0316856005018261ffff16815481106120fa57fe5b600091825260209091200154600160a060020a0316141561211d57809150612125565b6001016120cd565b505b6001820361ffff168161ffff1610156121ba57836005018160010161ffff168154811061215057fe5b600091825260209091200154600585018054600160a060020a039092169161ffff841690811061217c57fe5b6000918252602090912001805473ffffffffffffffffffffffffffffffffffffffff1916600160a060020a0392909216919091179055600101612127565b836005018054806121c757fe5b6000828152602081208201600019908101805473ffffffffffffffffffffffffffffffffffffffff19169055909101909155600484015492509050805b8261ffff168161ffff16101561225c5733600160a060020a0316846004018261ffff168154811061223157fe5b600091825260209091200154600160a060020a031614156122545780915061225c565b600101612204565b505b6001820361ffff168161ffff1610156122f157826004018160010161ffff168154811061228757fe5b600091825260209091200154600484018054600160a060020a039092169161ffff84169081106122b357fe5b6000918252602090912001805473ffffffffffffffffffffffffffffffffffffffff1916600160a060020a039290921691909117905560010161225e565b826004018054806122fe57fe5b6000828152602090208101600019908101805473ffffffffffffffffffffffffffffffffffffffff191690550190556040517f212bcbf580385b870fe82b11fdd99334c16d187419727ccfb2b89aea2f8727859061236190339086908b90613c69565b60405180910390a150505050505050565b600054600160a060020a0316331461238957600080fd5b61239161345d565b600160a060020a03848116600090815260066020908152604091829020825160608101845281549094168452600180820180548551600261010094831615949094026000190190911692909204601f810185900485028301850190955284825291938584019391929183018282801561244b5780601f106124205761010080835404028352916020019161244b565b820191906000526020600020905b81548152906001019060200180831161242e57829003601f168201915b5050509183525050600282810180546040805160206001841615610100026000190190931694909404601f810183900483028501830190915280845293810193908301828280156124dd5780601f106124b2576101008083540402835291602001916124dd565b820191906000526020600020905b8154815290600101906020018083116124c057829003601f168201915b505050919092525050815191925050600160a060020a0316156117ab57600080fd5b600054600160a060020a0316331461251657600080fd5b61251e61345d565b600160a060020a03838116600090815260076020908152604091829020825160608101845281549094168452600180820180548551600261010094831615949094026000190190911692909204601f81018590048502830185019095528482529193858401939192918301828280156125d85780601f106125ad576101008083540402835291602001916125d8565b820191906000526020600020905b8154815290600101906020018083116125bb57829003601f168201915b505050505081526020016003820180548060200260200160405190810160405280929190818152602001828054801561263a57602002820191906000526020600020905b8154600160a060020a0316815260019091019060200180831161261c575b505050919092525050815191925050600160a060020a03161561265c57600080fd5b60408051606081018252600160a060020a0385811680835260208084018781528551600080825281840188528688019190915292835260078252949091208351815473ffffffffffffffffffffffffffffffffffffffff1916931692909217825592518051929391926126d592600185019201906133df565b5060408201518051610fe49160038401916020909101906134c1565b600160a060020a038083166000908152600760209081526040808320938516835260028401909152902054600160ff9091161061272d57600080fd5b6003810180546001810180835560009283526020808420909201805473ffffffffffffffffffffffffffffffffffffffff1916600160a060020a03969096169586179055938252600290920190915260409020805460ff191660ff90921691909117905550565b606060006060806060336127a66133a7565b600160a060020a0382166000908152600160208181526040928390208351815460029481161561010002600019011693909304601f8101839004909202830160c090810190945260a0830182815292939092849290918491908401828280156128505780601f1061282557610100808354040283529160200191612850565b820191906000526020600020905b81548152906001019060200180831161283357829003601f168201915b5050509183525050600182810154600160a060020a0316602080840191909152600280850180546040805161010096831615969096026000190190911692909204601f810184900484028501840183528085529190940193918301828280156128fa5780601f106128cf576101008083540402835291602001916128fa565b820191906000526020600020905b8154815290600101906020018083116128dd57829003601f168201915b505050918352505060038201805460408051602060026001851615610100026000190190941693909304601f810184900484028201840190925281815293820193929183018282801561298e5780601f106129635761010080835404028352916020019161298e565b820191906000526020600020905b81548152906001019060200180831161297157829003601f168201915b50505050508152602001600482018054806020026020016040519081016040528092919081815260200182805480156129f057602002820191906000526020600020905b8154600160a060020a031681526001909101906020018083116129d2575b50505050508152505090506000600160a060020a03168160200151600160a060020a031611612a1e57600080fd5b612a266133a7565b336000908152600160208181526040928390208351815460029481161561010002600019011693909304601f8101839004909202830160c090810190945260a083018281529293909284929091849190840182828015612ac75780601f10612a9c57610100808354040283529160200191612ac7565b820191906000526020600020905b815481529060010190602001808311612aaa57829003601f168201915b5050509183525050600182810154600160a060020a0316602080840191909152600280850180546040805161010096831615969096026000190190911692909204601f81018490048402850184018352808552919094019391830182828015612b715780601f10612b4657610100808354040283529160200191612b71565b820191906000526020600020905b815481529060010190602001808311612b5457829003601f168201915b505050918352505060038201805460408051602060026001851615610100026000190190941693909304601f8101849004840282018401909252818152938201939291830182828015612c055780601f10612bda57610100808354040283529160200191612c05565b820191906000526020600020905b815481529060010190602001808311612be857829003601f168201915b5050505050815260200160048201805480602002602001604051908101604052809291908181526020018280548015612c6757602002820191906000526020600020905b8154600160a060020a03168152600190910190602001808311612c49575b5050509190925250508151602083015160808401516040850151606090950151929d919c509a50929850965090945050505050565b6000606080612ca961345d565b3360009081526006602090815260409182902082516060810184528154600160a060020a03168152600180830180548651600261010094831615949094026000190190911692909204601f8101869004860283018601909652858252919492938581019391929190830182828015612d625780601f10612d3757610100808354040283529160200191612d62565b820191906000526020600020905b815481529060010190602001808311612d4557829003601f168201915b5050509183525050600282810180546040805160206001841615610100026000190190931694909404601f810183900483028501830190915280845293810193908301828280156119415780601f10612dc957610100808354040283529160200191611941565b820191906000526020600020905b815481529060010190602001808311612dd75750505091909252505081516020830151604090930151909792965094509092505050565b60008054600160a060020a03163314612e2657600080fd5b50600054600160a060020a03165b90565b60606000806060612e4661335e565b600160a060020a0386166000908152600260208181526040928390208351815460018116156101009081026000190190911694909404601f81018490049093028101840190945260e08401828152909284928491840182828015612eeb5780601f10612ec057610100808354040283529160200191612eeb565b820191906000526020600020905b815481529060010190602001808311612ece57829003601f168201915b505050918352505060018281015460ff811660208085019190915261010091829004600160a060020a0316604080860191909152600280870180548351968116159095026000190190941604601f810183900483028501830190915280845260609094019390830182828015612fa25780601f10612f7757610100808354040283529160200191612fa2565b820191906000526020600020905b815481529060010190602001808311612f8557829003601f168201915b505050918352505060038201805460408051602060026001851615610100026000190190941693909304601f81018490048402820184019092528181529382019392918301828280156130365780601f1061300b57610100808354040283529160200191613036565b820191906000526020600020905b81548152906001019060200180831161301957829003601f168201915b505050505081526020016004820180548060200260200160405190810160405280929190818152602001828054801561308e57602002820191906000526020600020905b81548152602001906001019080831161307a575b50505050508152602001600582018054806020026020016040519081016040528092919081815260200182805480156130f057602002820191906000526020600020905b8154600160a060020a031681526001909101906020018083116130d2575b5050505050815250509050806000015181602001518260400151600560008a600160a060020a0316600160a060020a0316815260200190815260200160002083935080805480602002602001604051908101604052809291908181526020016000905b828210156133485760008481526020908190206040805160038602909201805460026001821615610100026000190190911604601f81018590049094028301608090810190925260608301848152929390928492909184918401828280156131fc5780601f106131d1576101008083540402835291602001916131fc565b820191906000526020600020905b8154815290600101906020018083116131df57829003601f168201915b50505050508152602001600182018054600181600116156101000203166002900480601f01602080910402602001604051908101604052809291908181526020018280546001816001161561010002031660029004801561329e5780601f106132735761010080835404028352916020019161329e565b820191906000526020600020905b81548152906001019060200180831161328157829003601f168201915b5050509183525050600282810180546040805160206001841615610100026000190190931694909404601f810183900483028501830190915280845293810193908301828280156133305780601f1061330557610100808354040283529160200191613330565b820191906000526020600020905b81548152906001019060200180831161331357829003601f168201915b50505050508152505081526020019060010190613153565b5050505090509450945094509450509193509193565b6040518060e0016040528060608152602001600060ff1681526020016000600160a060020a03168152602001606081526020016060815260200160608152602001606081525090565b6040518060a00160405280606081526020016000600160a060020a031681526020016060815260200160608152602001606081525090565b828054600181600116156101000203166002900490600052602060002090601f016020900481019282601f1061342057805160ff191683800117855561344d565b8280016001018555821561344d579182015b8281111561344d578251825591602001919060010190613432565b5061345992915061352f565b5090565b60405180606001604052806000600160a060020a0316815260200160608152602001606081525090565b82805482825590600052602060002090810192821561344d579160200282018281111561344d578251825591602001919060010190613432565b828054828255906000526020600020908101928215613523579160200282015b82811115613523578251825473ffffffffffffffffffffffffffffffffffffffff1916600160a060020a039091161782556020909201916001909101906134e1565b50613459929150613549565b612e3491905b808211156134595760008155600101613535565b612e3491905b8082111561345957805473ffffffffffffffffffffffffffffffffffffffff1916815560010161354f565b803561358581613f37565b92915050565b600082601f83011261359c57600080fd5b81356135af6135aa82613e7d565b613e56565b915080825260208301602083018583830111156135cb57600080fd5b6135d6838284613ef1565b50505092915050565b803561358581613f4e565b6000602082840312156135fc57600080fd5b6000613608848461357a565b949350505050565b6000806040838503121561362357600080fd5b600061362f858561357a565b92505060206136408582860161357a565b9150509250929050565b6000806040838503121561365d57600080fd5b6000613669858561357a565b925050602083013567ffffffffffffffff81111561368657600080fd5b6136408582860161358b565b6000806000606084860312156136a757600080fd5b60006136b3868661357a565b935050602084013567ffffffffffffffff8111156136d057600080fd5b6136dc8682870161358b565b925050604084013567ffffffffffffffff8111156136f957600080fd5b6137058682870161358b565b9150509250925092565b6000806000806080858703121561372557600080fd5b6000613731878761357a565b945050602085013567ffffffffffffffff81111561374e57600080fd5b61375a8782880161358b565b935050604085013567ffffffffffffffff81111561377757600080fd5b6137838782880161358b565b925050606085013567ffffffffffffffff8111156137a057600080fd5b6137ac8782880161358b565b91505092959194509250565b6000806000606084860312156137cd57600080fd5b833567ffffffffffffffff8111156137e457600080fd5b6136b38682870161358b565b6000806000806080858703121561380657600080fd5b843567ffffffffffffffff81111561381d57600080fd5b6138298782880161358b565b945050602061375a878288016135df565b6000613846838361387c565b505060200190565b6000613846838361399a565b60006138668383613b85565b9392505050565b61387681613ee0565b82525050565b61387681613ec9565b600061389082613eb7565b61389a8185613ebb565b93506138a583613ea5565b8060005b838110156138d35781516138bd888261383a565b97506138c883613ea5565b9250506001016138a9565b509495945050505050565b60006138e982613eb7565b6138f38185613ebb565b93506138fe83613ea5565b8060005b838110156138d3578151613916888261384e565b975061392183613ea5565b925050600101613902565b600061393782613eb7565b6139418185613ebb565b93508360208202850161395385613ea5565b8060005b8581101561398d5784840389528151613970858261385a565b945061397b83613ea5565b60209a909a0199925050600101613957565b5091979650505050505050565b61387681612e34565b60006139ae82613eb7565b6139b88185613ebb565b93506139c8818560208601613efd565b6139d181613f2d565b9093019392505050565b60006139e682613eb7565b6139f08185613ec4565b9350613a00818560208601613efd565b9290920192915050565b600081546001811660008114613a275760018114613a4d57613a8c565b607f6002830416613a388187613ebb565b60ff1984168152955050602085019250613a8c565b60028204613a5b8187613ebb565b9550613a6685613eab565b60005b82811015613a8557815488820152600190910190602001613a69565b8701945050505b505092915050565b6000613aa1601483613ebb565b7f5265676973746572656420617320446f63746f72000000000000000000000000815260200192915050565b6000613ada601583613ebb565b7f526567697374657265642061732050617469656e740000000000000000000000815260200192915050565b6000613b13601883613ebb565b7f4772616e7465642061636365737320746f20646f63746f720000000000000000815260200192915050565b6000613b4c601883613ebb565b7f5265766f6b656420616363657373206f6620646f63746f720000000000000000815260200192915050565b6000613585600083613ec4565b8051606080845260009190840190613b9d82826139a3565b91505060208301518482036020860152613bb782826139a3565b91505060408301518482036040860152613bd182826139a3565b95945050505050565b61387681613eda565b600061386682846139db565b600061358582613b78565b60208101613585828461387c565b60408101613c16828461386d565b818103602083015261386681613acd565b60808101613c35828661386d565b8181036020830152613c4681613b06565b90508181036040830152613c5a8185613a0a565b9050613608606083018461387c565b60808101613c77828661386d565b8181036020830152613c4681613b3f565b60608101613c96828661387c565b8181036020830152613ca881856139a3565b90508181036040830152613bd18184613885565b60608101613cca828661387c565b8181036020830152613cdc81856139a3565b90508181036040830152613bd181846139a3565b60408101613cfe828461387c565b818103602083015261386681613a94565b60208082528101613866818461392c565b60a08082528101613d3181886139a3565b9050613d40602083018761387c565b8181036040830152613d528186613885565b90508181036060830152613d6681856139a3565b90508181036080830152613d7a81846139a3565b979650505050505050565b60e08082528101613d96818a6139a3565b9050613da5602083018961387c565b613db26040830188613bda565b8181036060830152613dc481876138de565b90508181036080830152613dd88186613885565b905081810360a0830152613dec81856139a3565b905081810360c0830152613e0081846139a3565b9998505050505050505050565b60808082528101613e1e81876139a3565b9050613e2d6020830186613bda565b613e3a604083018561387c565b8181036060830152613e4c818461392c565b9695505050505050565b60405181810167ffffffffffffffff81118282101715613e7557600080fd5b604052919050565b600067ffffffffffffffff821115613e9457600080fd5b506020601f91909101601f19160190565b60200190565b60009081526020902090565b5190565b90815260200190565b919050565b6000600160a060020a038216613585565b60ff1690565b600061358582600061358582613ec9565b82818337506000910152565b60005b83811015613f18578181015183820152602001613f00565b83811115613f27576000848401525b50505050565b601f01601f191690565b613f4081613ec9565b8114613f4b57600080fd5b50565b613f4081613eda56fea365627a7a723158208c549505acb2e1c60af975b3aed6834f673e5f1212838477a947ffc1f19405e46c6578706572696d656e74616cf564736f6c63430005110040",
  "source": "pragma solidity >=0.4.21 <0.7.0;\r\npragma experimental ABIEncoderV2;\r\n\r\n\r\ncontract optimized_healthCare {\r\n\r\n  address private owner;\r\n  mapping (address => doctor) private doctors;\r\n  \r\n  mapping (address => patient) private patients; //mapping patients to their addresses\r\n  mapping (address => mapping (address => uint16)) private patientToDoctor; //patients and list of doctors allowed access to\r\n  mapping (address => mapping (bytes32 => uint16)) private patientToFile; //files mapped to patients\r\n  mapping (address => files[]) private patientFiles;\r\n  mapping (address => hospital) private hospitals;\r\n  mapping (address => insuranceComp) insuranceCompanies;\r\n  \r\n  \r\n  //structure of patient file\r\n  struct files{\r\n      string file_name;\r\n      string file_type;\r\n      string file_hash;\r\n  }\r\n  \r\n  //structure of hospital\r\n  struct hospital{\r\n    address id;  \r\n    string name;\r\n    string location;\r\n  }\r\n  \r\n  //structure of Insurance companies\r\n  struct insuranceComp{\r\n    address id;  \r\n    string name;\r\n    mapping (address => uint8) regPatientsMapping;\r\n    address[] regPatients;\r\n  }\r\n  \r\n\r\n  //structure of patient info\r\n  struct patient {\r\n    string name;\r\n    uint8 age;\r\n    address id;\r\n    string gender;\r\n    string contact_info;\r\n\r\n    bytes32[] files;// hashes of file that belong to this user for display purpose\r\n    address[] doctor_list;\r\n  }\r\n  \r\n \r\n  //structure of doctor info\r\n  struct doctor {\r\n      string name;\r\n      address id;\r\n      \r\n      string contact;\r\n      string specialization;\r\n      address[] patient_list;\r\n  }\r\n  \r\n\r\n  //setting the owner\r\n  constructor() public {\r\n    owner = 0x5686638C16d74B6ef74CA24A10098a9360AC73F0;\r\n  }\r\n  \r\n  //verify doctor \r\n  modifier checkDoctor(address id) {\r\n    doctor memory d = doctors[id];\r\n    require(d.id > address(0x0));//check if doctor exist\r\n    _;\r\n  }\r\n  \r\n  //verify patient\r\n  modifier checkPatient(address id) {\r\n    patient memory p = patients[id];\r\n    require(p.id > address(0x0));//check if patient exist\r\n    _;\r\n  }\r\n\r\n \r\n  //owner verification modifier\r\n  modifier onlyOwner() {\r\n    require(msg.sender == owner);\r\n    _;\r\n  }\r\n   \r\n\r\n\r\n  function hospitalSignUp(address _id, string memory _name, string memory _location ) public onlyOwner() {\r\n    \r\n    hospital memory h= hospitals[_id];\r\n    require(!(h.id > address(0x0)));\r\n    require(keccak256(abi.encodePacked(_name)) != keccak256(\"\"));\r\n    hospitals[_id] = hospital({id:_id, name:_name, location: _location});\r\n  }\r\n\r\n  //Event to emit when new patient registers\r\n  event patientSignUp( address _patient, string message);\r\n\r\n  function signupPatient(string memory _name, uint8 _age, string memory _contact, string memory _gender) public {\r\n\r\n    //search for patient on blockchain by address \r\n    patient storage p = patients[msg.sender];\r\n    //check input name and age\r\n    require(keccak256(abi.encodePacked(_name)) != keccak256(\"\"));\r\n    require((_age > 0) && (_age < 100));\r\n    //Check if the patient already exists by address\r\n    require(!(p.id > address(0x0)));\r\n    //Add patient to blockchain\r\n    patients[msg.sender] = patient({name:_name, age:_age, id:msg.sender, gender:_gender, contact_info:_contact, files:new bytes32[](0), doctor_list:new address[](0)});\r\n    \r\n\r\n    emit patientSignUp( msg.sender, \"Registered as Patient\");\r\n  }\r\n  \r\n\r\n  //Event to emit when new doctor registers\r\n  event doctorSignUp(address _doctor, string message);\r\n\r\n  function signupDoctor(address _id, string memory _name, string memory _contact, string memory _specialization) public {\r\n\r\n      //search for doctor on blockchain\r\n      doctor storage d = doctors[_id];\r\n      //check name of doctor\r\n      require(keccak256(abi.encodePacked(_name)) != keccak256(\"\"));\r\n      //check if doctor already exists\r\n      require(!(d.id > address(0x0)));\r\n      //Add the doctor to blockchain\r\n      doctors[_id] = doctor({name:_name, id:_id, contact:_contact, specialization: _specialization, patient_list:new address[](0)});\r\n     \r\n      emit doctorSignUp(_id, \"Registered as Doctor\");\r\n  }\r\n\r\n\r\n  //Event to emit when patient grants access to doctor\r\n  event grantDoctorAccess( address patient_address, string message, string _doctor, address doctor_address);\r\n  \r\n  function grantAccessToDoctor(address doctor_id) public checkPatient(msg.sender) checkDoctor(doctor_id) {\r\n      \r\n      patient storage p = patients[msg.sender];\r\n      doctor storage d = doctors[doctor_id];\r\n      require(patientToDoctor[msg.sender][doctor_id] < 1);// this means doctor already been access\r\n      \r\n      uint16 pos = (uint16)(p.doctor_list.push(doctor_id));// new length of array\r\n      \r\n      patientToDoctor[msg.sender][doctor_id] = pos;\r\n      d.patient_list.push(msg.sender);\r\n\r\n   \r\n      \r\n      emit grantDoctorAccess( msg.sender , \"Granted access to doctor\", d.name , doctor_id);\r\n  }\r\n\r\n  //Event to emit when patient revokes a doctor's access\r\n  event revokeDoctorAccess(address patient_address, string message, string _doctor, address doctor_address);\r\n\r\n  function revokeAccessFromDoctor(address doctor_id) public checkPatient(msg.sender){\r\n    require(patientToDoctor[msg.sender][doctor_id] > 0);\r\n    patientToDoctor[msg.sender][doctor_id] = 0;\r\n\r\n\r\n    patient storage p = patients[msg.sender];\r\n    doctor storage d = doctors[doctor_id];\r\n\r\n    uint16 pdlength= (uint16)(p.doctor_list.length);\r\n    uint16 pos=0;\r\n\r\n    for (uint16 i = 0; i < pdlength; i++) {\r\n      if(p.doctor_list[i] == doctor_id)\r\n      {\r\n        pos=i;\r\n        break;\r\n      }\r\n    }\r\n\r\n    for(;pos<pdlength-1;pos++)\r\n    {\r\n      p.doctor_list[pos]= p.doctor_list[pos+1];\r\n    }\r\n\r\n    p.doctor_list.pop();\r\n\r\n    pdlength= (uint16)(d.patient_list.length);\r\n    pos=0;\r\n\r\n    for (uint16 i = 0; i < pdlength; i++) {\r\n      if(d.patient_list[i] == msg.sender)\r\n      {\r\n        pos=i;\r\n        break;\r\n      }\r\n    }\r\n\r\n    for(;pos<pdlength-1;pos++)\r\n    {\r\n      d.patient_list[pos]= d.patient_list[pos+1];\r\n    }\r\n\r\n    d.patient_list.pop();\r\n\r\n    emit revokeDoctorAccess(msg.sender, \"Revoked access of doctor\", d.name, doctor_id);\r\n  }\r\n  \r\n\r\n\r\n  function addUserFiles(string memory _file_name, string memory _file_type,string memory _file_hash) public{\r\n\r\n    patientFiles[msg.sender].push(files({file_name:_file_name, file_type:_file_type,file_hash:_file_hash}));\r\n\r\n  }\r\n\r\n\r\n  function getUserFiles(address sender)public view returns(files[] memory){\r\n      return patientFiles[sender];\r\n  }\r\n\r\n\r\n\r\n  function getPatientInfo() public view checkPatient(msg.sender) returns(string memory,address, uint8, bytes32[] memory , address[] memory, string memory, string memory) {\r\n      patient memory p = patients[msg.sender];\r\n      return (p.name, p.id, p.age, p.files, p.doctor_list, p.gender, p.contact_info );\r\n  }\r\n\r\n\r\n\r\n  function getDoctorInfo() public view checkDoctor(msg.sender) returns(string memory, address, address[] memory, string memory, string memory) {\r\n      doctor memory d = doctors[msg.sender];\r\n      return (d.name, d.id, d.patient_list, d.contact, d.specialization);\r\n  }\r\n  \r\n  \r\n  \r\n  function getPatientInfoForDoctor(address pat) public view returns(string memory, uint8, address, files[] memory){\r\n      patient memory p = patients[pat];\r\n      return (p.name, p.age, p.id, patientFiles[pat]);\r\n    }\r\n\r\n  function getHospitalInfo() public view returns(address, string memory, string memory)\r\n  {\r\n    hospital memory h = hospitals[msg.sender];\r\n    return (h.id, h.name, h.location);\r\n  }\r\n\r\n  function getOwnerInfo() public view  onlyOwner() returns(address)\r\n  {\r\n    return (owner);\r\n  }\r\n\r\n  function hospitalGrantAccess(address _user, address _patient) public checkPatient(_patient)\r\n  {\r\n    doctor storage d = doctors[_user];\r\n    patient storage p = patients[_patient];\r\n    if(d.id > address(0x0))\r\n    {\r\n      require(patientToDoctor[_patient][_user] < 1);// this means doctor already been access\r\n      \r\n      uint16 pos = (uint16)(p.doctor_list.push(_user));// new length of array\r\n      \r\n      patientToDoctor[_patient][_user] = pos;\r\n      d.patient_list.push(_patient);    \r\n    }\r\n  }\r\n\r\n  function addHospital(address _id, string memory _name, string memory _location) public onlyOwner(){\r\n    hospital memory h = hospitals[_id];\r\n    require(!(h.id > address(0x0)));\r\n    hospitals[_id] = hospital({id:_id, name:_name, location:_location});\r\n  }\r\n \r\n  function regInsuranceComp(address _id, string memory _name) public onlyOwner() {\r\n    insuranceComp memory i= insuranceCompanies[_id];\r\n    require(!(i.id> address(0x0)));\r\n    insuranceCompanies[_id] = insuranceComp({id:_id, name:_name, regPatients: new address[](0)});\r\n  } \r\n\r\n  function getInsuranceCompInfo() public view returns(address,string memory, address[] memory){\r\n    insuranceComp memory i= insuranceCompanies[msg.sender];\r\n    return(i.id,i.name,i.regPatients);\r\n  }\r\n\r\n  function addPatientToInsuranceComp(address _insuranceComp, address _pat) public{\r\n    insuranceComp storage i = insuranceCompanies[_insuranceComp];\r\n    require(i.regPatientsMapping[_pat]<1);\r\n    uint8 pos=(uint8)(i.regPatients.push(_pat));\r\n    i.regPatientsMapping[_pat]=pos;\r\n  }\r\n}",
  "sourcePath": "C:\\Users\\URVASHI\\OneDrive\\Desktop\\Mnnit files\\THESIS WORK\\Thesis project\\My_projects\\EHR using Blockchain 1.1\\contracts\\optimized_healthCare.sol",
  "compiler": {
    "name": "solc",
    "version": "0.5.17+commit.d19bba13.Emscripten.clang"
  },
  "schemaVersion": "3.4.4",
  "updatedAt": "2022-04-25T04:19:17.841Z",
  "networkType": "ethereum",
  "devdoc": {
    "methods": {}
  },
  "userdoc": {
    "methods": {}
  }
}