{
  "contractName": "Patient",
  "abi": [
    {
      "constant": true,
      "inputs": [],
      "name": "even",
      "outputs": [
        {
          "internalType": "contract Event",
          "name": "",
          "type": "address"
        }
      ],
      "payable": false,
      "stateMutability": "view",
      "type": "function"
    },
    {
      "constant": true,
      "inputs": [],
      "name": "getPatientInfo",
      "outputs": [
        {
          "internalType": "string",
          "name": "",
          "type": "string"
        },
        {
          "internalType": "uint8",
          "name": "",
          "type": "uint8"
        },
        {
          "internalType": "bytes32[]",
          "name": "",
          "type": "bytes32[]"
        },
        {
          "internalType": "address[]",
          "name": "",
          "type": "address[]"
        }
      ],
      "payable": false,
      "stateMutability": "view",
      "type": "function"
    },
    {
      "constant": false,
      "inputs": [
        {
          "internalType": "string",
          "name": "_name",
          "type": "string"
        },
        {
          "internalType": "uint8",
          "name": "_age",
          "type": "uint8"
        }
      ],
      "name": "signupPatient",
      "outputs": [],
      "payable": false,
      "stateMutability": "nonpayable",
      "type": "function"
    }
  ],
  "bytecode": "0x608060405234801561001057600080fd5b50610fe0806100206000396000f3fe608060405234801561001057600080fd5b50600436106100415760003560e01c80632863a17d14610046578063326df664146100905780637120203a146101b0575b600080fd5b61004e610278565b604051808273ffffffffffffffffffffffffffffffffffffffff1673ffffffffffffffffffffffffffffffffffffffff16815260200191505060405180910390f35b61009861029d565b60405180806020018560ff1660ff1681526020018060200180602001848103845288818151815260200191508051906020019080838360005b838110156100ec5780820151818401526020810190506100d1565b50505050905090810190601f1680156101195780820380516001836020036101000a031916815260200191505b50848103835286818151815260200191508051906020019060200280838360005b8381101561015557808201518184015260208101905061013a565b50505050905001848103825285818151815260200191508051906020019060200280838360005b8381101561019757808201518184015260208101905061017c565b5050505090500197505050505050505060405180910390f35b610276600480360360408110156101c657600080fd5b81019080803590602001906401000000008111156101e357600080fd5b8201836020820111156101f557600080fd5b8035906020019184600183028401116401000000008311171561021757600080fd5b91908080601f016020809104026020016040519081016040528093929190818152602001838380828437600081840152601f19601f820116905080830192505050505050509192919290803560ff1690602001909291905050506107ae565b005b6000809054906101000a900473ffffffffffffffffffffffffffffffffffffffff1681565b60606000606080336102ad610d7f565b600160008373ffffffffffffffffffffffffffffffffffffffff1673ffffffffffffffffffffffffffffffffffffffff1681526020019081526020016000206040518060a0016040529081600082018054600181600116156101000203166002900480601f0160208091040260200160405190810160405280929190818152602001828054600181600116156101000203166002900480156103905780601f1061036557610100808354040283529160200191610390565b820191906000526020600020905b81548152906001019060200180831161037357829003601f168201915b505050505081526020016001820160009054906101000a900460ff1660ff1660ff1681526020016001820160019054906101000a900473ffffffffffffffffffffffffffffffffffffffff1673ffffffffffffffffffffffffffffffffffffffff1673ffffffffffffffffffffffffffffffffffffffff1681526020016002820180548060200260200160405190810160405280929190818152602001828054801561045b57602002820191906000526020600020905b815481526020019060010190808311610447575b50505050508152602001600382018054806020026020016040519081016040528092919081815260200182805480156104e957602002820191906000526020600020905b8160009054906101000a900473ffffffffffffffffffffffffffffffffffffffff1673ffffffffffffffffffffffffffffffffffffffff168152602001906001019080831161049f575b5050505050815250509050600073ffffffffffffffffffffffffffffffffffffffff16816040015173ffffffffffffffffffffffffffffffffffffffff161161053157600080fd5b610539610d7f565b600160003373ffffffffffffffffffffffffffffffffffffffff1673ffffffffffffffffffffffffffffffffffffffff1681526020019081526020016000206040518060a0016040529081600082018054600181600116156101000203166002900480601f01602080910402602001604051908101604052809291908181526020018280546001816001161561010002031660029004801561061c5780601f106105f15761010080835404028352916020019161061c565b820191906000526020600020905b8154815290600101906020018083116105ff57829003601f168201915b505050505081526020016001820160009054906101000a900460ff1660ff1660ff1681526020016001820160019054906101000a900473ffffffffffffffffffffffffffffffffffffffff1673ffffffffffffffffffffffffffffffffffffffff1673ffffffffffffffffffffffffffffffffffffffff168152602001600282018054806020026020016040519081016040528092919081815260200182805480156106e757602002820191906000526020600020905b8154815260200190600101908083116106d3575b505050505081526020016003820180548060200260200160405190810160405280929190818152602001828054801561077557602002820191906000526020600020905b8160009054906101000a900473ffffffffffffffffffffffffffffffffffffffff1673ffffffffffffffffffffffffffffffffffffffff168152602001906001019080831161072b575b50505050508152505090508060000151816020015182606001518360800151839350819150809050965096509650965050505090919293565b6107b6610d7f565b600160003373ffffffffffffffffffffffffffffffffffffffff1673ffffffffffffffffffffffffffffffffffffffff1681526020019081526020016000206040518060a0016040529081600082018054600181600116156101000203166002900480601f0160208091040260200160405190810160405280929190818152602001828054600181600116156101000203166002900480156108995780601f1061086e57610100808354040283529160200191610899565b820191906000526020600020905b81548152906001019060200180831161087c57829003601f168201915b505050505081526020016001820160009054906101000a900460ff1660ff1660ff1681526020016001820160019054906101000a900473ffffffffffffffffffffffffffffffffffffffff1673ffffffffffffffffffffffffffffffffffffffff1673ffffffffffffffffffffffffffffffffffffffff1681526020016002820180548060200260200160405190810160405280929190818152602001828054801561096457602002820191906000526020600020905b815481526020019060010190808311610950575b50505050508152602001600382018054806020026020016040519081016040528092919081815260200182805480156109f257602002820191906000526020600020905b8160009054906101000a900473ffffffffffffffffffffffffffffffffffffffff1673ffffffffffffffffffffffffffffffffffffffff16815260200190600101908083116109a8575b50505050508152505090506040518060000190506040518091039020836040516020018082805190602001908083835b60208310610a455780518252602082019150602081019050602083039250610a22565b6001836020036101000a038019825116818451168082178552505050505050905001915050604051602081830303815290604052805190602001201415610a8b57600080fd5b60008260ff16118015610aa1575060648260ff16105b610aaa57600080fd5b600073ffffffffffffffffffffffffffffffffffffffff16816040015173ffffffffffffffffffffffffffffffffffffffff161115610ae857600080fd5b6040518060a001604052808481526020018360ff1681526020013373ffffffffffffffffffffffffffffffffffffffff1681526020016000604051908082528060200260200182016040528015610b4e5781602001602082028038833980820191505090505b5081526020016000604051908082528060200260200182016040528015610b845781602001602082028038833980820191505090505b50815250600160003373ffffffffffffffffffffffffffffffffffffffff1673ffffffffffffffffffffffffffffffffffffffff1681526020019081526020016000206000820151816000019080519060200190610be3929190610dc7565b5060208201518160010160006101000a81548160ff021916908360ff16021790555060408201518160010160016101000a81548173ffffffffffffffffffffffffffffffffffffffff021916908373ffffffffffffffffffffffffffffffffffffffff1602179055506060820151816002019080519060200190610c68929190610e47565b506080820151816003019080519060200190610c85929190610e94565b509050506000809054906101000a900473ffffffffffffffffffffffffffffffffffffffff1673ffffffffffffffffffffffffffffffffffffffff1663d67dcd96336040518263ffffffff1660e01b8152600401808273ffffffffffffffffffffffffffffffffffffffff1673ffffffffffffffffffffffffffffffffffffffff16815260200180602001828103825260158152602001807f526567697374657265642061732050617469656e74000000000000000000000081525060200192505050600060405180830381600087803b158015610d6257600080fd5b505af1158015610d76573d6000803e3d6000fd5b50505050505050565b6040518060a0016040528060608152602001600060ff168152602001600073ffffffffffffffffffffffffffffffffffffffff16815260200160608152602001606081525090565b828054600181600116156101000203166002900490600052602060002090601f016020900481019282601f10610e0857805160ff1916838001178555610e36565b82800160010185558215610e36579182015b82811115610e35578251825591602001919060010190610e1a565b5b509050610e439190610f1e565b5090565b828054828255906000526020600020908101928215610e83579160200282015b82811115610e82578251825591602001919060010190610e67565b5b509050610e909190610f43565b5090565b828054828255906000526020600020908101928215610f0d579160200282015b82811115610f0c5782518260006101000a81548173ffffffffffffffffffffffffffffffffffffffff021916908373ffffffffffffffffffffffffffffffffffffffff16021790555091602001919060010190610eb4565b5b509050610f1a9190610f68565b5090565b610f4091905b80821115610f3c576000816000905550600101610f24565b5090565b90565b610f6591905b80821115610f61576000816000905550600101610f49565b5090565b90565b610fa891905b80821115610fa457600081816101000a81549073ffffffffffffffffffffffffffffffffffffffff021916905550600101610f6e565b5090565b9056fea265627a7a7231582045c310d598d6e2584bc7a32a1671bf21d694f020f194cf1c1970fcf73e7a2f4364736f6c63430005100032",
  "source": "pragma solidity >=0.4.21 <0.7.0;\r\nimport \"./Events.sol\";\r\n\r\ncontract Patient {\r\n    Event public even;\r\n\r\n    mapping (address => patient) internal patients;\r\n    mapping (address => mapping (address => uint)) internal patientToDoctor;\r\n    mapping (address => mapping (bytes32 => uint)) internal patientToFile;\r\n    \r\n    struct patient {\r\n        string name;\r\n        uint8 age;\r\n        address id;\r\n        bytes32[] files;// hashes of file that belong to this user for display purpose\r\n        address[]  doctor_list;\r\n    }\r\n    \r\n    modifier checkPatient(address id) {\r\n        patient memory p = patients[id];\r\n        require(p.id > address(0x0));//check if patient exist\r\n        _;\r\n    }\r\n    \r\n    function getPatientInfo() public view checkPatient(msg.sender) returns(string memory, uint8, bytes32[] memory, address[] memory) {\r\n        patient memory p = patients[msg.sender];\r\n        return (p.name, p.age, p.files, p.doctor_list);\r\n    }\r\n    \r\n    function signupPatient(string memory _name, uint8 _age) public {\r\n        patient memory p = patients[msg.sender];\r\n        require(keccak256(abi.encodePacked(_name)) != keccak256(\"\"));\r\n        require((_age > 0) && (_age < 100));\r\n        require(!(p.id > address(0x0)));\r\n\r\n        patients[msg.sender] = patient({name:_name,age:_age,id:msg.sender,files:new bytes32[](0),doctor_list:new address[](0)});\r\n        even.patientRegisteredCall(msg.sender, \"Registered as Patient\");\r\n\r\n    }\r\n\r\n}",
  "sourcePath": "C:\\Users\\URVASHI\\OneDrive\\Desktop\\Mnnit files\\THESIS WORK\\Thesis project\\My_projects\\Ethereum-EHR\\contracts\\patient.sol",
  "compiler": {
    "name": "solc",
    "version": "0.5.16+commit.9c3226ce.Emscripten.clang"
  },
  "schemaVersion": "3.4.4",
  "updatedAt": "2022-03-08T05:18:21.670Z",
  "devdoc": {
    "methods": {}
  },
  "userdoc": {
    "methods": {}
  }
}